{
	"data": {
		"bytecode": {
			"linkReferences": {},
			"object": "60a060405234801562000010575f80fd5b506040516200438238038062004382833981810160405281019062000036919062000360565b80600483600161b2fa683635c9adc5dea000006040518060400160405280601081526020017f476f7665726e6f72436f6e747261637400000000000000000000000000000000815250805f90816200008f919062000609565b5050620000a2836200012860201b60201c565b620000b3826200017760201b60201c565b620000c481620001c660201b60201c565b5050508073ffffffffffffffffffffffffffffffffffffffff1660808173ffffffffffffffffffffffffffffffffffffffff1681525050506200010d81620001d060201b60201c565b506200011f816200026360201b60201c565b505050620008f5565b5f81116200016d576040517f08c379a0000000000000000000000000000000000000000000000000000000008152600401620001649062000771565b60405180910390fd5b8060038190555050565b5f8111620001bc576040517f08c379a0000000000000000000000000000000000000000000000000000000008152600401620001b39062000805565b60405180910390fd5b8060048190555050565b8060058190555050565b606481111562000217576040517f08c379a00000000000000000000000000000000000000000000000000000000081526004016200020e9062000899565b60405180910390fd5b5f6007549050816007819055507f0553476bf02ef2726e8ce5ced78d63e26e602e4a2257b1f559418e24b4633997818360405162000257929190620008ca565b60405180910390a15050565b8060085f6101000a81548173ffffffffffffffffffffffffffffffffffffffff021916908373ffffffffffffffffffffffffffffffffffffffff16021790555050565b5f80fd5b5f73ffffffffffffffffffffffffffffffffffffffff82169050919050565b5f620002d582620002aa565b9050919050565b5f620002e882620002c9565b9050919050565b620002fa81620002dc565b811462000305575f80fd5b50565b5f815190506200031881620002ef565b92915050565b5f6200032a82620002c9565b9050919050565b6200033c816200031e565b811462000347575f80fd5b50565b5f815190506200035a8162000331565b92915050565b5f8060408385031215620003795762000378620002a6565b5b5f620003888582860162000308565b92505060206200039b858286016200034a565b9150509250929050565b5f81519050919050565b7f4e487b71000000000000000000000000000000000000000000000000000000005f52604160045260245ffd5b7f4e487b71000000000000000000000000000000000000000000000000000000005f52602260045260245ffd5b5f60028204905060018216806200042157607f821691505b602082108103620004375762000436620003dc565b5b50919050565b5f819050815f5260205f209050919050565b5f6020601f8301049050919050565b5f82821b905092915050565b5f600883026200049b7fffffffffffffffffffffffffffffffffffffffffffffffffffffffffffffffff826200045e565b620004a786836200045e565b95508019841693508086168417925050509392505050565b5f819050919050565b5f819050919050565b5f620004f1620004eb620004e584620004bf565b620004c8565b620004bf565b9050919050565b5f819050919050565b6200050c83620004d1565b620005246200051b82620004f8565b8484546200046a565b825550505050565b5f90565b6200053a6200052c565b6200054781848462000501565b505050565b5b818110156200056e57620005625f8262000530565b6001810190506200054d565b5050565b601f821115620005bd5762000587816200043d565b62000592846200044f565b81016020851015620005a2578190505b620005ba620005b1856200044f565b8301826200054c565b50505b505050565b5f82821c905092915050565b5f620005df5f1984600802620005c2565b1980831691505092915050565b5f620005f98383620005ce565b9150826002028217905092915050565b6200061482620003a5565b67ffffffffffffffff81111562000630576200062f620003af565b5b6200063c825462000409565b6200064982828562000572565b5f60209050601f8311600181146200067f575f84156200066a578287015190505b620006768582620005ec565b865550620006e5565b601f1984166200068f866200043d565b5f5b82811015620006b85784890151825560018201915060208501945060208101905062000691565b86831015620006d85784890151620006d4601f891682620005ce565b8355505b6001600288020188555050505b505050505050565b5f82825260208201905092915050565b7f476f7665726e6f7253657474696e67733a20766f74696e672064656c6179206d5f8201527f7573742062652067726561746572207468616e20300000000000000000000000602082015250565b5f62000759603583620006ed565b91506200076682620006fd565b604082019050919050565b5f6020820190508181035f8301526200078a816200074b565b9050919050565b7f476f7665726e6f7253657474696e67733a20766f74696e6720706572696f64205f8201527f6d7573742062652067726561746572207468616e203000000000000000000000602082015250565b5f620007ed603683620006ed565b9150620007fa8262000791565b604082019050919050565b5f6020820190508181035f8301526200081e81620007df565b9050919050565b7f476f7665726e6f72566f74657351756f72756d4672616374696f6e3a2071756f5f8201527f72756d20746f6f20686967680000000000000000000000000000000000000000602082015250565b5f62000881602c83620006ed565b91506200088e8262000825565b604082019050919050565b5f6020820190508181035f830152620008b28162000873565b9050919050565b620008c481620004bf565b82525050565b5f604082019050620008df5f830185620008b9565b620008ee6020830184620008b9565b9392505050565b608051613a666200091c5f395f818161104b0152818161130d01526118760152613a665ff3fe6080604052600436106101e2575f3560e01c80635f398a1411610101578063c01f9e3711610094578063dd4e2ba511610063578063dd4e2ba5146107b4578063eb9019d4146107de578063f8ce560a1461081a578063fc0c546a14610856576101e2565b8063c01f9e37146106ea578063c28bc2fa14610726578063c59057e41461074e578063d33219b41461078a576101e2565b80639a802a6d116100d05780639a802a6d1461061e578063a7713a701461065a578063a9a9529414610684578063b58131b0146106c0576101e2565b80635f398a14146105405780637b3c71d31461057c5780637d5e81e2146105b857806391ddadf4146105f4576101e2565b80633932abb111610179578063452115d611610148578063452115d6146104745780634bf5d7e9146104b057806354fd4d50146104da5780635678138814610504576101e2565b80633932abb1146103965780633bccf4fd146103c05780633e4f49e6146103fc5780634385963214610438576101e2565b8063143489d0116101b5578063143489d0146102b2578063160cbed7146102ee5780632656227d1461032a5780632d63f6931461035a576101e2565b806301ffc9a7146101e657806302a251a314610222578063034201811461024c57806306fdde0314610288575b5f80fd5b3480156101f1575f80fd5b5061020c60048036038101906102079190611f52565b610880565b6040516102199190611f97565b60405180910390f35b34801561022d575f80fd5b50610236610891565b6040516102439190611fc8565b60405180910390f35b348015610257575f80fd5b50610272600480360381019061026d919061212a565b61089f565b60405161027f9190611fc8565b60405180910390f35b348015610293575f80fd5b5061029c6108db565b6040516102a99190612290565b60405180910390f35b3480156102bd575f80fd5b506102d860048036038101906102d391906122b0565b61096a565b6040516102e5919061231a565b60405180910390f35b3480156102f9575f80fd5b50610314600480360381019061030f91906126e3565b6109a5565b6040516103219190611fc8565b60405180910390f35b610344600480360381019061033f91906126e3565b610a70565b6040516103519190611fc8565b60405180910390f35b348015610365575f80fd5b50610380600480360381019061037b91906122b0565b610b76565b60405161038d9190611fc8565b60405180910390f35b3480156103a1575f80fd5b506103aa610bdf565b6040516103b79190611fc8565b60405180910390f35b3480156103cb575f80fd5b506103e660048036038101906103e1919061279b565b610bed565b6040516103f39190611fc8565b60405180910390f35b348015610407575f80fd5b50610422600480360381019061041d91906122b0565b610c29565b60405161042f9190612885565b60405180910390f35b348015610443575f80fd5b5061045e6004803603810190610459919061289e565b610c3a565b60405161046b9190611f97565b60405180910390f35b34801561047f575f80fd5b5061049a600480360381019061049591906126e3565b610c4d565b6040516104a79190611fc8565b60405180910390f35b3480156104bb575f80fd5b506104c4610cc8565b6040516104d19190612290565b60405180910390f35b3480156104e5575f80fd5b506104ee610d05565b6040516104fb9190612290565b60405180910390f35b34801561050f575f80fd5b5061052a600480360381019061052591906128dc565b610d42565b6040516105379190611fc8565b60405180910390f35b34801561054b575f80fd5b506105666004803603810190610561919061291a565b610d7e565b6040516105739190611fc8565b60405180910390f35b348015610587575f80fd5b506105a2600480360381019061059d91906129bd565b610dba565b6040516105af9190611fc8565b60405180910390f35b3480156105c3575f80fd5b506105de60048036038101906105d99190612acc565b610df6565b6040516105eb9190611fc8565b60405180910390f35b3480156105ff575f80fd5b50610608611041565b6040516106159190612bc0565b60405180910390f35b348015610629575f80fd5b50610644600480360381019061063f9190612bd9565b611048565b6040516106519190611fc8565b60405180910390f35b348015610665575f80fd5b5061066e6110ec565b60405161067b9190611fc8565b60405180910390f35b34801561068f575f80fd5b506106aa60048036038101906106a591906122b0565b6110f5565b6040516106b79190611f97565b60405180910390f35b3480156106cb575f80fd5b506106d4611106565b6040516106e19190611fc8565b60405180910390f35b3480156106f5575f80fd5b50610710600480360381019061070b91906122b0565b611114565b60405161071d9190611fc8565b60405180910390f35b348015610731575f80fd5b5061074c60048036038101906107479190612c45565b61117d565b005b348015610759575f80fd5b50610774600480360381019061076f91906126e3565b611267565b6040516107819190611fc8565b60405180910390f35b348015610795575f80fd5b5061079e6112a1565b6040516107ab9190612d11565b60405180910390f35b3480156107bf575f80fd5b506107c86112c9565b6040516107d59190612290565b60405180910390f35b3480156107e9575f80fd5b5061080460048036038101906107ff9190612d2a565b6112d8565b6040516108119190611fc8565b60405180910390f35b348015610825575f80fd5b50610840600480360381019061083b91906122b0565b6112fa565b60405161084d9190611fc8565b60405180910390f35b348015610861575f80fd5b5061086a61130b565b6040516108779190612d88565b60405180910390f35b5f61088a8261132f565b9050919050565b5f61089a6113a8565b905090565b5f6040517f08c379a00000000000000000000000000000000000000000000000000000000081526004016108d290612deb565b60405180910390fd5b60605f80546108e990612e36565b80601f016020809104026020016040519081016040528092919081815260200182805461091590612e36565b80156109605780601f1061093757610100808354040283529160200191610960565b820191905f5260205f20905b81548152906001019060200180831161094357829003601f168201915b5050505050905090565b5f60025f8381526020019081526020015f205f015f9054906101000a900473ffffffffffffffffffffffffffffffffffffffff169050919050565b5f6109b285858585611267565b9050600460078111156109c8576109c7612812565b5b6109d182610c29565b60078111156109e3576109e2612812565b5b14610a23576040517f08c379a0000000000000000000000000000000000000000000000000000000008152600401610a1a90612ed6565b60405180910390fd5b610a3081868686866113b1565b507f3358bd34aca93e3ad9a243de48c96b8a820ec804097b77ee85179c1bcdfe9e9f81604051610a609190611fc8565b60405180910390a1949350505050565b5f610a7d85858585611267565b905060046007811115610a9357610a92612812565b5b610a9c82610c29565b6007811115610aae57610aad612812565b5b1480610abf5750610abe816110f5565b5b610afe576040517f08c379a0000000000000000000000000000000000000000000000000000000008152600401610af590612ed6565b60405180910390fd5b610b0b81868686866113ca565b600160025f8381526020019081526020015f206003015f6101000a81548160ff0219169083151502179055507f712ae1383f79ac853f8d882153778e0260ef8f03b504e2866e0593e04d2b291f81604051610b669190611fc8565b60405180910390a1949350505050565b5f610bce60025f8481526020019081526020015f206001016040518060200160405290815f82015f9054906101000a900467ffffffffffffffff1667ffffffffffffffff1667ffffffffffffffff16815250506113de565b67ffffffffffffffff169050919050565b5f610be86113ea565b905090565b5f6040517f08c379a0000000000000000000000000000000000000000000000000000000008152600401610c2090612deb565b60405180910390fd5b5f610c33826113f3565b9050919050565b5f610c45838361159e565b905092915050565b5f610c5a85858585611603565b9050600160025f8381526020019081526020015f2060030160016101000a81548160ff0219169083151502179055507f789cf55be980739dad1d0699b93b58e806b51c9d96619bfa8fe0a28abaa7b30c81604051610cb89190611fc8565b60405180910390a1949350505050565b60606040518060400160405280601d81526020017f6d6f64653d626c6f636b6e756d6265722666726f6d3d64656661756c74000000815250905090565b60606040518060400160405280600181526020017f3100000000000000000000000000000000000000000000000000000000000000815250905090565b5f6040517f08c379a0000000000000000000000000000000000000000000000000000000008152600401610d7590612deb565b60405180910390fd5b5f6040517f08c379a0000000000000000000000000000000000000000000000000000000008152600401610db190612deb565b60405180910390fd5b5f6040517f08c379a0000000000000000000000000000000000000000000000000000000008152600401610ded90612deb565b60405180910390fd5b5f610dff611106565b610e1533600143610e109190612f21565b6112d8565b1015610e56576040517f08c379a0000000000000000000000000000000000000000000000000000000008152600401610e4d90612fc4565b60405180910390fd5b5f610e6a8686868680519060200120611267565b90505f610ec460025f8481526020019081526020015f206001016040518060200160405290815f82015f9054906101000a900467ffffffffffffffff1667ffffffffffffffff1667ffffffffffffffff16815250506113de565b67ffffffffffffffff1614610f0e576040517f08c379a0000000000000000000000000000000000000000000000000000000008152600401610f0590613052565b60405180910390fd5b5f610f1f610f1a610bdf565b61161a565b610f284361161a565b610f329190613083565b90505f610f45610f40610891565b61161a565b82610f509190613083565b90503360025f8581526020019081526020015f205f015f6101000a81548173ffffffffffffffffffffffffffffffffffffffff021916908373ffffffffffffffffffffffffffffffffffffffff160217905550610fc98260025f8681526020019081526020015f2060010161167090919063ffffffff16565b610fef8160025f8681526020019081526020015f2060020161167090919063ffffffff16565b827f95f03e437e6d5037418f12bef80fc7e0a5f27754c078a1d5d3f62d39bac44e50338a8a8a87878c60405161102b9796959493929190613369565b60405180910390a2829350505050949350505050565b5f43905090565b5f7f000000000000000000000000000000000000000000000000000000000000000073ffffffffffffffffffffffffffffffffffffffff16633a46b1a885856040518363ffffffff1660e01b81526004016110a49291906133f2565b602060405180830381865afa1580156110bf573d5f803e3d5ffd5b505050506040513d601f19601f820116820180604052508101906110e3919061342d565b90509392505050565b5f600754905090565b5f6110ff8261169d565b9050919050565b5f61110f6116d5565b905090565b5f61116c60025f8481526020019081526020015f206002016040518060200160405290815f82015f9054906101000a900467ffffffffffffffff1667ffffffffffffffff1667ffffffffffffffff16815250506113de565b67ffffffffffffffff169050919050565b3373ffffffffffffffffffffffffffffffffffffffff1661119c6116de565b73ffffffffffffffffffffffffffffffffffffffff16146111f2576040517f08c379a00000000000000000000000000000000000000000000000000000000081526004016111e9906134c8565b60405180910390fd5b61126082828080601f0160208091040260200160405190810160405280939291908181526020018383808284375f81840152601f19601f82011690508083019250505050505050848673ffffffffffffffffffffffffffffffffffffffff166116ec9092919063ffffffff16565b5050505050565b5f8484848460405160200161127f94939291906134f5565b604051602081830303815290604052805190602001205f1c9050949350505050565b5f60085f9054906101000a900473ffffffffffffffffffffffffffffffffffffffff16905090565b60606112d3611831565b905090565b5f6112f2838360405180602001604052805f815250611048565b905092915050565b5f6113048261186e565b9050919050565b7f000000000000000000000000000000000000000000000000000000000000000081565b5f7f5b3962bb000000000000000000000000000000000000000000000000000000007bffffffffffffffffffffffffffffffffffffffffffffffffffffffff1916827bffffffffffffffffffffffffffffffffffffffffffffffffffffffff191614806113a157506113a082611927565b5b9050919050565b5f600454905090565b5f6113bf8686868686611990565b905095945050505050565b6113d78585858585611b55565b5050505050565b5f815f01519050919050565b5f600354905090565b5f806113fe83611bef565b90506004600781111561141457611413612812565b5b81600781111561142757611426612812565b5b146114355780915050611599565b5f61143f84611d86565b905060085f9054906101000a900473ffffffffffffffffffffffffffffffffffffffff1673ffffffffffffffffffffffffffffffffffffffff16632ab0f529826040518263ffffffff1660e01b815260040161149b919061354d565b602060405180830381865afa1580156114b6573d5f803e3d5ffd5b505050506040513d601f19601f820116820180604052508101906114da9190613590565b156114ea57600792505050611599565b60085f9054906101000a900473ffffffffffffffffffffffffffffffffffffffff1673ffffffffffffffffffffffffffffffffffffffff1663584b153e826040518263ffffffff1660e01b8152600401611544919061354d565b602060405180830381865afa15801561155f573d5f803e3d5ffd5b505050506040513d601f19601f820116820180604052508101906115839190613590565b1561159357600592505050611599565b81925050505b919050565b5f60065f8481526020019081526020015f206003015f8373ffffffffffffffffffffffffffffffffffffffff1673ffffffffffffffffffffffffffffffffffffffff1681526020019081526020015f205f9054906101000a900460ff16905092915050565b5f61161085858585611d91565b9050949350505050565b5f67ffffffffffffffff8016821115611668576040517f08c379a000000000000000000000000000000000000000000000000000000000815260040161165f9061362b565b60405180910390fd5b819050919050565b80825f015f6101000a81548167ffffffffffffffff021916908367ffffffffffffffff1602179055505050565b5f600460078111156116b2576116b1612812565b5b6116bb83610c29565b60078111156116cd576116cc612812565b5b149050919050565b5f600554905090565b5f6116e7611e37565b905090565b606081471015611731576040517f08c379a0000000000000000000000000000000000000000000000000000000008152600401611728906136b9565b60405180910390fd5b61173a84611e5f565b611779576040517f08c379a000000000000000000000000000000000000000000000000000000000815260040161177090613721565b60405180910390fd5b5f808573ffffffffffffffffffffffffffffffffffffffff1684866040516117a19190613779565b5f6040518083038185875af1925050503d805f81146117db576040519150601f19603f3d011682016040523d82523d5f602084013e6117e0565b606091505b509150915081611825576040517f08c379a000000000000000000000000000000000000000000000000000000000815260040161181c906137ff565b60405180910390fd5b80925050509392505050565b60606040518060400160405280602081526020017f737570706f72743d627261766f2671756f72756d3d666f722c6162737461696e815250905090565b5f60646007547f000000000000000000000000000000000000000000000000000000000000000073ffffffffffffffffffffffffffffffffffffffff16638e539e8c856040518263ffffffff1660e01b81526004016118cd9190611fc8565b602060405180830381865afa1580156118e8573d5f803e3d5ffd5b505050506040513d601f19601f8201168201806040525081019061190c919061342d565b611916919061381d565b611920919061388b565b9050919050565b5f7f01ffc9a7000000000000000000000000000000000000000000000000000000007bffffffffffffffffffffffffffffffffffffffffffffffffffffffff1916827bffffffffffffffffffffffffffffffffffffffffffffffffffffffff1916149050919050565b5f60085f9054906101000a900473ffffffffffffffffffffffffffffffffffffffff1673ffffffffffffffffffffffffffffffffffffffff16638f2a0bb08686865f801b8760085f9054906101000a900473ffffffffffffffffffffffffffffffffffffffff1673ffffffffffffffffffffffffffffffffffffffff1663f27a0c926040518163ffffffff1660e01b8152600401602060405180830381865afa158015611a3f573d5f803e3d5ffd5b505050506040513d601f19601f82011682018060405250810190611a63919061342d565b6040518763ffffffff1660e01b8152600401611a84969594939291906138bb565b5f604051808303815f87803b158015611a9b575f80fd5b505af1158015611aad573d5f803e3d5ffd5b5050505060085f9054906101000a900473ffffffffffffffffffffffffffffffffffffffff1673ffffffffffffffffffffffffffffffffffffffff1663f27a0c926040518163ffffffff1660e01b8152600401602060405180830381865afa158015611b1b573d5f803e3d5ffd5b505050506040513d601f19601f82011682018060405250810190611b3f919061342d565b42611b4a919061392f565b905095945050505050565b60085f9054906101000a900473ffffffffffffffffffffffffffffffffffffffff1673ffffffffffffffffffffffffffffffffffffffff1663e38335e5348686865f801b876040518763ffffffff1660e01b8152600401611bba959493929190613962565b5f604051808303818588803b158015611bd1575f80fd5b505af1158015611be3573d5f803e3d5ffd5b50505050505050505050565b5f8060025f8481526020019081526020015f209050806003015f9054906101000a900460ff1615611c24576007915050611d81565b8060030160019054906101000a900460ff1615611c45576002915050611d81565b5f611c8d826001016040518060200160405290815f82015f9054906101000a900467ffffffffffffffff1667ffffffffffffffff1667ffffffffffffffff16815250506113de565b67ffffffffffffffff1690505f8103611cdb576040517f08c379a0000000000000000000000000000000000000000000000000000000008152600401611cd290613a12565b60405180910390fd5b804311611cec575f92505050611d81565b5f611d34836002016040518060200160405290815f82015f9054906101000a900467ffffffffffffffff1667ffffffffffffffff1667ffffffffffffffff16815250506113de565b67ffffffffffffffff169050804311611d535760019350505050611d81565b611d5c85611e81565b8015611d6d5750611d6c85611ec5565b5b611d78576003611d7b565b60045b93505050505b919050565b5f815f1b9050919050565b5f611d9e85858585611267565b905060085f9054906101000a900473ffffffffffffffffffffffffffffffffffffffff1673ffffffffffffffffffffffffffffffffffffffff1663c4d252f5611de683611d86565b6040518263ffffffff1660e01b8152600401611e02919061354d565b5f604051808303815f87803b158015611e19575f80fd5b505af1158015611e2b573d5f803e3d5ffd5b50505050949350505050565b5f60085f9054906101000a900473ffffffffffffffffffffffffffffffffffffffff16905090565b5f808273ffffffffffffffffffffffffffffffffffffffff163b119050919050565b5f8060065f8481526020019081526020015f209050611ea7611ea284610b76565b6112fa565b81600201548260010154611ebb919061392f565b1015915050919050565b5f8060065f8481526020019081526020015f209050805f0154816001015411915050919050565b5f604051905090565b5f80fd5b5f80fd5b5f7fffffffff0000000000000000000000000000000000000000000000000000000082169050919050565b611f3181611efd565b8114611f3b575f80fd5b50565b5f81359050611f4c81611f28565b92915050565b5f60208284031215611f6757611f66611ef5565b5b5f611f7484828501611f3e565b91505092915050565b5f8115159050919050565b611f9181611f7d565b82525050565b5f602082019050611faa5f830184611f88565b92915050565b5f819050919050565b611fc281611fb0565b82525050565b5f602082019050611fdb5f830184611fb9565b92915050565b611fea81611fb0565b8114611ff4575f80fd5b50565b5f8135905061200581611fe1565b92915050565b5f60ff82169050919050565b6120208161200b565b811461202a575f80fd5b50565b5f8135905061203b81612017565b92915050565b5f80fd5b5f80fd5b5f80fd5b5f8083601f84011261206257612061612041565b5b8235905067ffffffffffffffff81111561207f5761207e612045565b5b60208301915083600182028301111561209b5761209a612049565b5b9250929050565b5f8083601f8401126120b7576120b6612041565b5b8235905067ffffffffffffffff8111156120d4576120d3612045565b5b6020830191508360018202830111156120f0576120ef612049565b5b9250929050565b5f819050919050565b612109816120f7565b8114612113575f80fd5b50565b5f8135905061212481612100565b92915050565b5f805f805f805f805f60e08a8c03121561214757612146611ef5565b5b5f6121548c828d01611ff7565b99505060206121658c828d0161202d565b98505060408a013567ffffffffffffffff81111561218657612185611ef9565b5b6121928c828d0161204d565b975097505060608a013567ffffffffffffffff8111156121b5576121b4611ef9565b5b6121c18c828d016120a2565b955095505060806121d48c828d0161202d565b93505060a06121e58c828d01612116565b92505060c06121f68c828d01612116565b9150509295985092959850929598565b5f81519050919050565b5f82825260208201905092915050565b5f5b8381101561223d578082015181840152602081019050612222565b5f8484015250505050565b5f601f19601f8301169050919050565b5f61226282612206565b61226c8185612210565b935061227c818560208601612220565b61228581612248565b840191505092915050565b5f6020820190508181035f8301526122a88184612258565b905092915050565b5f602082840312156122c5576122c4611ef5565b5b5f6122d284828501611ff7565b91505092915050565b5f73ffffffffffffffffffffffffffffffffffffffff82169050919050565b5f612304826122db565b9050919050565b612314816122fa565b82525050565b5f60208201905061232d5f83018461230b565b92915050565b7f4e487b71000000000000000000000000000000000000000000000000000000005f52604160045260245ffd5b61236982612248565b810181811067ffffffffffffffff8211171561238857612387612333565b5b80604052505050565b5f61239a611eec565b90506123a68282612360565b919050565b5f67ffffffffffffffff8211156123c5576123c4612333565b5b602082029050602081019050919050565b6123df816122fa565b81146123e9575f80fd5b50565b5f813590506123fa816123d6565b92915050565b5f61241261240d846123ab565b612391565b9050808382526020820190506020840283018581111561243557612434612049565b5b835b8181101561245e578061244a88826123ec565b845260208401935050602081019050612437565b5050509392505050565b5f82601f83011261247c5761247b612041565b5b813561248c848260208601612400565b91505092915050565b5f67ffffffffffffffff8211156124af576124ae612333565b5b602082029050602081019050919050565b5f6124d26124cd84612495565b612391565b905080838252602082019050602084028301858111156124f5576124f4612049565b5b835b8181101561251e578061250a8882611ff7565b8452602084019350506020810190506124f7565b5050509392505050565b5f82601f83011261253c5761253b612041565b5b813561254c8482602086016124c0565b91505092915050565b5f67ffffffffffffffff82111561256f5761256e612333565b5b602082029050602081019050919050565b5f80fd5b5f67ffffffffffffffff82111561259e5761259d612333565b5b6125a782612248565b9050602081019050919050565b828183375f83830152505050565b5f6125d46125cf84612584565b612391565b9050828152602081018484840111156125f0576125ef612580565b5b6125fb8482856125b4565b509392505050565b5f82601f83011261261757612616612041565b5b81356126278482602086016125c2565b91505092915050565b5f61264261263d84612555565b612391565b9050808382526020820190506020840283018581111561266557612664612049565b5b835b818110156126ac57803567ffffffffffffffff81111561268a57612689612041565b5b8086016126978982612603565b85526020850194505050602081019050612667565b5050509392505050565b5f82601f8301126126ca576126c9612041565b5b81356126da848260208601612630565b91505092915050565b5f805f80608085870312156126fb576126fa611ef5565b5b5f85013567ffffffffffffffff81111561271857612717611ef9565b5b61272487828801612468565b945050602085013567ffffffffffffffff81111561274557612744611ef9565b5b61275187828801612528565b935050604085013567ffffffffffffffff81111561277257612771611ef9565b5b61277e878288016126b6565b925050606061278f87828801612116565b91505092959194509250565b5f805f805f60a086880312156127b4576127b3611ef5565b5b5f6127c188828901611ff7565b95505060206127d28882890161202d565b94505060406127e38882890161202d565b93505060606127f488828901612116565b925050608061280588828901612116565b9150509295509295909350565b7f4e487b71000000000000000000000000000000000000000000000000000000005f52602160045260245ffd5b600881106128505761284f612812565b5b50565b5f8190506128608261283f565b919050565b5f61286f82612853565b9050919050565b61287f81612865565b82525050565b5f6020820190506128985f830184612876565b92915050565b5f80604083850312156128b4576128b3611ef5565b5b5f6128c185828601611ff7565b92505060206128d2858286016123ec565b9150509250929050565b5f80604083850312156128f2576128f1611ef5565b5b5f6128ff85828601611ff7565b92505060206129108582860161202d565b9150509250929050565b5f805f805f806080878903121561293457612933611ef5565b5b5f61294189828a01611ff7565b965050602061295289828a0161202d565b955050604087013567ffffffffffffffff81111561297357612972611ef9565b5b61297f89828a0161204d565b9450945050606087013567ffffffffffffffff8111156129a2576129a1611ef9565b5b6129ae89828a016120a2565b92509250509295509295509295565b5f805f80606085870312156129d5576129d4611ef5565b5b5f6129e287828801611ff7565b94505060206129f38782880161202d565b935050604085013567ffffffffffffffff811115612a1457612a13611ef9565b5b612a208782880161204d565b925092505092959194509250565b5f67ffffffffffffffff821115612a4857612a47612333565b5b612a5182612248565b9050602081019050919050565b5f612a70612a6b84612a2e565b612391565b905082815260208101848484011115612a8c57612a8b612580565b5b612a978482856125b4565b509392505050565b5f82601f830112612ab357612ab2612041565b5b8135612ac3848260208601612a5e565b91505092915050565b5f805f8060808587031215612ae457612ae3611ef5565b5b5f85013567ffffffffffffffff811115612b0157612b00611ef9565b5b612b0d87828801612468565b945050602085013567ffffffffffffffff811115612b2e57612b2d611ef9565b5b612b3a87828801612528565b935050604085013567ffffffffffffffff811115612b5b57612b5a611ef9565b5b612b67878288016126b6565b925050606085013567ffffffffffffffff811115612b8857612b87611ef9565b5b612b9487828801612a9f565b91505092959194509250565b5f65ffffffffffff82169050919050565b612bba81612ba0565b82525050565b5f602082019050612bd35f830184612bb1565b92915050565b5f805f60608486031215612bf057612bef611ef5565b5b5f612bfd868287016123ec565b9350506020612c0e86828701611ff7565b925050604084013567ffffffffffffffff811115612c2f57612c2e611ef9565b5b612c3b86828701612603565b9150509250925092565b5f805f8060608587031215612c5d57612c5c611ef5565b5b5f612c6a878288016123ec565b9450506020612c7b87828801611ff7565b935050604085013567ffffffffffffffff811115612c9c57612c9b611ef9565b5b612ca8878288016120a2565b925092505092959194509250565b5f819050919050565b5f612cd9612cd4612ccf846122db565b612cb6565b6122db565b9050919050565b5f612cea82612cbf565b9050919050565b5f612cfb82612ce0565b9050919050565b612d0b81612cf1565b82525050565b5f602082019050612d245f830184612d02565b92915050565b5f8060408385031215612d4057612d3f611ef5565b5b5f612d4d858286016123ec565b9250506020612d5e85828601611ff7565b9150509250929050565b5f612d7282612ce0565b9050919050565b612d8281612d68565b82525050565b5f602082019050612d9b5f830184612d79565b92915050565b7f4e6f7420696d706c656d656e74656400000000000000000000000000000000005f82015250565b5f612dd5600f83612210565b9150612de082612da1565b602082019050919050565b5f6020820190508181035f830152612e0281612dc9565b9050919050565b7f4e487b71000000000000000000000000000000000000000000000000000000005f52602260045260245ffd5b5f6002820490506001821680612e4d57607f821691505b602082108103612e6057612e5f612e09565b5b50919050565b7f476f7665726e6f723a2070726f706f73616c206e6f74207375636365737366755f8201527f6c00000000000000000000000000000000000000000000000000000000000000602082015250565b5f612ec0602183612210565b9150612ecb82612e66565b604082019050919050565b5f6020820190508181035f830152612eed81612eb4565b9050919050565b7f4e487b71000000000000000000000000000000000000000000000000000000005f52601160045260245ffd5b5f612f2b82611fb0565b9150612f3683611fb0565b9250828203905081811115612f4e57612f4d612ef4565b5b92915050565b7f476f7665726e6f723a2070726f706f73657220766f7465732062656c6f7720745f8201527f68726573686f6c64000000000000000000000000000000000000000000000000602082015250565b5f612fae602883612210565b9150612fb982612f54565b604082019050919050565b5f6020820190508181035f830152612fdb81612fa2565b9050919050565b7f476f7665726e6f723a2070726f706f73616c20616c72656164792065786973745f8201527f7300000000000000000000000000000000000000000000000000000000000000602082015250565b5f61303c602183612210565b915061304782612fe2565b604082019050919050565b5f6020820190508181035f83015261306981613030565b9050919050565b5f67ffffffffffffffff82169050919050565b5f61308d82613070565b915061309883613070565b9250828201905067ffffffffffffffff8111156130b8576130b7612ef4565b5b92915050565b5f81519050919050565b5f82825260208201905092915050565b5f819050602082019050919050565b6130f0816122fa565b82525050565b5f61310183836130e7565b60208301905092915050565b5f602082019050919050565b5f613123826130be565b61312d81856130c8565b9350613138836130d8565b805f5b8381101561316857815161314f88826130f6565b975061315a8361310d565b92505060018101905061313b565b5085935050505092915050565b5f81519050919050565b5f82825260208201905092915050565b5f819050602082019050919050565b6131a781611fb0565b82525050565b5f6131b8838361319e565b60208301905092915050565b5f602082019050919050565b5f6131da82613175565b6131e4818561317f565b93506131ef8361318f565b805f5b8381101561321f57815161320688826131ad565b9750613211836131c4565b9250506001810190506131f2565b5085935050505092915050565b5f81519050919050565b5f82825260208201905092915050565b5f819050602082019050919050565b5f81519050919050565b5f82825260208201905092915050565b5f61327982613255565b613283818561325f565b9350613293818560208601612220565b61329c81612248565b840191505092915050565b5f6132b2838361326f565b905092915050565b5f602082019050919050565b5f6132d08261322c565b6132da8185613236565b9350836020820285016132ec85613246565b805f5b85811015613327578484038952815161330885826132a7565b9450613313836132ba565b925060208a019950506001810190506132ef565b50829750879550505050505092915050565b5f61335361334e61334984613070565b612cb6565b611fb0565b9050919050565b61336381613339565b82525050565b5f60e08201905061337c5f83018a61230b565b818103602083015261338e8189613119565b905081810360408301526133a281886131d0565b905081810360608301526133b681876132c6565b90506133c5608083018661335a565b6133d260a083018561335a565b81810360c08301526133e48184612258565b905098975050505050505050565b5f6040820190506134055f83018561230b565b6134126020830184611fb9565b9392505050565b5f8151905061342781611fe1565b92915050565b5f6020828403121561344257613441611ef5565b5b5f61344f84828501613419565b91505092915050565b7f476f7665726e6f723a206f6e6c79206578656375746f722063616e2072656c615f8201527f7900000000000000000000000000000000000000000000000000000000000000602082015250565b5f6134b2602183612210565b91506134bd82613458565b604082019050919050565b5f6020820190508181035f8301526134df816134a6565b9050919050565b6134ef816120f7565b82525050565b5f6080820190508181035f83015261350d8187613119565b9050818103602083015261352181866131d0565b9050818103604083015261353581856132c6565b905061354460608301846134e6565b95945050505050565b5f6020820190506135605f8301846134e6565b92915050565b61356f81611f7d565b8114613579575f80fd5b50565b5f8151905061358a81613566565b92915050565b5f602082840312156135a5576135a4611ef5565b5b5f6135b28482850161357c565b91505092915050565b7f53616665436173743a2076616c756520646f65736e27742066697420696e20365f8201527f3420626974730000000000000000000000000000000000000000000000000000602082015250565b5f613615602683612210565b9150613620826135bb565b604082019050919050565b5f6020820190508181035f83015261364281613609565b9050919050565b7f416464726573733a20696e73756666696369656e742062616c616e636520666f5f8201527f722063616c6c0000000000000000000000000000000000000000000000000000602082015250565b5f6136a3602683612210565b91506136ae82613649565b604082019050919050565b5f6020820190508181035f8301526136d081613697565b9050919050565b7f416464726573733a2063616c6c20746f206e6f6e2d636f6e74726163740000005f82015250565b5f61370b601d83612210565b9150613716826136d7565b602082019050919050565b5f6020820190508181035f830152613738816136ff565b9050919050565b5f81905092915050565b5f61375382613255565b61375d818561373f565b935061376d818560208601612220565b80840191505092915050565b5f6137848284613749565b915081905092915050565b7f416464726573733a206c6f772d6c6576656c2063616c6c20776974682076616c5f8201527f7565206661696c65640000000000000000000000000000000000000000000000602082015250565b5f6137e9602983612210565b91506137f48261378f565b604082019050919050565b5f6020820190508181035f830152613816816137dd565b9050919050565b5f61382782611fb0565b915061383283611fb0565b925082820261384081611fb0565b9150828204841483151761385757613856612ef4565b5b5092915050565b7f4e487b71000000000000000000000000000000000000000000000000000000005f52601260045260245ffd5b5f61389582611fb0565b91506138a083611fb0565b9250826138b0576138af61385e565b5b828204905092915050565b5f60c0820190508181035f8301526138d38189613119565b905081810360208301526138e781886131d0565b905081810360408301526138fb81876132c6565b905061390a60608301866134e6565b61391760808301856134e6565b61392460a0830184611fb9565b979650505050505050565b5f61393982611fb0565b915061394483611fb0565b925082820190508082111561395c5761395b612ef4565b5b92915050565b5f60a0820190508181035f83015261397a8188613119565b9050818103602083015261398e81876131d0565b905081810360408301526139a281866132c6565b90506139b160608301856134e6565b6139be60808301846134e6565b9695505050505050565b7f476f7665726e6f723a20756e6b6e6f776e2070726f706f73616c2069640000005f82015250565b5f6139fc601d83612210565b9150613a07826139c8565b602082019050919050565b5f6020820190508181035f830152613a29816139f0565b905091905056fea26469706673582212209fda488ae467aab74580574e019474f614d934ef7daed3e413af4cea289ca83364736f6c63430008140033",
			"opcodes": "PUSH1 0xA0 PUSH1 0x40 MSTORE CALLVALUE DUP1 ISZERO PUSH3 0x10 JUMPI PUSH0 DUP1 REVERT JUMPDEST POP PUSH1 0x40 MLOAD PUSH3 0x4382 CODESIZE SUB DUP1 PUSH3 0x4382 DUP4 CODECOPY DUP2 DUP2 ADD PUSH1 0x40 MSTORE DUP2 ADD SWAP1 PUSH3 0x36 SWAP2 SWAP1 PUSH3 0x360 JUMP JUMPDEST DUP1 PUSH1 0x4 DUP4 PUSH1 0x1 PUSH2 0xB2FA PUSH9 0x3635C9ADC5DEA00000 PUSH1 0x40 MLOAD DUP1 PUSH1 0x40 ADD PUSH1 0x40 MSTORE DUP1 PUSH1 0x10 DUP2 MSTORE PUSH1 0x20 ADD PUSH32 0x476F7665726E6F72436F6E747261637400000000000000000000000000000000 DUP2 MSTORE POP DUP1 PUSH0 SWAP1 DUP2 PUSH3 0x8F SWAP2 SWAP1 PUSH3 0x609 JUMP JUMPDEST POP POP PUSH3 0xA2 DUP4 PUSH3 0x128 PUSH1 0x20 SHL PUSH1 0x20 SHR JUMP JUMPDEST PUSH3 0xB3 DUP3 PUSH3 0x177 PUSH1 0x20 SHL PUSH1 0x20 SHR JUMP JUMPDEST PUSH3 0xC4 DUP2 PUSH3 0x1C6 PUSH1 0x20 SHL PUSH1 0x20 SHR JUMP JUMPDEST POP POP POP DUP1 PUSH20 0xFFFFFFFFFFFFFFFFFFFFFFFFFFFFFFFFFFFFFFFF AND PUSH1 0x80 DUP2 PUSH20 0xFFFFFFFFFFFFFFFFFFFFFFFFFFFFFFFFFFFFFFFF AND DUP2 MSTORE POP POP POP PUSH3 0x10D DUP2 PUSH3 0x1D0 PUSH1 0x20 SHL PUSH1 0x20 SHR JUMP JUMPDEST POP PUSH3 0x11F DUP2 PUSH3 0x263 PUSH1 0x20 SHL PUSH1 0x20 SHR JUMP JUMPDEST POP POP POP PUSH3 0x8F5 JUMP JUMPDEST PUSH0 DUP2 GT PUSH3 0x16D JUMPI PUSH1 0x40 MLOAD PUSH32 0x8C379A000000000000000000000000000000000000000000000000000000000 DUP2 MSTORE PUSH1 0x4 ADD PUSH3 0x164 SWAP1 PUSH3 0x771 JUMP JUMPDEST PUSH1 0x40 MLOAD DUP1 SWAP2 SUB SWAP1 REVERT JUMPDEST DUP1 PUSH1 0x3 DUP2 SWAP1 SSTORE POP POP JUMP JUMPDEST PUSH0 DUP2 GT PUSH3 0x1BC JUMPI PUSH1 0x40 MLOAD PUSH32 0x8C379A000000000000000000000000000000000000000000000000000000000 DUP2 MSTORE PUSH1 0x4 ADD PUSH3 0x1B3 SWAP1 PUSH3 0x805 JUMP JUMPDEST PUSH1 0x40 MLOAD DUP1 SWAP2 SUB SWAP1 REVERT JUMPDEST DUP1 PUSH1 0x4 DUP2 SWAP1 SSTORE POP POP JUMP JUMPDEST DUP1 PUSH1 0x5 DUP2 SWAP1 SSTORE POP POP JUMP JUMPDEST PUSH1 0x64 DUP2 GT ISZERO PUSH3 0x217 JUMPI PUSH1 0x40 MLOAD PUSH32 0x8C379A000000000000000000000000000000000000000000000000000000000 DUP2 MSTORE PUSH1 0x4 ADD PUSH3 0x20E SWAP1 PUSH3 0x899 JUMP JUMPDEST PUSH1 0x40 MLOAD DUP1 SWAP2 SUB SWAP1 REVERT JUMPDEST PUSH0 PUSH1 0x7 SLOAD SWAP1 POP DUP2 PUSH1 0x7 DUP2 SWAP1 SSTORE POP PUSH32 0x553476BF02EF2726E8CE5CED78D63E26E602E4A2257B1F559418E24B4633997 DUP2 DUP4 PUSH1 0x40 MLOAD PUSH3 0x257 SWAP3 SWAP2 SWAP1 PUSH3 0x8CA JUMP JUMPDEST PUSH1 0x40 MLOAD DUP1 SWAP2 SUB SWAP1 LOG1 POP POP JUMP JUMPDEST DUP1 PUSH1 0x8 PUSH0 PUSH2 0x100 EXP DUP2 SLOAD DUP2 PUSH20 0xFFFFFFFFFFFFFFFFFFFFFFFFFFFFFFFFFFFFFFFF MUL NOT AND SWAP1 DUP4 PUSH20 0xFFFFFFFFFFFFFFFFFFFFFFFFFFFFFFFFFFFFFFFF AND MUL OR SWAP1 SSTORE POP POP JUMP JUMPDEST PUSH0 DUP1 REVERT JUMPDEST PUSH0 PUSH20 0xFFFFFFFFFFFFFFFFFFFFFFFFFFFFFFFFFFFFFFFF DUP3 AND SWAP1 POP SWAP2 SWAP1 POP JUMP JUMPDEST PUSH0 PUSH3 0x2D5 DUP3 PUSH3 0x2AA JUMP JUMPDEST SWAP1 POP SWAP2 SWAP1 POP JUMP JUMPDEST PUSH0 PUSH3 0x2E8 DUP3 PUSH3 0x2C9 JUMP JUMPDEST SWAP1 POP SWAP2 SWAP1 POP JUMP JUMPDEST PUSH3 0x2FA DUP2 PUSH3 0x2DC JUMP JUMPDEST DUP2 EQ PUSH3 0x305 JUMPI PUSH0 DUP1 REVERT JUMPDEST POP JUMP JUMPDEST PUSH0 DUP2 MLOAD SWAP1 POP PUSH3 0x318 DUP2 PUSH3 0x2EF JUMP JUMPDEST SWAP3 SWAP2 POP POP JUMP JUMPDEST PUSH0 PUSH3 0x32A DUP3 PUSH3 0x2C9 JUMP JUMPDEST SWAP1 POP SWAP2 SWAP1 POP JUMP JUMPDEST PUSH3 0x33C DUP2 PUSH3 0x31E JUMP JUMPDEST DUP2 EQ PUSH3 0x347 JUMPI PUSH0 DUP1 REVERT JUMPDEST POP JUMP JUMPDEST PUSH0 DUP2 MLOAD SWAP1 POP PUSH3 0x35A DUP2 PUSH3 0x331 JUMP JUMPDEST SWAP3 SWAP2 POP POP JUMP JUMPDEST PUSH0 DUP1 PUSH1 0x40 DUP4 DUP6 SUB SLT ISZERO PUSH3 0x379 JUMPI PUSH3 0x378 PUSH3 0x2A6 JUMP JUMPDEST JUMPDEST PUSH0 PUSH3 0x388 DUP6 DUP3 DUP7 ADD PUSH3 0x308 JUMP JUMPDEST SWAP3 POP POP PUSH1 0x20 PUSH3 0x39B DUP6 DUP3 DUP7 ADD PUSH3 0x34A JUMP JUMPDEST SWAP2 POP POP SWAP3 POP SWAP3 SWAP1 POP JUMP JUMPDEST PUSH0 DUP2 MLOAD SWAP1 POP SWAP2 SWAP1 POP JUMP JUMPDEST PUSH32 0x4E487B7100000000000000000000000000000000000000000000000000000000 PUSH0 MSTORE PUSH1 0x41 PUSH1 0x4 MSTORE PUSH1 0x24 PUSH0 REVERT JUMPDEST PUSH32 0x4E487B7100000000000000000000000000000000000000000000000000000000 PUSH0 MSTORE PUSH1 0x22 PUSH1 0x4 MSTORE PUSH1 0x24 PUSH0 REVERT JUMPDEST PUSH0 PUSH1 0x2 DUP3 DIV SWAP1 POP PUSH1 0x1 DUP3 AND DUP1 PUSH3 0x421 JUMPI PUSH1 0x7F DUP3 AND SWAP2 POP JUMPDEST PUSH1 0x20 DUP3 LT DUP2 SUB PUSH3 0x437 JUMPI PUSH3 0x436 PUSH3 0x3DC JUMP JUMPDEST JUMPDEST POP SWAP2 SWAP1 POP JUMP JUMPDEST PUSH0 DUP2 SWAP1 POP DUP2 PUSH0 MSTORE PUSH1 0x20 PUSH0 KECCAK256 SWAP1 POP SWAP2 SWAP1 POP JUMP JUMPDEST PUSH0 PUSH1 0x20 PUSH1 0x1F DUP4 ADD DIV SWAP1 POP SWAP2 SWAP1 POP JUMP JUMPDEST PUSH0 DUP3 DUP3 SHL SWAP1 POP SWAP3 SWAP2 POP POP JUMP JUMPDEST PUSH0 PUSH1 0x8 DUP4 MUL PUSH3 0x49B PUSH32 0xFFFFFFFFFFFFFFFFFFFFFFFFFFFFFFFFFFFFFFFFFFFFFFFFFFFFFFFFFFFFFFFF DUP3 PUSH3 0x45E JUMP JUMPDEST PUSH3 0x4A7 DUP7 DUP4 PUSH3 0x45E JUMP JUMPDEST SWAP6 POP DUP1 NOT DUP5 AND SWAP4 POP DUP1 DUP7 AND DUP5 OR SWAP3 POP POP POP SWAP4 SWAP3 POP POP POP JUMP JUMPDEST PUSH0 DUP2 SWAP1 POP SWAP2 SWAP1 POP JUMP JUMPDEST PUSH0 DUP2 SWAP1 POP SWAP2 SWAP1 POP JUMP JUMPDEST PUSH0 PUSH3 0x4F1 PUSH3 0x4EB PUSH3 0x4E5 DUP5 PUSH3 0x4BF JUMP JUMPDEST PUSH3 0x4C8 JUMP JUMPDEST PUSH3 0x4BF JUMP JUMPDEST SWAP1 POP SWAP2 SWAP1 POP JUMP JUMPDEST PUSH0 DUP2 SWAP1 POP SWAP2 SWAP1 POP JUMP JUMPDEST PUSH3 0x50C DUP4 PUSH3 0x4D1 JUMP JUMPDEST PUSH3 0x524 PUSH3 0x51B DUP3 PUSH3 0x4F8 JUMP JUMPDEST DUP5 DUP5 SLOAD PUSH3 0x46A JUMP JUMPDEST DUP3 SSTORE POP POP POP POP JUMP JUMPDEST PUSH0 SWAP1 JUMP JUMPDEST PUSH3 0x53A PUSH3 0x52C JUMP JUMPDEST PUSH3 0x547 DUP2 DUP5 DUP5 PUSH3 0x501 JUMP JUMPDEST POP POP POP JUMP JUMPDEST JUMPDEST DUP2 DUP2 LT ISZERO PUSH3 0x56E JUMPI PUSH3 0x562 PUSH0 DUP3 PUSH3 0x530 JUMP JUMPDEST PUSH1 0x1 DUP2 ADD SWAP1 POP PUSH3 0x54D JUMP JUMPDEST POP POP JUMP JUMPDEST PUSH1 0x1F DUP3 GT ISZERO PUSH3 0x5BD JUMPI PUSH3 0x587 DUP2 PUSH3 0x43D JUMP JUMPDEST PUSH3 0x592 DUP5 PUSH3 0x44F JUMP JUMPDEST DUP2 ADD PUSH1 0x20 DUP6 LT ISZERO PUSH3 0x5A2 JUMPI DUP2 SWAP1 POP JUMPDEST PUSH3 0x5BA PUSH3 0x5B1 DUP6 PUSH3 0x44F JUMP JUMPDEST DUP4 ADD DUP3 PUSH3 0x54C JUMP JUMPDEST POP POP JUMPDEST POP POP POP JUMP JUMPDEST PUSH0 DUP3 DUP3 SHR SWAP1 POP SWAP3 SWAP2 POP POP JUMP JUMPDEST PUSH0 PUSH3 0x5DF PUSH0 NOT DUP5 PUSH1 0x8 MUL PUSH3 0x5C2 JUMP JUMPDEST NOT DUP1 DUP4 AND SWAP2 POP POP SWAP3 SWAP2 POP POP JUMP JUMPDEST PUSH0 PUSH3 0x5F9 DUP4 DUP4 PUSH3 0x5CE JUMP JUMPDEST SWAP2 POP DUP3 PUSH1 0x2 MUL DUP3 OR SWAP1 POP SWAP3 SWAP2 POP POP JUMP JUMPDEST PUSH3 0x614 DUP3 PUSH3 0x3A5 JUMP JUMPDEST PUSH8 0xFFFFFFFFFFFFFFFF DUP2 GT ISZERO PUSH3 0x630 JUMPI PUSH3 0x62F PUSH3 0x3AF JUMP JUMPDEST JUMPDEST PUSH3 0x63C DUP3 SLOAD PUSH3 0x409 JUMP JUMPDEST PUSH3 0x649 DUP3 DUP3 DUP6 PUSH3 0x572 JUMP JUMPDEST PUSH0 PUSH1 0x20 SWAP1 POP PUSH1 0x1F DUP4 GT PUSH1 0x1 DUP2 EQ PUSH3 0x67F JUMPI PUSH0 DUP5 ISZERO PUSH3 0x66A JUMPI DUP3 DUP8 ADD MLOAD SWAP1 POP JUMPDEST PUSH3 0x676 DUP6 DUP3 PUSH3 0x5EC JUMP JUMPDEST DUP7 SSTORE POP PUSH3 0x6E5 JUMP JUMPDEST PUSH1 0x1F NOT DUP5 AND PUSH3 0x68F DUP7 PUSH3 0x43D JUMP JUMPDEST PUSH0 JUMPDEST DUP3 DUP2 LT ISZERO PUSH3 0x6B8 JUMPI DUP5 DUP10 ADD MLOAD DUP3 SSTORE PUSH1 0x1 DUP3 ADD SWAP2 POP PUSH1 0x20 DUP6 ADD SWAP5 POP PUSH1 0x20 DUP2 ADD SWAP1 POP PUSH3 0x691 JUMP JUMPDEST DUP7 DUP4 LT ISZERO PUSH3 0x6D8 JUMPI DUP5 DUP10 ADD MLOAD PUSH3 0x6D4 PUSH1 0x1F DUP10 AND DUP3 PUSH3 0x5CE JUMP JUMPDEST DUP4 SSTORE POP JUMPDEST PUSH1 0x1 PUSH1 0x2 DUP9 MUL ADD DUP9 SSTORE POP POP POP JUMPDEST POP POP POP POP POP POP JUMP JUMPDEST PUSH0 DUP3 DUP3 MSTORE PUSH1 0x20 DUP3 ADD SWAP1 POP SWAP3 SWAP2 POP POP JUMP JUMPDEST PUSH32 0x476F7665726E6F7253657474696E67733A20766F74696E672064656C6179206D PUSH0 DUP3 ADD MSTORE PUSH32 0x7573742062652067726561746572207468616E20300000000000000000000000 PUSH1 0x20 DUP3 ADD MSTORE POP JUMP JUMPDEST PUSH0 PUSH3 0x759 PUSH1 0x35 DUP4 PUSH3 0x6ED JUMP JUMPDEST SWAP2 POP PUSH3 0x766 DUP3 PUSH3 0x6FD JUMP JUMPDEST PUSH1 0x40 DUP3 ADD SWAP1 POP SWAP2 SWAP1 POP JUMP JUMPDEST PUSH0 PUSH1 0x20 DUP3 ADD SWAP1 POP DUP2 DUP2 SUB PUSH0 DUP4 ADD MSTORE PUSH3 0x78A DUP2 PUSH3 0x74B JUMP JUMPDEST SWAP1 POP SWAP2 SWAP1 POP JUMP JUMPDEST PUSH32 0x476F7665726E6F7253657474696E67733A20766F74696E6720706572696F6420 PUSH0 DUP3 ADD MSTORE PUSH32 0x6D7573742062652067726561746572207468616E203000000000000000000000 PUSH1 0x20 DUP3 ADD MSTORE POP JUMP JUMPDEST PUSH0 PUSH3 0x7ED PUSH1 0x36 DUP4 PUSH3 0x6ED JUMP JUMPDEST SWAP2 POP PUSH3 0x7FA DUP3 PUSH3 0x791 JUMP JUMPDEST PUSH1 0x40 DUP3 ADD SWAP1 POP SWAP2 SWAP1 POP JUMP JUMPDEST PUSH0 PUSH1 0x20 DUP3 ADD SWAP1 POP DUP2 DUP2 SUB PUSH0 DUP4 ADD MSTORE PUSH3 0x81E DUP2 PUSH3 0x7DF JUMP JUMPDEST SWAP1 POP SWAP2 SWAP1 POP JUMP JUMPDEST PUSH32 0x476F7665726E6F72566F74657351756F72756D4672616374696F6E3A2071756F PUSH0 DUP3 ADD MSTORE PUSH32 0x72756D20746F6F20686967680000000000000000000000000000000000000000 PUSH1 0x20 DUP3 ADD MSTORE POP JUMP JUMPDEST PUSH0 PUSH3 0x881 PUSH1 0x2C DUP4 PUSH3 0x6ED JUMP JUMPDEST SWAP2 POP PUSH3 0x88E DUP3 PUSH3 0x825 JUMP JUMPDEST PUSH1 0x40 DUP3 ADD SWAP1 POP SWAP2 SWAP1 POP JUMP JUMPDEST PUSH0 PUSH1 0x20 DUP3 ADD SWAP1 POP DUP2 DUP2 SUB PUSH0 DUP4 ADD MSTORE PUSH3 0x8B2 DUP2 PUSH3 0x873 JUMP JUMPDEST SWAP1 POP SWAP2 SWAP1 POP JUMP JUMPDEST PUSH3 0x8C4 DUP2 PUSH3 0x4BF JUMP JUMPDEST DUP3 MSTORE POP POP JUMP JUMPDEST PUSH0 PUSH1 0x40 DUP3 ADD SWAP1 POP PUSH3 0x8DF PUSH0 DUP4 ADD DUP6 PUSH3 0x8B9 JUMP JUMPDEST PUSH3 0x8EE PUSH1 0x20 DUP4 ADD DUP5 PUSH3 0x8B9 JUMP JUMPDEST SWAP4 SWAP3 POP POP POP JUMP JUMPDEST PUSH1 0x80 MLOAD PUSH2 0x3A66 PUSH3 0x91C PUSH0 CODECOPY PUSH0 DUP2 DUP2 PUSH2 0x104B ADD MSTORE DUP2 DUP2 PUSH2 0x130D ADD MSTORE PUSH2 0x1876 ADD MSTORE PUSH2 0x3A66 PUSH0 RETURN INVALID PUSH1 0x80 PUSH1 0x40 MSTORE PUSH1 0x4 CALLDATASIZE LT PUSH2 0x1E2 JUMPI PUSH0 CALLDATALOAD PUSH1 0xE0 SHR DUP1 PUSH4 0x5F398A14 GT PUSH2 0x101 JUMPI DUP1 PUSH4 0xC01F9E37 GT PUSH2 0x94 JUMPI DUP1 PUSH4 0xDD4E2BA5 GT PUSH2 0x63 JUMPI DUP1 PUSH4 0xDD4E2BA5 EQ PUSH2 0x7B4 JUMPI DUP1 PUSH4 0xEB9019D4 EQ PUSH2 0x7DE JUMPI DUP1 PUSH4 0xF8CE560A EQ PUSH2 0x81A JUMPI DUP1 PUSH4 0xFC0C546A EQ PUSH2 0x856 JUMPI PUSH2 0x1E2 JUMP JUMPDEST DUP1 PUSH4 0xC01F9E37 EQ PUSH2 0x6EA JUMPI DUP1 PUSH4 0xC28BC2FA EQ PUSH2 0x726 JUMPI DUP1 PUSH4 0xC59057E4 EQ PUSH2 0x74E JUMPI DUP1 PUSH4 0xD33219B4 EQ PUSH2 0x78A JUMPI PUSH2 0x1E2 JUMP JUMPDEST DUP1 PUSH4 0x9A802A6D GT PUSH2 0xD0 JUMPI DUP1 PUSH4 0x9A802A6D EQ PUSH2 0x61E JUMPI DUP1 PUSH4 0xA7713A70 EQ PUSH2 0x65A JUMPI DUP1 PUSH4 0xA9A95294 EQ PUSH2 0x684 JUMPI DUP1 PUSH4 0xB58131B0 EQ PUSH2 0x6C0 JUMPI PUSH2 0x1E2 JUMP JUMPDEST DUP1 PUSH4 0x5F398A14 EQ PUSH2 0x540 JUMPI DUP1 PUSH4 0x7B3C71D3 EQ PUSH2 0x57C JUMPI DUP1 PUSH4 0x7D5E81E2 EQ PUSH2 0x5B8 JUMPI DUP1 PUSH4 0x91DDADF4 EQ PUSH2 0x5F4 JUMPI PUSH2 0x1E2 JUMP JUMPDEST DUP1 PUSH4 0x3932ABB1 GT PUSH2 0x179 JUMPI DUP1 PUSH4 0x452115D6 GT PUSH2 0x148 JUMPI DUP1 PUSH4 0x452115D6 EQ PUSH2 0x474 JUMPI DUP1 PUSH4 0x4BF5D7E9 EQ PUSH2 0x4B0 JUMPI DUP1 PUSH4 0x54FD4D50 EQ PUSH2 0x4DA JUMPI DUP1 PUSH4 0x56781388 EQ PUSH2 0x504 JUMPI PUSH2 0x1E2 JUMP JUMPDEST DUP1 PUSH4 0x3932ABB1 EQ PUSH2 0x396 JUMPI DUP1 PUSH4 0x3BCCF4FD EQ PUSH2 0x3C0 JUMPI DUP1 PUSH4 0x3E4F49E6 EQ PUSH2 0x3FC JUMPI DUP1 PUSH4 0x43859632 EQ PUSH2 0x438 JUMPI PUSH2 0x1E2 JUMP JUMPDEST DUP1 PUSH4 0x143489D0 GT PUSH2 0x1B5 JUMPI DUP1 PUSH4 0x143489D0 EQ PUSH2 0x2B2 JUMPI DUP1 PUSH4 0x160CBED7 EQ PUSH2 0x2EE JUMPI DUP1 PUSH4 0x2656227D EQ PUSH2 0x32A JUMPI DUP1 PUSH4 0x2D63F693 EQ PUSH2 0x35A JUMPI PUSH2 0x1E2 JUMP JUMPDEST DUP1 PUSH4 0x1FFC9A7 EQ PUSH2 0x1E6 JUMPI DUP1 PUSH4 0x2A251A3 EQ PUSH2 0x222 JUMPI DUP1 PUSH4 0x3420181 EQ PUSH2 0x24C JUMPI DUP1 PUSH4 0x6FDDE03 EQ PUSH2 0x288 JUMPI JUMPDEST PUSH0 DUP1 REVERT JUMPDEST CALLVALUE DUP1 ISZERO PUSH2 0x1F1 JUMPI PUSH0 DUP1 REVERT JUMPDEST POP PUSH2 0x20C PUSH1 0x4 DUP1 CALLDATASIZE SUB DUP2 ADD SWAP1 PUSH2 0x207 SWAP2 SWAP1 PUSH2 0x1F52 JUMP JUMPDEST PUSH2 0x880 JUMP JUMPDEST PUSH1 0x40 MLOAD PUSH2 0x219 SWAP2 SWAP1 PUSH2 0x1F97 JUMP JUMPDEST PUSH1 0x40 MLOAD DUP1 SWAP2 SUB SWAP1 RETURN JUMPDEST CALLVALUE DUP1 ISZERO PUSH2 0x22D JUMPI PUSH0 DUP1 REVERT JUMPDEST POP PUSH2 0x236 PUSH2 0x891 JUMP JUMPDEST PUSH1 0x40 MLOAD PUSH2 0x243 SWAP2 SWAP1 PUSH2 0x1FC8 JUMP JUMPDEST PUSH1 0x40 MLOAD DUP1 SWAP2 SUB SWAP1 RETURN JUMPDEST CALLVALUE DUP1 ISZERO PUSH2 0x257 JUMPI PUSH0 DUP1 REVERT JUMPDEST POP PUSH2 0x272 PUSH1 0x4 DUP1 CALLDATASIZE SUB DUP2 ADD SWAP1 PUSH2 0x26D SWAP2 SWAP1 PUSH2 0x212A JUMP JUMPDEST PUSH2 0x89F JUMP JUMPDEST PUSH1 0x40 MLOAD PUSH2 0x27F SWAP2 SWAP1 PUSH2 0x1FC8 JUMP JUMPDEST PUSH1 0x40 MLOAD DUP1 SWAP2 SUB SWAP1 RETURN JUMPDEST CALLVALUE DUP1 ISZERO PUSH2 0x293 JUMPI PUSH0 DUP1 REVERT JUMPDEST POP PUSH2 0x29C PUSH2 0x8DB JUMP JUMPDEST PUSH1 0x40 MLOAD PUSH2 0x2A9 SWAP2 SWAP1 PUSH2 0x2290 JUMP JUMPDEST PUSH1 0x40 MLOAD DUP1 SWAP2 SUB SWAP1 RETURN JUMPDEST CALLVALUE DUP1 ISZERO PUSH2 0x2BD JUMPI PUSH0 DUP1 REVERT JUMPDEST POP PUSH2 0x2D8 PUSH1 0x4 DUP1 CALLDATASIZE SUB DUP2 ADD SWAP1 PUSH2 0x2D3 SWAP2 SWAP1 PUSH2 0x22B0 JUMP JUMPDEST PUSH2 0x96A JUMP JUMPDEST PUSH1 0x40 MLOAD PUSH2 0x2E5 SWAP2 SWAP1 PUSH2 0x231A JUMP JUMPDEST PUSH1 0x40 MLOAD DUP1 SWAP2 SUB SWAP1 RETURN JUMPDEST CALLVALUE DUP1 ISZERO PUSH2 0x2F9 JUMPI PUSH0 DUP1 REVERT JUMPDEST POP PUSH2 0x314 PUSH1 0x4 DUP1 CALLDATASIZE SUB DUP2 ADD SWAP1 PUSH2 0x30F SWAP2 SWAP1 PUSH2 0x26E3 JUMP JUMPDEST PUSH2 0x9A5 JUMP JUMPDEST PUSH1 0x40 MLOAD PUSH2 0x321 SWAP2 SWAP1 PUSH2 0x1FC8 JUMP JUMPDEST PUSH1 0x40 MLOAD DUP1 SWAP2 SUB SWAP1 RETURN JUMPDEST PUSH2 0x344 PUSH1 0x4 DUP1 CALLDATASIZE SUB DUP2 ADD SWAP1 PUSH2 0x33F SWAP2 SWAP1 PUSH2 0x26E3 JUMP JUMPDEST PUSH2 0xA70 JUMP JUMPDEST PUSH1 0x40 MLOAD PUSH2 0x351 SWAP2 SWAP1 PUSH2 0x1FC8 JUMP JUMPDEST PUSH1 0x40 MLOAD DUP1 SWAP2 SUB SWAP1 RETURN JUMPDEST CALLVALUE DUP1 ISZERO PUSH2 0x365 JUMPI PUSH0 DUP1 REVERT JUMPDEST POP PUSH2 0x380 PUSH1 0x4 DUP1 CALLDATASIZE SUB DUP2 ADD SWAP1 PUSH2 0x37B SWAP2 SWAP1 PUSH2 0x22B0 JUMP JUMPDEST PUSH2 0xB76 JUMP JUMPDEST PUSH1 0x40 MLOAD PUSH2 0x38D SWAP2 SWAP1 PUSH2 0x1FC8 JUMP JUMPDEST PUSH1 0x40 MLOAD DUP1 SWAP2 SUB SWAP1 RETURN JUMPDEST CALLVALUE DUP1 ISZERO PUSH2 0x3A1 JUMPI PUSH0 DUP1 REVERT JUMPDEST POP PUSH2 0x3AA PUSH2 0xBDF JUMP JUMPDEST PUSH1 0x40 MLOAD PUSH2 0x3B7 SWAP2 SWAP1 PUSH2 0x1FC8 JUMP JUMPDEST PUSH1 0x40 MLOAD DUP1 SWAP2 SUB SWAP1 RETURN JUMPDEST CALLVALUE DUP1 ISZERO PUSH2 0x3CB JUMPI PUSH0 DUP1 REVERT JUMPDEST POP PUSH2 0x3E6 PUSH1 0x4 DUP1 CALLDATASIZE SUB DUP2 ADD SWAP1 PUSH2 0x3E1 SWAP2 SWAP1 PUSH2 0x279B JUMP JUMPDEST PUSH2 0xBED JUMP JUMPDEST PUSH1 0x40 MLOAD PUSH2 0x3F3 SWAP2 SWAP1 PUSH2 0x1FC8 JUMP JUMPDEST PUSH1 0x40 MLOAD DUP1 SWAP2 SUB SWAP1 RETURN JUMPDEST CALLVALUE DUP1 ISZERO PUSH2 0x407 JUMPI PUSH0 DUP1 REVERT JUMPDEST POP PUSH2 0x422 PUSH1 0x4 DUP1 CALLDATASIZE SUB DUP2 ADD SWAP1 PUSH2 0x41D SWAP2 SWAP1 PUSH2 0x22B0 JUMP JUMPDEST PUSH2 0xC29 JUMP JUMPDEST PUSH1 0x40 MLOAD PUSH2 0x42F SWAP2 SWAP1 PUSH2 0x2885 JUMP JUMPDEST PUSH1 0x40 MLOAD DUP1 SWAP2 SUB SWAP1 RETURN JUMPDEST CALLVALUE DUP1 ISZERO PUSH2 0x443 JUMPI PUSH0 DUP1 REVERT JUMPDEST POP PUSH2 0x45E PUSH1 0x4 DUP1 CALLDATASIZE SUB DUP2 ADD SWAP1 PUSH2 0x459 SWAP2 SWAP1 PUSH2 0x289E JUMP JUMPDEST PUSH2 0xC3A JUMP JUMPDEST PUSH1 0x40 MLOAD PUSH2 0x46B SWAP2 SWAP1 PUSH2 0x1F97 JUMP JUMPDEST PUSH1 0x40 MLOAD DUP1 SWAP2 SUB SWAP1 RETURN JUMPDEST CALLVALUE DUP1 ISZERO PUSH2 0x47F JUMPI PUSH0 DUP1 REVERT JUMPDEST POP PUSH2 0x49A PUSH1 0x4 DUP1 CALLDATASIZE SUB DUP2 ADD SWAP1 PUSH2 0x495 SWAP2 SWAP1 PUSH2 0x26E3 JUMP JUMPDEST PUSH2 0xC4D JUMP JUMPDEST PUSH1 0x40 MLOAD PUSH2 0x4A7 SWAP2 SWAP1 PUSH2 0x1FC8 JUMP JUMPDEST PUSH1 0x40 MLOAD DUP1 SWAP2 SUB SWAP1 RETURN JUMPDEST CALLVALUE DUP1 ISZERO PUSH2 0x4BB JUMPI PUSH0 DUP1 REVERT JUMPDEST POP PUSH2 0x4C4 PUSH2 0xCC8 JUMP JUMPDEST PUSH1 0x40 MLOAD PUSH2 0x4D1 SWAP2 SWAP1 PUSH2 0x2290 JUMP JUMPDEST PUSH1 0x40 MLOAD DUP1 SWAP2 SUB SWAP1 RETURN JUMPDEST CALLVALUE DUP1 ISZERO PUSH2 0x4E5 JUMPI PUSH0 DUP1 REVERT JUMPDEST POP PUSH2 0x4EE PUSH2 0xD05 JUMP JUMPDEST PUSH1 0x40 MLOAD PUSH2 0x4FB SWAP2 SWAP1 PUSH2 0x2290 JUMP JUMPDEST PUSH1 0x40 MLOAD DUP1 SWAP2 SUB SWAP1 RETURN JUMPDEST CALLVALUE DUP1 ISZERO PUSH2 0x50F JUMPI PUSH0 DUP1 REVERT JUMPDEST POP PUSH2 0x52A PUSH1 0x4 DUP1 CALLDATASIZE SUB DUP2 ADD SWAP1 PUSH2 0x525 SWAP2 SWAP1 PUSH2 0x28DC JUMP JUMPDEST PUSH2 0xD42 JUMP JUMPDEST PUSH1 0x40 MLOAD PUSH2 0x537 SWAP2 SWAP1 PUSH2 0x1FC8 JUMP JUMPDEST PUSH1 0x40 MLOAD DUP1 SWAP2 SUB SWAP1 RETURN JUMPDEST CALLVALUE DUP1 ISZERO PUSH2 0x54B JUMPI PUSH0 DUP1 REVERT JUMPDEST POP PUSH2 0x566 PUSH1 0x4 DUP1 CALLDATASIZE SUB DUP2 ADD SWAP1 PUSH2 0x561 SWAP2 SWAP1 PUSH2 0x291A JUMP JUMPDEST PUSH2 0xD7E JUMP JUMPDEST PUSH1 0x40 MLOAD PUSH2 0x573 SWAP2 SWAP1 PUSH2 0x1FC8 JUMP JUMPDEST PUSH1 0x40 MLOAD DUP1 SWAP2 SUB SWAP1 RETURN JUMPDEST CALLVALUE DUP1 ISZERO PUSH2 0x587 JUMPI PUSH0 DUP1 REVERT JUMPDEST POP PUSH2 0x5A2 PUSH1 0x4 DUP1 CALLDATASIZE SUB DUP2 ADD SWAP1 PUSH2 0x59D SWAP2 SWAP1 PUSH2 0x29BD JUMP JUMPDEST PUSH2 0xDBA JUMP JUMPDEST PUSH1 0x40 MLOAD PUSH2 0x5AF SWAP2 SWAP1 PUSH2 0x1FC8 JUMP JUMPDEST PUSH1 0x40 MLOAD DUP1 SWAP2 SUB SWAP1 RETURN JUMPDEST CALLVALUE DUP1 ISZERO PUSH2 0x5C3 JUMPI PUSH0 DUP1 REVERT JUMPDEST POP PUSH2 0x5DE PUSH1 0x4 DUP1 CALLDATASIZE SUB DUP2 ADD SWAP1 PUSH2 0x5D9 SWAP2 SWAP1 PUSH2 0x2ACC JUMP JUMPDEST PUSH2 0xDF6 JUMP JUMPDEST PUSH1 0x40 MLOAD PUSH2 0x5EB SWAP2 SWAP1 PUSH2 0x1FC8 JUMP JUMPDEST PUSH1 0x40 MLOAD DUP1 SWAP2 SUB SWAP1 RETURN JUMPDEST CALLVALUE DUP1 ISZERO PUSH2 0x5FF JUMPI PUSH0 DUP1 REVERT JUMPDEST POP PUSH2 0x608 PUSH2 0x1041 JUMP JUMPDEST PUSH1 0x40 MLOAD PUSH2 0x615 SWAP2 SWAP1 PUSH2 0x2BC0 JUMP JUMPDEST PUSH1 0x40 MLOAD DUP1 SWAP2 SUB SWAP1 RETURN JUMPDEST CALLVALUE DUP1 ISZERO PUSH2 0x629 JUMPI PUSH0 DUP1 REVERT JUMPDEST POP PUSH2 0x644 PUSH1 0x4 DUP1 CALLDATASIZE SUB DUP2 ADD SWAP1 PUSH2 0x63F SWAP2 SWAP1 PUSH2 0x2BD9 JUMP JUMPDEST PUSH2 0x1048 JUMP JUMPDEST PUSH1 0x40 MLOAD PUSH2 0x651 SWAP2 SWAP1 PUSH2 0x1FC8 JUMP JUMPDEST PUSH1 0x40 MLOAD DUP1 SWAP2 SUB SWAP1 RETURN JUMPDEST CALLVALUE DUP1 ISZERO PUSH2 0x665 JUMPI PUSH0 DUP1 REVERT JUMPDEST POP PUSH2 0x66E PUSH2 0x10EC JUMP JUMPDEST PUSH1 0x40 MLOAD PUSH2 0x67B SWAP2 SWAP1 PUSH2 0x1FC8 JUMP JUMPDEST PUSH1 0x40 MLOAD DUP1 SWAP2 SUB SWAP1 RETURN JUMPDEST CALLVALUE DUP1 ISZERO PUSH2 0x68F JUMPI PUSH0 DUP1 REVERT JUMPDEST POP PUSH2 0x6AA PUSH1 0x4 DUP1 CALLDATASIZE SUB DUP2 ADD SWAP1 PUSH2 0x6A5 SWAP2 SWAP1 PUSH2 0x22B0 JUMP JUMPDEST PUSH2 0x10F5 JUMP JUMPDEST PUSH1 0x40 MLOAD PUSH2 0x6B7 SWAP2 SWAP1 PUSH2 0x1F97 JUMP JUMPDEST PUSH1 0x40 MLOAD DUP1 SWAP2 SUB SWAP1 RETURN JUMPDEST CALLVALUE DUP1 ISZERO PUSH2 0x6CB JUMPI PUSH0 DUP1 REVERT JUMPDEST POP PUSH2 0x6D4 PUSH2 0x1106 JUMP JUMPDEST PUSH1 0x40 MLOAD PUSH2 0x6E1 SWAP2 SWAP1 PUSH2 0x1FC8 JUMP JUMPDEST PUSH1 0x40 MLOAD DUP1 SWAP2 SUB SWAP1 RETURN JUMPDEST CALLVALUE DUP1 ISZERO PUSH2 0x6F5 JUMPI PUSH0 DUP1 REVERT JUMPDEST POP PUSH2 0x710 PUSH1 0x4 DUP1 CALLDATASIZE SUB DUP2 ADD SWAP1 PUSH2 0x70B SWAP2 SWAP1 PUSH2 0x22B0 JUMP JUMPDEST PUSH2 0x1114 JUMP JUMPDEST PUSH1 0x40 MLOAD PUSH2 0x71D SWAP2 SWAP1 PUSH2 0x1FC8 JUMP JUMPDEST PUSH1 0x40 MLOAD DUP1 SWAP2 SUB SWAP1 RETURN JUMPDEST CALLVALUE DUP1 ISZERO PUSH2 0x731 JUMPI PUSH0 DUP1 REVERT JUMPDEST POP PUSH2 0x74C PUSH1 0x4 DUP1 CALLDATASIZE SUB DUP2 ADD SWAP1 PUSH2 0x747 SWAP2 SWAP1 PUSH2 0x2C45 JUMP JUMPDEST PUSH2 0x117D JUMP JUMPDEST STOP JUMPDEST CALLVALUE DUP1 ISZERO PUSH2 0x759 JUMPI PUSH0 DUP1 REVERT JUMPDEST POP PUSH2 0x774 PUSH1 0x4 DUP1 CALLDATASIZE SUB DUP2 ADD SWAP1 PUSH2 0x76F SWAP2 SWAP1 PUSH2 0x26E3 JUMP JUMPDEST PUSH2 0x1267 JUMP JUMPDEST PUSH1 0x40 MLOAD PUSH2 0x781 SWAP2 SWAP1 PUSH2 0x1FC8 JUMP JUMPDEST PUSH1 0x40 MLOAD DUP1 SWAP2 SUB SWAP1 RETURN JUMPDEST CALLVALUE DUP1 ISZERO PUSH2 0x795 JUMPI PUSH0 DUP1 REVERT JUMPDEST POP PUSH2 0x79E PUSH2 0x12A1 JUMP JUMPDEST PUSH1 0x40 MLOAD PUSH2 0x7AB SWAP2 SWAP1 PUSH2 0x2D11 JUMP JUMPDEST PUSH1 0x40 MLOAD DUP1 SWAP2 SUB SWAP1 RETURN JUMPDEST CALLVALUE DUP1 ISZERO PUSH2 0x7BF JUMPI PUSH0 DUP1 REVERT JUMPDEST POP PUSH2 0x7C8 PUSH2 0x12C9 JUMP JUMPDEST PUSH1 0x40 MLOAD PUSH2 0x7D5 SWAP2 SWAP1 PUSH2 0x2290 JUMP JUMPDEST PUSH1 0x40 MLOAD DUP1 SWAP2 SUB SWAP1 RETURN JUMPDEST CALLVALUE DUP1 ISZERO PUSH2 0x7E9 JUMPI PUSH0 DUP1 REVERT JUMPDEST POP PUSH2 0x804 PUSH1 0x4 DUP1 CALLDATASIZE SUB DUP2 ADD SWAP1 PUSH2 0x7FF SWAP2 SWAP1 PUSH2 0x2D2A JUMP JUMPDEST PUSH2 0x12D8 JUMP JUMPDEST PUSH1 0x40 MLOAD PUSH2 0x811 SWAP2 SWAP1 PUSH2 0x1FC8 JUMP JUMPDEST PUSH1 0x40 MLOAD DUP1 SWAP2 SUB SWAP1 RETURN JUMPDEST CALLVALUE DUP1 ISZERO PUSH2 0x825 JUMPI PUSH0 DUP1 REVERT JUMPDEST POP PUSH2 0x840 PUSH1 0x4 DUP1 CALLDATASIZE SUB DUP2 ADD SWAP1 PUSH2 0x83B SWAP2 SWAP1 PUSH2 0x22B0 JUMP JUMPDEST PUSH2 0x12FA JUMP JUMPDEST PUSH1 0x40 MLOAD PUSH2 0x84D SWAP2 SWAP1 PUSH2 0x1FC8 JUMP JUMPDEST PUSH1 0x40 MLOAD DUP1 SWAP2 SUB SWAP1 RETURN JUMPDEST CALLVALUE DUP1 ISZERO PUSH2 0x861 JUMPI PUSH0 DUP1 REVERT JUMPDEST POP PUSH2 0x86A PUSH2 0x130B JUMP JUMPDEST PUSH1 0x40 MLOAD PUSH2 0x877 SWAP2 SWAP1 PUSH2 0x2D88 JUMP JUMPDEST PUSH1 0x40 MLOAD DUP1 SWAP2 SUB SWAP1 RETURN JUMPDEST PUSH0 PUSH2 0x88A DUP3 PUSH2 0x132F JUMP JUMPDEST SWAP1 POP SWAP2 SWAP1 POP JUMP JUMPDEST PUSH0 PUSH2 0x89A PUSH2 0x13A8 JUMP JUMPDEST SWAP1 POP SWAP1 JUMP JUMPDEST PUSH0 PUSH1 0x40 MLOAD PUSH32 0x8C379A000000000000000000000000000000000000000000000000000000000 DUP2 MSTORE PUSH1 0x4 ADD PUSH2 0x8D2 SWAP1 PUSH2 0x2DEB JUMP JUMPDEST PUSH1 0x40 MLOAD DUP1 SWAP2 SUB SWAP1 REVERT JUMPDEST PUSH1 0x60 PUSH0 DUP1 SLOAD PUSH2 0x8E9 SWAP1 PUSH2 0x2E36 JUMP JUMPDEST DUP1 PUSH1 0x1F ADD PUSH1 0x20 DUP1 SWAP2 DIV MUL PUSH1 0x20 ADD PUSH1 0x40 MLOAD SWAP1 DUP2 ADD PUSH1 0x40 MSTORE DUP1 SWAP3 SWAP2 SWAP1 DUP2 DUP2 MSTORE PUSH1 0x20 ADD DUP3 DUP1 SLOAD PUSH2 0x915 SWAP1 PUSH2 0x2E36 JUMP JUMPDEST DUP1 ISZERO PUSH2 0x960 JUMPI DUP1 PUSH1 0x1F LT PUSH2 0x937 JUMPI PUSH2 0x100 DUP1 DUP4 SLOAD DIV MUL DUP4 MSTORE SWAP2 PUSH1 0x20 ADD SWAP2 PUSH2 0x960 JUMP JUMPDEST DUP3 ADD SWAP2 SWAP1 PUSH0 MSTORE PUSH1 0x20 PUSH0 KECCAK256 SWAP1 JUMPDEST DUP2 SLOAD DUP2 MSTORE SWAP1 PUSH1 0x1 ADD SWAP1 PUSH1 0x20 ADD DUP1 DUP4 GT PUSH2 0x943 JUMPI DUP3 SWAP1 SUB PUSH1 0x1F AND DUP3 ADD SWAP2 JUMPDEST POP POP POP POP POP SWAP1 POP SWAP1 JUMP JUMPDEST PUSH0 PUSH1 0x2 PUSH0 DUP4 DUP2 MSTORE PUSH1 0x20 ADD SWAP1 DUP2 MSTORE PUSH1 0x20 ADD PUSH0 KECCAK256 PUSH0 ADD PUSH0 SWAP1 SLOAD SWAP1 PUSH2 0x100 EXP SWAP1 DIV PUSH20 0xFFFFFFFFFFFFFFFFFFFFFFFFFFFFFFFFFFFFFFFF AND SWAP1 POP SWAP2 SWAP1 POP JUMP JUMPDEST PUSH0 PUSH2 0x9B2 DUP6 DUP6 DUP6 DUP6 PUSH2 0x1267 JUMP JUMPDEST SWAP1 POP PUSH1 0x4 PUSH1 0x7 DUP2 GT ISZERO PUSH2 0x9C8 JUMPI PUSH2 0x9C7 PUSH2 0x2812 JUMP JUMPDEST JUMPDEST PUSH2 0x9D1 DUP3 PUSH2 0xC29 JUMP JUMPDEST PUSH1 0x7 DUP2 GT ISZERO PUSH2 0x9E3 JUMPI PUSH2 0x9E2 PUSH2 0x2812 JUMP JUMPDEST JUMPDEST EQ PUSH2 0xA23 JUMPI PUSH1 0x40 MLOAD PUSH32 0x8C379A000000000000000000000000000000000000000000000000000000000 DUP2 MSTORE PUSH1 0x4 ADD PUSH2 0xA1A SWAP1 PUSH2 0x2ED6 JUMP JUMPDEST PUSH1 0x40 MLOAD DUP1 SWAP2 SUB SWAP1 REVERT JUMPDEST PUSH2 0xA30 DUP2 DUP7 DUP7 DUP7 DUP7 PUSH2 0x13B1 JUMP JUMPDEST POP PUSH32 0x3358BD34ACA93E3AD9A243DE48C96B8A820EC804097B77EE85179C1BCDFE9E9F DUP2 PUSH1 0x40 MLOAD PUSH2 0xA60 SWAP2 SWAP1 PUSH2 0x1FC8 JUMP JUMPDEST PUSH1 0x40 MLOAD DUP1 SWAP2 SUB SWAP1 LOG1 SWAP5 SWAP4 POP POP POP POP JUMP JUMPDEST PUSH0 PUSH2 0xA7D DUP6 DUP6 DUP6 DUP6 PUSH2 0x1267 JUMP JUMPDEST SWAP1 POP PUSH1 0x4 PUSH1 0x7 DUP2 GT ISZERO PUSH2 0xA93 JUMPI PUSH2 0xA92 PUSH2 0x2812 JUMP JUMPDEST JUMPDEST PUSH2 0xA9C DUP3 PUSH2 0xC29 JUMP JUMPDEST PUSH1 0x7 DUP2 GT ISZERO PUSH2 0xAAE JUMPI PUSH2 0xAAD PUSH2 0x2812 JUMP JUMPDEST JUMPDEST EQ DUP1 PUSH2 0xABF JUMPI POP PUSH2 0xABE DUP2 PUSH2 0x10F5 JUMP JUMPDEST JUMPDEST PUSH2 0xAFE JUMPI PUSH1 0x40 MLOAD PUSH32 0x8C379A000000000000000000000000000000000000000000000000000000000 DUP2 MSTORE PUSH1 0x4 ADD PUSH2 0xAF5 SWAP1 PUSH2 0x2ED6 JUMP JUMPDEST PUSH1 0x40 MLOAD DUP1 SWAP2 SUB SWAP1 REVERT JUMPDEST PUSH2 0xB0B DUP2 DUP7 DUP7 DUP7 DUP7 PUSH2 0x13CA JUMP JUMPDEST PUSH1 0x1 PUSH1 0x2 PUSH0 DUP4 DUP2 MSTORE PUSH1 0x20 ADD SWAP1 DUP2 MSTORE PUSH1 0x20 ADD PUSH0 KECCAK256 PUSH1 0x3 ADD PUSH0 PUSH2 0x100 EXP DUP2 SLOAD DUP2 PUSH1 0xFF MUL NOT AND SWAP1 DUP4 ISZERO ISZERO MUL OR SWAP1 SSTORE POP PUSH32 0x712AE1383F79AC853F8D882153778E0260EF8F03B504E2866E0593E04D2B291F DUP2 PUSH1 0x40 MLOAD PUSH2 0xB66 SWAP2 SWAP1 PUSH2 0x1FC8 JUMP JUMPDEST PUSH1 0x40 MLOAD DUP1 SWAP2 SUB SWAP1 LOG1 SWAP5 SWAP4 POP POP POP POP JUMP JUMPDEST PUSH0 PUSH2 0xBCE PUSH1 0x2 PUSH0 DUP5 DUP2 MSTORE PUSH1 0x20 ADD SWAP1 DUP2 MSTORE PUSH1 0x20 ADD PUSH0 KECCAK256 PUSH1 0x1 ADD PUSH1 0x40 MLOAD DUP1 PUSH1 0x20 ADD PUSH1 0x40 MSTORE SWAP1 DUP2 PUSH0 DUP3 ADD PUSH0 SWAP1 SLOAD SWAP1 PUSH2 0x100 EXP SWAP1 DIV PUSH8 0xFFFFFFFFFFFFFFFF AND PUSH8 0xFFFFFFFFFFFFFFFF AND PUSH8 0xFFFFFFFFFFFFFFFF AND DUP2 MSTORE POP POP PUSH2 0x13DE JUMP JUMPDEST PUSH8 0xFFFFFFFFFFFFFFFF AND SWAP1 POP SWAP2 SWAP1 POP JUMP JUMPDEST PUSH0 PUSH2 0xBE8 PUSH2 0x13EA JUMP JUMPDEST SWAP1 POP SWAP1 JUMP JUMPDEST PUSH0 PUSH1 0x40 MLOAD PUSH32 0x8C379A000000000000000000000000000000000000000000000000000000000 DUP2 MSTORE PUSH1 0x4 ADD PUSH2 0xC20 SWAP1 PUSH2 0x2DEB JUMP JUMPDEST PUSH1 0x40 MLOAD DUP1 SWAP2 SUB SWAP1 REVERT JUMPDEST PUSH0 PUSH2 0xC33 DUP3 PUSH2 0x13F3 JUMP JUMPDEST SWAP1 POP SWAP2 SWAP1 POP JUMP JUMPDEST PUSH0 PUSH2 0xC45 DUP4 DUP4 PUSH2 0x159E JUMP JUMPDEST SWAP1 POP SWAP3 SWAP2 POP POP JUMP JUMPDEST PUSH0 PUSH2 0xC5A DUP6 DUP6 DUP6 DUP6 PUSH2 0x1603 JUMP JUMPDEST SWAP1 POP PUSH1 0x1 PUSH1 0x2 PUSH0 DUP4 DUP2 MSTORE PUSH1 0x20 ADD SWAP1 DUP2 MSTORE PUSH1 0x20 ADD PUSH0 KECCAK256 PUSH1 0x3 ADD PUSH1 0x1 PUSH2 0x100 EXP DUP2 SLOAD DUP2 PUSH1 0xFF MUL NOT AND SWAP1 DUP4 ISZERO ISZERO MUL OR SWAP1 SSTORE POP PUSH32 0x789CF55BE980739DAD1D0699B93B58E806B51C9D96619BFA8FE0A28ABAA7B30C DUP2 PUSH1 0x40 MLOAD PUSH2 0xCB8 SWAP2 SWAP1 PUSH2 0x1FC8 JUMP JUMPDEST PUSH1 0x40 MLOAD DUP1 SWAP2 SUB SWAP1 LOG1 SWAP5 SWAP4 POP POP POP POP JUMP JUMPDEST PUSH1 0x60 PUSH1 0x40 MLOAD DUP1 PUSH1 0x40 ADD PUSH1 0x40 MSTORE DUP1 PUSH1 0x1D DUP2 MSTORE PUSH1 0x20 ADD PUSH32 0x6D6F64653D626C6F636B6E756D6265722666726F6D3D64656661756C74000000 DUP2 MSTORE POP SWAP1 POP SWAP1 JUMP JUMPDEST PUSH1 0x60 PUSH1 0x40 MLOAD DUP1 PUSH1 0x40 ADD PUSH1 0x40 MSTORE DUP1 PUSH1 0x1 DUP2 MSTORE PUSH1 0x20 ADD PUSH32 0x3100000000000000000000000000000000000000000000000000000000000000 DUP2 MSTORE POP SWAP1 POP SWAP1 JUMP JUMPDEST PUSH0 PUSH1 0x40 MLOAD PUSH32 0x8C379A000000000000000000000000000000000000000000000000000000000 DUP2 MSTORE PUSH1 0x4 ADD PUSH2 0xD75 SWAP1 PUSH2 0x2DEB JUMP JUMPDEST PUSH1 0x40 MLOAD DUP1 SWAP2 SUB SWAP1 REVERT JUMPDEST PUSH0 PUSH1 0x40 MLOAD PUSH32 0x8C379A000000000000000000000000000000000000000000000000000000000 DUP2 MSTORE PUSH1 0x4 ADD PUSH2 0xDB1 SWAP1 PUSH2 0x2DEB JUMP JUMPDEST PUSH1 0x40 MLOAD DUP1 SWAP2 SUB SWAP1 REVERT JUMPDEST PUSH0 PUSH1 0x40 MLOAD PUSH32 0x8C379A000000000000000000000000000000000000000000000000000000000 DUP2 MSTORE PUSH1 0x4 ADD PUSH2 0xDED SWAP1 PUSH2 0x2DEB JUMP JUMPDEST PUSH1 0x40 MLOAD DUP1 SWAP2 SUB SWAP1 REVERT JUMPDEST PUSH0 PUSH2 0xDFF PUSH2 0x1106 JUMP JUMPDEST PUSH2 0xE15 CALLER PUSH1 0x1 NUMBER PUSH2 0xE10 SWAP2 SWAP1 PUSH2 0x2F21 JUMP JUMPDEST PUSH2 0x12D8 JUMP JUMPDEST LT ISZERO PUSH2 0xE56 JUMPI PUSH1 0x40 MLOAD PUSH32 0x8C379A000000000000000000000000000000000000000000000000000000000 DUP2 MSTORE PUSH1 0x4 ADD PUSH2 0xE4D SWAP1 PUSH2 0x2FC4 JUMP JUMPDEST PUSH1 0x40 MLOAD DUP1 SWAP2 SUB SWAP1 REVERT JUMPDEST PUSH0 PUSH2 0xE6A DUP7 DUP7 DUP7 DUP7 DUP1 MLOAD SWAP1 PUSH1 0x20 ADD KECCAK256 PUSH2 0x1267 JUMP JUMPDEST SWAP1 POP PUSH0 PUSH2 0xEC4 PUSH1 0x2 PUSH0 DUP5 DUP2 MSTORE PUSH1 0x20 ADD SWAP1 DUP2 MSTORE PUSH1 0x20 ADD PUSH0 KECCAK256 PUSH1 0x1 ADD PUSH1 0x40 MLOAD DUP1 PUSH1 0x20 ADD PUSH1 0x40 MSTORE SWAP1 DUP2 PUSH0 DUP3 ADD PUSH0 SWAP1 SLOAD SWAP1 PUSH2 0x100 EXP SWAP1 DIV PUSH8 0xFFFFFFFFFFFFFFFF AND PUSH8 0xFFFFFFFFFFFFFFFF AND PUSH8 0xFFFFFFFFFFFFFFFF AND DUP2 MSTORE POP POP PUSH2 0x13DE JUMP JUMPDEST PUSH8 0xFFFFFFFFFFFFFFFF AND EQ PUSH2 0xF0E JUMPI PUSH1 0x40 MLOAD PUSH32 0x8C379A000000000000000000000000000000000000000000000000000000000 DUP2 MSTORE PUSH1 0x4 ADD PUSH2 0xF05 SWAP1 PUSH2 0x3052 JUMP JUMPDEST PUSH1 0x40 MLOAD DUP1 SWAP2 SUB SWAP1 REVERT JUMPDEST PUSH0 PUSH2 0xF1F PUSH2 0xF1A PUSH2 0xBDF JUMP JUMPDEST PUSH2 0x161A JUMP JUMPDEST PUSH2 0xF28 NUMBER PUSH2 0x161A JUMP JUMPDEST PUSH2 0xF32 SWAP2 SWAP1 PUSH2 0x3083 JUMP JUMPDEST SWAP1 POP PUSH0 PUSH2 0xF45 PUSH2 0xF40 PUSH2 0x891 JUMP JUMPDEST PUSH2 0x161A JUMP JUMPDEST DUP3 PUSH2 0xF50 SWAP2 SWAP1 PUSH2 0x3083 JUMP JUMPDEST SWAP1 POP CALLER PUSH1 0x2 PUSH0 DUP6 DUP2 MSTORE PUSH1 0x20 ADD SWAP1 DUP2 MSTORE PUSH1 0x20 ADD PUSH0 KECCAK256 PUSH0 ADD PUSH0 PUSH2 0x100 EXP DUP2 SLOAD DUP2 PUSH20 0xFFFFFFFFFFFFFFFFFFFFFFFFFFFFFFFFFFFFFFFF MUL NOT AND SWAP1 DUP4 PUSH20 0xFFFFFFFFFFFFFFFFFFFFFFFFFFFFFFFFFFFFFFFF AND MUL OR SWAP1 SSTORE POP PUSH2 0xFC9 DUP3 PUSH1 0x2 PUSH0 DUP7 DUP2 MSTORE PUSH1 0x20 ADD SWAP1 DUP2 MSTORE PUSH1 0x20 ADD PUSH0 KECCAK256 PUSH1 0x1 ADD PUSH2 0x1670 SWAP1 SWAP2 SWAP1 PUSH4 0xFFFFFFFF AND JUMP JUMPDEST PUSH2 0xFEF DUP2 PUSH1 0x2 PUSH0 DUP7 DUP2 MSTORE PUSH1 0x20 ADD SWAP1 DUP2 MSTORE PUSH1 0x20 ADD PUSH0 KECCAK256 PUSH1 0x2 ADD PUSH2 0x1670 SWAP1 SWAP2 SWAP1 PUSH4 0xFFFFFFFF AND JUMP JUMPDEST DUP3 PUSH32 0x95F03E437E6D5037418F12BEF80FC7E0A5F27754C078A1D5D3F62D39BAC44E50 CALLER DUP11 DUP11 DUP11 DUP8 DUP8 DUP13 PUSH1 0x40 MLOAD PUSH2 0x102B SWAP8 SWAP7 SWAP6 SWAP5 SWAP4 SWAP3 SWAP2 SWAP1 PUSH2 0x3369 JUMP JUMPDEST PUSH1 0x40 MLOAD DUP1 SWAP2 SUB SWAP1 LOG2 DUP3 SWAP4 POP POP POP POP SWAP5 SWAP4 POP POP POP POP JUMP JUMPDEST PUSH0 NUMBER SWAP1 POP SWAP1 JUMP JUMPDEST PUSH0 PUSH32 0x0 PUSH20 0xFFFFFFFFFFFFFFFFFFFFFFFFFFFFFFFFFFFFFFFF AND PUSH4 0x3A46B1A8 DUP6 DUP6 PUSH1 0x40 MLOAD DUP4 PUSH4 0xFFFFFFFF AND PUSH1 0xE0 SHL DUP2 MSTORE PUSH1 0x4 ADD PUSH2 0x10A4 SWAP3 SWAP2 SWAP1 PUSH2 0x33F2 JUMP JUMPDEST PUSH1 0x20 PUSH1 0x40 MLOAD DUP1 DUP4 SUB DUP2 DUP7 GAS STATICCALL ISZERO DUP1 ISZERO PUSH2 0x10BF JUMPI RETURNDATASIZE PUSH0 DUP1 RETURNDATACOPY RETURNDATASIZE PUSH0 REVERT JUMPDEST POP POP POP POP PUSH1 0x40 MLOAD RETURNDATASIZE PUSH1 0x1F NOT PUSH1 0x1F DUP3 ADD AND DUP3 ADD DUP1 PUSH1 0x40 MSTORE POP DUP2 ADD SWAP1 PUSH2 0x10E3 SWAP2 SWAP1 PUSH2 0x342D JUMP JUMPDEST SWAP1 POP SWAP4 SWAP3 POP POP POP JUMP JUMPDEST PUSH0 PUSH1 0x7 SLOAD SWAP1 POP SWAP1 JUMP JUMPDEST PUSH0 PUSH2 0x10FF DUP3 PUSH2 0x169D JUMP JUMPDEST SWAP1 POP SWAP2 SWAP1 POP JUMP JUMPDEST PUSH0 PUSH2 0x110F PUSH2 0x16D5 JUMP JUMPDEST SWAP1 POP SWAP1 JUMP JUMPDEST PUSH0 PUSH2 0x116C PUSH1 0x2 PUSH0 DUP5 DUP2 MSTORE PUSH1 0x20 ADD SWAP1 DUP2 MSTORE PUSH1 0x20 ADD PUSH0 KECCAK256 PUSH1 0x2 ADD PUSH1 0x40 MLOAD DUP1 PUSH1 0x20 ADD PUSH1 0x40 MSTORE SWAP1 DUP2 PUSH0 DUP3 ADD PUSH0 SWAP1 SLOAD SWAP1 PUSH2 0x100 EXP SWAP1 DIV PUSH8 0xFFFFFFFFFFFFFFFF AND PUSH8 0xFFFFFFFFFFFFFFFF AND PUSH8 0xFFFFFFFFFFFFFFFF AND DUP2 MSTORE POP POP PUSH2 0x13DE JUMP JUMPDEST PUSH8 0xFFFFFFFFFFFFFFFF AND SWAP1 POP SWAP2 SWAP1 POP JUMP JUMPDEST CALLER PUSH20 0xFFFFFFFFFFFFFFFFFFFFFFFFFFFFFFFFFFFFFFFF AND PUSH2 0x119C PUSH2 0x16DE JUMP JUMPDEST PUSH20 0xFFFFFFFFFFFFFFFFFFFFFFFFFFFFFFFFFFFFFFFF AND EQ PUSH2 0x11F2 JUMPI PUSH1 0x40 MLOAD PUSH32 0x8C379A000000000000000000000000000000000000000000000000000000000 DUP2 MSTORE PUSH1 0x4 ADD PUSH2 0x11E9 SWAP1 PUSH2 0x34C8 JUMP JUMPDEST PUSH1 0x40 MLOAD DUP1 SWAP2 SUB SWAP1 REVERT JUMPDEST PUSH2 0x1260 DUP3 DUP3 DUP1 DUP1 PUSH1 0x1F ADD PUSH1 0x20 DUP1 SWAP2 DIV MUL PUSH1 0x20 ADD PUSH1 0x40 MLOAD SWAP1 DUP2 ADD PUSH1 0x40 MSTORE DUP1 SWAP4 SWAP3 SWAP2 SWAP1 DUP2 DUP2 MSTORE PUSH1 0x20 ADD DUP4 DUP4 DUP1 DUP3 DUP5 CALLDATACOPY PUSH0 DUP2 DUP5 ADD MSTORE PUSH1 0x1F NOT PUSH1 0x1F DUP3 ADD AND SWAP1 POP DUP1 DUP4 ADD SWAP3 POP POP POP POP POP POP POP DUP5 DUP7 PUSH20 0xFFFFFFFFFFFFFFFFFFFFFFFFFFFFFFFFFFFFFFFF AND PUSH2 0x16EC SWAP1 SWAP3 SWAP2 SWAP1 PUSH4 0xFFFFFFFF AND JUMP JUMPDEST POP POP POP POP POP JUMP JUMPDEST PUSH0 DUP5 DUP5 DUP5 DUP5 PUSH1 0x40 MLOAD PUSH1 0x20 ADD PUSH2 0x127F SWAP5 SWAP4 SWAP3 SWAP2 SWAP1 PUSH2 0x34F5 JUMP JUMPDEST PUSH1 0x40 MLOAD PUSH1 0x20 DUP2 DUP4 SUB SUB DUP2 MSTORE SWAP1 PUSH1 0x40 MSTORE DUP1 MLOAD SWAP1 PUSH1 0x20 ADD KECCAK256 PUSH0 SHR SWAP1 POP SWAP5 SWAP4 POP POP POP POP JUMP JUMPDEST PUSH0 PUSH1 0x8 PUSH0 SWAP1 SLOAD SWAP1 PUSH2 0x100 EXP SWAP1 DIV PUSH20 0xFFFFFFFFFFFFFFFFFFFFFFFFFFFFFFFFFFFFFFFF AND SWAP1 POP SWAP1 JUMP JUMPDEST PUSH1 0x60 PUSH2 0x12D3 PUSH2 0x1831 JUMP JUMPDEST SWAP1 POP SWAP1 JUMP JUMPDEST PUSH0 PUSH2 0x12F2 DUP4 DUP4 PUSH1 0x40 MLOAD DUP1 PUSH1 0x20 ADD PUSH1 0x40 MSTORE DUP1 PUSH0 DUP2 MSTORE POP PUSH2 0x1048 JUMP JUMPDEST SWAP1 POP SWAP3 SWAP2 POP POP JUMP JUMPDEST PUSH0 PUSH2 0x1304 DUP3 PUSH2 0x186E JUMP JUMPDEST SWAP1 POP SWAP2 SWAP1 POP JUMP JUMPDEST PUSH32 0x0 DUP2 JUMP JUMPDEST PUSH0 PUSH32 0x5B3962BB00000000000000000000000000000000000000000000000000000000 PUSH28 0xFFFFFFFFFFFFFFFFFFFFFFFFFFFFFFFFFFFFFFFFFFFFFFFFFFFFFFFF NOT AND DUP3 PUSH28 0xFFFFFFFFFFFFFFFFFFFFFFFFFFFFFFFFFFFFFFFFFFFFFFFFFFFFFFFF NOT AND EQ DUP1 PUSH2 0x13A1 JUMPI POP PUSH2 0x13A0 DUP3 PUSH2 0x1927 JUMP JUMPDEST JUMPDEST SWAP1 POP SWAP2 SWAP1 POP JUMP JUMPDEST PUSH0 PUSH1 0x4 SLOAD SWAP1 POP SWAP1 JUMP JUMPDEST PUSH0 PUSH2 0x13BF DUP7 DUP7 DUP7 DUP7 DUP7 PUSH2 0x1990 JUMP JUMPDEST SWAP1 POP SWAP6 SWAP5 POP POP POP POP POP JUMP JUMPDEST PUSH2 0x13D7 DUP6 DUP6 DUP6 DUP6 DUP6 PUSH2 0x1B55 JUMP JUMPDEST POP POP POP POP POP JUMP JUMPDEST PUSH0 DUP2 PUSH0 ADD MLOAD SWAP1 POP SWAP2 SWAP1 POP JUMP JUMPDEST PUSH0 PUSH1 0x3 SLOAD SWAP1 POP SWAP1 JUMP JUMPDEST PUSH0 DUP1 PUSH2 0x13FE DUP4 PUSH2 0x1BEF JUMP JUMPDEST SWAP1 POP PUSH1 0x4 PUSH1 0x7 DUP2 GT ISZERO PUSH2 0x1414 JUMPI PUSH2 0x1413 PUSH2 0x2812 JUMP JUMPDEST JUMPDEST DUP2 PUSH1 0x7 DUP2 GT ISZERO PUSH2 0x1427 JUMPI PUSH2 0x1426 PUSH2 0x2812 JUMP JUMPDEST JUMPDEST EQ PUSH2 0x1435 JUMPI DUP1 SWAP2 POP POP PUSH2 0x1599 JUMP JUMPDEST PUSH0 PUSH2 0x143F DUP5 PUSH2 0x1D86 JUMP JUMPDEST SWAP1 POP PUSH1 0x8 PUSH0 SWAP1 SLOAD SWAP1 PUSH2 0x100 EXP SWAP1 DIV PUSH20 0xFFFFFFFFFFFFFFFFFFFFFFFFFFFFFFFFFFFFFFFF AND PUSH20 0xFFFFFFFFFFFFFFFFFFFFFFFFFFFFFFFFFFFFFFFF AND PUSH4 0x2AB0F529 DUP3 PUSH1 0x40 MLOAD DUP3 PUSH4 0xFFFFFFFF AND PUSH1 0xE0 SHL DUP2 MSTORE PUSH1 0x4 ADD PUSH2 0x149B SWAP2 SWAP1 PUSH2 0x354D JUMP JUMPDEST PUSH1 0x20 PUSH1 0x40 MLOAD DUP1 DUP4 SUB DUP2 DUP7 GAS STATICCALL ISZERO DUP1 ISZERO PUSH2 0x14B6 JUMPI RETURNDATASIZE PUSH0 DUP1 RETURNDATACOPY RETURNDATASIZE PUSH0 REVERT JUMPDEST POP POP POP POP PUSH1 0x40 MLOAD RETURNDATASIZE PUSH1 0x1F NOT PUSH1 0x1F DUP3 ADD AND DUP3 ADD DUP1 PUSH1 0x40 MSTORE POP DUP2 ADD SWAP1 PUSH2 0x14DA SWAP2 SWAP1 PUSH2 0x3590 JUMP JUMPDEST ISZERO PUSH2 0x14EA JUMPI PUSH1 0x7 SWAP3 POP POP POP PUSH2 0x1599 JUMP JUMPDEST PUSH1 0x8 PUSH0 SWAP1 SLOAD SWAP1 PUSH2 0x100 EXP SWAP1 DIV PUSH20 0xFFFFFFFFFFFFFFFFFFFFFFFFFFFFFFFFFFFFFFFF AND PUSH20 0xFFFFFFFFFFFFFFFFFFFFFFFFFFFFFFFFFFFFFFFF AND PUSH4 0x584B153E DUP3 PUSH1 0x40 MLOAD DUP3 PUSH4 0xFFFFFFFF AND PUSH1 0xE0 SHL DUP2 MSTORE PUSH1 0x4 ADD PUSH2 0x1544 SWAP2 SWAP1 PUSH2 0x354D JUMP JUMPDEST PUSH1 0x20 PUSH1 0x40 MLOAD DUP1 DUP4 SUB DUP2 DUP7 GAS STATICCALL ISZERO DUP1 ISZERO PUSH2 0x155F JUMPI RETURNDATASIZE PUSH0 DUP1 RETURNDATACOPY RETURNDATASIZE PUSH0 REVERT JUMPDEST POP POP POP POP PUSH1 0x40 MLOAD RETURNDATASIZE PUSH1 0x1F NOT PUSH1 0x1F DUP3 ADD AND DUP3 ADD DUP1 PUSH1 0x40 MSTORE POP DUP2 ADD SWAP1 PUSH2 0x1583 SWAP2 SWAP1 PUSH2 0x3590 JUMP JUMPDEST ISZERO PUSH2 0x1593 JUMPI PUSH1 0x5 SWAP3 POP POP POP PUSH2 0x1599 JUMP JUMPDEST DUP2 SWAP3 POP POP POP JUMPDEST SWAP2 SWAP1 POP JUMP JUMPDEST PUSH0 PUSH1 0x6 PUSH0 DUP5 DUP2 MSTORE PUSH1 0x20 ADD SWAP1 DUP2 MSTORE PUSH1 0x20 ADD PUSH0 KECCAK256 PUSH1 0x3 ADD PUSH0 DUP4 PUSH20 0xFFFFFFFFFFFFFFFFFFFFFFFFFFFFFFFFFFFFFFFF AND PUSH20 0xFFFFFFFFFFFFFFFFFFFFFFFFFFFFFFFFFFFFFFFF AND DUP2 MSTORE PUSH1 0x20 ADD SWAP1 DUP2 MSTORE PUSH1 0x20 ADD PUSH0 KECCAK256 PUSH0 SWAP1 SLOAD SWAP1 PUSH2 0x100 EXP SWAP1 DIV PUSH1 0xFF AND SWAP1 POP SWAP3 SWAP2 POP POP JUMP JUMPDEST PUSH0 PUSH2 0x1610 DUP6 DUP6 DUP6 DUP6 PUSH2 0x1D91 JUMP JUMPDEST SWAP1 POP SWAP5 SWAP4 POP POP POP POP JUMP JUMPDEST PUSH0 PUSH8 0xFFFFFFFFFFFFFFFF DUP1 AND DUP3 GT ISZERO PUSH2 0x1668 JUMPI PUSH1 0x40 MLOAD PUSH32 0x8C379A000000000000000000000000000000000000000000000000000000000 DUP2 MSTORE PUSH1 0x4 ADD PUSH2 0x165F SWAP1 PUSH2 0x362B JUMP JUMPDEST PUSH1 0x40 MLOAD DUP1 SWAP2 SUB SWAP1 REVERT JUMPDEST DUP2 SWAP1 POP SWAP2 SWAP1 POP JUMP JUMPDEST DUP1 DUP3 PUSH0 ADD PUSH0 PUSH2 0x100 EXP DUP2 SLOAD DUP2 PUSH8 0xFFFFFFFFFFFFFFFF MUL NOT AND SWAP1 DUP4 PUSH8 0xFFFFFFFFFFFFFFFF AND MUL OR SWAP1 SSTORE POP POP POP JUMP JUMPDEST PUSH0 PUSH1 0x4 PUSH1 0x7 DUP2 GT ISZERO PUSH2 0x16B2 JUMPI PUSH2 0x16B1 PUSH2 0x2812 JUMP JUMPDEST JUMPDEST PUSH2 0x16BB DUP4 PUSH2 0xC29 JUMP JUMPDEST PUSH1 0x7 DUP2 GT ISZERO PUSH2 0x16CD JUMPI PUSH2 0x16CC PUSH2 0x2812 JUMP JUMPDEST JUMPDEST EQ SWAP1 POP SWAP2 SWAP1 POP JUMP JUMPDEST PUSH0 PUSH1 0x5 SLOAD SWAP1 POP SWAP1 JUMP JUMPDEST PUSH0 PUSH2 0x16E7 PUSH2 0x1E37 JUMP JUMPDEST SWAP1 POP SWAP1 JUMP JUMPDEST PUSH1 0x60 DUP2 SELFBALANCE LT ISZERO PUSH2 0x1731 JUMPI PUSH1 0x40 MLOAD PUSH32 0x8C379A000000000000000000000000000000000000000000000000000000000 DUP2 MSTORE PUSH1 0x4 ADD PUSH2 0x1728 SWAP1 PUSH2 0x36B9 JUMP JUMPDEST PUSH1 0x40 MLOAD DUP1 SWAP2 SUB SWAP1 REVERT JUMPDEST PUSH2 0x173A DUP5 PUSH2 0x1E5F JUMP JUMPDEST PUSH2 0x1779 JUMPI PUSH1 0x40 MLOAD PUSH32 0x8C379A000000000000000000000000000000000000000000000000000000000 DUP2 MSTORE PUSH1 0x4 ADD PUSH2 0x1770 SWAP1 PUSH2 0x3721 JUMP JUMPDEST PUSH1 0x40 MLOAD DUP1 SWAP2 SUB SWAP1 REVERT JUMPDEST PUSH0 DUP1 DUP6 PUSH20 0xFFFFFFFFFFFFFFFFFFFFFFFFFFFFFFFFFFFFFFFF AND DUP5 DUP7 PUSH1 0x40 MLOAD PUSH2 0x17A1 SWAP2 SWAP1 PUSH2 0x3779 JUMP JUMPDEST PUSH0 PUSH1 0x40 MLOAD DUP1 DUP4 SUB DUP2 DUP6 DUP8 GAS CALL SWAP3 POP POP POP RETURNDATASIZE DUP1 PUSH0 DUP2 EQ PUSH2 0x17DB JUMPI PUSH1 0x40 MLOAD SWAP2 POP PUSH1 0x1F NOT PUSH1 0x3F RETURNDATASIZE ADD AND DUP3 ADD PUSH1 0x40 MSTORE RETURNDATASIZE DUP3 MSTORE RETURNDATASIZE PUSH0 PUSH1 0x20 DUP5 ADD RETURNDATACOPY PUSH2 0x17E0 JUMP JUMPDEST PUSH1 0x60 SWAP2 POP JUMPDEST POP SWAP2 POP SWAP2 POP DUP2 PUSH2 0x1825 JUMPI PUSH1 0x40 MLOAD PUSH32 0x8C379A000000000000000000000000000000000000000000000000000000000 DUP2 MSTORE PUSH1 0x4 ADD PUSH2 0x181C SWAP1 PUSH2 0x37FF JUMP JUMPDEST PUSH1 0x40 MLOAD DUP1 SWAP2 SUB SWAP1 REVERT JUMPDEST DUP1 SWAP3 POP POP POP SWAP4 SWAP3 POP POP POP JUMP JUMPDEST PUSH1 0x60 PUSH1 0x40 MLOAD DUP1 PUSH1 0x40 ADD PUSH1 0x40 MSTORE DUP1 PUSH1 0x20 DUP2 MSTORE PUSH1 0x20 ADD PUSH32 0x737570706F72743D627261766F2671756F72756D3D666F722C6162737461696E DUP2 MSTORE POP SWAP1 POP SWAP1 JUMP JUMPDEST PUSH0 PUSH1 0x64 PUSH1 0x7 SLOAD PUSH32 0x0 PUSH20 0xFFFFFFFFFFFFFFFFFFFFFFFFFFFFFFFFFFFFFFFF AND PUSH4 0x8E539E8C DUP6 PUSH1 0x40 MLOAD DUP3 PUSH4 0xFFFFFFFF AND PUSH1 0xE0 SHL DUP2 MSTORE PUSH1 0x4 ADD PUSH2 0x18CD SWAP2 SWAP1 PUSH2 0x1FC8 JUMP JUMPDEST PUSH1 0x20 PUSH1 0x40 MLOAD DUP1 DUP4 SUB DUP2 DUP7 GAS STATICCALL ISZERO DUP1 ISZERO PUSH2 0x18E8 JUMPI RETURNDATASIZE PUSH0 DUP1 RETURNDATACOPY RETURNDATASIZE PUSH0 REVERT JUMPDEST POP POP POP POP PUSH1 0x40 MLOAD RETURNDATASIZE PUSH1 0x1F NOT PUSH1 0x1F DUP3 ADD AND DUP3 ADD DUP1 PUSH1 0x40 MSTORE POP DUP2 ADD SWAP1 PUSH2 0x190C SWAP2 SWAP1 PUSH2 0x342D JUMP JUMPDEST PUSH2 0x1916 SWAP2 SWAP1 PUSH2 0x381D JUMP JUMPDEST PUSH2 0x1920 SWAP2 SWAP1 PUSH2 0x388B JUMP JUMPDEST SWAP1 POP SWAP2 SWAP1 POP JUMP JUMPDEST PUSH0 PUSH32 0x1FFC9A700000000000000000000000000000000000000000000000000000000 PUSH28 0xFFFFFFFFFFFFFFFFFFFFFFFFFFFFFFFFFFFFFFFFFFFFFFFFFFFFFFFF NOT AND DUP3 PUSH28 0xFFFFFFFFFFFFFFFFFFFFFFFFFFFFFFFFFFFFFFFFFFFFFFFFFFFFFFFF NOT AND EQ SWAP1 POP SWAP2 SWAP1 POP JUMP JUMPDEST PUSH0 PUSH1 0x8 PUSH0 SWAP1 SLOAD SWAP1 PUSH2 0x100 EXP SWAP1 DIV PUSH20 0xFFFFFFFFFFFFFFFFFFFFFFFFFFFFFFFFFFFFFFFF AND PUSH20 0xFFFFFFFFFFFFFFFFFFFFFFFFFFFFFFFFFFFFFFFF AND PUSH4 0x8F2A0BB0 DUP7 DUP7 DUP7 PUSH0 DUP1 SHL DUP8 PUSH1 0x8 PUSH0 SWAP1 SLOAD SWAP1 PUSH2 0x100 EXP SWAP1 DIV PUSH20 0xFFFFFFFFFFFFFFFFFFFFFFFFFFFFFFFFFFFFFFFF AND PUSH20 0xFFFFFFFFFFFFFFFFFFFFFFFFFFFFFFFFFFFFFFFF AND PUSH4 0xF27A0C92 PUSH1 0x40 MLOAD DUP2 PUSH4 0xFFFFFFFF AND PUSH1 0xE0 SHL DUP2 MSTORE PUSH1 0x4 ADD PUSH1 0x20 PUSH1 0x40 MLOAD DUP1 DUP4 SUB DUP2 DUP7 GAS STATICCALL ISZERO DUP1 ISZERO PUSH2 0x1A3F JUMPI RETURNDATASIZE PUSH0 DUP1 RETURNDATACOPY RETURNDATASIZE PUSH0 REVERT JUMPDEST POP POP POP POP PUSH1 0x40 MLOAD RETURNDATASIZE PUSH1 0x1F NOT PUSH1 0x1F DUP3 ADD AND DUP3 ADD DUP1 PUSH1 0x40 MSTORE POP DUP2 ADD SWAP1 PUSH2 0x1A63 SWAP2 SWAP1 PUSH2 0x342D JUMP JUMPDEST PUSH1 0x40 MLOAD DUP8 PUSH4 0xFFFFFFFF AND PUSH1 0xE0 SHL DUP2 MSTORE PUSH1 0x4 ADD PUSH2 0x1A84 SWAP7 SWAP6 SWAP5 SWAP4 SWAP3 SWAP2 SWAP1 PUSH2 0x38BB JUMP JUMPDEST PUSH0 PUSH1 0x40 MLOAD DUP1 DUP4 SUB DUP2 PUSH0 DUP8 DUP1 EXTCODESIZE ISZERO DUP1 ISZERO PUSH2 0x1A9B JUMPI PUSH0 DUP1 REVERT JUMPDEST POP GAS CALL ISZERO DUP1 ISZERO PUSH2 0x1AAD JUMPI RETURNDATASIZE PUSH0 DUP1 RETURNDATACOPY RETURNDATASIZE PUSH0 REVERT JUMPDEST POP POP POP POP PUSH1 0x8 PUSH0 SWAP1 SLOAD SWAP1 PUSH2 0x100 EXP SWAP1 DIV PUSH20 0xFFFFFFFFFFFFFFFFFFFFFFFFFFFFFFFFFFFFFFFF AND PUSH20 0xFFFFFFFFFFFFFFFFFFFFFFFFFFFFFFFFFFFFFFFF AND PUSH4 0xF27A0C92 PUSH1 0x40 MLOAD DUP2 PUSH4 0xFFFFFFFF AND PUSH1 0xE0 SHL DUP2 MSTORE PUSH1 0x4 ADD PUSH1 0x20 PUSH1 0x40 MLOAD DUP1 DUP4 SUB DUP2 DUP7 GAS STATICCALL ISZERO DUP1 ISZERO PUSH2 0x1B1B JUMPI RETURNDATASIZE PUSH0 DUP1 RETURNDATACOPY RETURNDATASIZE PUSH0 REVERT JUMPDEST POP POP POP POP PUSH1 0x40 MLOAD RETURNDATASIZE PUSH1 0x1F NOT PUSH1 0x1F DUP3 ADD AND DUP3 ADD DUP1 PUSH1 0x40 MSTORE POP DUP2 ADD SWAP1 PUSH2 0x1B3F SWAP2 SWAP1 PUSH2 0x342D JUMP JUMPDEST TIMESTAMP PUSH2 0x1B4A SWAP2 SWAP1 PUSH2 0x392F JUMP JUMPDEST SWAP1 POP SWAP6 SWAP5 POP POP POP POP POP JUMP JUMPDEST PUSH1 0x8 PUSH0 SWAP1 SLOAD SWAP1 PUSH2 0x100 EXP SWAP1 DIV PUSH20 0xFFFFFFFFFFFFFFFFFFFFFFFFFFFFFFFFFFFFFFFF AND PUSH20 0xFFFFFFFFFFFFFFFFFFFFFFFFFFFFFFFFFFFFFFFF AND PUSH4 0xE38335E5 CALLVALUE DUP7 DUP7 DUP7 PUSH0 DUP1 SHL DUP8 PUSH1 0x40 MLOAD DUP8 PUSH4 0xFFFFFFFF AND PUSH1 0xE0 SHL DUP2 MSTORE PUSH1 0x4 ADD PUSH2 0x1BBA SWAP6 SWAP5 SWAP4 SWAP3 SWAP2 SWAP1 PUSH2 0x3962 JUMP JUMPDEST PUSH0 PUSH1 0x40 MLOAD DUP1 DUP4 SUB DUP2 DUP6 DUP9 DUP1 EXTCODESIZE ISZERO DUP1 ISZERO PUSH2 0x1BD1 JUMPI PUSH0 DUP1 REVERT JUMPDEST POP GAS CALL ISZERO DUP1 ISZERO PUSH2 0x1BE3 JUMPI RETURNDATASIZE PUSH0 DUP1 RETURNDATACOPY RETURNDATASIZE PUSH0 REVERT JUMPDEST POP POP POP POP POP POP POP POP POP POP JUMP JUMPDEST PUSH0 DUP1 PUSH1 0x2 PUSH0 DUP5 DUP2 MSTORE PUSH1 0x20 ADD SWAP1 DUP2 MSTORE PUSH1 0x20 ADD PUSH0 KECCAK256 SWAP1 POP DUP1 PUSH1 0x3 ADD PUSH0 SWAP1 SLOAD SWAP1 PUSH2 0x100 EXP SWAP1 DIV PUSH1 0xFF AND ISZERO PUSH2 0x1C24 JUMPI PUSH1 0x7 SWAP2 POP POP PUSH2 0x1D81 JUMP JUMPDEST DUP1 PUSH1 0x3 ADD PUSH1 0x1 SWAP1 SLOAD SWAP1 PUSH2 0x100 EXP SWAP1 DIV PUSH1 0xFF AND ISZERO PUSH2 0x1C45 JUMPI PUSH1 0x2 SWAP2 POP POP PUSH2 0x1D81 JUMP JUMPDEST PUSH0 PUSH2 0x1C8D DUP3 PUSH1 0x1 ADD PUSH1 0x40 MLOAD DUP1 PUSH1 0x20 ADD PUSH1 0x40 MSTORE SWAP1 DUP2 PUSH0 DUP3 ADD PUSH0 SWAP1 SLOAD SWAP1 PUSH2 0x100 EXP SWAP1 DIV PUSH8 0xFFFFFFFFFFFFFFFF AND PUSH8 0xFFFFFFFFFFFFFFFF AND PUSH8 0xFFFFFFFFFFFFFFFF AND DUP2 MSTORE POP POP PUSH2 0x13DE JUMP JUMPDEST PUSH8 0xFFFFFFFFFFFFFFFF AND SWAP1 POP PUSH0 DUP2 SUB PUSH2 0x1CDB JUMPI PUSH1 0x40 MLOAD PUSH32 0x8C379A000000000000000000000000000000000000000000000000000000000 DUP2 MSTORE PUSH1 0x4 ADD PUSH2 0x1CD2 SWAP1 PUSH2 0x3A12 JUMP JUMPDEST PUSH1 0x40 MLOAD DUP1 SWAP2 SUB SWAP1 REVERT JUMPDEST DUP1 NUMBER GT PUSH2 0x1CEC JUMPI PUSH0 SWAP3 POP POP POP PUSH2 0x1D81 JUMP JUMPDEST PUSH0 PUSH2 0x1D34 DUP4 PUSH1 0x2 ADD PUSH1 0x40 MLOAD DUP1 PUSH1 0x20 ADD PUSH1 0x40 MSTORE SWAP1 DUP2 PUSH0 DUP3 ADD PUSH0 SWAP1 SLOAD SWAP1 PUSH2 0x100 EXP SWAP1 DIV PUSH8 0xFFFFFFFFFFFFFFFF AND PUSH8 0xFFFFFFFFFFFFFFFF AND PUSH8 0xFFFFFFFFFFFFFFFF AND DUP2 MSTORE POP POP PUSH2 0x13DE JUMP JUMPDEST PUSH8 0xFFFFFFFFFFFFFFFF AND SWAP1 POP DUP1 NUMBER GT PUSH2 0x1D53 JUMPI PUSH1 0x1 SWAP4 POP POP POP POP PUSH2 0x1D81 JUMP JUMPDEST PUSH2 0x1D5C DUP6 PUSH2 0x1E81 JUMP JUMPDEST DUP1 ISZERO PUSH2 0x1D6D JUMPI POP PUSH2 0x1D6C DUP6 PUSH2 0x1EC5 JUMP JUMPDEST JUMPDEST PUSH2 0x1D78 JUMPI PUSH1 0x3 PUSH2 0x1D7B JUMP JUMPDEST PUSH1 0x4 JUMPDEST SWAP4 POP POP POP POP JUMPDEST SWAP2 SWAP1 POP JUMP JUMPDEST PUSH0 DUP2 PUSH0 SHL SWAP1 POP SWAP2 SWAP1 POP JUMP JUMPDEST PUSH0 PUSH2 0x1D9E DUP6 DUP6 DUP6 DUP6 PUSH2 0x1267 JUMP JUMPDEST SWAP1 POP PUSH1 0x8 PUSH0 SWAP1 SLOAD SWAP1 PUSH2 0x100 EXP SWAP1 DIV PUSH20 0xFFFFFFFFFFFFFFFFFFFFFFFFFFFFFFFFFFFFFFFF AND PUSH20 0xFFFFFFFFFFFFFFFFFFFFFFFFFFFFFFFFFFFFFFFF AND PUSH4 0xC4D252F5 PUSH2 0x1DE6 DUP4 PUSH2 0x1D86 JUMP JUMPDEST PUSH1 0x40 MLOAD DUP3 PUSH4 0xFFFFFFFF AND PUSH1 0xE0 SHL DUP2 MSTORE PUSH1 0x4 ADD PUSH2 0x1E02 SWAP2 SWAP1 PUSH2 0x354D JUMP JUMPDEST PUSH0 PUSH1 0x40 MLOAD DUP1 DUP4 SUB DUP2 PUSH0 DUP8 DUP1 EXTCODESIZE ISZERO DUP1 ISZERO PUSH2 0x1E19 JUMPI PUSH0 DUP1 REVERT JUMPDEST POP GAS CALL ISZERO DUP1 ISZERO PUSH2 0x1E2B JUMPI RETURNDATASIZE PUSH0 DUP1 RETURNDATACOPY RETURNDATASIZE PUSH0 REVERT JUMPDEST POP POP POP POP SWAP5 SWAP4 POP POP POP POP JUMP JUMPDEST PUSH0 PUSH1 0x8 PUSH0 SWAP1 SLOAD SWAP1 PUSH2 0x100 EXP SWAP1 DIV PUSH20 0xFFFFFFFFFFFFFFFFFFFFFFFFFFFFFFFFFFFFFFFF AND SWAP1 POP SWAP1 JUMP JUMPDEST PUSH0 DUP1 DUP3 PUSH20 0xFFFFFFFFFFFFFFFFFFFFFFFFFFFFFFFFFFFFFFFF AND EXTCODESIZE GT SWAP1 POP SWAP2 SWAP1 POP JUMP JUMPDEST PUSH0 DUP1 PUSH1 0x6 PUSH0 DUP5 DUP2 MSTORE PUSH1 0x20 ADD SWAP1 DUP2 MSTORE PUSH1 0x20 ADD PUSH0 KECCAK256 SWAP1 POP PUSH2 0x1EA7 PUSH2 0x1EA2 DUP5 PUSH2 0xB76 JUMP JUMPDEST PUSH2 0x12FA JUMP JUMPDEST DUP2 PUSH1 0x2 ADD SLOAD DUP3 PUSH1 0x1 ADD SLOAD PUSH2 0x1EBB SWAP2 SWAP1 PUSH2 0x392F JUMP JUMPDEST LT ISZERO SWAP2 POP POP SWAP2 SWAP1 POP JUMP JUMPDEST PUSH0 DUP1 PUSH1 0x6 PUSH0 DUP5 DUP2 MSTORE PUSH1 0x20 ADD SWAP1 DUP2 MSTORE PUSH1 0x20 ADD PUSH0 KECCAK256 SWAP1 POP DUP1 PUSH0 ADD SLOAD DUP2 PUSH1 0x1 ADD SLOAD GT SWAP2 POP POP SWAP2 SWAP1 POP JUMP JUMPDEST PUSH0 PUSH1 0x40 MLOAD SWAP1 POP SWAP1 JUMP JUMPDEST PUSH0 DUP1 REVERT JUMPDEST PUSH0 DUP1 REVERT JUMPDEST PUSH0 PUSH32 0xFFFFFFFF00000000000000000000000000000000000000000000000000000000 DUP3 AND SWAP1 POP SWAP2 SWAP1 POP JUMP JUMPDEST PUSH2 0x1F31 DUP2 PUSH2 0x1EFD JUMP JUMPDEST DUP2 EQ PUSH2 0x1F3B JUMPI PUSH0 DUP1 REVERT JUMPDEST POP JUMP JUMPDEST PUSH0 DUP2 CALLDATALOAD SWAP1 POP PUSH2 0x1F4C DUP2 PUSH2 0x1F28 JUMP JUMPDEST SWAP3 SWAP2 POP POP JUMP JUMPDEST PUSH0 PUSH1 0x20 DUP3 DUP5 SUB SLT ISZERO PUSH2 0x1F67 JUMPI PUSH2 0x1F66 PUSH2 0x1EF5 JUMP JUMPDEST JUMPDEST PUSH0 PUSH2 0x1F74 DUP5 DUP3 DUP6 ADD PUSH2 0x1F3E JUMP JUMPDEST SWAP2 POP POP SWAP3 SWAP2 POP POP JUMP JUMPDEST PUSH0 DUP2 ISZERO ISZERO SWAP1 POP SWAP2 SWAP1 POP JUMP JUMPDEST PUSH2 0x1F91 DUP2 PUSH2 0x1F7D JUMP JUMPDEST DUP3 MSTORE POP POP JUMP JUMPDEST PUSH0 PUSH1 0x20 DUP3 ADD SWAP1 POP PUSH2 0x1FAA PUSH0 DUP4 ADD DUP5 PUSH2 0x1F88 JUMP JUMPDEST SWAP3 SWAP2 POP POP JUMP JUMPDEST PUSH0 DUP2 SWAP1 POP SWAP2 SWAP1 POP JUMP JUMPDEST PUSH2 0x1FC2 DUP2 PUSH2 0x1FB0 JUMP JUMPDEST DUP3 MSTORE POP POP JUMP JUMPDEST PUSH0 PUSH1 0x20 DUP3 ADD SWAP1 POP PUSH2 0x1FDB PUSH0 DUP4 ADD DUP5 PUSH2 0x1FB9 JUMP JUMPDEST SWAP3 SWAP2 POP POP JUMP JUMPDEST PUSH2 0x1FEA DUP2 PUSH2 0x1FB0 JUMP JUMPDEST DUP2 EQ PUSH2 0x1FF4 JUMPI PUSH0 DUP1 REVERT JUMPDEST POP JUMP JUMPDEST PUSH0 DUP2 CALLDATALOAD SWAP1 POP PUSH2 0x2005 DUP2 PUSH2 0x1FE1 JUMP JUMPDEST SWAP3 SWAP2 POP POP JUMP JUMPDEST PUSH0 PUSH1 0xFF DUP3 AND SWAP1 POP SWAP2 SWAP1 POP JUMP JUMPDEST PUSH2 0x2020 DUP2 PUSH2 0x200B JUMP JUMPDEST DUP2 EQ PUSH2 0x202A JUMPI PUSH0 DUP1 REVERT JUMPDEST POP JUMP JUMPDEST PUSH0 DUP2 CALLDATALOAD SWAP1 POP PUSH2 0x203B DUP2 PUSH2 0x2017 JUMP JUMPDEST SWAP3 SWAP2 POP POP JUMP JUMPDEST PUSH0 DUP1 REVERT JUMPDEST PUSH0 DUP1 REVERT JUMPDEST PUSH0 DUP1 REVERT JUMPDEST PUSH0 DUP1 DUP4 PUSH1 0x1F DUP5 ADD SLT PUSH2 0x2062 JUMPI PUSH2 0x2061 PUSH2 0x2041 JUMP JUMPDEST JUMPDEST DUP3 CALLDATALOAD SWAP1 POP PUSH8 0xFFFFFFFFFFFFFFFF DUP2 GT ISZERO PUSH2 0x207F JUMPI PUSH2 0x207E PUSH2 0x2045 JUMP JUMPDEST JUMPDEST PUSH1 0x20 DUP4 ADD SWAP2 POP DUP4 PUSH1 0x1 DUP3 MUL DUP4 ADD GT ISZERO PUSH2 0x209B JUMPI PUSH2 0x209A PUSH2 0x2049 JUMP JUMPDEST JUMPDEST SWAP3 POP SWAP3 SWAP1 POP JUMP JUMPDEST PUSH0 DUP1 DUP4 PUSH1 0x1F DUP5 ADD SLT PUSH2 0x20B7 JUMPI PUSH2 0x20B6 PUSH2 0x2041 JUMP JUMPDEST JUMPDEST DUP3 CALLDATALOAD SWAP1 POP PUSH8 0xFFFFFFFFFFFFFFFF DUP2 GT ISZERO PUSH2 0x20D4 JUMPI PUSH2 0x20D3 PUSH2 0x2045 JUMP JUMPDEST JUMPDEST PUSH1 0x20 DUP4 ADD SWAP2 POP DUP4 PUSH1 0x1 DUP3 MUL DUP4 ADD GT ISZERO PUSH2 0x20F0 JUMPI PUSH2 0x20EF PUSH2 0x2049 JUMP JUMPDEST JUMPDEST SWAP3 POP SWAP3 SWAP1 POP JUMP JUMPDEST PUSH0 DUP2 SWAP1 POP SWAP2 SWAP1 POP JUMP JUMPDEST PUSH2 0x2109 DUP2 PUSH2 0x20F7 JUMP JUMPDEST DUP2 EQ PUSH2 0x2113 JUMPI PUSH0 DUP1 REVERT JUMPDEST POP JUMP JUMPDEST PUSH0 DUP2 CALLDATALOAD SWAP1 POP PUSH2 0x2124 DUP2 PUSH2 0x2100 JUMP JUMPDEST SWAP3 SWAP2 POP POP JUMP JUMPDEST PUSH0 DUP1 PUSH0 DUP1 PUSH0 DUP1 PUSH0 DUP1 PUSH0 PUSH1 0xE0 DUP11 DUP13 SUB SLT ISZERO PUSH2 0x2147 JUMPI PUSH2 0x2146 PUSH2 0x1EF5 JUMP JUMPDEST JUMPDEST PUSH0 PUSH2 0x2154 DUP13 DUP3 DUP14 ADD PUSH2 0x1FF7 JUMP JUMPDEST SWAP10 POP POP PUSH1 0x20 PUSH2 0x2165 DUP13 DUP3 DUP14 ADD PUSH2 0x202D JUMP JUMPDEST SWAP9 POP POP PUSH1 0x40 DUP11 ADD CALLDATALOAD PUSH8 0xFFFFFFFFFFFFFFFF DUP2 GT ISZERO PUSH2 0x2186 JUMPI PUSH2 0x2185 PUSH2 0x1EF9 JUMP JUMPDEST JUMPDEST PUSH2 0x2192 DUP13 DUP3 DUP14 ADD PUSH2 0x204D JUMP JUMPDEST SWAP8 POP SWAP8 POP POP PUSH1 0x60 DUP11 ADD CALLDATALOAD PUSH8 0xFFFFFFFFFFFFFFFF DUP2 GT ISZERO PUSH2 0x21B5 JUMPI PUSH2 0x21B4 PUSH2 0x1EF9 JUMP JUMPDEST JUMPDEST PUSH2 0x21C1 DUP13 DUP3 DUP14 ADD PUSH2 0x20A2 JUMP JUMPDEST SWAP6 POP SWAP6 POP POP PUSH1 0x80 PUSH2 0x21D4 DUP13 DUP3 DUP14 ADD PUSH2 0x202D JUMP JUMPDEST SWAP4 POP POP PUSH1 0xA0 PUSH2 0x21E5 DUP13 DUP3 DUP14 ADD PUSH2 0x2116 JUMP JUMPDEST SWAP3 POP POP PUSH1 0xC0 PUSH2 0x21F6 DUP13 DUP3 DUP14 ADD PUSH2 0x2116 JUMP JUMPDEST SWAP2 POP POP SWAP3 SWAP6 SWAP9 POP SWAP3 SWAP6 SWAP9 POP SWAP3 SWAP6 SWAP9 JUMP JUMPDEST PUSH0 DUP2 MLOAD SWAP1 POP SWAP2 SWAP1 POP JUMP JUMPDEST PUSH0 DUP3 DUP3 MSTORE PUSH1 0x20 DUP3 ADD SWAP1 POP SWAP3 SWAP2 POP POP JUMP JUMPDEST PUSH0 JUMPDEST DUP4 DUP2 LT ISZERO PUSH2 0x223D JUMPI DUP1 DUP3 ADD MLOAD DUP2 DUP5 ADD MSTORE PUSH1 0x20 DUP2 ADD SWAP1 POP PUSH2 0x2222 JUMP JUMPDEST PUSH0 DUP5 DUP5 ADD MSTORE POP POP POP POP JUMP JUMPDEST PUSH0 PUSH1 0x1F NOT PUSH1 0x1F DUP4 ADD AND SWAP1 POP SWAP2 SWAP1 POP JUMP JUMPDEST PUSH0 PUSH2 0x2262 DUP3 PUSH2 0x2206 JUMP JUMPDEST PUSH2 0x226C DUP2 DUP6 PUSH2 0x2210 JUMP JUMPDEST SWAP4 POP PUSH2 0x227C DUP2 DUP6 PUSH1 0x20 DUP7 ADD PUSH2 0x2220 JUMP JUMPDEST PUSH2 0x2285 DUP2 PUSH2 0x2248 JUMP JUMPDEST DUP5 ADD SWAP2 POP POP SWAP3 SWAP2 POP POP JUMP JUMPDEST PUSH0 PUSH1 0x20 DUP3 ADD SWAP1 POP DUP2 DUP2 SUB PUSH0 DUP4 ADD MSTORE PUSH2 0x22A8 DUP2 DUP5 PUSH2 0x2258 JUMP JUMPDEST SWAP1 POP SWAP3 SWAP2 POP POP JUMP JUMPDEST PUSH0 PUSH1 0x20 DUP3 DUP5 SUB SLT ISZERO PUSH2 0x22C5 JUMPI PUSH2 0x22C4 PUSH2 0x1EF5 JUMP JUMPDEST JUMPDEST PUSH0 PUSH2 0x22D2 DUP5 DUP3 DUP6 ADD PUSH2 0x1FF7 JUMP JUMPDEST SWAP2 POP POP SWAP3 SWAP2 POP POP JUMP JUMPDEST PUSH0 PUSH20 0xFFFFFFFFFFFFFFFFFFFFFFFFFFFFFFFFFFFFFFFF DUP3 AND SWAP1 POP SWAP2 SWAP1 POP JUMP JUMPDEST PUSH0 PUSH2 0x2304 DUP3 PUSH2 0x22DB JUMP JUMPDEST SWAP1 POP SWAP2 SWAP1 POP JUMP JUMPDEST PUSH2 0x2314 DUP2 PUSH2 0x22FA JUMP JUMPDEST DUP3 MSTORE POP POP JUMP JUMPDEST PUSH0 PUSH1 0x20 DUP3 ADD SWAP1 POP PUSH2 0x232D PUSH0 DUP4 ADD DUP5 PUSH2 0x230B JUMP JUMPDEST SWAP3 SWAP2 POP POP JUMP JUMPDEST PUSH32 0x4E487B7100000000000000000000000000000000000000000000000000000000 PUSH0 MSTORE PUSH1 0x41 PUSH1 0x4 MSTORE PUSH1 0x24 PUSH0 REVERT JUMPDEST PUSH2 0x2369 DUP3 PUSH2 0x2248 JUMP JUMPDEST DUP2 ADD DUP2 DUP2 LT PUSH8 0xFFFFFFFFFFFFFFFF DUP3 GT OR ISZERO PUSH2 0x2388 JUMPI PUSH2 0x2387 PUSH2 0x2333 JUMP JUMPDEST JUMPDEST DUP1 PUSH1 0x40 MSTORE POP POP POP JUMP JUMPDEST PUSH0 PUSH2 0x239A PUSH2 0x1EEC JUMP JUMPDEST SWAP1 POP PUSH2 0x23A6 DUP3 DUP3 PUSH2 0x2360 JUMP JUMPDEST SWAP2 SWAP1 POP JUMP JUMPDEST PUSH0 PUSH8 0xFFFFFFFFFFFFFFFF DUP3 GT ISZERO PUSH2 0x23C5 JUMPI PUSH2 0x23C4 PUSH2 0x2333 JUMP JUMPDEST JUMPDEST PUSH1 0x20 DUP3 MUL SWAP1 POP PUSH1 0x20 DUP2 ADD SWAP1 POP SWAP2 SWAP1 POP JUMP JUMPDEST PUSH2 0x23DF DUP2 PUSH2 0x22FA JUMP JUMPDEST DUP2 EQ PUSH2 0x23E9 JUMPI PUSH0 DUP1 REVERT JUMPDEST POP JUMP JUMPDEST PUSH0 DUP2 CALLDATALOAD SWAP1 POP PUSH2 0x23FA DUP2 PUSH2 0x23D6 JUMP JUMPDEST SWAP3 SWAP2 POP POP JUMP JUMPDEST PUSH0 PUSH2 0x2412 PUSH2 0x240D DUP5 PUSH2 0x23AB JUMP JUMPDEST PUSH2 0x2391 JUMP JUMPDEST SWAP1 POP DUP1 DUP4 DUP3 MSTORE PUSH1 0x20 DUP3 ADD SWAP1 POP PUSH1 0x20 DUP5 MUL DUP4 ADD DUP6 DUP2 GT ISZERO PUSH2 0x2435 JUMPI PUSH2 0x2434 PUSH2 0x2049 JUMP JUMPDEST JUMPDEST DUP4 JUMPDEST DUP2 DUP2 LT ISZERO PUSH2 0x245E JUMPI DUP1 PUSH2 0x244A DUP9 DUP3 PUSH2 0x23EC JUMP JUMPDEST DUP5 MSTORE PUSH1 0x20 DUP5 ADD SWAP4 POP POP PUSH1 0x20 DUP2 ADD SWAP1 POP PUSH2 0x2437 JUMP JUMPDEST POP POP POP SWAP4 SWAP3 POP POP POP JUMP JUMPDEST PUSH0 DUP3 PUSH1 0x1F DUP4 ADD SLT PUSH2 0x247C JUMPI PUSH2 0x247B PUSH2 0x2041 JUMP JUMPDEST JUMPDEST DUP2 CALLDATALOAD PUSH2 0x248C DUP5 DUP3 PUSH1 0x20 DUP7 ADD PUSH2 0x2400 JUMP JUMPDEST SWAP2 POP POP SWAP3 SWAP2 POP POP JUMP JUMPDEST PUSH0 PUSH8 0xFFFFFFFFFFFFFFFF DUP3 GT ISZERO PUSH2 0x24AF JUMPI PUSH2 0x24AE PUSH2 0x2333 JUMP JUMPDEST JUMPDEST PUSH1 0x20 DUP3 MUL SWAP1 POP PUSH1 0x20 DUP2 ADD SWAP1 POP SWAP2 SWAP1 POP JUMP JUMPDEST PUSH0 PUSH2 0x24D2 PUSH2 0x24CD DUP5 PUSH2 0x2495 JUMP JUMPDEST PUSH2 0x2391 JUMP JUMPDEST SWAP1 POP DUP1 DUP4 DUP3 MSTORE PUSH1 0x20 DUP3 ADD SWAP1 POP PUSH1 0x20 DUP5 MUL DUP4 ADD DUP6 DUP2 GT ISZERO PUSH2 0x24F5 JUMPI PUSH2 0x24F4 PUSH2 0x2049 JUMP JUMPDEST JUMPDEST DUP4 JUMPDEST DUP2 DUP2 LT ISZERO PUSH2 0x251E JUMPI DUP1 PUSH2 0x250A DUP9 DUP3 PUSH2 0x1FF7 JUMP JUMPDEST DUP5 MSTORE PUSH1 0x20 DUP5 ADD SWAP4 POP POP PUSH1 0x20 DUP2 ADD SWAP1 POP PUSH2 0x24F7 JUMP JUMPDEST POP POP POP SWAP4 SWAP3 POP POP POP JUMP JUMPDEST PUSH0 DUP3 PUSH1 0x1F DUP4 ADD SLT PUSH2 0x253C JUMPI PUSH2 0x253B PUSH2 0x2041 JUMP JUMPDEST JUMPDEST DUP2 CALLDATALOAD PUSH2 0x254C DUP5 DUP3 PUSH1 0x20 DUP7 ADD PUSH2 0x24C0 JUMP JUMPDEST SWAP2 POP POP SWAP3 SWAP2 POP POP JUMP JUMPDEST PUSH0 PUSH8 0xFFFFFFFFFFFFFFFF DUP3 GT ISZERO PUSH2 0x256F JUMPI PUSH2 0x256E PUSH2 0x2333 JUMP JUMPDEST JUMPDEST PUSH1 0x20 DUP3 MUL SWAP1 POP PUSH1 0x20 DUP2 ADD SWAP1 POP SWAP2 SWAP1 POP JUMP JUMPDEST PUSH0 DUP1 REVERT JUMPDEST PUSH0 PUSH8 0xFFFFFFFFFFFFFFFF DUP3 GT ISZERO PUSH2 0x259E JUMPI PUSH2 0x259D PUSH2 0x2333 JUMP JUMPDEST JUMPDEST PUSH2 0x25A7 DUP3 PUSH2 0x2248 JUMP JUMPDEST SWAP1 POP PUSH1 0x20 DUP2 ADD SWAP1 POP SWAP2 SWAP1 POP JUMP JUMPDEST DUP3 DUP2 DUP4 CALLDATACOPY PUSH0 DUP4 DUP4 ADD MSTORE POP POP POP JUMP JUMPDEST PUSH0 PUSH2 0x25D4 PUSH2 0x25CF DUP5 PUSH2 0x2584 JUMP JUMPDEST PUSH2 0x2391 JUMP JUMPDEST SWAP1 POP DUP3 DUP2 MSTORE PUSH1 0x20 DUP2 ADD DUP5 DUP5 DUP5 ADD GT ISZERO PUSH2 0x25F0 JUMPI PUSH2 0x25EF PUSH2 0x2580 JUMP JUMPDEST JUMPDEST PUSH2 0x25FB DUP5 DUP3 DUP6 PUSH2 0x25B4 JUMP JUMPDEST POP SWAP4 SWAP3 POP POP POP JUMP JUMPDEST PUSH0 DUP3 PUSH1 0x1F DUP4 ADD SLT PUSH2 0x2617 JUMPI PUSH2 0x2616 PUSH2 0x2041 JUMP JUMPDEST JUMPDEST DUP2 CALLDATALOAD PUSH2 0x2627 DUP5 DUP3 PUSH1 0x20 DUP7 ADD PUSH2 0x25C2 JUMP JUMPDEST SWAP2 POP POP SWAP3 SWAP2 POP POP JUMP JUMPDEST PUSH0 PUSH2 0x2642 PUSH2 0x263D DUP5 PUSH2 0x2555 JUMP JUMPDEST PUSH2 0x2391 JUMP JUMPDEST SWAP1 POP DUP1 DUP4 DUP3 MSTORE PUSH1 0x20 DUP3 ADD SWAP1 POP PUSH1 0x20 DUP5 MUL DUP4 ADD DUP6 DUP2 GT ISZERO PUSH2 0x2665 JUMPI PUSH2 0x2664 PUSH2 0x2049 JUMP JUMPDEST JUMPDEST DUP4 JUMPDEST DUP2 DUP2 LT ISZERO PUSH2 0x26AC JUMPI DUP1 CALLDATALOAD PUSH8 0xFFFFFFFFFFFFFFFF DUP2 GT ISZERO PUSH2 0x268A JUMPI PUSH2 0x2689 PUSH2 0x2041 JUMP JUMPDEST JUMPDEST DUP1 DUP7 ADD PUSH2 0x2697 DUP10 DUP3 PUSH2 0x2603 JUMP JUMPDEST DUP6 MSTORE PUSH1 0x20 DUP6 ADD SWAP5 POP POP POP PUSH1 0x20 DUP2 ADD SWAP1 POP PUSH2 0x2667 JUMP JUMPDEST POP POP POP SWAP4 SWAP3 POP POP POP JUMP JUMPDEST PUSH0 DUP3 PUSH1 0x1F DUP4 ADD SLT PUSH2 0x26CA JUMPI PUSH2 0x26C9 PUSH2 0x2041 JUMP JUMPDEST JUMPDEST DUP2 CALLDATALOAD PUSH2 0x26DA DUP5 DUP3 PUSH1 0x20 DUP7 ADD PUSH2 0x2630 JUMP JUMPDEST SWAP2 POP POP SWAP3 SWAP2 POP POP JUMP JUMPDEST PUSH0 DUP1 PUSH0 DUP1 PUSH1 0x80 DUP6 DUP8 SUB SLT ISZERO PUSH2 0x26FB JUMPI PUSH2 0x26FA PUSH2 0x1EF5 JUMP JUMPDEST JUMPDEST PUSH0 DUP6 ADD CALLDATALOAD PUSH8 0xFFFFFFFFFFFFFFFF DUP2 GT ISZERO PUSH2 0x2718 JUMPI PUSH2 0x2717 PUSH2 0x1EF9 JUMP JUMPDEST JUMPDEST PUSH2 0x2724 DUP8 DUP3 DUP9 ADD PUSH2 0x2468 JUMP JUMPDEST SWAP5 POP POP PUSH1 0x20 DUP6 ADD CALLDATALOAD PUSH8 0xFFFFFFFFFFFFFFFF DUP2 GT ISZERO PUSH2 0x2745 JUMPI PUSH2 0x2744 PUSH2 0x1EF9 JUMP JUMPDEST JUMPDEST PUSH2 0x2751 DUP8 DUP3 DUP9 ADD PUSH2 0x2528 JUMP JUMPDEST SWAP4 POP POP PUSH1 0x40 DUP6 ADD CALLDATALOAD PUSH8 0xFFFFFFFFFFFFFFFF DUP2 GT ISZERO PUSH2 0x2772 JUMPI PUSH2 0x2771 PUSH2 0x1EF9 JUMP JUMPDEST JUMPDEST PUSH2 0x277E DUP8 DUP3 DUP9 ADD PUSH2 0x26B6 JUMP JUMPDEST SWAP3 POP POP PUSH1 0x60 PUSH2 0x278F DUP8 DUP3 DUP9 ADD PUSH2 0x2116 JUMP JUMPDEST SWAP2 POP POP SWAP3 SWAP6 SWAP2 SWAP5 POP SWAP3 POP JUMP JUMPDEST PUSH0 DUP1 PUSH0 DUP1 PUSH0 PUSH1 0xA0 DUP7 DUP9 SUB SLT ISZERO PUSH2 0x27B4 JUMPI PUSH2 0x27B3 PUSH2 0x1EF5 JUMP JUMPDEST JUMPDEST PUSH0 PUSH2 0x27C1 DUP9 DUP3 DUP10 ADD PUSH2 0x1FF7 JUMP JUMPDEST SWAP6 POP POP PUSH1 0x20 PUSH2 0x27D2 DUP9 DUP3 DUP10 ADD PUSH2 0x202D JUMP JUMPDEST SWAP5 POP POP PUSH1 0x40 PUSH2 0x27E3 DUP9 DUP3 DUP10 ADD PUSH2 0x202D JUMP JUMPDEST SWAP4 POP POP PUSH1 0x60 PUSH2 0x27F4 DUP9 DUP3 DUP10 ADD PUSH2 0x2116 JUMP JUMPDEST SWAP3 POP POP PUSH1 0x80 PUSH2 0x2805 DUP9 DUP3 DUP10 ADD PUSH2 0x2116 JUMP JUMPDEST SWAP2 POP POP SWAP3 SWAP6 POP SWAP3 SWAP6 SWAP1 SWAP4 POP JUMP JUMPDEST PUSH32 0x4E487B7100000000000000000000000000000000000000000000000000000000 PUSH0 MSTORE PUSH1 0x21 PUSH1 0x4 MSTORE PUSH1 0x24 PUSH0 REVERT JUMPDEST PUSH1 0x8 DUP2 LT PUSH2 0x2850 JUMPI PUSH2 0x284F PUSH2 0x2812 JUMP JUMPDEST JUMPDEST POP JUMP JUMPDEST PUSH0 DUP2 SWAP1 POP PUSH2 0x2860 DUP3 PUSH2 0x283F JUMP JUMPDEST SWAP2 SWAP1 POP JUMP JUMPDEST PUSH0 PUSH2 0x286F DUP3 PUSH2 0x2853 JUMP JUMPDEST SWAP1 POP SWAP2 SWAP1 POP JUMP JUMPDEST PUSH2 0x287F DUP2 PUSH2 0x2865 JUMP JUMPDEST DUP3 MSTORE POP POP JUMP JUMPDEST PUSH0 PUSH1 0x20 DUP3 ADD SWAP1 POP PUSH2 0x2898 PUSH0 DUP4 ADD DUP5 PUSH2 0x2876 JUMP JUMPDEST SWAP3 SWAP2 POP POP JUMP JUMPDEST PUSH0 DUP1 PUSH1 0x40 DUP4 DUP6 SUB SLT ISZERO PUSH2 0x28B4 JUMPI PUSH2 0x28B3 PUSH2 0x1EF5 JUMP JUMPDEST JUMPDEST PUSH0 PUSH2 0x28C1 DUP6 DUP3 DUP7 ADD PUSH2 0x1FF7 JUMP JUMPDEST SWAP3 POP POP PUSH1 0x20 PUSH2 0x28D2 DUP6 DUP3 DUP7 ADD PUSH2 0x23EC JUMP JUMPDEST SWAP2 POP POP SWAP3 POP SWAP3 SWAP1 POP JUMP JUMPDEST PUSH0 DUP1 PUSH1 0x40 DUP4 DUP6 SUB SLT ISZERO PUSH2 0x28F2 JUMPI PUSH2 0x28F1 PUSH2 0x1EF5 JUMP JUMPDEST JUMPDEST PUSH0 PUSH2 0x28FF DUP6 DUP3 DUP7 ADD PUSH2 0x1FF7 JUMP JUMPDEST SWAP3 POP POP PUSH1 0x20 PUSH2 0x2910 DUP6 DUP3 DUP7 ADD PUSH2 0x202D JUMP JUMPDEST SWAP2 POP POP SWAP3 POP SWAP3 SWAP1 POP JUMP JUMPDEST PUSH0 DUP1 PUSH0 DUP1 PUSH0 DUP1 PUSH1 0x80 DUP8 DUP10 SUB SLT ISZERO PUSH2 0x2934 JUMPI PUSH2 0x2933 PUSH2 0x1EF5 JUMP JUMPDEST JUMPDEST PUSH0 PUSH2 0x2941 DUP10 DUP3 DUP11 ADD PUSH2 0x1FF7 JUMP JUMPDEST SWAP7 POP POP PUSH1 0x20 PUSH2 0x2952 DUP10 DUP3 DUP11 ADD PUSH2 0x202D JUMP JUMPDEST SWAP6 POP POP PUSH1 0x40 DUP8 ADD CALLDATALOAD PUSH8 0xFFFFFFFFFFFFFFFF DUP2 GT ISZERO PUSH2 0x2973 JUMPI PUSH2 0x2972 PUSH2 0x1EF9 JUMP JUMPDEST JUMPDEST PUSH2 0x297F DUP10 DUP3 DUP11 ADD PUSH2 0x204D JUMP JUMPDEST SWAP5 POP SWAP5 POP POP PUSH1 0x60 DUP8 ADD CALLDATALOAD PUSH8 0xFFFFFFFFFFFFFFFF DUP2 GT ISZERO PUSH2 0x29A2 JUMPI PUSH2 0x29A1 PUSH2 0x1EF9 JUMP JUMPDEST JUMPDEST PUSH2 0x29AE DUP10 DUP3 DUP11 ADD PUSH2 0x20A2 JUMP JUMPDEST SWAP3 POP SWAP3 POP POP SWAP3 SWAP6 POP SWAP3 SWAP6 POP SWAP3 SWAP6 JUMP JUMPDEST PUSH0 DUP1 PUSH0 DUP1 PUSH1 0x60 DUP6 DUP8 SUB SLT ISZERO PUSH2 0x29D5 JUMPI PUSH2 0x29D4 PUSH2 0x1EF5 JUMP JUMPDEST JUMPDEST PUSH0 PUSH2 0x29E2 DUP8 DUP3 DUP9 ADD PUSH2 0x1FF7 JUMP JUMPDEST SWAP5 POP POP PUSH1 0x20 PUSH2 0x29F3 DUP8 DUP3 DUP9 ADD PUSH2 0x202D JUMP JUMPDEST SWAP4 POP POP PUSH1 0x40 DUP6 ADD CALLDATALOAD PUSH8 0xFFFFFFFFFFFFFFFF DUP2 GT ISZERO PUSH2 0x2A14 JUMPI PUSH2 0x2A13 PUSH2 0x1EF9 JUMP JUMPDEST JUMPDEST PUSH2 0x2A20 DUP8 DUP3 DUP9 ADD PUSH2 0x204D JUMP JUMPDEST SWAP3 POP SWAP3 POP POP SWAP3 SWAP6 SWAP2 SWAP5 POP SWAP3 POP JUMP JUMPDEST PUSH0 PUSH8 0xFFFFFFFFFFFFFFFF DUP3 GT ISZERO PUSH2 0x2A48 JUMPI PUSH2 0x2A47 PUSH2 0x2333 JUMP JUMPDEST JUMPDEST PUSH2 0x2A51 DUP3 PUSH2 0x2248 JUMP JUMPDEST SWAP1 POP PUSH1 0x20 DUP2 ADD SWAP1 POP SWAP2 SWAP1 POP JUMP JUMPDEST PUSH0 PUSH2 0x2A70 PUSH2 0x2A6B DUP5 PUSH2 0x2A2E JUMP JUMPDEST PUSH2 0x2391 JUMP JUMPDEST SWAP1 POP DUP3 DUP2 MSTORE PUSH1 0x20 DUP2 ADD DUP5 DUP5 DUP5 ADD GT ISZERO PUSH2 0x2A8C JUMPI PUSH2 0x2A8B PUSH2 0x2580 JUMP JUMPDEST JUMPDEST PUSH2 0x2A97 DUP5 DUP3 DUP6 PUSH2 0x25B4 JUMP JUMPDEST POP SWAP4 SWAP3 POP POP POP JUMP JUMPDEST PUSH0 DUP3 PUSH1 0x1F DUP4 ADD SLT PUSH2 0x2AB3 JUMPI PUSH2 0x2AB2 PUSH2 0x2041 JUMP JUMPDEST JUMPDEST DUP2 CALLDATALOAD PUSH2 0x2AC3 DUP5 DUP3 PUSH1 0x20 DUP7 ADD PUSH2 0x2A5E JUMP JUMPDEST SWAP2 POP POP SWAP3 SWAP2 POP POP JUMP JUMPDEST PUSH0 DUP1 PUSH0 DUP1 PUSH1 0x80 DUP6 DUP8 SUB SLT ISZERO PUSH2 0x2AE4 JUMPI PUSH2 0x2AE3 PUSH2 0x1EF5 JUMP JUMPDEST JUMPDEST PUSH0 DUP6 ADD CALLDATALOAD PUSH8 0xFFFFFFFFFFFFFFFF DUP2 GT ISZERO PUSH2 0x2B01 JUMPI PUSH2 0x2B00 PUSH2 0x1EF9 JUMP JUMPDEST JUMPDEST PUSH2 0x2B0D DUP8 DUP3 DUP9 ADD PUSH2 0x2468 JUMP JUMPDEST SWAP5 POP POP PUSH1 0x20 DUP6 ADD CALLDATALOAD PUSH8 0xFFFFFFFFFFFFFFFF DUP2 GT ISZERO PUSH2 0x2B2E JUMPI PUSH2 0x2B2D PUSH2 0x1EF9 JUMP JUMPDEST JUMPDEST PUSH2 0x2B3A DUP8 DUP3 DUP9 ADD PUSH2 0x2528 JUMP JUMPDEST SWAP4 POP POP PUSH1 0x40 DUP6 ADD CALLDATALOAD PUSH8 0xFFFFFFFFFFFFFFFF DUP2 GT ISZERO PUSH2 0x2B5B JUMPI PUSH2 0x2B5A PUSH2 0x1EF9 JUMP JUMPDEST JUMPDEST PUSH2 0x2B67 DUP8 DUP3 DUP9 ADD PUSH2 0x26B6 JUMP JUMPDEST SWAP3 POP POP PUSH1 0x60 DUP6 ADD CALLDATALOAD PUSH8 0xFFFFFFFFFFFFFFFF DUP2 GT ISZERO PUSH2 0x2B88 JUMPI PUSH2 0x2B87 PUSH2 0x1EF9 JUMP JUMPDEST JUMPDEST PUSH2 0x2B94 DUP8 DUP3 DUP9 ADD PUSH2 0x2A9F JUMP JUMPDEST SWAP2 POP POP SWAP3 SWAP6 SWAP2 SWAP5 POP SWAP3 POP JUMP JUMPDEST PUSH0 PUSH6 0xFFFFFFFFFFFF DUP3 AND SWAP1 POP SWAP2 SWAP1 POP JUMP JUMPDEST PUSH2 0x2BBA DUP2 PUSH2 0x2BA0 JUMP JUMPDEST DUP3 MSTORE POP POP JUMP JUMPDEST PUSH0 PUSH1 0x20 DUP3 ADD SWAP1 POP PUSH2 0x2BD3 PUSH0 DUP4 ADD DUP5 PUSH2 0x2BB1 JUMP JUMPDEST SWAP3 SWAP2 POP POP JUMP JUMPDEST PUSH0 DUP1 PUSH0 PUSH1 0x60 DUP5 DUP7 SUB SLT ISZERO PUSH2 0x2BF0 JUMPI PUSH2 0x2BEF PUSH2 0x1EF5 JUMP JUMPDEST JUMPDEST PUSH0 PUSH2 0x2BFD DUP7 DUP3 DUP8 ADD PUSH2 0x23EC JUMP JUMPDEST SWAP4 POP POP PUSH1 0x20 PUSH2 0x2C0E DUP7 DUP3 DUP8 ADD PUSH2 0x1FF7 JUMP JUMPDEST SWAP3 POP POP PUSH1 0x40 DUP5 ADD CALLDATALOAD PUSH8 0xFFFFFFFFFFFFFFFF DUP2 GT ISZERO PUSH2 0x2C2F JUMPI PUSH2 0x2C2E PUSH2 0x1EF9 JUMP JUMPDEST JUMPDEST PUSH2 0x2C3B DUP7 DUP3 DUP8 ADD PUSH2 0x2603 JUMP JUMPDEST SWAP2 POP POP SWAP3 POP SWAP3 POP SWAP3 JUMP JUMPDEST PUSH0 DUP1 PUSH0 DUP1 PUSH1 0x60 DUP6 DUP8 SUB SLT ISZERO PUSH2 0x2C5D JUMPI PUSH2 0x2C5C PUSH2 0x1EF5 JUMP JUMPDEST JUMPDEST PUSH0 PUSH2 0x2C6A DUP8 DUP3 DUP9 ADD PUSH2 0x23EC JUMP JUMPDEST SWAP5 POP POP PUSH1 0x20 PUSH2 0x2C7B DUP8 DUP3 DUP9 ADD PUSH2 0x1FF7 JUMP JUMPDEST SWAP4 POP POP PUSH1 0x40 DUP6 ADD CALLDATALOAD PUSH8 0xFFFFFFFFFFFFFFFF DUP2 GT ISZERO PUSH2 0x2C9C JUMPI PUSH2 0x2C9B PUSH2 0x1EF9 JUMP JUMPDEST JUMPDEST PUSH2 0x2CA8 DUP8 DUP3 DUP9 ADD PUSH2 0x20A2 JUMP JUMPDEST SWAP3 POP SWAP3 POP POP SWAP3 SWAP6 SWAP2 SWAP5 POP SWAP3 POP JUMP JUMPDEST PUSH0 DUP2 SWAP1 POP SWAP2 SWAP1 POP JUMP JUMPDEST PUSH0 PUSH2 0x2CD9 PUSH2 0x2CD4 PUSH2 0x2CCF DUP5 PUSH2 0x22DB JUMP JUMPDEST PUSH2 0x2CB6 JUMP JUMPDEST PUSH2 0x22DB JUMP JUMPDEST SWAP1 POP SWAP2 SWAP1 POP JUMP JUMPDEST PUSH0 PUSH2 0x2CEA DUP3 PUSH2 0x2CBF JUMP JUMPDEST SWAP1 POP SWAP2 SWAP1 POP JUMP JUMPDEST PUSH0 PUSH2 0x2CFB DUP3 PUSH2 0x2CE0 JUMP JUMPDEST SWAP1 POP SWAP2 SWAP1 POP JUMP JUMPDEST PUSH2 0x2D0B DUP2 PUSH2 0x2CF1 JUMP JUMPDEST DUP3 MSTORE POP POP JUMP JUMPDEST PUSH0 PUSH1 0x20 DUP3 ADD SWAP1 POP PUSH2 0x2D24 PUSH0 DUP4 ADD DUP5 PUSH2 0x2D02 JUMP JUMPDEST SWAP3 SWAP2 POP POP JUMP JUMPDEST PUSH0 DUP1 PUSH1 0x40 DUP4 DUP6 SUB SLT ISZERO PUSH2 0x2D40 JUMPI PUSH2 0x2D3F PUSH2 0x1EF5 JUMP JUMPDEST JUMPDEST PUSH0 PUSH2 0x2D4D DUP6 DUP3 DUP7 ADD PUSH2 0x23EC JUMP JUMPDEST SWAP3 POP POP PUSH1 0x20 PUSH2 0x2D5E DUP6 DUP3 DUP7 ADD PUSH2 0x1FF7 JUMP JUMPDEST SWAP2 POP POP SWAP3 POP SWAP3 SWAP1 POP JUMP JUMPDEST PUSH0 PUSH2 0x2D72 DUP3 PUSH2 0x2CE0 JUMP JUMPDEST SWAP1 POP SWAP2 SWAP1 POP JUMP JUMPDEST PUSH2 0x2D82 DUP2 PUSH2 0x2D68 JUMP JUMPDEST DUP3 MSTORE POP POP JUMP JUMPDEST PUSH0 PUSH1 0x20 DUP3 ADD SWAP1 POP PUSH2 0x2D9B PUSH0 DUP4 ADD DUP5 PUSH2 0x2D79 JUMP JUMPDEST SWAP3 SWAP2 POP POP JUMP JUMPDEST PUSH32 0x4E6F7420696D706C656D656E7465640000000000000000000000000000000000 PUSH0 DUP3 ADD MSTORE POP JUMP JUMPDEST PUSH0 PUSH2 0x2DD5 PUSH1 0xF DUP4 PUSH2 0x2210 JUMP JUMPDEST SWAP2 POP PUSH2 0x2DE0 DUP3 PUSH2 0x2DA1 JUMP JUMPDEST PUSH1 0x20 DUP3 ADD SWAP1 POP SWAP2 SWAP1 POP JUMP JUMPDEST PUSH0 PUSH1 0x20 DUP3 ADD SWAP1 POP DUP2 DUP2 SUB PUSH0 DUP4 ADD MSTORE PUSH2 0x2E02 DUP2 PUSH2 0x2DC9 JUMP JUMPDEST SWAP1 POP SWAP2 SWAP1 POP JUMP JUMPDEST PUSH32 0x4E487B7100000000000000000000000000000000000000000000000000000000 PUSH0 MSTORE PUSH1 0x22 PUSH1 0x4 MSTORE PUSH1 0x24 PUSH0 REVERT JUMPDEST PUSH0 PUSH1 0x2 DUP3 DIV SWAP1 POP PUSH1 0x1 DUP3 AND DUP1 PUSH2 0x2E4D JUMPI PUSH1 0x7F DUP3 AND SWAP2 POP JUMPDEST PUSH1 0x20 DUP3 LT DUP2 SUB PUSH2 0x2E60 JUMPI PUSH2 0x2E5F PUSH2 0x2E09 JUMP JUMPDEST JUMPDEST POP SWAP2 SWAP1 POP JUMP JUMPDEST PUSH32 0x476F7665726E6F723A2070726F706F73616C206E6F7420737563636573736675 PUSH0 DUP3 ADD MSTORE PUSH32 0x6C00000000000000000000000000000000000000000000000000000000000000 PUSH1 0x20 DUP3 ADD MSTORE POP JUMP JUMPDEST PUSH0 PUSH2 0x2EC0 PUSH1 0x21 DUP4 PUSH2 0x2210 JUMP JUMPDEST SWAP2 POP PUSH2 0x2ECB DUP3 PUSH2 0x2E66 JUMP JUMPDEST PUSH1 0x40 DUP3 ADD SWAP1 POP SWAP2 SWAP1 POP JUMP JUMPDEST PUSH0 PUSH1 0x20 DUP3 ADD SWAP1 POP DUP2 DUP2 SUB PUSH0 DUP4 ADD MSTORE PUSH2 0x2EED DUP2 PUSH2 0x2EB4 JUMP JUMPDEST SWAP1 POP SWAP2 SWAP1 POP JUMP JUMPDEST PUSH32 0x4E487B7100000000000000000000000000000000000000000000000000000000 PUSH0 MSTORE PUSH1 0x11 PUSH1 0x4 MSTORE PUSH1 0x24 PUSH0 REVERT JUMPDEST PUSH0 PUSH2 0x2F2B DUP3 PUSH2 0x1FB0 JUMP JUMPDEST SWAP2 POP PUSH2 0x2F36 DUP4 PUSH2 0x1FB0 JUMP JUMPDEST SWAP3 POP DUP3 DUP3 SUB SWAP1 POP DUP2 DUP2 GT ISZERO PUSH2 0x2F4E JUMPI PUSH2 0x2F4D PUSH2 0x2EF4 JUMP JUMPDEST JUMPDEST SWAP3 SWAP2 POP POP JUMP JUMPDEST PUSH32 0x476F7665726E6F723A2070726F706F73657220766F7465732062656C6F772074 PUSH0 DUP3 ADD MSTORE PUSH32 0x68726573686F6C64000000000000000000000000000000000000000000000000 PUSH1 0x20 DUP3 ADD MSTORE POP JUMP JUMPDEST PUSH0 PUSH2 0x2FAE PUSH1 0x28 DUP4 PUSH2 0x2210 JUMP JUMPDEST SWAP2 POP PUSH2 0x2FB9 DUP3 PUSH2 0x2F54 JUMP JUMPDEST PUSH1 0x40 DUP3 ADD SWAP1 POP SWAP2 SWAP1 POP JUMP JUMPDEST PUSH0 PUSH1 0x20 DUP3 ADD SWAP1 POP DUP2 DUP2 SUB PUSH0 DUP4 ADD MSTORE PUSH2 0x2FDB DUP2 PUSH2 0x2FA2 JUMP JUMPDEST SWAP1 POP SWAP2 SWAP1 POP JUMP JUMPDEST PUSH32 0x476F7665726E6F723A2070726F706F73616C20616C7265616479206578697374 PUSH0 DUP3 ADD MSTORE PUSH32 0x7300000000000000000000000000000000000000000000000000000000000000 PUSH1 0x20 DUP3 ADD MSTORE POP JUMP JUMPDEST PUSH0 PUSH2 0x303C PUSH1 0x21 DUP4 PUSH2 0x2210 JUMP JUMPDEST SWAP2 POP PUSH2 0x3047 DUP3 PUSH2 0x2FE2 JUMP JUMPDEST PUSH1 0x40 DUP3 ADD SWAP1 POP SWAP2 SWAP1 POP JUMP JUMPDEST PUSH0 PUSH1 0x20 DUP3 ADD SWAP1 POP DUP2 DUP2 SUB PUSH0 DUP4 ADD MSTORE PUSH2 0x3069 DUP2 PUSH2 0x3030 JUMP JUMPDEST SWAP1 POP SWAP2 SWAP1 POP JUMP JUMPDEST PUSH0 PUSH8 0xFFFFFFFFFFFFFFFF DUP3 AND SWAP1 POP SWAP2 SWAP1 POP JUMP JUMPDEST PUSH0 PUSH2 0x308D DUP3 PUSH2 0x3070 JUMP JUMPDEST SWAP2 POP PUSH2 0x3098 DUP4 PUSH2 0x3070 JUMP JUMPDEST SWAP3 POP DUP3 DUP3 ADD SWAP1 POP PUSH8 0xFFFFFFFFFFFFFFFF DUP2 GT ISZERO PUSH2 0x30B8 JUMPI PUSH2 0x30B7 PUSH2 0x2EF4 JUMP JUMPDEST JUMPDEST SWAP3 SWAP2 POP POP JUMP JUMPDEST PUSH0 DUP2 MLOAD SWAP1 POP SWAP2 SWAP1 POP JUMP JUMPDEST PUSH0 DUP3 DUP3 MSTORE PUSH1 0x20 DUP3 ADD SWAP1 POP SWAP3 SWAP2 POP POP JUMP JUMPDEST PUSH0 DUP2 SWAP1 POP PUSH1 0x20 DUP3 ADD SWAP1 POP SWAP2 SWAP1 POP JUMP JUMPDEST PUSH2 0x30F0 DUP2 PUSH2 0x22FA JUMP JUMPDEST DUP3 MSTORE POP POP JUMP JUMPDEST PUSH0 PUSH2 0x3101 DUP4 DUP4 PUSH2 0x30E7 JUMP JUMPDEST PUSH1 0x20 DUP4 ADD SWAP1 POP SWAP3 SWAP2 POP POP JUMP JUMPDEST PUSH0 PUSH1 0x20 DUP3 ADD SWAP1 POP SWAP2 SWAP1 POP JUMP JUMPDEST PUSH0 PUSH2 0x3123 DUP3 PUSH2 0x30BE JUMP JUMPDEST PUSH2 0x312D DUP2 DUP6 PUSH2 0x30C8 JUMP JUMPDEST SWAP4 POP PUSH2 0x3138 DUP4 PUSH2 0x30D8 JUMP JUMPDEST DUP1 PUSH0 JUMPDEST DUP4 DUP2 LT ISZERO PUSH2 0x3168 JUMPI DUP2 MLOAD PUSH2 0x314F DUP9 DUP3 PUSH2 0x30F6 JUMP JUMPDEST SWAP8 POP PUSH2 0x315A DUP4 PUSH2 0x310D JUMP JUMPDEST SWAP3 POP POP PUSH1 0x1 DUP2 ADD SWAP1 POP PUSH2 0x313B JUMP JUMPDEST POP DUP6 SWAP4 POP POP POP POP SWAP3 SWAP2 POP POP JUMP JUMPDEST PUSH0 DUP2 MLOAD SWAP1 POP SWAP2 SWAP1 POP JUMP JUMPDEST PUSH0 DUP3 DUP3 MSTORE PUSH1 0x20 DUP3 ADD SWAP1 POP SWAP3 SWAP2 POP POP JUMP JUMPDEST PUSH0 DUP2 SWAP1 POP PUSH1 0x20 DUP3 ADD SWAP1 POP SWAP2 SWAP1 POP JUMP JUMPDEST PUSH2 0x31A7 DUP2 PUSH2 0x1FB0 JUMP JUMPDEST DUP3 MSTORE POP POP JUMP JUMPDEST PUSH0 PUSH2 0x31B8 DUP4 DUP4 PUSH2 0x319E JUMP JUMPDEST PUSH1 0x20 DUP4 ADD SWAP1 POP SWAP3 SWAP2 POP POP JUMP JUMPDEST PUSH0 PUSH1 0x20 DUP3 ADD SWAP1 POP SWAP2 SWAP1 POP JUMP JUMPDEST PUSH0 PUSH2 0x31DA DUP3 PUSH2 0x3175 JUMP JUMPDEST PUSH2 0x31E4 DUP2 DUP6 PUSH2 0x317F JUMP JUMPDEST SWAP4 POP PUSH2 0x31EF DUP4 PUSH2 0x318F JUMP JUMPDEST DUP1 PUSH0 JUMPDEST DUP4 DUP2 LT ISZERO PUSH2 0x321F JUMPI DUP2 MLOAD PUSH2 0x3206 DUP9 DUP3 PUSH2 0x31AD JUMP JUMPDEST SWAP8 POP PUSH2 0x3211 DUP4 PUSH2 0x31C4 JUMP JUMPDEST SWAP3 POP POP PUSH1 0x1 DUP2 ADD SWAP1 POP PUSH2 0x31F2 JUMP JUMPDEST POP DUP6 SWAP4 POP POP POP POP SWAP3 SWAP2 POP POP JUMP JUMPDEST PUSH0 DUP2 MLOAD SWAP1 POP SWAP2 SWAP1 POP JUMP JUMPDEST PUSH0 DUP3 DUP3 MSTORE PUSH1 0x20 DUP3 ADD SWAP1 POP SWAP3 SWAP2 POP POP JUMP JUMPDEST PUSH0 DUP2 SWAP1 POP PUSH1 0x20 DUP3 ADD SWAP1 POP SWAP2 SWAP1 POP JUMP JUMPDEST PUSH0 DUP2 MLOAD SWAP1 POP SWAP2 SWAP1 POP JUMP JUMPDEST PUSH0 DUP3 DUP3 MSTORE PUSH1 0x20 DUP3 ADD SWAP1 POP SWAP3 SWAP2 POP POP JUMP JUMPDEST PUSH0 PUSH2 0x3279 DUP3 PUSH2 0x3255 JUMP JUMPDEST PUSH2 0x3283 DUP2 DUP6 PUSH2 0x325F JUMP JUMPDEST SWAP4 POP PUSH2 0x3293 DUP2 DUP6 PUSH1 0x20 DUP7 ADD PUSH2 0x2220 JUMP JUMPDEST PUSH2 0x329C DUP2 PUSH2 0x2248 JUMP JUMPDEST DUP5 ADD SWAP2 POP POP SWAP3 SWAP2 POP POP JUMP JUMPDEST PUSH0 PUSH2 0x32B2 DUP4 DUP4 PUSH2 0x326F JUMP JUMPDEST SWAP1 POP SWAP3 SWAP2 POP POP JUMP JUMPDEST PUSH0 PUSH1 0x20 DUP3 ADD SWAP1 POP SWAP2 SWAP1 POP JUMP JUMPDEST PUSH0 PUSH2 0x32D0 DUP3 PUSH2 0x322C JUMP JUMPDEST PUSH2 0x32DA DUP2 DUP6 PUSH2 0x3236 JUMP JUMPDEST SWAP4 POP DUP4 PUSH1 0x20 DUP3 MUL DUP6 ADD PUSH2 0x32EC DUP6 PUSH2 0x3246 JUMP JUMPDEST DUP1 PUSH0 JUMPDEST DUP6 DUP2 LT ISZERO PUSH2 0x3327 JUMPI DUP5 DUP5 SUB DUP10 MSTORE DUP2 MLOAD PUSH2 0x3308 DUP6 DUP3 PUSH2 0x32A7 JUMP JUMPDEST SWAP5 POP PUSH2 0x3313 DUP4 PUSH2 0x32BA JUMP JUMPDEST SWAP3 POP PUSH1 0x20 DUP11 ADD SWAP10 POP POP PUSH1 0x1 DUP2 ADD SWAP1 POP PUSH2 0x32EF JUMP JUMPDEST POP DUP3 SWAP8 POP DUP8 SWAP6 POP POP POP POP POP POP SWAP3 SWAP2 POP POP JUMP JUMPDEST PUSH0 PUSH2 0x3353 PUSH2 0x334E PUSH2 0x3349 DUP5 PUSH2 0x3070 JUMP JUMPDEST PUSH2 0x2CB6 JUMP JUMPDEST PUSH2 0x1FB0 JUMP JUMPDEST SWAP1 POP SWAP2 SWAP1 POP JUMP JUMPDEST PUSH2 0x3363 DUP2 PUSH2 0x3339 JUMP JUMPDEST DUP3 MSTORE POP POP JUMP JUMPDEST PUSH0 PUSH1 0xE0 DUP3 ADD SWAP1 POP PUSH2 0x337C PUSH0 DUP4 ADD DUP11 PUSH2 0x230B JUMP JUMPDEST DUP2 DUP2 SUB PUSH1 0x20 DUP4 ADD MSTORE PUSH2 0x338E DUP2 DUP10 PUSH2 0x3119 JUMP JUMPDEST SWAP1 POP DUP2 DUP2 SUB PUSH1 0x40 DUP4 ADD MSTORE PUSH2 0x33A2 DUP2 DUP9 PUSH2 0x31D0 JUMP JUMPDEST SWAP1 POP DUP2 DUP2 SUB PUSH1 0x60 DUP4 ADD MSTORE PUSH2 0x33B6 DUP2 DUP8 PUSH2 0x32C6 JUMP JUMPDEST SWAP1 POP PUSH2 0x33C5 PUSH1 0x80 DUP4 ADD DUP7 PUSH2 0x335A JUMP JUMPDEST PUSH2 0x33D2 PUSH1 0xA0 DUP4 ADD DUP6 PUSH2 0x335A JUMP JUMPDEST DUP2 DUP2 SUB PUSH1 0xC0 DUP4 ADD MSTORE PUSH2 0x33E4 DUP2 DUP5 PUSH2 0x2258 JUMP JUMPDEST SWAP1 POP SWAP9 SWAP8 POP POP POP POP POP POP POP POP JUMP JUMPDEST PUSH0 PUSH1 0x40 DUP3 ADD SWAP1 POP PUSH2 0x3405 PUSH0 DUP4 ADD DUP6 PUSH2 0x230B JUMP JUMPDEST PUSH2 0x3412 PUSH1 0x20 DUP4 ADD DUP5 PUSH2 0x1FB9 JUMP JUMPDEST SWAP4 SWAP3 POP POP POP JUMP JUMPDEST PUSH0 DUP2 MLOAD SWAP1 POP PUSH2 0x3427 DUP2 PUSH2 0x1FE1 JUMP JUMPDEST SWAP3 SWAP2 POP POP JUMP JUMPDEST PUSH0 PUSH1 0x20 DUP3 DUP5 SUB SLT ISZERO PUSH2 0x3442 JUMPI PUSH2 0x3441 PUSH2 0x1EF5 JUMP JUMPDEST JUMPDEST PUSH0 PUSH2 0x344F DUP5 DUP3 DUP6 ADD PUSH2 0x3419 JUMP JUMPDEST SWAP2 POP POP SWAP3 SWAP2 POP POP JUMP JUMPDEST PUSH32 0x476F7665726E6F723A206F6E6C79206578656375746F722063616E2072656C61 PUSH0 DUP3 ADD MSTORE PUSH32 0x7900000000000000000000000000000000000000000000000000000000000000 PUSH1 0x20 DUP3 ADD MSTORE POP JUMP JUMPDEST PUSH0 PUSH2 0x34B2 PUSH1 0x21 DUP4 PUSH2 0x2210 JUMP JUMPDEST SWAP2 POP PUSH2 0x34BD DUP3 PUSH2 0x3458 JUMP JUMPDEST PUSH1 0x40 DUP3 ADD SWAP1 POP SWAP2 SWAP1 POP JUMP JUMPDEST PUSH0 PUSH1 0x20 DUP3 ADD SWAP1 POP DUP2 DUP2 SUB PUSH0 DUP4 ADD MSTORE PUSH2 0x34DF DUP2 PUSH2 0x34A6 JUMP JUMPDEST SWAP1 POP SWAP2 SWAP1 POP JUMP JUMPDEST PUSH2 0x34EF DUP2 PUSH2 0x20F7 JUMP JUMPDEST DUP3 MSTORE POP POP JUMP JUMPDEST PUSH0 PUSH1 0x80 DUP3 ADD SWAP1 POP DUP2 DUP2 SUB PUSH0 DUP4 ADD MSTORE PUSH2 0x350D DUP2 DUP8 PUSH2 0x3119 JUMP JUMPDEST SWAP1 POP DUP2 DUP2 SUB PUSH1 0x20 DUP4 ADD MSTORE PUSH2 0x3521 DUP2 DUP7 PUSH2 0x31D0 JUMP JUMPDEST SWAP1 POP DUP2 DUP2 SUB PUSH1 0x40 DUP4 ADD MSTORE PUSH2 0x3535 DUP2 DUP6 PUSH2 0x32C6 JUMP JUMPDEST SWAP1 POP PUSH2 0x3544 PUSH1 0x60 DUP4 ADD DUP5 PUSH2 0x34E6 JUMP JUMPDEST SWAP6 SWAP5 POP POP POP POP POP JUMP JUMPDEST PUSH0 PUSH1 0x20 DUP3 ADD SWAP1 POP PUSH2 0x3560 PUSH0 DUP4 ADD DUP5 PUSH2 0x34E6 JUMP JUMPDEST SWAP3 SWAP2 POP POP JUMP JUMPDEST PUSH2 0x356F DUP2 PUSH2 0x1F7D JUMP JUMPDEST DUP2 EQ PUSH2 0x3579 JUMPI PUSH0 DUP1 REVERT JUMPDEST POP JUMP JUMPDEST PUSH0 DUP2 MLOAD SWAP1 POP PUSH2 0x358A DUP2 PUSH2 0x3566 JUMP JUMPDEST SWAP3 SWAP2 POP POP JUMP JUMPDEST PUSH0 PUSH1 0x20 DUP3 DUP5 SUB SLT ISZERO PUSH2 0x35A5 JUMPI PUSH2 0x35A4 PUSH2 0x1EF5 JUMP JUMPDEST JUMPDEST PUSH0 PUSH2 0x35B2 DUP5 DUP3 DUP6 ADD PUSH2 0x357C JUMP JUMPDEST SWAP2 POP POP SWAP3 SWAP2 POP POP JUMP JUMPDEST PUSH32 0x53616665436173743A2076616C756520646F65736E27742066697420696E2036 PUSH0 DUP3 ADD MSTORE PUSH32 0x3420626974730000000000000000000000000000000000000000000000000000 PUSH1 0x20 DUP3 ADD MSTORE POP JUMP JUMPDEST PUSH0 PUSH2 0x3615 PUSH1 0x26 DUP4 PUSH2 0x2210 JUMP JUMPDEST SWAP2 POP PUSH2 0x3620 DUP3 PUSH2 0x35BB JUMP JUMPDEST PUSH1 0x40 DUP3 ADD SWAP1 POP SWAP2 SWAP1 POP JUMP JUMPDEST PUSH0 PUSH1 0x20 DUP3 ADD SWAP1 POP DUP2 DUP2 SUB PUSH0 DUP4 ADD MSTORE PUSH2 0x3642 DUP2 PUSH2 0x3609 JUMP JUMPDEST SWAP1 POP SWAP2 SWAP1 POP JUMP JUMPDEST PUSH32 0x416464726573733A20696E73756666696369656E742062616C616E636520666F PUSH0 DUP3 ADD MSTORE PUSH32 0x722063616C6C0000000000000000000000000000000000000000000000000000 PUSH1 0x20 DUP3 ADD MSTORE POP JUMP JUMPDEST PUSH0 PUSH2 0x36A3 PUSH1 0x26 DUP4 PUSH2 0x2210 JUMP JUMPDEST SWAP2 POP PUSH2 0x36AE DUP3 PUSH2 0x3649 JUMP JUMPDEST PUSH1 0x40 DUP3 ADD SWAP1 POP SWAP2 SWAP1 POP JUMP JUMPDEST PUSH0 PUSH1 0x20 DUP3 ADD SWAP1 POP DUP2 DUP2 SUB PUSH0 DUP4 ADD MSTORE PUSH2 0x36D0 DUP2 PUSH2 0x3697 JUMP JUMPDEST SWAP1 POP SWAP2 SWAP1 POP JUMP JUMPDEST PUSH32 0x416464726573733A2063616C6C20746F206E6F6E2D636F6E7472616374000000 PUSH0 DUP3 ADD MSTORE POP JUMP JUMPDEST PUSH0 PUSH2 0x370B PUSH1 0x1D DUP4 PUSH2 0x2210 JUMP JUMPDEST SWAP2 POP PUSH2 0x3716 DUP3 PUSH2 0x36D7 JUMP JUMPDEST PUSH1 0x20 DUP3 ADD SWAP1 POP SWAP2 SWAP1 POP JUMP JUMPDEST PUSH0 PUSH1 0x20 DUP3 ADD SWAP1 POP DUP2 DUP2 SUB PUSH0 DUP4 ADD MSTORE PUSH2 0x3738 DUP2 PUSH2 0x36FF JUMP JUMPDEST SWAP1 POP SWAP2 SWAP1 POP JUMP JUMPDEST PUSH0 DUP2 SWAP1 POP SWAP3 SWAP2 POP POP JUMP JUMPDEST PUSH0 PUSH2 0x3753 DUP3 PUSH2 0x3255 JUMP JUMPDEST PUSH2 0x375D DUP2 DUP6 PUSH2 0x373F JUMP JUMPDEST SWAP4 POP PUSH2 0x376D DUP2 DUP6 PUSH1 0x20 DUP7 ADD PUSH2 0x2220 JUMP JUMPDEST DUP1 DUP5 ADD SWAP2 POP POP SWAP3 SWAP2 POP POP JUMP JUMPDEST PUSH0 PUSH2 0x3784 DUP3 DUP5 PUSH2 0x3749 JUMP JUMPDEST SWAP2 POP DUP2 SWAP1 POP SWAP3 SWAP2 POP POP JUMP JUMPDEST PUSH32 0x416464726573733A206C6F772D6C6576656C2063616C6C20776974682076616C PUSH0 DUP3 ADD MSTORE PUSH32 0x7565206661696C65640000000000000000000000000000000000000000000000 PUSH1 0x20 DUP3 ADD MSTORE POP JUMP JUMPDEST PUSH0 PUSH2 0x37E9 PUSH1 0x29 DUP4 PUSH2 0x2210 JUMP JUMPDEST SWAP2 POP PUSH2 0x37F4 DUP3 PUSH2 0x378F JUMP JUMPDEST PUSH1 0x40 DUP3 ADD SWAP1 POP SWAP2 SWAP1 POP JUMP JUMPDEST PUSH0 PUSH1 0x20 DUP3 ADD SWAP1 POP DUP2 DUP2 SUB PUSH0 DUP4 ADD MSTORE PUSH2 0x3816 DUP2 PUSH2 0x37DD JUMP JUMPDEST SWAP1 POP SWAP2 SWAP1 POP JUMP JUMPDEST PUSH0 PUSH2 0x3827 DUP3 PUSH2 0x1FB0 JUMP JUMPDEST SWAP2 POP PUSH2 0x3832 DUP4 PUSH2 0x1FB0 JUMP JUMPDEST SWAP3 POP DUP3 DUP3 MUL PUSH2 0x3840 DUP2 PUSH2 0x1FB0 JUMP JUMPDEST SWAP2 POP DUP3 DUP3 DIV DUP5 EQ DUP4 ISZERO OR PUSH2 0x3857 JUMPI PUSH2 0x3856 PUSH2 0x2EF4 JUMP JUMPDEST JUMPDEST POP SWAP3 SWAP2 POP POP JUMP JUMPDEST PUSH32 0x4E487B7100000000000000000000000000000000000000000000000000000000 PUSH0 MSTORE PUSH1 0x12 PUSH1 0x4 MSTORE PUSH1 0x24 PUSH0 REVERT JUMPDEST PUSH0 PUSH2 0x3895 DUP3 PUSH2 0x1FB0 JUMP JUMPDEST SWAP2 POP PUSH2 0x38A0 DUP4 PUSH2 0x1FB0 JUMP JUMPDEST SWAP3 POP DUP3 PUSH2 0x38B0 JUMPI PUSH2 0x38AF PUSH2 0x385E JUMP JUMPDEST JUMPDEST DUP3 DUP3 DIV SWAP1 POP SWAP3 SWAP2 POP POP JUMP JUMPDEST PUSH0 PUSH1 0xC0 DUP3 ADD SWAP1 POP DUP2 DUP2 SUB PUSH0 DUP4 ADD MSTORE PUSH2 0x38D3 DUP2 DUP10 PUSH2 0x3119 JUMP JUMPDEST SWAP1 POP DUP2 DUP2 SUB PUSH1 0x20 DUP4 ADD MSTORE PUSH2 0x38E7 DUP2 DUP9 PUSH2 0x31D0 JUMP JUMPDEST SWAP1 POP DUP2 DUP2 SUB PUSH1 0x40 DUP4 ADD MSTORE PUSH2 0x38FB DUP2 DUP8 PUSH2 0x32C6 JUMP JUMPDEST SWAP1 POP PUSH2 0x390A PUSH1 0x60 DUP4 ADD DUP7 PUSH2 0x34E6 JUMP JUMPDEST PUSH2 0x3917 PUSH1 0x80 DUP4 ADD DUP6 PUSH2 0x34E6 JUMP JUMPDEST PUSH2 0x3924 PUSH1 0xA0 DUP4 ADD DUP5 PUSH2 0x1FB9 JUMP JUMPDEST SWAP8 SWAP7 POP POP POP POP POP POP POP JUMP JUMPDEST PUSH0 PUSH2 0x3939 DUP3 PUSH2 0x1FB0 JUMP JUMPDEST SWAP2 POP PUSH2 0x3944 DUP4 PUSH2 0x1FB0 JUMP JUMPDEST SWAP3 POP DUP3 DUP3 ADD SWAP1 POP DUP1 DUP3 GT ISZERO PUSH2 0x395C JUMPI PUSH2 0x395B PUSH2 0x2EF4 JUMP JUMPDEST JUMPDEST SWAP3 SWAP2 POP POP JUMP JUMPDEST PUSH0 PUSH1 0xA0 DUP3 ADD SWAP1 POP DUP2 DUP2 SUB PUSH0 DUP4 ADD MSTORE PUSH2 0x397A DUP2 DUP9 PUSH2 0x3119 JUMP JUMPDEST SWAP1 POP DUP2 DUP2 SUB PUSH1 0x20 DUP4 ADD MSTORE PUSH2 0x398E DUP2 DUP8 PUSH2 0x31D0 JUMP JUMPDEST SWAP1 POP DUP2 DUP2 SUB PUSH1 0x40 DUP4 ADD MSTORE PUSH2 0x39A2 DUP2 DUP7 PUSH2 0x32C6 JUMP JUMPDEST SWAP1 POP PUSH2 0x39B1 PUSH1 0x60 DUP4 ADD DUP6 PUSH2 0x34E6 JUMP JUMPDEST PUSH2 0x39BE PUSH1 0x80 DUP4 ADD DUP5 PUSH2 0x34E6 JUMP JUMPDEST SWAP7 SWAP6 POP POP POP POP POP POP JUMP JUMPDEST PUSH32 0x476F7665726E6F723A20756E6B6E6F776E2070726F706F73616C206964000000 PUSH0 DUP3 ADD MSTORE POP JUMP JUMPDEST PUSH0 PUSH2 0x39FC PUSH1 0x1D DUP4 PUSH2 0x2210 JUMP JUMPDEST SWAP2 POP PUSH2 0x3A07 DUP3 PUSH2 0x39C8 JUMP JUMPDEST PUSH1 0x20 DUP3 ADD SWAP1 POP SWAP2 SWAP1 POP JUMP JUMPDEST PUSH0 PUSH1 0x20 DUP3 ADD SWAP1 POP DUP2 DUP2 SUB PUSH0 DUP4 ADD MSTORE PUSH2 0x3A29 DUP2 PUSH2 0x39F0 JUMP JUMPDEST SWAP1 POP SWAP2 SWAP1 POP JUMP INVALID LOG2 PUSH5 0x6970667358 0x22 SLT KECCAK256 SWAP16 0xDA BASEFEE DUP11 0xE4 PUSH8 0xAAB74580574E0194 PUSH21 0xF614D934EF7DAED3E413AF4CEA289CA83364736F6C PUSH4 0x43000814 STOP CALLER "
		},
		"gasEstimates": {
			"creation": {
				"codeDepositCost": "2990000",
				"executionCost": "infinite",
				"totalCost": "infinite"
			},
			"external": {
				"CLOCK_MODE()": "infinite",
				"COUNTING_MODE()": "infinite",
				"cancel(address[],uint256[],bytes[],bytes32)": "infinite",
				"castVote(uint256,uint8)": "972",
				"castVoteBySig(uint256,uint8,uint8,bytes32,bytes32)": "infinite",
				"castVoteWithReason(uint256,uint8,string)": "1164",
				"castVoteWithReasonAndParams(uint256,uint8,string,bytes)": "1374",
				"castVoteWithReasonAndParamsBySig(uint256,uint8,string,bytes,uint8,bytes32,bytes32)": "infinite",
				"clock()": "449",
				"execute(address[],uint256[],bytes[],bytes32)": "infinite",
				"getVotes(address,uint256)": "infinite",
				"getVotesWithParams(address,uint256,bytes)": "infinite",
				"hasVoted(uint256,address)": "3282",
				"hashProposal(address[],uint256[],bytes[],bytes32)": "infinite",
				"name()": "infinite",
				"proposalDeadline(uint256)": "infinite",
				"proposalNeedsQueuing(uint256)": "infinite",
				"proposalProposer(uint256)": "2903",
				"proposalSnapshot(uint256)": "infinite",
				"proposalThreshold()": "2577",
				"propose(address[],uint256[],bytes[],string)": "infinite",
				"queue(address[],uint256[],bytes[],bytes32)": "infinite",
				"quorum(uint256)": "infinite",
				"quorumNumerator()": "2499",
				"relay(address,uint256,bytes)": "infinite",
				"state(uint256)": "infinite",
				"supportsInterface(bytes4)": "806",
				"timelock()": "infinite",
				"token()": "infinite",
				"version()": "infinite",
				"votingDelay()": "2512",
				"votingPeriod()": "2535"
			},
			"internal": {
				"_cancel(address[] memory,uint256[] memory,bytes memory[] memory,bytes32)": "infinite",
				"_executeOperations(uint256,address[] memory,uint256[] memory,bytes memory[] memory,bytes32)": "infinite",
				"_executor()": "2191",
				"_queueOperations(uint256,address[] memory,uint256[] memory,bytes memory[] memory,bytes32)": "infinite"
			}
		},
		"methodIdentifiers": {
			"CLOCK_MODE()": "4bf5d7e9",
			"COUNTING_MODE()": "dd4e2ba5",
			"cancel(address[],uint256[],bytes[],bytes32)": "452115d6",
			"castVote(uint256,uint8)": "56781388",
			"castVoteBySig(uint256,uint8,uint8,bytes32,bytes32)": "3bccf4fd",
			"castVoteWithReason(uint256,uint8,string)": "7b3c71d3",
			"castVoteWithReasonAndParams(uint256,uint8,string,bytes)": "5f398a14",
			"castVoteWithReasonAndParamsBySig(uint256,uint8,string,bytes,uint8,bytes32,bytes32)": "03420181",
			"clock()": "91ddadf4",
			"execute(address[],uint256[],bytes[],bytes32)": "2656227d",
			"getVotes(address,uint256)": "eb9019d4",
			"getVotesWithParams(address,uint256,bytes)": "9a802a6d",
			"hasVoted(uint256,address)": "43859632",
			"hashProposal(address[],uint256[],bytes[],bytes32)": "c59057e4",
			"name()": "06fdde03",
			"proposalDeadline(uint256)": "c01f9e37",
			"proposalNeedsQueuing(uint256)": "a9a95294",
			"proposalProposer(uint256)": "143489d0",
			"proposalSnapshot(uint256)": "2d63f693",
			"proposalThreshold()": "b58131b0",
			"propose(address[],uint256[],bytes[],string)": "7d5e81e2",
			"queue(address[],uint256[],bytes[],bytes32)": "160cbed7",
			"quorum(uint256)": "f8ce560a",
			"quorumNumerator()": "a7713a70",
			"relay(address,uint256,bytes)": "c28bc2fa",
			"state(uint256)": "3e4f49e6",
			"supportsInterface(bytes4)": "01ffc9a7",
			"timelock()": "d33219b4",
			"token()": "fc0c546a",
			"version()": "54fd4d50",
			"votingDelay()": "3932abb1",
			"votingPeriod()": "02a251a3"
		}
	},
	"abi": [
		{
			"inputs": [
				{
					"internalType": "contract IVotes",
					"name": "_token",
					"type": "address"
				},
				{
					"internalType": "contract TimelockController",
					"name": "_timelock",
					"type": "address"
				}
			],
			"stateMutability": "nonpayable",
			"type": "constructor"
		},
		{
			"anonymous": false,
			"inputs": [
				{
					"indexed": false,
					"internalType": "uint256",
					"name": "proposalId",
					"type": "uint256"
				}
			],
			"name": "ProposalCanceled",
			"type": "event"
		},
		{
			"anonymous": false,
			"inputs": [
				{
					"indexed": true,
					"internalType": "uint256",
					"name": "proposalId",
					"type": "uint256"
				},
				{
					"indexed": false,
					"internalType": "address",
					"name": "proposer",
					"type": "address"
				},
				{
					"indexed": false,
					"internalType": "address[]",
					"name": "targets",
					"type": "address[]"
				},
				{
					"indexed": false,
					"internalType": "uint256[]",
					"name": "values",
					"type": "uint256[]"
				},
				{
					"indexed": false,
					"internalType": "bytes[]",
					"name": "calldatas",
					"type": "bytes[]"
				},
				{
					"indexed": false,
					"internalType": "uint256",
					"name": "startBlock",
					"type": "uint256"
				},
				{
					"indexed": false,
					"internalType": "uint256",
					"name": "endBlock",
					"type": "uint256"
				},
				{
					"indexed": false,
					"internalType": "string",
					"name": "description",
					"type": "string"
				}
			],
			"name": "ProposalCreated",
			"type": "event"
		},
		{
			"anonymous": false,
			"inputs": [
				{
					"indexed": false,
					"internalType": "uint256",
					"name": "proposalId",
					"type": "uint256"
				}
			],
			"name": "ProposalExecuted",
			"type": "event"
		},
		{
			"anonymous": false,
			"inputs": [
				{
					"indexed": false,
					"internalType": "uint256",
					"name": "proposalId",
					"type": "uint256"
				}
			],
			"name": "ProposalQueued",
			"type": "event"
		},
		{
			"anonymous": false,
			"inputs": [
				{
					"indexed": false,
					"internalType": "uint256",
					"name": "oldQuorumNumerator",
					"type": "uint256"
				},
				{
					"indexed": false,
					"internalType": "uint256",
					"name": "newQuorumNumerator",
					"type": "uint256"
				}
			],
			"name": "QuorumNumeratorUpdated",
			"type": "event"
		},
		{
			"inputs": [],
			"name": "CLOCK_MODE",
			"outputs": [
				{
					"internalType": "string",
					"name": "",
					"type": "string"
				}
			],
			"stateMutability": "view",
			"type": "function"
		},
		{
			"inputs": [],
			"name": "COUNTING_MODE",
			"outputs": [
				{
					"internalType": "string",
					"name": "",
					"type": "string"
				}
			],
			"stateMutability": "pure",
			"type": "function"
		},
		{
			"inputs": [
				{
					"internalType": "address[]",
					"name": "targets",
					"type": "address[]"
				},
				{
					"internalType": "uint256[]",
					"name": "values",
					"type": "uint256[]"
				},
				{
					"internalType": "bytes[]",
					"name": "calldatas",
					"type": "bytes[]"
				},
				{
					"internalType": "bytes32",
					"name": "descriptionHash",
					"type": "bytes32"
				}
			],
			"name": "cancel",
			"outputs": [
				{
					"internalType": "uint256",
					"name": "proposalId",
					"type": "uint256"
				}
			],
			"stateMutability": "nonpayable",
			"type": "function"
		},
		{
			"inputs": [
				{
					"internalType": "uint256",
					"name": "",
					"type": "uint256"
				},
				{
					"internalType": "uint8",
					"name": "",
					"type": "uint8"
				}
			],
			"name": "castVote",
			"outputs": [
				{
					"internalType": "uint256",
					"name": "",
					"type": "uint256"
				}
			],
			"stateMutability": "pure",
			"type": "function"
		},
		{
			"inputs": [
				{
					"internalType": "uint256",
					"name": "",
					"type": "uint256"
				},
				{
					"internalType": "uint8",
					"name": "",
					"type": "uint8"
				},
				{
					"internalType": "uint8",
					"name": "",
					"type": "uint8"
				},
				{
					"internalType": "bytes32",
					"name": "",
					"type": "bytes32"
				},
				{
					"internalType": "bytes32",
					"name": "",
					"type": "bytes32"
				}
			],
			"name": "castVoteBySig",
			"outputs": [
				{
					"internalType": "uint256",
					"name": "",
					"type": "uint256"
				}
			],
			"stateMutability": "pure",
			"type": "function"
		},
		{
			"inputs": [
				{
					"internalType": "uint256",
					"name": "",
					"type": "uint256"
				},
				{
					"internalType": "uint8",
					"name": "",
					"type": "uint8"
				},
				{
					"internalType": "string",
					"name": "",
					"type": "string"
				}
			],
			"name": "castVoteWithReason",
			"outputs": [
				{
					"internalType": "uint256",
					"name": "",
					"type": "uint256"
				}
			],
			"stateMutability": "pure",
			"type": "function"
		},
		{
			"inputs": [
				{
					"internalType": "uint256",
					"name": "",
					"type": "uint256"
				},
				{
					"internalType": "uint8",
					"name": "",
					"type": "uint8"
				},
				{
					"internalType": "string",
					"name": "",
					"type": "string"
				},
				{
					"internalType": "bytes",
					"name": "",
					"type": "bytes"
				}
			],
			"name": "castVoteWithReasonAndParams",
			"outputs": [
				{
					"internalType": "uint256",
					"name": "",
					"type": "uint256"
				}
			],
			"stateMutability": "pure",
			"type": "function"
		},
		{
			"inputs": [
				{
					"internalType": "uint256",
					"name": "",
					"type": "uint256"
				},
				{
					"internalType": "uint8",
					"name": "",
					"type": "uint8"
				},
				{
					"internalType": "string",
					"name": "",
					"type": "string"
				},
				{
					"internalType": "bytes",
					"name": "",
					"type": "bytes"
				},
				{
					"internalType": "uint8",
					"name": "",
					"type": "uint8"
				},
				{
					"internalType": "bytes32",
					"name": "",
					"type": "bytes32"
				},
				{
					"internalType": "bytes32",
					"name": "",
					"type": "bytes32"
				}
			],
			"name": "castVoteWithReasonAndParamsBySig",
			"outputs": [
				{
					"internalType": "uint256",
					"name": "",
					"type": "uint256"
				}
			],
			"stateMutability": "pure",
			"type": "function"
		},
		{
			"inputs": [],
			"name": "clock",
			"outputs": [
				{
					"internalType": "uint48",
					"name": "",
					"type": "uint48"
				}
			],
			"stateMutability": "view",
			"type": "function"
		},
		{
			"inputs": [
				{
					"internalType": "address[]",
					"name": "targets",
					"type": "address[]"
				},
				{
					"internalType": "uint256[]",
					"name": "values",
					"type": "uint256[]"
				},
				{
					"internalType": "bytes[]",
					"name": "calldatas",
					"type": "bytes[]"
				},
				{
					"internalType": "bytes32",
					"name": "descriptionHash",
					"type": "bytes32"
				}
			],
			"name": "execute",
			"outputs": [
				{
					"internalType": "uint256",
					"name": "proposalId",
					"type": "uint256"
				}
			],
			"stateMutability": "payable",
			"type": "function"
		},
		{
			"inputs": [
				{
					"internalType": "address",
					"name": "account",
					"type": "address"
				},
				{
					"internalType": "uint256",
					"name": "blockNumber",
					"type": "uint256"
				}
			],
			"name": "getVotes",
			"outputs": [
				{
					"internalType": "uint256",
					"name": "",
					"type": "uint256"
				}
			],
			"stateMutability": "view",
			"type": "function"
		},
		{
			"inputs": [
				{
					"internalType": "address",
					"name": "account",
					"type": "address"
				},
				{
					"internalType": "uint256",
					"name": "blockNumber",
					"type": "uint256"
				},
				{
					"internalType": "bytes",
					"name": "",
					"type": "bytes"
				}
			],
			"name": "getVotesWithParams",
			"outputs": [
				{
					"internalType": "uint256",
					"name": "",
					"type": "uint256"
				}
			],
			"stateMutability": "view",
			"type": "function"
		},
		{
			"inputs": [
				{
					"internalType": "uint256",
					"name": "proposalId",
					"type": "uint256"
				},
				{
					"internalType": "address",
					"name": "account",
					"type": "address"
				}
			],
			"name": "hasVoted",
			"outputs": [
				{
					"internalType": "bool",
					"name": "",
					"type": "bool"
				}
			],
			"stateMutability": "view",
			"type": "function"
		},
		{
			"inputs": [
				{
					"internalType": "address[]",
					"name": "targets",
					"type": "address[]"
				},
				{
					"internalType": "uint256[]",
					"name": "values",
					"type": "uint256[]"
				},
				{
					"internalType": "bytes[]",
					"name": "calldatas",
					"type": "bytes[]"
				},
				{
					"internalType": "bytes32",
					"name": "descriptionHash",
					"type": "bytes32"
				}
			],
			"name": "hashProposal",
			"outputs": [
				{
					"internalType": "uint256",
					"name": "",
					"type": "uint256"
				}
			],
			"stateMutability": "pure",
			"type": "function"
		},
		{
			"inputs": [],
			"name": "name",
			"outputs": [
				{
					"internalType": "string",
					"name": "",
					"type": "string"
				}
			],
			"stateMutability": "view",
			"type": "function"
		},
		{
			"inputs": [
				{
					"internalType": "uint256",
					"name": "proposalId",
					"type": "uint256"
				}
			],
			"name": "proposalDeadline",
			"outputs": [
				{
					"internalType": "uint256",
					"name": "",
					"type": "uint256"
				}
			],
			"stateMutability": "view",
			"type": "function"
		},
		{
			"inputs": [
				{
					"internalType": "uint256",
					"name": "proposalId",
					"type": "uint256"
				}
			],
			"name": "proposalNeedsQueuing",
			"outputs": [
				{
					"internalType": "bool",
					"name": "",
					"type": "bool"
				}
			],
			"stateMutability": "view",
			"type": "function"
		},
		{
			"inputs": [
				{
					"internalType": "uint256",
					"name": "proposalId",
					"type": "uint256"
				}
			],
			"name": "proposalProposer",
			"outputs": [
				{
					"internalType": "address",
					"name": "",
					"type": "address"
				}
			],
			"stateMutability": "view",
			"type": "function"
		},
		{
			"inputs": [
				{
					"internalType": "uint256",
					"name": "proposalId",
					"type": "uint256"
				}
			],
			"name": "proposalSnapshot",
			"outputs": [
				{
					"internalType": "uint256",
					"name": "",
					"type": "uint256"
				}
			],
			"stateMutability": "view",
			"type": "function"
		},
		{
			"inputs": [],
			"name": "proposalThreshold",
			"outputs": [
				{
					"internalType": "uint256",
					"name": "",
					"type": "uint256"
				}
			],
			"stateMutability": "view",
			"type": "function"
		},
		{
			"inputs": [
				{
					"internalType": "address[]",
					"name": "targets",
					"type": "address[]"
				},
				{
					"internalType": "uint256[]",
					"name": "values",
					"type": "uint256[]"
				},
				{
					"internalType": "bytes[]",
					"name": "calldatas",
					"type": "bytes[]"
				},
				{
					"internalType": "string",
					"name": "description",
					"type": "string"
				}
			],
			"name": "propose",
			"outputs": [
				{
					"internalType": "uint256",
					"name": "",
					"type": "uint256"
				}
			],
			"stateMutability": "nonpayable",
			"type": "function"
		},
		{
			"inputs": [
				{
					"internalType": "address[]",
					"name": "targets",
					"type": "address[]"
				},
				{
					"internalType": "uint256[]",
					"name": "values",
					"type": "uint256[]"
				},
				{
					"internalType": "bytes[]",
					"name": "calldatas",
					"type": "bytes[]"
				},
				{
					"internalType": "bytes32",
					"name": "descriptionHash",
					"type": "bytes32"
				}
			],
			"name": "queue",
			"outputs": [
				{
					"internalType": "uint256",
					"name": "proposalId",
					"type": "uint256"
				}
			],
			"stateMutability": "nonpayable",
			"type": "function"
		},
		{
			"inputs": [
				{
					"internalType": "uint256",
					"name": "blockNumber",
					"type": "uint256"
				}
			],
			"name": "quorum",
			"outputs": [
				{
					"internalType": "uint256",
					"name": "",
					"type": "uint256"
				}
			],
			"stateMutability": "view",
			"type": "function"
		},
		{
			"inputs": [],
			"name": "quorumNumerator",
			"outputs": [
				{
					"internalType": "uint256",
					"name": "",
					"type": "uint256"
				}
			],
			"stateMutability": "view",
			"type": "function"
		},
		{
			"inputs": [
				{
					"internalType": "address",
					"name": "target",
					"type": "address"
				},
				{
					"internalType": "uint256",
					"name": "value",
					"type": "uint256"
				},
				{
					"internalType": "bytes",
					"name": "data",
					"type": "bytes"
				}
			],
			"name": "relay",
			"outputs": [],
			"stateMutability": "nonpayable",
			"type": "function"
		},
		{
			"inputs": [
				{
					"internalType": "uint256",
					"name": "proposalId",
					"type": "uint256"
				}
			],
			"name": "state",
			"outputs": [
				{
					"internalType": "enum IGovernor.ProposalState",
					"name": "",
					"type": "uint8"
				}
			],
			"stateMutability": "view",
			"type": "function"
		},
		{
			"inputs": [
				{
					"internalType": "bytes4",
					"name": "interfaceId",
					"type": "bytes4"
				}
			],
			"name": "supportsInterface",
			"outputs": [
				{
					"internalType": "bool",
					"name": "",
					"type": "bool"
				}
			],
			"stateMutability": "view",
			"type": "function"
		},
		{
			"inputs": [],
			"name": "timelock",
			"outputs": [
				{
					"internalType": "contract TimelockController",
					"name": "",
					"type": "address"
				}
			],
			"stateMutability": "view",
			"type": "function"
		},
		{
			"inputs": [],
			"name": "token",
			"outputs": [
				{
					"internalType": "contract IVotes",
					"name": "",
					"type": "address"
				}
			],
			"stateMutability": "view",
			"type": "function"
		},
		{
			"inputs": [],
			"name": "version",
			"outputs": [
				{
					"internalType": "string",
					"name": "",
					"type": "string"
				}
			],
			"stateMutability": "view",
			"type": "function"
		},
		{
			"inputs": [],
			"name": "votingDelay",
			"outputs": [
				{
					"internalType": "uint256",
					"name": "",
					"type": "uint256"
				}
			],
			"stateMutability": "view",
			"type": "function"
		},
		{
			"inputs": [],
			"name": "votingPeriod",
			"outputs": [
				{
					"internalType": "uint256",
					"name": "",
					"type": "uint256"
				}
			],
			"stateMutability": "view",
			"type": "function"
		}
	]
}