{
	"data": {
		"bytecode": {
			"linkReferences": {},
			"object": "61018060405234801562000011575f80fd5b506040516200837d3803806200837d833981810160405281019062000037919062000d08565b80600483600161b2fa683635c9adc5dea000006040518060400160405280601081526020017f476f7665726e6f72436f6e7472616374000000000000000000000000000000008152508062000091620001eb60201b60201c565b620000a65f836200022860201b90919060201c565b6101208181525050620000c46001826200022860201b90919060201c565b6101408181525050818051906020012060e08181525050808051906020012061010081815250504660a08181525050620001036200027d60201b60201c565b608081815250503073ffffffffffffffffffffffffffffffffffffffff1660c08173ffffffffffffffffffffffffffffffffffffffff16815250505050806003908162000151919062000fb1565b50506200016483620002d960201b60201c565b62000175826200034e60201b60201c565b62000186816200040c60201b60201c565b5050508073ffffffffffffffffffffffffffffffffffffffff166101608173ffffffffffffffffffffffffffffffffffffffff168152505050620001d0816200045360201b60201c565b50620001e2816200053c60201b60201c565b505050620015b8565b60606040518060400160405280600181526020017f3100000000000000000000000000000000000000000000000000000000000000815250905090565b5f6020835110156200024d576200024583620005db60201b60201c565b905062000277565b826200025f836200064560201b60201c565b5f0190816200026f919062000fb1565b5060ff5f1b90505b92915050565b5f7f8b73c3c69bb8fe3d512ecc4cf759cc79239f7b179b0ffacaa9a75d522b39400f60e051610100514630604051602001620002be959493929190620010d1565b60405160208183030381529060405280519060200120905090565b7fc565b045403dc03c2eea82b81a0465edad9e2e7fc4d97e11421c209da93d7a9360085f9054906101000a900465ffffffffffff16826040516200031f92919062001175565b60405180910390a18060085f6101000a81548165ffffffffffff021916908365ffffffffffff16021790555050565b5f8163ffffffff16036200039b575f6040517ff1cfbf05000000000000000000000000000000000000000000000000000000008152600401620003929190620011e1565b60405180910390fd5b7f7e3f7f0708a84de9203036abaa450dccc85ad5ff52f78c170f3edb55cf5e8828600860069054906101000a900463ffffffff1682604051620003e092919062001243565b60405180910390a180600860066101000a81548163ffffffff021916908363ffffffff16021790555050565b7fccb45da8d5717e6c4544694297c4ba5cf151d455c9bb0ed4fc7a38411bc0546160075482604051620004419291906200126e565b60405180910390a18060078190555050565b5f620004646200064e60201b60201c565b905080821115620004b05781816040517f243e5445000000000000000000000000000000000000000000000000000000008152600401620004a79291906200126e565b60405180910390fd5b5f620004c16200065660201b60201c565b9050620004fa620004d76200068a60201b60201c565b620004e8856200072a60201b60201c565b600a6200079a60201b9092919060201c565b50507f0553476bf02ef2726e8ce5ced78d63e26e602e4a2257b1f559418e24b463399781846040516200052f9291906200126e565b60405180910390a1505050565b7f08f74ea46ef7894f65eabfb5e6e695de773a000b47c529ab559178069b226401600b5f9054906101000a900473ffffffffffffffffffffffffffffffffffffffff16826040516200059092919062001299565b60405180910390a180600b5f6101000a81548173ffffffffffffffffffffffffffffffffffffffff021916908373ffffffffffffffffffffffffffffffffffffffff16021790555050565b5f80829050601f815111156200062a57826040517f305a27a90000000000000000000000000000000000000000000000000000000081526004016200062191906200134e565b60405180910390fd5b80518162000638906200139f565b5f1c175f1b915050919050565b5f819050919050565b5f6064905090565b5f62000669600a620007bd60201b60201c565b79ffffffffffffffffffffffffffffffffffffffffffffffffffff16905090565b5f6200069b6200082b60201b60201c565b73ffffffffffffffffffffffffffffffffffffffff166391ddadf46040518163ffffffff1660e01b8152600401602060405180830381865afa9250505080156200070557506040513d601f19601f820116820180604052508101906200070291906200143d565b60015b62000722576200071a6200083560201b60201c565b905062000727565b809150505b90565b5f79ffffffffffffffffffffffffffffffffffffffffffffffffffff8016821115620007925760d0826040517f6dfcc65000000000000000000000000000000000000000000000000000000000815260040162000789929190620014ba565b60405180910390fd5b819050919050565b5f80620007b1855f0185856200084c60201b60201c565b91509150935093915050565b5f80825f018054905090505f81146200082157620007f2835f01600183620007e6919062001512565b62000bcd60201b60201c565b5f0160069054906101000a900479ffffffffffffffffffffffffffffffffffffffffffffffffffff1662000823565b5f5b915050919050565b5f61016051905090565b5f620008474362000bdf60201b60201c565b905090565b5f805f858054905090505f81111562000ae5575f620008808760018462000874919062001512565b62000bcd60201b60201c565b6040518060400160405290815f82015f9054906101000a900465ffffffffffff1665ffffffffffff1665ffffffffffff1681526020015f820160069054906101000a900479ffffffffffffffffffffffffffffffffffffffffffffffffffff1679ffffffffffffffffffffffffffffffffffffffffffffffffffff1679ffffffffffffffffffffffffffffffffffffffffffffffffffff168152505090508565ffffffffffff16815f015165ffffffffffff1611156200096c576040517f2520601d00000000000000000000000000000000000000000000000000000000815260040160405180910390fd5b8565ffffffffffff16815f015165ffffffffffff1603620009fa5784620009a8886001856200099c919062001512565b62000bcd60201b60201c565b5f0160066101000a81548179ffffffffffffffffffffffffffffffffffffffffffffffffffff021916908379ffffffffffffffffffffffffffffffffffffffffffffffffffff16021790555062000ad3565b8660405180604001604052808865ffffffffffff1681526020018779ffffffffffffffffffffffffffffffffffffffffffffffffffff16815250908060018154018082558091505060019003905f5260205f20015f909190919091505f820151815f015f6101000a81548165ffffffffffff021916908365ffffffffffff1602179055506020820151815f0160066101000a81548179ffffffffffffffffffffffffffffffffffffffffffffffffffff021916908379ffffffffffffffffffffffffffffffffffffffffffffffffffff16021790555050505b80602001518593509350505062000bc5565b8560405180604001604052808765ffffffffffff1681526020018679ffffffffffffffffffffffffffffffffffffffffffffffffffff16815250908060018154018082558091505060019003905f5260205f20015f909190919091505f820151815f015f6101000a81548165ffffffffffff021916908365ffffffffffff1602179055506020820151815f0160066101000a81548179ffffffffffffffffffffffffffffffffffffffffffffffffffff021916908379ffffffffffffffffffffffffffffffffffffffffffffffffffff16021790555050505f8492509250505b935093915050565b5f825f528160205f2001905092915050565b5f65ffffffffffff801682111562000c33576030826040517f6dfcc65000000000000000000000000000000000000000000000000000000000815260040162000c2a9291906200158d565b60405180910390fd5b819050919050565b5f80fd5b5f73ffffffffffffffffffffffffffffffffffffffff82169050919050565b5f62000c6a8262000c3f565b9050919050565b5f62000c7d8262000c5e565b9050919050565b62000c8f8162000c71565b811462000c9a575f80fd5b50565b5f8151905062000cad8162000c84565b92915050565b5f62000cbf8262000c3f565b9050919050565b5f62000cd28262000cb3565b9050919050565b62000ce48162000cc6565b811462000cef575f80fd5b50565b5f8151905062000d028162000cd9565b92915050565b5f806040838503121562000d215762000d2062000c3b565b5b5f62000d308582860162000c9d565b925050602062000d438582860162000cf2565b9150509250929050565b5f81519050919050565b7f4e487b71000000000000000000000000000000000000000000000000000000005f52604160045260245ffd5b7f4e487b71000000000000000000000000000000000000000000000000000000005f52602260045260245ffd5b5f600282049050600182168062000dc957607f821691505b60208210810362000ddf5762000dde62000d84565b5b50919050565b5f819050815f5260205f209050919050565b5f6020601f8301049050919050565b5f82821b905092915050565b5f6008830262000e437fffffffffffffffffffffffffffffffffffffffffffffffffffffffffffffffff8262000e06565b62000e4f868362000e06565b95508019841693508086168417925050509392505050565b5f819050919050565b5f819050919050565b5f62000e9962000e9362000e8d8462000e67565b62000e70565b62000e67565b9050919050565b5f819050919050565b62000eb48362000e79565b62000ecc62000ec38262000ea0565b84845462000e12565b825550505050565b5f90565b62000ee262000ed4565b62000eef81848462000ea9565b505050565b5b8181101562000f165762000f0a5f8262000ed8565b60018101905062000ef5565b5050565b601f82111562000f655762000f2f8162000de5565b62000f3a8462000df7565b8101602085101562000f4a578190505b62000f6262000f598562000df7565b83018262000ef4565b50505b505050565b5f82821c905092915050565b5f62000f875f198460080262000f6a565b1980831691505092915050565b5f62000fa1838362000f76565b9150826002028217905092915050565b62000fbc8262000d4d565b67ffffffffffffffff81111562000fd85762000fd762000d57565b5b62000fe4825462000db1565b62000ff182828562000f1a565b5f60209050601f83116001811462001027575f841562001012578287015190505b6200101e858262000f94565b8655506200108d565b601f198416620010378662000de5565b5f5b82811015620010605784890151825560018201915060208501945060208101905062001039565b868310156200108057848901516200107c601f89168262000f76565b8355505b6001600288020188555050505b505050505050565b5f819050919050565b620010a98162001095565b82525050565b620010ba8162000e67565b82525050565b620010cb8162000c5e565b82525050565b5f60a082019050620010e65f8301886200109e565b620010f560208301876200109e565b6200110460408301866200109e565b620011136060830185620010af565b620011226080830184620010c0565b9695505050505050565b5f65ffffffffffff82169050919050565b5f6200115d6200115762001151846200112c565b62000e70565b62000e67565b9050919050565b6200116f816200113d565b82525050565b5f6040820190506200118a5f83018562001164565b62001199602083018462001164565b9392505050565b5f819050919050565b5f620011c9620011c3620011bd84620011a0565b62000e70565b62000e67565b9050919050565b620011db81620011a9565b82525050565b5f602082019050620011f65f830184620011d0565b92915050565b5f63ffffffff82169050919050565b5f6200122b620012256200121f84620011fc565b62000e70565b62000e67565b9050919050565b6200123d816200120b565b82525050565b5f604082019050620012585f83018562001232565b62001267602083018462001232565b9392505050565b5f604082019050620012835f830185620010af565b620012926020830184620010af565b9392505050565b5f604082019050620012ae5f830185620010c0565b620012bd6020830184620010c0565b9392505050565b5f82825260208201905092915050565b5f5b83811015620012f3578082015181840152602081019050620012d6565b5f8484015250505050565b5f601f19601f8301169050919050565b5f6200131a8262000d4d565b620013268185620012c4565b935062001338818560208601620012d4565b6200134381620012fe565b840191505092915050565b5f6020820190508181035f8301526200136881846200130e565b905092915050565b5f81519050919050565b5f819050602082019050919050565b5f62001396825162001095565b80915050919050565b5f620013ab8262001370565b82620013b7846200137a565b9050620013c48162001389565b925060208210156200140757620014027fffffffffffffffffffffffffffffffffffffffffffffffffffffffffffffffff8360200360080262000e06565b831692505b5050919050565b62001419816200112c565b811462001424575f80fd5b50565b5f8151905062001437816200140e565b92915050565b5f6020828403121562001455576200145462000c3b565b5b5f620014648482850162001427565b91505092915050565b5f819050919050565b5f60ff82169050919050565b5f620014a26200149c62001496846200146d565b62000e70565b62001476565b9050919050565b620014b48162001482565b82525050565b5f604082019050620014cf5f830185620014a9565b620014de6020830184620010af565b9392505050565b7f4e487b71000000000000000000000000000000000000000000000000000000005f52601160045260245ffd5b5f6200151e8262000e67565b91506200152b8362000e67565b9250828203905081811115620015465762001545620014e5565b5b92915050565b5f819050919050565b5f620015756200156f62001569846200154c565b62000e70565b62001476565b9050919050565b620015878162001555565b82525050565b5f604082019050620015a25f8301856200157c565b620015b16020830184620010af565b9392505050565b60805160a05160c05160e05161010051610120516101405161016051616d69620016145f395f611e1201525f612dab01525f612d7001525f61457301525f61455201525f6138aa01525f61390001525f6139290152616d695ff3fe608060405260043610610296575f3560e01c80637ecebe0011610159578063c01f9e37116100c0578063e540d01d11610079578063e540d01d14610b89578063eb9019d414610bb1578063ece40cc114610bed578063f23a6e6114610c15578063f8ce560a14610c51578063fc0c546a14610c8d57610309565b8063c01f9e3714610a77578063c28bc2fa14610ab3578063c59057e414610acf578063d33219b414610b0b578063dd4e2ba514610b35578063deaaa7cc14610b5f57610309565b8063a7713a7011610112578063a7713a7014610947578063a890c91014610971578063a9a9529414610999578063ab58fb8e146109d5578063b58131b014610a11578063bc197c8114610a3b57610309565b80637ecebe001461080f57806384b0196e1461084b5780638ff262e31461087b57806391ddadf4146108b757806397c3d334146108e15780639a802a6d1461090b57610309565b806343859632116101fd5780635b8d0e0d116101b65780635b8d0e0d146106bb5780635f398a14146106f757806360c4247f14610733578063790518871461076f5780637b3c71d3146107975780637d5e81e2146107d357610309565b80634385963214610575578063452115d6146105b15780634bf5d7e9146105ed578063544ffc9c1461061757806354fd4d5014610655578063567813881461067f57610309565b8063160cbed71161024f578063160cbed71461043d5780632656227d146104795780632d63f693146104a95780632fe3e261146104e55780633932abb11461050f5780633e4f49e61461053957610309565b806301ffc9a71461030d57806302a251a31461034957806306f3f9e61461037357806306fdde031461039b578063143489d0146103c5578063150b7a021461040157610309565b36610309573073ffffffffffffffffffffffffffffffffffffffff166102ba610cb7565b73ffffffffffffffffffffffffffffffffffffffff1614610307576040517fe90a651e00000000000000000000000000000000000000000000000000000000815260040160405180910390fd5b005b5f80fd5b348015610318575f80fd5b50610333600480360381019061032e91906148e4565b610cc5565b6040516103409190614929565b60405180910390f35b348015610354575f80fd5b5061035d610cd6565b60405161036a919061495a565b60405180910390f35b34801561037e575f80fd5b506103996004803603810190610394919061499d565b610ce4565b005b3480156103a6575f80fd5b506103af610cf8565b6040516103bc9190614a52565b60405180910390f35b3480156103d0575f80fd5b506103eb60048036038101906103e6919061499d565b610d88565b6040516103f89190614ab1565b60405180910390f35b34801561040c575f80fd5b5061042760048036038101906104229190614c20565b610dc3565b6040516104349190614caf565b60405180910390f35b348015610448575f80fd5b50610463600480360381019061045e9190614f5d565b610e42565b604051610470919061495a565b60405180910390f35b610493600480360381019061048e9190614f5d565b610f38565b6040516104a0919061495a565b60405180910390f35b3480156104b4575f80fd5b506104cf60048036038101906104ca919061499d565b611118565b6040516104dc919061495a565b60405180910390f35b3480156104f0575f80fd5b506104f961114e565b6040516105069190615024565b60405180910390f35b34801561051a575f80fd5b50610523611172565b604051610530919061495a565b60405180910390f35b348015610544575f80fd5b5061055f600480360381019061055a919061499d565b611180565b60405161056c91906150b0565b60405180910390f35b348015610580575f80fd5b5061059b600480360381019061059691906150c9565b611191565b6040516105a89190614929565b60405180910390f35b3480156105bc575f80fd5b506105d760048036038101906105d29190614f5d565b6111f6565b6040516105e4919061495a565b60405180910390f35b3480156105f8575f80fd5b506106016112b6565b60405161060e9190614a52565b60405180910390f35b348015610622575f80fd5b5061063d6004803603810190610638919061499d565b611373565b60405161064c93929190615107565b60405180910390f35b348015610660575f80fd5b506106696113a6565b6040516106769190614a52565b60405180910390f35b34801561068a575f80fd5b506106a560048036038101906106a09190615172565b6113e3565b6040516106b2919061495a565b60405180910390f35b3480156106c6575f80fd5b506106e160048036038101906106dc9190615209565b611412565b6040516106ee919061495a565b60405180910390f35b348015610702575f80fd5b5061071d600480360381019061071891906152eb565b611541565b60405161072a919061495a565b60405180910390f35b34801561073e575f80fd5b506107596004803603810190610754919061499d565b6115a9565b604051610766919061495a565b60405180910390f35b34801561077a575f80fd5b50610795600480360381019061079091906153c6565b6116a2565b005b3480156107a2575f80fd5b506107bd60048036038101906107b891906153f1565b6116b6565b6040516107ca919061495a565b60405180910390f35b3480156107de575f80fd5b506107f960048036038101906107f49190615500565b61171c565b604051610806919061495a565b60405180910390f35b34801561081a575f80fd5b50610835600480360381019061083091906155d4565b611809565b604051610842919061495a565b60405180910390f35b348015610856575f80fd5b5061085f61184f565b60405161087297969594939291906156f0565b60405180910390f35b348015610886575f80fd5b506108a1600480360381019061089c9190615772565b6118f4565b6040516108ae919061495a565b60405180910390f35b3480156108c2575f80fd5b506108cb6119c8565b6040516108d89190615801565b60405180910390f35b3480156108ec575f80fd5b506108f5611a53565b604051610902919061495a565b60405180910390f35b348015610916575f80fd5b50610931600480360381019061092c919061581a565b611a5b565b60405161093e919061495a565b60405180910390f35b348015610952575f80fd5b5061095b611a70565b604051610968919061495a565b60405180910390f35b34801561097c575f80fd5b50610997600480360381019061099291906158d2565b611a9c565b005b3480156109a4575f80fd5b506109bf60048036038101906109ba919061499d565b611ab0565b6040516109cc9190614929565b60405180910390f35b3480156109e0575f80fd5b506109fb60048036038101906109f6919061499d565b611ac1565b604051610a08919061495a565b60405180910390f35b348015610a1c575f80fd5b50610a25611af7565b604051610a32919061495a565b60405180910390f35b348015610a46575f80fd5b50610a616004803603810190610a5c91906158fd565b611b05565b604051610a6e9190614caf565b60405180910390f35b348015610a82575f80fd5b50610a9d6004803603810190610a98919061499d565b611b85565b604051610aaa919061495a565b60405180910390f35b610acd6004803603810190610ac89190615a1d565b611bef565b005b348015610ada575f80fd5b50610af56004803603810190610af09190614f5d565b611c78565b604051610b02919061495a565b60405180910390f35b348015610b16575f80fd5b50610b1f611cb2565b604051610b2c9190614ab1565b60405180910390f35b348015610b40575f80fd5b50610b49611cda565b604051610b569190614a52565b60405180910390f35b348015610b6a575f80fd5b50610b73611d17565b604051610b809190615024565b60405180910390f35b348015610b94575f80fd5b50610baf6004803603810190610baa9190615ac7565b611d3b565b005b348015610bbc575f80fd5b50610bd76004803603810190610bd29190615af2565b611d4f565b604051610be4919061495a565b60405180910390f35b348015610bf8575f80fd5b50610c136004803603810190610c0e919061499d565b611d6a565b005b348015610c20575f80fd5b50610c3b6004803603810190610c369190615b30565b611d7e565b604051610c489190614caf565b60405180910390f35b348015610c5c575f80fd5b50610c776004803603810190610c72919061499d565b611dfe565b604051610c84919061495a565b60405180910390f35b348015610c98575f80fd5b50610ca1611e0f565b604051610cae9190615c1e565b60405180910390f35b5f610cc0611e36565b905090565b5f610ccf82611e5e565b9050919050565b5f610cdf611f3f565b905090565b610cec611f5e565b610cf581612053565b50565b606060038054610d0790615c64565b80601f0160208091040260200160405190810160405280929190818152602001828054610d3390615c64565b8015610d7e5780601f10610d5557610100808354040283529160200191610d7e565b820191905f5260205f20905b815481529060010190602001808311610d6157829003601f168201915b5050505050905090565b5f60045f8381526020019081526020015f205f015f9054906101000a900473ffffffffffffffffffffffffffffffffffffffff169050919050565b5f3073ffffffffffffffffffffffffffffffffffffffff16610de3610cb7565b73ffffffffffffffffffffffffffffffffffffffff1614610e30576040517fe90a651e00000000000000000000000000000000000000000000000000000000815260040160405180910390fd5b63150b7a0260e01b9050949350505050565b5f80610e5086868686611c78565b9050610e6581610e606004612115565b612139565b505f610e7482888888886121a4565b90505f8165ffffffffffff1614610ef9578060045f8481526020019081526020015f206001015f6101000a81548165ffffffffffff021916908365ffffffffffff1602179055507f9a2e42fd6722813d69113e7d0079d3d940171428df7373df9c7f7617cfda28928282604051610eec929190615cc4565b60405180910390a1610f2b565b6040517f90884a4600000000000000000000000000000000000000000000000000000000815260040160405180910390fd5b8192505050949350505050565b5f80610f4686868686611c78565b9050610f6681610f566005612115565b610f606004612115565b17612139565b50600160045f8381526020019081526020015f205f01601e6101000a81548160ff0219169083151502179055503073ffffffffffffffffffffffffffffffffffffffff16610fb2610cb7565b73ffffffffffffffffffffffffffffffffffffffff161461106e575f5b865181101561106c573073ffffffffffffffffffffffffffffffffffffffff1687828151811061100257611001615ceb565b5b602002602001015173ffffffffffffffffffffffffffffffffffffffff160361105b5761105a85828151811061103b5761103a615ceb565b5b60200260200101518051906020012060056121bd90919063ffffffff16565b5b8061106590615d45565b9050610fcf565b505b61107b81878787876122dc565b3073ffffffffffffffffffffffffffffffffffffffff1661109a610cb7565b73ffffffffffffffffffffffffffffffffffffffff16141580156110c557506110c360056122f0565b155b156110d5576110d4600561235c565b5b7f712ae1383f79ac853f8d882153778e0260ef8f03b504e2866e0593e04d2b291f81604051611104919061495a565b60405180910390a180915050949350505050565b5f60045f8381526020019081526020015f205f0160149054906101000a900465ffffffffffff1665ffffffffffff169050919050565b7f3e83946653575f9a39005e1545185629e92736b7528ab20ca3816f315424a81181565b5f61117b6123d2565b905090565b5f61118a826123f4565b9050919050565b5f60095f8481526020019081526020015f206003015f8373ffffffffffffffffffffffffffffffffffffffff1673ffffffffffffffffffffffffffffffffffffffff1681526020019081526020015f205f9054906101000a900460ff16905092915050565b5f8061120486868686611c78565b9050611218816112135f612115565b612139565b5061122281610d88565b73ffffffffffffffffffffffffffffffffffffffff166112406125a9565b73ffffffffffffffffffffffffffffffffffffffff161461129f576112636125a9565b6040517f233d98e30000000000000000000000000000000000000000000000000000000081526004016112969190614ab1565b60405180910390fd5b6112ab868686866125b0565b915050949350505050565b60606112c0611e0f565b73ffffffffffffffffffffffffffffffffffffffff16634bf5d7e96040518163ffffffff1660e01b81526004015f60405180830381865afa92505050801561132a57506040513d5f823e3d601f19601f820116820180604052508101906113279190615dfa565b60015b61136b576040518060400160405280601d81526020017f6d6f64653d626c6f636b6e756d6265722666726f6d3d64656661756c740000008152509050611370565b809150505b90565b5f805f8060095f8681526020019081526020015f209050805f015481600101548260020154935093509350509193909250565b60606040518060400160405280600181526020017f3100000000000000000000000000000000000000000000000000000000000000815250905090565b5f806113ed6125a9565b905061140984828560405180602001604052805f8152506125c7565b91505092915050565b5f8061149f876114997f3e83946653575f9a39005e1545185629e92736b7528ab20ca3816f315424a8118c8c8c6114488e6125e6565b8d8d604051611458929190615e6f565b60405180910390208c8051906020012060405160200161147e9796959493929190615e96565b60405160208183030381529060405280519060200120612639565b85612652565b9050806114e357866040517f94ab6c070000000000000000000000000000000000000000000000000000000081526004016114da9190614ab1565b60405180910390fd5b61153389888a89898080601f0160208091040260200160405190810160405280939291908181526020018383808284375f81840152601f19601f82011690508083019250505050505050886126df565b915050979650505050505050565b5f8061154b6125a9565b905061159d87828888888080601f0160208091040260200160405190810160405280939291908181526020018383808284375f81840152601f19601f82011690508083019250505050505050876126df565b91505095945050505050565b5f80600a5f018054905090505f600a5f016001836115c79190615f03565b815481106115d8576115d7615ceb565b5b905f5260205f200190505f815f015f9054906101000a900465ffffffffffff1690505f825f0160069054906101000a900479ffffffffffffffffffffffffffffffffffffffffffffffffffff169050858265ffffffffffff161161165e578079ffffffffffffffffffffffffffffffffffffffffffffffffffff1694505050505061169d565b61167a61166a876127dc565b600a61283590919063ffffffff16565b79ffffffffffffffffffffffffffffffffffffffffffffffffffff169450505050505b919050565b6116aa611f5e565b6116b381612922565b50565b5f806116c06125a9565b905061171186828787878080601f0160208091040260200160405190810160405280939291908181526020018383808284375f81840152601f19601f820116905080830192505050505050506125c7565b915050949350505050565b5f806117266125a9565b90506117328184612995565b61177357806040517fd9b3955700000000000000000000000000000000000000000000000000000000815260040161176a9190614ab1565b60405180910390fd5b5f6117998260016117826119c8565b61178c9190615f36565b65ffffffffffff16611d4f565b90505f6117a4611af7565b9050808210156117ef578282826040517fc242ee160000000000000000000000000000000000000000000000000000000081526004016117e693929190615f6f565b60405180910390fd5b6117fc8888888887612ae3565b9350505050949350505050565b5f60025f8373ffffffffffffffffffffffffffffffffffffffff1673ffffffffffffffffffffffffffffffffffffffff1681526020019081526020015f20549050919050565b5f6060805f805f6060611860612d68565b611868612da2565b46305f801b5f67ffffffffffffffff81111561188757611886614afc565b5b6040519080825280602002602001820160405280156118b55781602001602082028036833780820191505090505b507f0f00000000000000000000000000000000000000000000000000000000000000959493929190965096509650965096509650965090919293949596565b5f8061195f846119597ff2aad550cf55f045cb27e9c559f9889fdfb6e6cdaa032301d6ea397784ae51d789898961192a8b6125e6565b60405160200161193e959493929190615fa4565b60405160208183030381529060405280519060200120612639565b85612652565b9050806119a357836040517f94ab6c0700000000000000000000000000000000000000000000000000000000815260040161199a9190614ab1565b60405180910390fd5b6119bd86858760405180602001604052805f8152506125c7565b915050949350505050565b5f6119d1611e0f565b73ffffffffffffffffffffffffffffffffffffffff166391ddadf46040518163ffffffff1660e01b8152600401602060405180830381865afa925050508015611a3857506040513d601f19601f82011682018060405250810190611a359190616009565b60015b611a4b57611a44612ddd565b9050611a50565b809150505b90565b5f6064905090565b5f611a67848484612dec565b90509392505050565b5f611a7b600a612e77565b79ffffffffffffffffffffffffffffffffffffffffffffffffffff16905090565b611aa4611f5e565b611aad81612ed9565b50565b5f611aba82612f76565b9050919050565b5f60045f8381526020019081526020015f206001015f9054906101000a900465ffffffffffff1665ffffffffffff169050919050565b5f611b00612f80565b905090565b5f3073ffffffffffffffffffffffffffffffffffffffff16611b25610cb7565b73ffffffffffffffffffffffffffffffffffffffff1614611b72576040517fe90a651e00000000000000000000000000000000000000000000000000000000815260040160405180910390fd5b63bc197c8160e01b905095945050505050565b5f60045f8381526020019081526020015f205f01601a9054906101000a900463ffffffff1663ffffffff1660045f8481526020019081526020015f205f0160149054906101000a900465ffffffffffff16611be09190616034565b65ffffffffffff169050919050565b611bf7611f5e565b5f808573ffffffffffffffffffffffffffffffffffffffff16858585604051611c21929190615e6f565b5f6040518083038185875af1925050503d805f8114611c5b576040519150601f19603f3d011682016040523d82523d5f602084013e611c60565b606091505b5091509150611c6f8282612f89565b50505050505050565b5f84848484604051602001611c909493929190616231565b604051602081830303815290604052805190602001205f1c9050949350505050565b5f600b5f9054906101000a900473ffffffffffffffffffffffffffffffffffffffff16905090565b60606040518060400160405280602081526020017f737570706f72743d627261766f2671756f72756d3d666f722c6162737461696e815250905090565b7ff2aad550cf55f045cb27e9c559f9889fdfb6e6cdaa032301d6ea397784ae51d781565b611d43611f5e565b611d4c81612fad565b50565b5f611d628383611d5d613066565b612dec565b905092915050565b611d72611f5e565b611d7b8161307c565b50565b5f3073ffffffffffffffffffffffffffffffffffffffff16611d9e610cb7565b73ffffffffffffffffffffffffffffffffffffffff1614611deb576040517fe90a651e00000000000000000000000000000000000000000000000000000000815260040160405180910390fd5b63f23a6e6160e01b905095945050505050565b5f611e08826130c1565b9050919050565b5f7f0000000000000000000000000000000000000000000000000000000000000000905090565b5f600b5f9054906101000a900473ffffffffffffffffffffffffffffffffffffffff16905090565b5f7f65455a86000000000000000000000000000000000000000000000000000000007bffffffffffffffffffffffffffffffffffffffffffffffffffffffff1916827bffffffffffffffffffffffffffffffffffffffffffffffffffffffff19161480611f2857507f4e2312e0000000000000000000000000000000000000000000000000000000007bffffffffffffffffffffffffffffffffffffffffffffffffffffffff1916827bffffffffffffffffffffffffffffffffffffffffffffffffffffffff1916145b80611f385750611f378261316d565b5b9050919050565b5f600860069054906101000a900463ffffffff1663ffffffff16905090565b611f666125a9565b73ffffffffffffffffffffffffffffffffffffffff16611f84610cb7565b73ffffffffffffffffffffffffffffffffffffffff1614611fe357611fa76125a9565b6040517f47096e47000000000000000000000000000000000000000000000000000000008152600401611fda9190614ab1565b60405180910390fd5b3073ffffffffffffffffffffffffffffffffffffffff16612002610cb7565b73ffffffffffffffffffffffffffffffffffffffff1614612051575f6120266131d6565b604051612034929190615e6f565b604051809103902090505b8061204a60056131e2565b0361203f57505b565b5f61205c611a53565b9050808211156120a55781816040517f243e544500000000000000000000000000000000000000000000000000000000815260040161209c929190616289565b60405180910390fd5b5f6120ae611a70565b90506120d56120bb6119c8565b6120c485613337565b600a6133a49092919063ffffffff16565b50507f0553476bf02ef2726e8ce5ced78d63e26e602e4a2257b1f559418e24b46339978184604051612108929190616289565b60405180910390a1505050565b5f8160078111156121295761212861503d565b5b60ff166001901b5f1b9050919050565b5f8061214484611180565b90505f801b8361215383612115565b160361219a578381846040517f31b75e4d000000000000000000000000000000000000000000000000000000008152600401612191939291906162b0565b60405180910390fd5b8091505092915050565b5f6121b286868686866133bf565b905095945050505050565b5f825f0160109054906101000a90046fffffffffffffffffffffffffffffffff169050825f015f9054906101000a90046fffffffffffffffffffffffffffffffff166fffffffffffffffffffffffffffffffff16600182016fffffffffffffffffffffffffffffffff160361225e576040517f8acb5f2700000000000000000000000000000000000000000000000000000000815260040160405180910390fd5b81836001015f836fffffffffffffffffffffffffffffffff166fffffffffffffffffffffffffffffffff1681526020019081526020015f208190555060018101835f0160106101000a8154816fffffffffffffffffffffffffffffffff02191690836fffffffffffffffffffffffffffffffff160217905550505050565b6122e985858585856135c5565b5050505050565b5f815f015f9054906101000a90046fffffffffffffffffffffffffffffffff166fffffffffffffffffffffffffffffffff16825f0160109054906101000a90046fffffffffffffffffffffffffffffffff166fffffffffffffffffffffffffffffffff16149050919050565b5f815f015f6101000a8154816fffffffffffffffffffffffffffffffff02191690836fffffffffffffffffffffffffffffffff1602179055505f815f0160106101000a8154816fffffffffffffffffffffffffffffffff02191690836fffffffffffffffffffffffffffffffff16021790555050565b5f60085f9054906101000a900465ffffffffffff1665ffffffffffff16905090565b5f806123ff83613679565b9050600560078111156124155761241461503d565b5b8160078111156124285761242761503d565b5b1461243657809150506125a4565b5f600c5f8581526020019081526020015f20549050600b5f9054906101000a900473ffffffffffffffffffffffffffffffffffffffff1673ffffffffffffffffffffffffffffffffffffffff1663584b153e826040518263ffffffff1660e01b81526004016124a59190615024565b602060405180830381865afa1580156124c0573d5f803e3d5ffd5b505050506040513d601f19601f820116820180604052508101906124e4919061630f565b156124f4576005925050506125a4565b600b5f9054906101000a900473ffffffffffffffffffffffffffffffffffffffff1673ffffffffffffffffffffffffffffffffffffffff16632ab0f529826040518263ffffffff1660e01b815260040161254e9190615024565b602060405180830381865afa158015612569573d5f803e3d5ffd5b505050506040513d601f19601f8201168201806040525081019061258d919061630f565b1561259d576007925050506125a4565b6002925050505b919050565b5f33905090565b5f6125bd858585856137d0565b9050949350505050565b5f6125dc858585856125d7613066565b6126df565b9050949350505050565b5f60025f8373ffffffffffffffffffffffffffffffffffffffff1673ffffffffffffffffffffffffffffffffffffffff1681526020019081526020015f205f815480929190600101919050559050919050565b5f61264b6126456138a7565b8361395d565b9050919050565b5f805f61265f858561399d565b50915091505f60038111156126775761267661503d565b5b81600381111561268a5761268961503d565b5b1480156126c257508573ffffffffffffffffffffffffffffffffffffffff168273ffffffffffffffffffffffffffffffffffffffff16145b806126d457506126d38686866139f2565b5b925050509392505050565b5f6126f3866126ee6001612115565b612139565b505f6127088661270289611118565b85612dec565b90506127178787878487613b11565b5f835103612778578573ffffffffffffffffffffffffffffffffffffffff167fb8e138887d0aa13bab447e82de9d5c1777041ecd21ca36ba824ff1e6c07ddda48887848860405161276b949392919061633a565b60405180910390a26127cf565b8573ffffffffffffffffffffffffffffffffffffffff167fe2babfbac5889a709b63bb7f598b324e08bc5a4fb9ec647fb3cbc9ec07eb871288878488886040516127c69594939291906163cc565b60405180910390a25b8091505095945050505050565b5f65ffffffffffff801682111561282d576030826040517f6dfcc650000000000000000000000000000000000000000000000000000000008152600401612824929190616464565b60405180910390fd5b819050919050565b5f80835f018054905090505f8082905060058311156128b6575f61285884613d00565b846128639190615f03565b9050612871875f0182613df6565b5f015f9054906101000a900465ffffffffffff1665ffffffffffff168665ffffffffffff1610156128a4578091506128b4565b6001816128b1919061648b565b92505b505b5f6128c5875f01878585613e08565b90505f8114612914576128e6875f016001836128e19190615f03565b613df6565b5f0160069054906101000a900479ffffffffffffffffffffffffffffffffffffffffffffffffffff16612916565b5f5b94505050505092915050565b7fc565b045403dc03c2eea82b81a0465edad9e2e7fc4d97e11421c209da93d7a9360085f9054906101000a900465ffffffffffff16826040516129669291906164be565b60405180910390a18060085f6101000a81548165ffffffffffff021916908365ffffffffffff16021790555050565b5f808251905060348110156129ae576001915050612add565b5f6014820384015190507f2370726f706f7365723d3078000000000000000000000000000000000000000073ffffffffffffffffffffffffffffffffffffffff19168173ffffffffffffffffffffffffffffffffffffffff191614612a1857600192505050612add565b5f80602884612a279190615f03565b90505b83811015612aa7575f80612a5a888481518110612a4a57612a49615ceb565b5b602001015160f81c60f81b613e7d565b9150915081612a725760019650505050505050612add565b8060ff1660048573ffffffffffffffffffffffffffffffffffffffff16901b179350505080612aa090615d45565b9050612a2a565b508573ffffffffffffffffffffffffffffffffffffffff168173ffffffffffffffffffffffffffffffffffffffff161493505050505b92915050565b5f612af78686868680519060200120611c78565b905084518651141580612b0c57508351865114155b80612b1757505f8651145b15612b60578551845186516040517f447b05d0000000000000000000000000000000000000000000000000000000008152600401612b5793929190615107565b60405180910390fd5b5f60045f8381526020019081526020015f205f0160149054906101000a900465ffffffffffff1665ffffffffffff1614612bdf5780612b9e82611180565b5f801b6040517f31b75e4d000000000000000000000000000000000000000000000000000000008152600401612bd6939291906162b0565b60405180910390fd5b5f612be8611172565b612bf06119c8565b65ffffffffffff16612c02919061648b565b90505f612c0d610cd6565b90505f60045f8581526020019081526020015f20905084815f015f6101000a81548173ffffffffffffffffffffffffffffffffffffffff021916908373ffffffffffffffffffffffffffffffffffffffff160217905550612c6d836127dc565b815f0160146101000a81548165ffffffffffff021916908365ffffffffffff160217905550612c9b82613f14565b815f01601a6101000a81548163ffffffff021916908363ffffffff1602179055507f7d84a6263ae0d98d3329bd7b46bb4e8d6f98cd35a7adb45c274c8b7fd5ebd5e084868b8b8d5167ffffffffffffffff811115612cfc57612cfb614afc565b5b604051908082528060200260200182016040528015612d2f57816020015b6060815260200190600190039081612d1a5790505b508c89898b612d3e919061648b565b8e604051612d54999897969594939291906165e8565b60405180910390a150505095945050505050565b6060612d9d5f7f0000000000000000000000000000000000000000000000000000000000000000613f6b90919063ffffffff16565b905090565b6060612dd860017f0000000000000000000000000000000000000000000000000000000000000000613f6b90919063ffffffff16565b905090565b5f612de7436127dc565b905090565b5f612df5611e0f565b73ffffffffffffffffffffffffffffffffffffffff16633a46b1a885856040518363ffffffff1660e01b8152600401612e2f929190616696565b602060405180830381865afa158015612e4a573d5f803e3d5ffd5b505050506040513d601f19601f82011682018060405250810190612e6e91906166d1565b90509392505050565b5f80825f018054905090505f8114612ecf57612ea1835f01600183612e9c9190615f03565b613df6565b5f0160069054906101000a900479ffffffffffffffffffffffffffffffffffffffffffffffffffff16612ed1565b5f5b915050919050565b7f08f74ea46ef7894f65eabfb5e6e695de773a000b47c529ab559178069b226401600b5f9054906101000a900473ffffffffffffffffffffffffffffffffffffffff1682604051612f2b9291906166fc565b60405180910390a180600b5f6101000a81548173ffffffffffffffffffffffffffffffffffffffff021916908373ffffffffffffffffffffffffffffffffffffffff16021790555050565b5f60019050919050565b5f600754905090565b606082612f9e57612f9982614018565b612fa6565b819050612fa7565b5b92915050565b5f8163ffffffff1603612ff7575f6040517ff1cfbf05000000000000000000000000000000000000000000000000000000008152600401612fee919061675c565b60405180910390fd5b7f7e3f7f0708a84de9203036abaa450dccc85ad5ff52f78c170f3edb55cf5e8828600860069054906101000a900463ffffffff168260405161303a9291906167a5565b60405180910390a180600860066101000a81548163ffffffff021916908363ffffffff16021790555050565b606060405180602001604052805f815250905090565b7fccb45da8d5717e6c4544694297c4ba5cf151d455c9bb0ed4fc7a38411bc05461600754826040516130af929190616289565b60405180910390a18060078190555050565b5f6130ca611a53565b6130d3836115a9565b6130db611e0f565b73ffffffffffffffffffffffffffffffffffffffff16638e539e8c856040518263ffffffff1660e01b8152600401613113919061495a565b602060405180830381865afa15801561312e573d5f803e3d5ffd5b505050506040513d601f19601f8201168201806040525081019061315291906166d1565b61315c91906167cc565b613166919061683a565b9050919050565b5f7f01ffc9a7000000000000000000000000000000000000000000000000000000007bffffffffffffffffffffffffffffffffffffffffffffffffffffffff1916827bffffffffffffffffffffffffffffffffffffffffffffffffffffffff1916149050919050565b365f8036915091509091565b5f80825f015f9054906101000a90046fffffffffffffffffffffffffffffffff169050825f0160109054906101000a90046fffffffffffffffffffffffffffffffff166fffffffffffffffffffffffffffffffff16816fffffffffffffffffffffffffffffffff1603613281576040517f75e52f4f00000000000000000000000000000000000000000000000000000000815260040160405180910390fd5b826001015f826fffffffffffffffffffffffffffffffff166fffffffffffffffffffffffffffffffff1681526020019081526020015f20549150826001015f826fffffffffffffffffffffffffffffffff166fffffffffffffffffffffffffffffffff1681526020019081526020015f205f905560018101835f015f6101000a8154816fffffffffffffffffffffffffffffffff02191690836fffffffffffffffffffffffffffffffff16021790555050919050565b5f79ffffffffffffffffffffffffffffffffffffffffffffffffffff801682111561339c5760d0826040517f6dfcc6500000000000000000000000000000000000000000000000000000000081526004016133939291906168a3565b60405180910390fd5b819050919050565b5f806133b3855f01858561405c565b91509150935093915050565b5f80600b5f9054906101000a900473ffffffffffffffffffffffffffffffffffffffff1673ffffffffffffffffffffffffffffffffffffffff1663f27a0c926040518163ffffffff1660e01b8152600401602060405180830381865afa15801561342b573d5f803e3d5ffd5b505050506040513d601f19601f8201168201806040525081019061344f91906166d1565b90505f61345b846143c4565b9050600b5f9054906101000a900473ffffffffffffffffffffffffffffffffffffffff1673ffffffffffffffffffffffffffffffffffffffff1663b1c5f4278888885f866040518663ffffffff1660e01b81526004016134bf959493929190616905565b602060405180830381865afa1580156134da573d5f803e3d5ffd5b505050506040513d601f19601f820116820180604052508101906134fe919061697f565b600c5f8a81526020019081526020015f2081905550600b5f9054906101000a900473ffffffffffffffffffffffffffffffffffffffff1673ffffffffffffffffffffffffffffffffffffffff16638f2a0bb08888885f86886040518763ffffffff1660e01b8152600401613577969594939291906169aa565b5f604051808303815f87803b15801561358e575f80fd5b505af11580156135a0573d5f803e3d5ffd5b505050506135b882426135b3919061648b565b6127dc565b9250505095945050505050565b600b5f9054906101000a900473ffffffffffffffffffffffffffffffffffffffff1673ffffffffffffffffffffffffffffffffffffffff1663e38335e5348686865f613610886143c4565b6040518763ffffffff1660e01b8152600401613630959493929190616905565b5f604051808303818588803b158015613647575f80fd5b505af1158015613659573d5f803e3d5ffd5b5050505050600c5f8681526020019081526020015f205f90555050505050565b5f8060045f8481526020019081526020015f2090505f815f01601e9054906101000a900460ff1690505f825f01601f9054906101000a900460ff16905081156136c857600793505050506137cb565b80156136da57600293505050506137cb565b5f6136e486611118565b90505f810361372a57856040517f6ad06075000000000000000000000000000000000000000000000000000000008152600401613721919061495a565b60405180910390fd5b5f6137336119c8565b65ffffffffffff169050808210613751575f955050505050506137cb565b5f61375b88611b85565b905081811061377357600196505050505050506137cb565b61377c886143e1565b158061378e575061378c88614425565b155b156137a257600396505050505050506137cb565b5f6137ac89611ac1565b036137c057600496505050505050506137cb565b600596505050505050505b919050565b5f806137de8686868661444c565b90505f600c5f8381526020019081526020015f205490505f801b811461389a57600b5f9054906101000a900473ffffffffffffffffffffffffffffffffffffffff1673ffffffffffffffffffffffffffffffffffffffff1663c4d252f5826040518263ffffffff1660e01b81526004016138589190615024565b5f604051808303815f87803b15801561386f575f80fd5b505af1158015613881573d5f803e3d5ffd5b50505050600c5f8381526020019081526020015f205f90555b8192505050949350505050565b5f7f000000000000000000000000000000000000000000000000000000000000000073ffffffffffffffffffffffffffffffffffffffff163073ffffffffffffffffffffffffffffffffffffffff1614801561392257507f000000000000000000000000000000000000000000000000000000000000000046145b1561394f577f0000000000000000000000000000000000000000000000000000000000000000905061395a565b61395761452e565b90505b90565b5f6040517f190100000000000000000000000000000000000000000000000000000000000081528360028201528260228201526042812091505092915050565b5f805f60418451036139dd575f805f602087015192506040870151915060608701515f1a90506139cf888285856145c3565b9550955095505050506139eb565b5f600285515f1b9250925092505b9250925092565b5f805f8573ffffffffffffffffffffffffffffffffffffffff168585604051602401613a1f929190616a1e565b604051602081830303815290604052631626ba7e60e01b6020820180517bffffffffffffffffffffffffffffffffffffffffffffffffffffffff8381831617835250505050604051613a719190616a7c565b5f60405180830381855afa9150503d805f8114613aa9576040519150601f19603f3d011682016040523d82523d5f602084013e613aae565b606091505b5091509150818015613ac257506020815110155b8015613b065750631626ba7e60e01b7bffffffffffffffffffffffffffffffffffffffffffffffffffffffff191681806020019051810190613b04919061697f565b145b925050509392505050565b5f60095f8781526020019081526020015f209050806003015f8673ffffffffffffffffffffffffffffffffffffffff1673ffffffffffffffffffffffffffffffffffffffff1681526020019081526020015f205f9054906101000a900460ff1615613bb357846040517f71c6af49000000000000000000000000000000000000000000000000000000008152600401613baa9190614ab1565b60405180910390fd5b6001816003015f8773ffffffffffffffffffffffffffffffffffffffff1673ffffffffffffffffffffffffffffffffffffffff1681526020019081526020015f205f6101000a81548160ff0219169083151502179055505f6002811115613c1d57613c1c61503d565b5b60ff168460ff1603613c475782815f015f828254613c3b919061648b565b92505081905550613cf8565b60016002811115613c5b57613c5a61503d565b5b60ff168460ff1603613c865782816001015f828254613c7a919061648b565b92505081905550613cf7565b600280811115613c9957613c9861503d565b5b60ff168460ff1603613cc45782816002015f828254613cb8919061648b565b92505081905550613cf6565b6040517f06b337c200000000000000000000000000000000000000000000000000000000815260040160405180910390fd5b5b5b505050505050565b5f808203613d10575f9050613df1565b5f6001613d1c846146aa565b901c6001901b90506001818481613d3657613d3561680d565b5b048201901c90506001818481613d4f57613d4e61680d565b5b048201901c90506001818481613d6857613d6761680d565b5b048201901c90506001818481613d8157613d8061680d565b5b048201901c90506001818481613d9a57613d9961680d565b5b048201901c90506001818481613db357613db261680d565b5b048201901c90506001818481613dcc57613dcb61680d565b5b048201901c9050613ded81828581613de757613de661680d565b5b04614781565b9150505b919050565b5f825f528160205f2001905092915050565b5f5b81831015613e72575f613e1d8484614799565b90508465ffffffffffff16613e328783613df6565b5f015f9054906101000a900465ffffffffffff1665ffffffffffff161115613e5c57809250613e6c565b600181613e69919061648b565b93505b50613e0a565b819050949350505050565b5f805f8360f81c90508060ff16602f108015613e9c5750603a8160ff16105b15613eb1576001603082039250925050613f0f565b8060ff166040108015613ec7575060478160ff16105b15613edc576001603782039250925050613f0f565b8060ff166060108015613ef2575060678160ff16105b15613f07576001605782039250925050613f0f565b5f8092509250505b915091565b5f63ffffffff8016821115613f63576020826040517f6dfcc650000000000000000000000000000000000000000000000000000000008152600401613f5a929190616acb565b60405180910390fd5b819050919050565b606060ff5f1b8314613f8757613f80836147be565b9050614012565b818054613f9390615c64565b80601f0160208091040260200160405190810160405280929190818152602001828054613fbf90615c64565b801561400a5780601f10613fe15761010080835404028352916020019161400a565b820191905f5260205f20905b815481529060010190602001808311613fed57829003601f168201915b505050505090505b92915050565b5f8151111561402a5780518082602001fd5b6040517f1425ea4200000000000000000000000000000000000000000000000000000000815260040160405180910390fd5b5f805f858054905090505f8111156142dc575f614085876001846140809190615f03565b613df6565b6040518060400160405290815f82015f9054906101000a900465ffffffffffff1665ffffffffffff1665ffffffffffff1681526020015f820160069054906101000a900479ffffffffffffffffffffffffffffffffffffffffffffffffffff1679ffffffffffffffffffffffffffffffffffffffffffffffffffff1679ffffffffffffffffffffffffffffffffffffffffffffffffffff168152505090508565ffffffffffff16815f015165ffffffffffff161115614170576040517f2520601d00000000000000000000000000000000000000000000000000000000815260040160405180910390fd5b8565ffffffffffff16815f015165ffffffffffff16036141f257846141a18860018561419c9190615f03565b613df6565b5f0160066101000a81548179ffffffffffffffffffffffffffffffffffffffffffffffffffff021916908379ffffffffffffffffffffffffffffffffffffffffffffffffffff1602179055506142cb565b8660405180604001604052808865ffffffffffff1681526020018779ffffffffffffffffffffffffffffffffffffffffffffffffffff16815250908060018154018082558091505060019003905f5260205f20015f909190919091505f820151815f015f6101000a81548165ffffffffffff021916908365ffffffffffff1602179055506020820151815f0160066101000a81548179ffffffffffffffffffffffffffffffffffffffffffffffffffff021916908379ffffffffffffffffffffffffffffffffffffffffffffffffffff16021790555050505b8060200151859350935050506143bc565b8560405180604001604052808765ffffffffffff1681526020018679ffffffffffffffffffffffffffffffffffffffffffffffffffff16815250908060018154018082558091505060019003905f5260205f20015f909190919091505f820151815f015f6101000a81548165ffffffffffff021916908365ffffffffffff1602179055506020820151815f0160066101000a81548179ffffffffffffffffffffffffffffffffffffffffffffffffffff021916908379ffffffffffffffffffffffffffffffffffffffffffffffffffff16021790555050505f8492509250505b935093915050565b5f813060601b6bffffffffffffffffffffffff1916189050919050565b5f8060095f8481526020019081526020015f2090508060020154816001015461440a919061648b565b61441b61441685611118565b611dfe565b1115915050919050565b5f8060095f8481526020019081526020015f209050805f0154816001015411915050919050565b5f8061445a86868686611c78565b90506144be8161446a6007612115565b6144746006612115565b61447e6002612115565b6001806007808111156144945761449361503d565b5b61449e9190616af2565b60026144aa9190616c55565b6144b49190615f03565b5f1b181818612139565b50600160045f8381526020019081526020015f205f01601f6101000a81548160ff0219169083151502179055507f789cf55be980739dad1d0699b93b58e806b51c9d96619bfa8fe0a28abaa7b30c8160405161451a919061495a565b60405180910390a180915050949350505050565b5f7f8b73c3c69bb8fe3d512ecc4cf759cc79239f7b179b0ffacaa9a75d522b39400f7f00000000000000000000000000000000000000000000000000000000000000007f000000000000000000000000000000000000000000000000000000000000000046306040516020016145a8959493929190616c9f565b60405160208183030381529060405280519060200120905090565b5f805f7f7fffffffffffffffffffffffffffffff5d576e7357a4501ddfe92f46681b20a0845f1c11156145ff575f6003859250925092506146a0565b5f6001888888886040515f81526020016040526040516146229493929190616cf0565b6020604051602081039080840390855afa158015614642573d5f803e3d5ffd5b5050506020604051035190505f73ffffffffffffffffffffffffffffffffffffffff168173ffffffffffffffffffffffffffffffffffffffff1603614693575f60015f801b935093509350506146a0565b805f805f1b935093509350505b9450945094915050565b5f805f90505f608084901c11156146c957608083901c92506080810190505b5f604084901c11156146e357604083901c92506040810190505b5f602084901c11156146fd57602083901c92506020810190505b5f601084901c111561471757601083901c92506010810190505b5f600884901c111561473157600883901c92506008810190505b5f600484901c111561474b57600483901c92506004810190505b5f600284901c111561476557600283901c92506002810190505b5f600184901c1115614778576001810190505b80915050919050565b5f81831061478f5781614791565b825b905092915050565b5f60028284186147a9919061683a565b8284166147b6919061648b565b905092915050565b60605f6147ca83614830565b90505f602067ffffffffffffffff8111156147e8576147e7614afc565b5b6040519080825280601f01601f19166020018201604052801561481a5781602001600182028036833780820191505090505b5090508181528360208201528092505050919050565b5f8060ff835f1c169050601f811115614875576040517fb3512b0c00000000000000000000000000000000000000000000000000000000815260040160405180910390fd5b80915050919050565b5f604051905090565b5f80fd5b5f80fd5b5f7fffffffff0000000000000000000000000000000000000000000000000000000082169050919050565b6148c38161488f565b81146148cd575f80fd5b50565b5f813590506148de816148ba565b92915050565b5f602082840312156148f9576148f8614887565b5b5f614906848285016148d0565b91505092915050565b5f8115159050919050565b6149238161490f565b82525050565b5f60208201905061493c5f83018461491a565b92915050565b5f819050919050565b61495481614942565b82525050565b5f60208201905061496d5f83018461494b565b92915050565b61497c81614942565b8114614986575f80fd5b50565b5f8135905061499781614973565b92915050565b5f602082840312156149b2576149b1614887565b5b5f6149bf84828501614989565b91505092915050565b5f81519050919050565b5f82825260208201905092915050565b5f5b838110156149ff5780820151818401526020810190506149e4565b5f8484015250505050565b5f601f19601f8301169050919050565b5f614a24826149c8565b614a2e81856149d2565b9350614a3e8185602086016149e2565b614a4781614a0a565b840191505092915050565b5f6020820190508181035f830152614a6a8184614a1a565b905092915050565b5f73ffffffffffffffffffffffffffffffffffffffff82169050919050565b5f614a9b82614a72565b9050919050565b614aab81614a91565b82525050565b5f602082019050614ac45f830184614aa2565b92915050565b614ad381614a91565b8114614add575f80fd5b50565b5f81359050614aee81614aca565b92915050565b5f80fd5b5f80fd5b7f4e487b71000000000000000000000000000000000000000000000000000000005f52604160045260245ffd5b614b3282614a0a565b810181811067ffffffffffffffff82111715614b5157614b50614afc565b5b80604052505050565b5f614b6361487e565b9050614b6f8282614b29565b919050565b5f67ffffffffffffffff821115614b8e57614b8d614afc565b5b614b9782614a0a565b9050602081019050919050565b828183375f83830152505050565b5f614bc4614bbf84614b74565b614b5a565b905082815260208101848484011115614be057614bdf614af8565b5b614beb848285614ba4565b509392505050565b5f82601f830112614c0757614c06614af4565b5b8135614c17848260208601614bb2565b91505092915050565b5f805f8060808587031215614c3857614c37614887565b5b5f614c4587828801614ae0565b9450506020614c5687828801614ae0565b9350506040614c6787828801614989565b925050606085013567ffffffffffffffff811115614c8857614c8761488b565b5b614c9487828801614bf3565b91505092959194509250565b614ca98161488f565b82525050565b5f602082019050614cc25f830184614ca0565b92915050565b5f67ffffffffffffffff821115614ce257614ce1614afc565b5b602082029050602081019050919050565b5f80fd5b5f614d09614d0484614cc8565b614b5a565b90508083825260208201905060208402830185811115614d2c57614d2b614cf3565b5b835b81811015614d555780614d418882614ae0565b845260208401935050602081019050614d2e565b5050509392505050565b5f82601f830112614d7357614d72614af4565b5b8135614d83848260208601614cf7565b91505092915050565b5f67ffffffffffffffff821115614da657614da5614afc565b5b602082029050602081019050919050565b5f614dc9614dc484614d8c565b614b5a565b90508083825260208201905060208402830185811115614dec57614deb614cf3565b5b835b81811015614e155780614e018882614989565b845260208401935050602081019050614dee565b5050509392505050565b5f82601f830112614e3357614e32614af4565b5b8135614e43848260208601614db7565b91505092915050565b5f67ffffffffffffffff821115614e6657614e65614afc565b5b602082029050602081019050919050565b5f614e89614e8484614e4c565b614b5a565b90508083825260208201905060208402830185811115614eac57614eab614cf3565b5b835b81811015614ef357803567ffffffffffffffff811115614ed157614ed0614af4565b5b808601614ede8982614bf3565b85526020850194505050602081019050614eae565b5050509392505050565b5f82601f830112614f1157614f10614af4565b5b8135614f21848260208601614e77565b91505092915050565b5f819050919050565b614f3c81614f2a565b8114614f46575f80fd5b50565b5f81359050614f5781614f33565b92915050565b5f805f8060808587031215614f7557614f74614887565b5b5f85013567ffffffffffffffff811115614f9257614f9161488b565b5b614f9e87828801614d5f565b945050602085013567ffffffffffffffff811115614fbf57614fbe61488b565b5b614fcb87828801614e1f565b935050604085013567ffffffffffffffff811115614fec57614feb61488b565b5b614ff887828801614efd565b925050606061500987828801614f49565b91505092959194509250565b61501e81614f2a565b82525050565b5f6020820190506150375f830184615015565b92915050565b7f4e487b71000000000000000000000000000000000000000000000000000000005f52602160045260245ffd5b6008811061507b5761507a61503d565b5b50565b5f81905061508b8261506a565b919050565b5f61509a8261507e565b9050919050565b6150aa81615090565b82525050565b5f6020820190506150c35f8301846150a1565b92915050565b5f80604083850312156150df576150de614887565b5b5f6150ec85828601614989565b92505060206150fd85828601614ae0565b9150509250929050565b5f60608201905061511a5f83018661494b565b615127602083018561494b565b615134604083018461494b565b949350505050565b5f60ff82169050919050565b6151518161513c565b811461515b575f80fd5b50565b5f8135905061516c81615148565b92915050565b5f806040838503121561518857615187614887565b5b5f61519585828601614989565b92505060206151a68582860161515e565b9150509250929050565b5f80fd5b5f8083601f8401126151c9576151c8614af4565b5b8235905067ffffffffffffffff8111156151e6576151e56151b0565b5b60208301915083600182028301111561520257615201614cf3565b5b9250929050565b5f805f805f805f60c0888a03121561522457615223614887565b5b5f6152318a828b01614989565b97505060206152428a828b0161515e565b96505060406152538a828b01614ae0565b955050606088013567ffffffffffffffff8111156152745761527361488b565b5b6152808a828b016151b4565b9450945050608088013567ffffffffffffffff8111156152a3576152a261488b565b5b6152af8a828b01614bf3565b92505060a088013567ffffffffffffffff8111156152d0576152cf61488b565b5b6152dc8a828b01614bf3565b91505092959891949750929550565b5f805f805f6080868803121561530457615303614887565b5b5f61531188828901614989565b95505060206153228882890161515e565b945050604086013567ffffffffffffffff8111156153435761534261488b565b5b61534f888289016151b4565b9350935050606086013567ffffffffffffffff8111156153725761537161488b565b5b61537e88828901614bf3565b9150509295509295909350565b5f65ffffffffffff82169050919050565b6153a58161538b565b81146153af575f80fd5b50565b5f813590506153c08161539c565b92915050565b5f602082840312156153db576153da614887565b5b5f6153e8848285016153b2565b91505092915050565b5f805f806060858703121561540957615408614887565b5b5f61541687828801614989565b94505060206154278782880161515e565b935050604085013567ffffffffffffffff8111156154485761544761488b565b5b615454878288016151b4565b925092505092959194509250565b5f67ffffffffffffffff82111561547c5761547b614afc565b5b61548582614a0a565b9050602081019050919050565b5f6154a461549f84615462565b614b5a565b9050828152602081018484840111156154c0576154bf614af8565b5b6154cb848285614ba4565b509392505050565b5f82601f8301126154e7576154e6614af4565b5b81356154f7848260208601615492565b91505092915050565b5f805f806080858703121561551857615517614887565b5b5f85013567ffffffffffffffff8111156155355761553461488b565b5b61554187828801614d5f565b945050602085013567ffffffffffffffff8111156155625761556161488b565b5b61556e87828801614e1f565b935050604085013567ffffffffffffffff81111561558f5761558e61488b565b5b61559b87828801614efd565b925050606085013567ffffffffffffffff8111156155bc576155bb61488b565b5b6155c8878288016154d3565b91505092959194509250565b5f602082840312156155e9576155e8614887565b5b5f6155f684828501614ae0565b91505092915050565b5f7fff0000000000000000000000000000000000000000000000000000000000000082169050919050565b615633816155ff565b82525050565b5f81519050919050565b5f82825260208201905092915050565b5f819050602082019050919050565b61566b81614942565b82525050565b5f61567c8383615662565b60208301905092915050565b5f602082019050919050565b5f61569e82615639565b6156a88185615643565b93506156b383615653565b805f5b838110156156e35781516156ca8882615671565b97506156d583615688565b9250506001810190506156b6565b5085935050505092915050565b5f60e0820190506157035f83018a61562a565b81810360208301526157158189614a1a565b905081810360408301526157298188614a1a565b9050615738606083018761494b565b6157456080830186614aa2565b61575260a0830185615015565b81810360c08301526157648184615694565b905098975050505050505050565b5f805f806080858703121561578a57615789614887565b5b5f61579787828801614989565b94505060206157a88782880161515e565b93505060406157b987828801614ae0565b925050606085013567ffffffffffffffff8111156157da576157d961488b565b5b6157e687828801614bf3565b91505092959194509250565b6157fb8161538b565b82525050565b5f6020820190506158145f8301846157f2565b92915050565b5f805f6060848603121561583157615830614887565b5b5f61583e86828701614ae0565b935050602061584f86828701614989565b925050604084013567ffffffffffffffff8111156158705761586f61488b565b5b61587c86828701614bf3565b9150509250925092565b5f61589082614a72565b9050919050565b5f6158a182615886565b9050919050565b6158b181615897565b81146158bb575f80fd5b50565b5f813590506158cc816158a8565b92915050565b5f602082840312156158e7576158e6614887565b5b5f6158f4848285016158be565b91505092915050565b5f805f805f60a0868803121561591657615915614887565b5b5f61592388828901614ae0565b955050602061593488828901614ae0565b945050604086013567ffffffffffffffff8111156159555761595461488b565b5b61596188828901614e1f565b935050606086013567ffffffffffffffff8111156159825761598161488b565b5b61598e88828901614e1f565b925050608086013567ffffffffffffffff8111156159af576159ae61488b565b5b6159bb88828901614bf3565b9150509295509295909350565b5f8083601f8401126159dd576159dc614af4565b5b8235905067ffffffffffffffff8111156159fa576159f96151b0565b5b602083019150836001820283011115615a1657615a15614cf3565b5b9250929050565b5f805f8060608587031215615a3557615a34614887565b5b5f615a4287828801614ae0565b9450506020615a5387828801614989565b935050604085013567ffffffffffffffff811115615a7457615a7361488b565b5b615a80878288016159c8565b925092505092959194509250565b5f63ffffffff82169050919050565b615aa681615a8e565b8114615ab0575f80fd5b50565b5f81359050615ac181615a9d565b92915050565b5f60208284031215615adc57615adb614887565b5b5f615ae984828501615ab3565b91505092915050565b5f8060408385031215615b0857615b07614887565b5b5f615b1585828601614ae0565b9250506020615b2685828601614989565b9150509250929050565b5f805f805f60a08688031215615b4957615b48614887565b5b5f615b5688828901614ae0565b9550506020615b6788828901614ae0565b9450506040615b7888828901614989565b9350506060615b8988828901614989565b925050608086013567ffffffffffffffff811115615baa57615ba961488b565b5b615bb688828901614bf3565b9150509295509295909350565b5f819050919050565b5f615be6615be1615bdc84614a72565b615bc3565b614a72565b9050919050565b5f615bf782615bcc565b9050919050565b5f615c0882615bed565b9050919050565b615c1881615bfe565b82525050565b5f602082019050615c315f830184615c0f565b92915050565b7f4e487b71000000000000000000000000000000000000000000000000000000005f52602260045260245ffd5b5f6002820490506001821680615c7b57607f821691505b602082108103615c8e57615c8d615c37565b5b50919050565b5f615cae615ca9615ca48461538b565b615bc3565b614942565b9050919050565b615cbe81615c94565b82525050565b5f604082019050615cd75f83018561494b565b615ce46020830184615cb5565b9392505050565b7f4e487b71000000000000000000000000000000000000000000000000000000005f52603260045260245ffd5b7f4e487b71000000000000000000000000000000000000000000000000000000005f52601160045260245ffd5b5f615d4f82614942565b91507fffffffffffffffffffffffffffffffffffffffffffffffffffffffffffffffff8203615d8157615d80615d18565b5b600182019050919050565b5f615d9e615d9984615462565b614b5a565b905082815260208101848484011115615dba57615db9614af8565b5b615dc58482856149e2565b509392505050565b5f82601f830112615de157615de0614af4565b5b8151615df1848260208601615d8c565b91505092915050565b5f60208284031215615e0f57615e0e614887565b5b5f82015167ffffffffffffffff811115615e2c57615e2b61488b565b5b615e3884828501615dcd565b91505092915050565b5f81905092915050565b5f615e568385615e41565b9350615e63838584614ba4565b82840190509392505050565b5f615e7b828486615e4b565b91508190509392505050565b615e908161513c565b82525050565b5f60e082019050615ea95f83018a615015565b615eb6602083018961494b565b615ec36040830188615e87565b615ed06060830187614aa2565b615edd608083018661494b565b615eea60a0830185615015565b615ef760c0830184615015565b98975050505050505050565b5f615f0d82614942565b9150615f1883614942565b9250828203905081811115615f3057615f2f615d18565b5b92915050565b5f615f408261538b565b9150615f4b8361538b565b9250828203905065ffffffffffff811115615f6957615f68615d18565b5b92915050565b5f606082019050615f825f830186614aa2565b615f8f602083018561494b565b615f9c604083018461494b565b949350505050565b5f60a082019050615fb75f830188615015565b615fc4602083018761494b565b615fd16040830186615e87565b615fde6060830185614aa2565b615feb608083018461494b565b9695505050505050565b5f815190506160038161539c565b92915050565b5f6020828403121561601e5761601d614887565b5b5f61602b84828501615ff5565b91505092915050565b5f61603e8261538b565b91506160498361538b565b9250828201905065ffffffffffff81111561606757616066615d18565b5b92915050565b5f81519050919050565b5f82825260208201905092915050565b5f819050602082019050919050565b61609f81614a91565b82525050565b5f6160b08383616096565b60208301905092915050565b5f602082019050919050565b5f6160d28261606d565b6160dc8185616077565b93506160e783616087565b805f5b838110156161175781516160fe88826160a5565b9750616109836160bc565b9250506001810190506160ea565b5085935050505092915050565b5f81519050919050565b5f82825260208201905092915050565b5f819050602082019050919050565b5f81519050919050565b5f82825260208201905092915050565b5f6161718261614d565b61617b8185616157565b935061618b8185602086016149e2565b61619481614a0a565b840191505092915050565b5f6161aa8383616167565b905092915050565b5f602082019050919050565b5f6161c882616124565b6161d2818561612e565b9350836020820285016161e48561613e565b805f5b8581101561621f5784840389528151616200858261619f565b945061620b836161b2565b925060208a019950506001810190506161e7565b50829750879550505050505092915050565b5f6080820190508181035f83015261624981876160c8565b9050818103602083015261625d8186615694565b9050818103604083015261627181856161be565b90506162806060830184615015565b95945050505050565b5f60408201905061629c5f83018561494b565b6162a9602083018461494b565b9392505050565b5f6060820190506162c35f83018661494b565b6162d060208301856150a1565b6162dd6040830184615015565b949350505050565b6162ee8161490f565b81146162f8575f80fd5b50565b5f81519050616309816162e5565b92915050565b5f6020828403121561632457616323614887565b5b5f616331848285016162fb565b91505092915050565b5f60808201905061634d5f83018761494b565b61635a6020830186615e87565b616367604083018561494b565b81810360608301526163798184614a1a565b905095945050505050565b5f82825260208201905092915050565b5f61639e8261614d565b6163a88185616384565b93506163b88185602086016149e2565b6163c181614a0a565b840191505092915050565b5f60a0820190506163df5f83018861494b565b6163ec6020830187615e87565b6163f9604083018661494b565b818103606083015261640b8185614a1a565b9050818103608083015261641f8184616394565b90509695505050505050565b5f819050919050565b5f61644e6164496164448461642b565b615bc3565b61513c565b9050919050565b61645e81616434565b82525050565b5f6040820190506164775f830185616455565b616484602083018461494b565b9392505050565b5f61649582614942565b91506164a083614942565b92508282019050808211156164b8576164b7615d18565b5b92915050565b5f6040820190506164d15f830185615cb5565b6164de6020830184615cb5565b9392505050565b5f81519050919050565b5f82825260208201905092915050565b5f819050602082019050919050565b5f82825260208201905092915050565b5f616528826149c8565b616532818561650e565b93506165428185602086016149e2565b61654b81614a0a565b840191505092915050565b5f616561838361651e565b905092915050565b5f602082019050919050565b5f61657f826164e5565b61658981856164ef565b93508360208202850161659b856164ff565b805f5b858110156165d657848403895281516165b78582616556565b94506165c283616569565b925060208a0199505060018101905061659e565b50829750879550505050505092915050565b5f610120820190506165fc5f83018c61494b565b616609602083018b614aa2565b818103604083015261661b818a6160c8565b9050818103606083015261662f8189615694565b905081810360808301526166438188616575565b905081810360a083015261665781876161be565b905061666660c083018661494b565b61667360e083018561494b565b8181036101008301526166868184614a1a565b90509a9950505050505050505050565b5f6040820190506166a95f830185614aa2565b6166b6602083018461494b565b9392505050565b5f815190506166cb81614973565b92915050565b5f602082840312156166e6576166e5614887565b5b5f6166f3848285016166bd565b91505092915050565b5f60408201905061670f5f830185614aa2565b61671c6020830184614aa2565b9392505050565b5f819050919050565b5f61674661674161673c84616723565b615bc3565b614942565b9050919050565b6167568161672c565b82525050565b5f60208201905061676f5f83018461674d565b92915050565b5f61678f61678a61678584615a8e565b615bc3565b614942565b9050919050565b61679f81616775565b82525050565b5f6040820190506167b85f830185616796565b6167c56020830184616796565b9392505050565b5f6167d682614942565b91506167e183614942565b92508282026167ef81614942565b9150828204841483151761680657616805615d18565b5b5092915050565b7f4e487b71000000000000000000000000000000000000000000000000000000005f52601260045260245ffd5b5f61684482614942565b915061684f83614942565b92508261685f5761685e61680d565b5b828204905092915050565b5f819050919050565b5f61688d6168886168838461686a565b615bc3565b61513c565b9050919050565b61689d81616873565b82525050565b5f6040820190506168b65f830185616894565b6168c3602083018461494b565b9392505050565b5f815f1b9050919050565b5f6168ef6168ea6168e584616723565b6168ca565b614f2a565b9050919050565b6168ff816168d5565b82525050565b5f60a0820190508181035f83015261691d81886160c8565b905081810360208301526169318187615694565b9050818103604083015261694581866161be565b905061695460608301856168f6565b6169616080830184615015565b9695505050505050565b5f8151905061697981614f33565b92915050565b5f6020828403121561699457616993614887565b5b5f6169a18482850161696b565b91505092915050565b5f60c0820190508181035f8301526169c281896160c8565b905081810360208301526169d68188615694565b905081810360408301526169ea81876161be565b90506169f960608301866168f6565b616a066080830185615015565b616a1360a083018461494b565b979650505050505050565b5f604082019050616a315f830185615015565b8181036020830152616a438184616394565b90509392505050565b5f616a568261614d565b616a608185615e41565b9350616a708185602086016149e2565b80840191505092915050565b5f616a878284616a4c565b915081905092915050565b5f819050919050565b5f616ab5616ab0616aab84616a92565b615bc3565b61513c565b9050919050565b616ac581616a9b565b82525050565b5f604082019050616ade5f830185616abc565b616aeb602083018461494b565b9392505050565b5f616afc8261513c565b9150616b078361513c565b9250828201905060ff811115616b2057616b1f615d18565b5b92915050565b5f8160011c9050919050565b5f808291508390505b6001851115616b7b57808604811115616b5757616b56615d18565b5b6001851615616b665780820291505b8081029050616b7485616b26565b9450616b3b565b94509492505050565b5f82616b935760019050616c4e565b81616ba0575f9050616c4e565b8160018114616bb65760028114616bc057616bef565b6001915050616c4e565b60ff841115616bd257616bd1615d18565b5b8360020a915084821115616be957616be8615d18565b5b50616c4e565b5060208310610133831016604e8410600b8410161715616c245782820a905083811115616c1f57616c1e615d18565b5b616c4e565b616c318484846001616b32565b92509050818404811115616c4857616c47615d18565b5b81810290505b9392505050565b5f616c5f82614942565b9150616c6a8361513c565b9250616c977fffffffffffffffffffffffffffffffffffffffffffffffffffffffffffffffff8484616b84565b905092915050565b5f60a082019050616cb25f830188615015565b616cbf6020830187615015565b616ccc6040830186615015565b616cd9606083018561494b565b616ce66080830184614aa2565b9695505050505050565b5f608082019050616d035f830187615015565b616d106020830186615e87565b616d1d6040830185615015565b616d2a6060830184615015565b9594505050505056fea2646970667358221220572d2d42558159d53984306774b1ca9af89ae7b7605e7d323bad0e5b4f2d46c864736f6c63430008140033",
			"opcodes": "PUSH2 0x180 PUSH1 0x40 MSTORE CALLVALUE DUP1 ISZERO PUSH3 0x11 JUMPI PUSH0 DUP1 REVERT JUMPDEST POP PUSH1 0x40 MLOAD PUSH3 0x837D CODESIZE SUB DUP1 PUSH3 0x837D DUP4 CODECOPY DUP2 DUP2 ADD PUSH1 0x40 MSTORE DUP2 ADD SWAP1 PUSH3 0x37 SWAP2 SWAP1 PUSH3 0xD08 JUMP JUMPDEST DUP1 PUSH1 0x4 DUP4 PUSH1 0x1 PUSH2 0xB2FA PUSH9 0x3635C9ADC5DEA00000 PUSH1 0x40 MLOAD DUP1 PUSH1 0x40 ADD PUSH1 0x40 MSTORE DUP1 PUSH1 0x10 DUP2 MSTORE PUSH1 0x20 ADD PUSH32 0x476F7665726E6F72436F6E747261637400000000000000000000000000000000 DUP2 MSTORE POP DUP1 PUSH3 0x91 PUSH3 0x1EB PUSH1 0x20 SHL PUSH1 0x20 SHR JUMP JUMPDEST PUSH3 0xA6 PUSH0 DUP4 PUSH3 0x228 PUSH1 0x20 SHL SWAP1 SWAP2 SWAP1 PUSH1 0x20 SHR JUMP JUMPDEST PUSH2 0x120 DUP2 DUP2 MSTORE POP POP PUSH3 0xC4 PUSH1 0x1 DUP3 PUSH3 0x228 PUSH1 0x20 SHL SWAP1 SWAP2 SWAP1 PUSH1 0x20 SHR JUMP JUMPDEST PUSH2 0x140 DUP2 DUP2 MSTORE POP POP DUP2 DUP1 MLOAD SWAP1 PUSH1 0x20 ADD KECCAK256 PUSH1 0xE0 DUP2 DUP2 MSTORE POP POP DUP1 DUP1 MLOAD SWAP1 PUSH1 0x20 ADD KECCAK256 PUSH2 0x100 DUP2 DUP2 MSTORE POP POP CHAINID PUSH1 0xA0 DUP2 DUP2 MSTORE POP POP PUSH3 0x103 PUSH3 0x27D PUSH1 0x20 SHL PUSH1 0x20 SHR JUMP JUMPDEST PUSH1 0x80 DUP2 DUP2 MSTORE POP POP ADDRESS PUSH20 0xFFFFFFFFFFFFFFFFFFFFFFFFFFFFFFFFFFFFFFFF AND PUSH1 0xC0 DUP2 PUSH20 0xFFFFFFFFFFFFFFFFFFFFFFFFFFFFFFFFFFFFFFFF AND DUP2 MSTORE POP POP POP POP DUP1 PUSH1 0x3 SWAP1 DUP2 PUSH3 0x151 SWAP2 SWAP1 PUSH3 0xFB1 JUMP JUMPDEST POP POP PUSH3 0x164 DUP4 PUSH3 0x2D9 PUSH1 0x20 SHL PUSH1 0x20 SHR JUMP JUMPDEST PUSH3 0x175 DUP3 PUSH3 0x34E PUSH1 0x20 SHL PUSH1 0x20 SHR JUMP JUMPDEST PUSH3 0x186 DUP2 PUSH3 0x40C PUSH1 0x20 SHL PUSH1 0x20 SHR JUMP JUMPDEST POP POP POP DUP1 PUSH20 0xFFFFFFFFFFFFFFFFFFFFFFFFFFFFFFFFFFFFFFFF AND PUSH2 0x160 DUP2 PUSH20 0xFFFFFFFFFFFFFFFFFFFFFFFFFFFFFFFFFFFFFFFF AND DUP2 MSTORE POP POP POP PUSH3 0x1D0 DUP2 PUSH3 0x453 PUSH1 0x20 SHL PUSH1 0x20 SHR JUMP JUMPDEST POP PUSH3 0x1E2 DUP2 PUSH3 0x53C PUSH1 0x20 SHL PUSH1 0x20 SHR JUMP JUMPDEST POP POP POP PUSH3 0x15B8 JUMP JUMPDEST PUSH1 0x60 PUSH1 0x40 MLOAD DUP1 PUSH1 0x40 ADD PUSH1 0x40 MSTORE DUP1 PUSH1 0x1 DUP2 MSTORE PUSH1 0x20 ADD PUSH32 0x3100000000000000000000000000000000000000000000000000000000000000 DUP2 MSTORE POP SWAP1 POP SWAP1 JUMP JUMPDEST PUSH0 PUSH1 0x20 DUP4 MLOAD LT ISZERO PUSH3 0x24D JUMPI PUSH3 0x245 DUP4 PUSH3 0x5DB PUSH1 0x20 SHL PUSH1 0x20 SHR JUMP JUMPDEST SWAP1 POP PUSH3 0x277 JUMP JUMPDEST DUP3 PUSH3 0x25F DUP4 PUSH3 0x645 PUSH1 0x20 SHL PUSH1 0x20 SHR JUMP JUMPDEST PUSH0 ADD SWAP1 DUP2 PUSH3 0x26F SWAP2 SWAP1 PUSH3 0xFB1 JUMP JUMPDEST POP PUSH1 0xFF PUSH0 SHL SWAP1 POP JUMPDEST SWAP3 SWAP2 POP POP JUMP JUMPDEST PUSH0 PUSH32 0x8B73C3C69BB8FE3D512ECC4CF759CC79239F7B179B0FFACAA9A75D522B39400F PUSH1 0xE0 MLOAD PUSH2 0x100 MLOAD CHAINID ADDRESS PUSH1 0x40 MLOAD PUSH1 0x20 ADD PUSH3 0x2BE SWAP6 SWAP5 SWAP4 SWAP3 SWAP2 SWAP1 PUSH3 0x10D1 JUMP JUMPDEST PUSH1 0x40 MLOAD PUSH1 0x20 DUP2 DUP4 SUB SUB DUP2 MSTORE SWAP1 PUSH1 0x40 MSTORE DUP1 MLOAD SWAP1 PUSH1 0x20 ADD KECCAK256 SWAP1 POP SWAP1 JUMP JUMPDEST PUSH32 0xC565B045403DC03C2EEA82B81A0465EDAD9E2E7FC4D97E11421C209DA93D7A93 PUSH1 0x8 PUSH0 SWAP1 SLOAD SWAP1 PUSH2 0x100 EXP SWAP1 DIV PUSH6 0xFFFFFFFFFFFF AND DUP3 PUSH1 0x40 MLOAD PUSH3 0x31F SWAP3 SWAP2 SWAP1 PUSH3 0x1175 JUMP JUMPDEST PUSH1 0x40 MLOAD DUP1 SWAP2 SUB SWAP1 LOG1 DUP1 PUSH1 0x8 PUSH0 PUSH2 0x100 EXP DUP2 SLOAD DUP2 PUSH6 0xFFFFFFFFFFFF MUL NOT AND SWAP1 DUP4 PUSH6 0xFFFFFFFFFFFF AND MUL OR SWAP1 SSTORE POP POP JUMP JUMPDEST PUSH0 DUP2 PUSH4 0xFFFFFFFF AND SUB PUSH3 0x39B JUMPI PUSH0 PUSH1 0x40 MLOAD PUSH32 0xF1CFBF0500000000000000000000000000000000000000000000000000000000 DUP2 MSTORE PUSH1 0x4 ADD PUSH3 0x392 SWAP2 SWAP1 PUSH3 0x11E1 JUMP JUMPDEST PUSH1 0x40 MLOAD DUP1 SWAP2 SUB SWAP1 REVERT JUMPDEST PUSH32 0x7E3F7F0708A84DE9203036ABAA450DCCC85AD5FF52F78C170F3EDB55CF5E8828 PUSH1 0x8 PUSH1 0x6 SWAP1 SLOAD SWAP1 PUSH2 0x100 EXP SWAP1 DIV PUSH4 0xFFFFFFFF AND DUP3 PUSH1 0x40 MLOAD PUSH3 0x3E0 SWAP3 SWAP2 SWAP1 PUSH3 0x1243 JUMP JUMPDEST PUSH1 0x40 MLOAD DUP1 SWAP2 SUB SWAP1 LOG1 DUP1 PUSH1 0x8 PUSH1 0x6 PUSH2 0x100 EXP DUP2 SLOAD DUP2 PUSH4 0xFFFFFFFF MUL NOT AND SWAP1 DUP4 PUSH4 0xFFFFFFFF AND MUL OR SWAP1 SSTORE POP POP JUMP JUMPDEST PUSH32 0xCCB45DA8D5717E6C4544694297C4BA5CF151D455C9BB0ED4FC7A38411BC05461 PUSH1 0x7 SLOAD DUP3 PUSH1 0x40 MLOAD PUSH3 0x441 SWAP3 SWAP2 SWAP1 PUSH3 0x126E JUMP JUMPDEST PUSH1 0x40 MLOAD DUP1 SWAP2 SUB SWAP1 LOG1 DUP1 PUSH1 0x7 DUP2 SWAP1 SSTORE POP POP JUMP JUMPDEST PUSH0 PUSH3 0x464 PUSH3 0x64E PUSH1 0x20 SHL PUSH1 0x20 SHR JUMP JUMPDEST SWAP1 POP DUP1 DUP3 GT ISZERO PUSH3 0x4B0 JUMPI DUP2 DUP2 PUSH1 0x40 MLOAD PUSH32 0x243E544500000000000000000000000000000000000000000000000000000000 DUP2 MSTORE PUSH1 0x4 ADD PUSH3 0x4A7 SWAP3 SWAP2 SWAP1 PUSH3 0x126E JUMP JUMPDEST PUSH1 0x40 MLOAD DUP1 SWAP2 SUB SWAP1 REVERT JUMPDEST PUSH0 PUSH3 0x4C1 PUSH3 0x656 PUSH1 0x20 SHL PUSH1 0x20 SHR JUMP JUMPDEST SWAP1 POP PUSH3 0x4FA PUSH3 0x4D7 PUSH3 0x68A PUSH1 0x20 SHL PUSH1 0x20 SHR JUMP JUMPDEST PUSH3 0x4E8 DUP6 PUSH3 0x72A PUSH1 0x20 SHL PUSH1 0x20 SHR JUMP JUMPDEST PUSH1 0xA PUSH3 0x79A PUSH1 0x20 SHL SWAP1 SWAP3 SWAP2 SWAP1 PUSH1 0x20 SHR JUMP JUMPDEST POP POP PUSH32 0x553476BF02EF2726E8CE5CED78D63E26E602E4A2257B1F559418E24B4633997 DUP2 DUP5 PUSH1 0x40 MLOAD PUSH3 0x52F SWAP3 SWAP2 SWAP1 PUSH3 0x126E JUMP JUMPDEST PUSH1 0x40 MLOAD DUP1 SWAP2 SUB SWAP1 LOG1 POP POP POP JUMP JUMPDEST PUSH32 0x8F74EA46EF7894F65EABFB5E6E695DE773A000B47C529AB559178069B226401 PUSH1 0xB PUSH0 SWAP1 SLOAD SWAP1 PUSH2 0x100 EXP SWAP1 DIV PUSH20 0xFFFFFFFFFFFFFFFFFFFFFFFFFFFFFFFFFFFFFFFF AND DUP3 PUSH1 0x40 MLOAD PUSH3 0x590 SWAP3 SWAP2 SWAP1 PUSH3 0x1299 JUMP JUMPDEST PUSH1 0x40 MLOAD DUP1 SWAP2 SUB SWAP1 LOG1 DUP1 PUSH1 0xB PUSH0 PUSH2 0x100 EXP DUP2 SLOAD DUP2 PUSH20 0xFFFFFFFFFFFFFFFFFFFFFFFFFFFFFFFFFFFFFFFF MUL NOT AND SWAP1 DUP4 PUSH20 0xFFFFFFFFFFFFFFFFFFFFFFFFFFFFFFFFFFFFFFFF AND MUL OR SWAP1 SSTORE POP POP JUMP JUMPDEST PUSH0 DUP1 DUP3 SWAP1 POP PUSH1 0x1F DUP2 MLOAD GT ISZERO PUSH3 0x62A JUMPI DUP3 PUSH1 0x40 MLOAD PUSH32 0x305A27A900000000000000000000000000000000000000000000000000000000 DUP2 MSTORE PUSH1 0x4 ADD PUSH3 0x621 SWAP2 SWAP1 PUSH3 0x134E JUMP JUMPDEST PUSH1 0x40 MLOAD DUP1 SWAP2 SUB SWAP1 REVERT JUMPDEST DUP1 MLOAD DUP2 PUSH3 0x638 SWAP1 PUSH3 0x139F JUMP JUMPDEST PUSH0 SHR OR PUSH0 SHL SWAP2 POP POP SWAP2 SWAP1 POP JUMP JUMPDEST PUSH0 DUP2 SWAP1 POP SWAP2 SWAP1 POP JUMP JUMPDEST PUSH0 PUSH1 0x64 SWAP1 POP SWAP1 JUMP JUMPDEST PUSH0 PUSH3 0x669 PUSH1 0xA PUSH3 0x7BD PUSH1 0x20 SHL PUSH1 0x20 SHR JUMP JUMPDEST PUSH26 0xFFFFFFFFFFFFFFFFFFFFFFFFFFFFFFFFFFFFFFFFFFFFFFFFFFFF AND SWAP1 POP SWAP1 JUMP JUMPDEST PUSH0 PUSH3 0x69B PUSH3 0x82B PUSH1 0x20 SHL PUSH1 0x20 SHR JUMP JUMPDEST PUSH20 0xFFFFFFFFFFFFFFFFFFFFFFFFFFFFFFFFFFFFFFFF AND PUSH4 0x91DDADF4 PUSH1 0x40 MLOAD DUP2 PUSH4 0xFFFFFFFF AND PUSH1 0xE0 SHL DUP2 MSTORE PUSH1 0x4 ADD PUSH1 0x20 PUSH1 0x40 MLOAD DUP1 DUP4 SUB DUP2 DUP7 GAS STATICCALL SWAP3 POP POP POP DUP1 ISZERO PUSH3 0x705 JUMPI POP PUSH1 0x40 MLOAD RETURNDATASIZE PUSH1 0x1F NOT PUSH1 0x1F DUP3 ADD AND DUP3 ADD DUP1 PUSH1 0x40 MSTORE POP DUP2 ADD SWAP1 PUSH3 0x702 SWAP2 SWAP1 PUSH3 0x143D JUMP JUMPDEST PUSH1 0x1 JUMPDEST PUSH3 0x722 JUMPI PUSH3 0x71A PUSH3 0x835 PUSH1 0x20 SHL PUSH1 0x20 SHR JUMP JUMPDEST SWAP1 POP PUSH3 0x727 JUMP JUMPDEST DUP1 SWAP2 POP POP JUMPDEST SWAP1 JUMP JUMPDEST PUSH0 PUSH26 0xFFFFFFFFFFFFFFFFFFFFFFFFFFFFFFFFFFFFFFFFFFFFFFFFFFFF DUP1 AND DUP3 GT ISZERO PUSH3 0x792 JUMPI PUSH1 0xD0 DUP3 PUSH1 0x40 MLOAD PUSH32 0x6DFCC65000000000000000000000000000000000000000000000000000000000 DUP2 MSTORE PUSH1 0x4 ADD PUSH3 0x789 SWAP3 SWAP2 SWAP1 PUSH3 0x14BA JUMP JUMPDEST PUSH1 0x40 MLOAD DUP1 SWAP2 SUB SWAP1 REVERT JUMPDEST DUP2 SWAP1 POP SWAP2 SWAP1 POP JUMP JUMPDEST PUSH0 DUP1 PUSH3 0x7B1 DUP6 PUSH0 ADD DUP6 DUP6 PUSH3 0x84C PUSH1 0x20 SHL PUSH1 0x20 SHR JUMP JUMPDEST SWAP2 POP SWAP2 POP SWAP4 POP SWAP4 SWAP2 POP POP JUMP JUMPDEST PUSH0 DUP1 DUP3 PUSH0 ADD DUP1 SLOAD SWAP1 POP SWAP1 POP PUSH0 DUP2 EQ PUSH3 0x821 JUMPI PUSH3 0x7F2 DUP4 PUSH0 ADD PUSH1 0x1 DUP4 PUSH3 0x7E6 SWAP2 SWAP1 PUSH3 0x1512 JUMP JUMPDEST PUSH3 0xBCD PUSH1 0x20 SHL PUSH1 0x20 SHR JUMP JUMPDEST PUSH0 ADD PUSH1 0x6 SWAP1 SLOAD SWAP1 PUSH2 0x100 EXP SWAP1 DIV PUSH26 0xFFFFFFFFFFFFFFFFFFFFFFFFFFFFFFFFFFFFFFFFFFFFFFFFFFFF AND PUSH3 0x823 JUMP JUMPDEST PUSH0 JUMPDEST SWAP2 POP POP SWAP2 SWAP1 POP JUMP JUMPDEST PUSH0 PUSH2 0x160 MLOAD SWAP1 POP SWAP1 JUMP JUMPDEST PUSH0 PUSH3 0x847 NUMBER PUSH3 0xBDF PUSH1 0x20 SHL PUSH1 0x20 SHR JUMP JUMPDEST SWAP1 POP SWAP1 JUMP JUMPDEST PUSH0 DUP1 PUSH0 DUP6 DUP1 SLOAD SWAP1 POP SWAP1 POP PUSH0 DUP2 GT ISZERO PUSH3 0xAE5 JUMPI PUSH0 PUSH3 0x880 DUP8 PUSH1 0x1 DUP5 PUSH3 0x874 SWAP2 SWAP1 PUSH3 0x1512 JUMP JUMPDEST PUSH3 0xBCD PUSH1 0x20 SHL PUSH1 0x20 SHR JUMP JUMPDEST PUSH1 0x40 MLOAD DUP1 PUSH1 0x40 ADD PUSH1 0x40 MSTORE SWAP1 DUP2 PUSH0 DUP3 ADD PUSH0 SWAP1 SLOAD SWAP1 PUSH2 0x100 EXP SWAP1 DIV PUSH6 0xFFFFFFFFFFFF AND PUSH6 0xFFFFFFFFFFFF AND PUSH6 0xFFFFFFFFFFFF AND DUP2 MSTORE PUSH1 0x20 ADD PUSH0 DUP3 ADD PUSH1 0x6 SWAP1 SLOAD SWAP1 PUSH2 0x100 EXP SWAP1 DIV PUSH26 0xFFFFFFFFFFFFFFFFFFFFFFFFFFFFFFFFFFFFFFFFFFFFFFFFFFFF AND PUSH26 0xFFFFFFFFFFFFFFFFFFFFFFFFFFFFFFFFFFFFFFFFFFFFFFFFFFFF AND PUSH26 0xFFFFFFFFFFFFFFFFFFFFFFFFFFFFFFFFFFFFFFFFFFFFFFFFFFFF AND DUP2 MSTORE POP POP SWAP1 POP DUP6 PUSH6 0xFFFFFFFFFFFF AND DUP2 PUSH0 ADD MLOAD PUSH6 0xFFFFFFFFFFFF AND GT ISZERO PUSH3 0x96C JUMPI PUSH1 0x40 MLOAD PUSH32 0x2520601D00000000000000000000000000000000000000000000000000000000 DUP2 MSTORE PUSH1 0x4 ADD PUSH1 0x40 MLOAD DUP1 SWAP2 SUB SWAP1 REVERT JUMPDEST DUP6 PUSH6 0xFFFFFFFFFFFF AND DUP2 PUSH0 ADD MLOAD PUSH6 0xFFFFFFFFFFFF AND SUB PUSH3 0x9FA JUMPI DUP5 PUSH3 0x9A8 DUP9 PUSH1 0x1 DUP6 PUSH3 0x99C SWAP2 SWAP1 PUSH3 0x1512 JUMP JUMPDEST PUSH3 0xBCD PUSH1 0x20 SHL PUSH1 0x20 SHR JUMP JUMPDEST PUSH0 ADD PUSH1 0x6 PUSH2 0x100 EXP DUP2 SLOAD DUP2 PUSH26 0xFFFFFFFFFFFFFFFFFFFFFFFFFFFFFFFFFFFFFFFFFFFFFFFFFFFF MUL NOT AND SWAP1 DUP4 PUSH26 0xFFFFFFFFFFFFFFFFFFFFFFFFFFFFFFFFFFFFFFFFFFFFFFFFFFFF AND MUL OR SWAP1 SSTORE POP PUSH3 0xAD3 JUMP JUMPDEST DUP7 PUSH1 0x40 MLOAD DUP1 PUSH1 0x40 ADD PUSH1 0x40 MSTORE DUP1 DUP9 PUSH6 0xFFFFFFFFFFFF AND DUP2 MSTORE PUSH1 0x20 ADD DUP8 PUSH26 0xFFFFFFFFFFFFFFFFFFFFFFFFFFFFFFFFFFFFFFFFFFFFFFFFFFFF AND DUP2 MSTORE POP SWAP1 DUP1 PUSH1 0x1 DUP2 SLOAD ADD DUP1 DUP3 SSTORE DUP1 SWAP2 POP POP PUSH1 0x1 SWAP1 SUB SWAP1 PUSH0 MSTORE PUSH1 0x20 PUSH0 KECCAK256 ADD PUSH0 SWAP1 SWAP2 SWAP1 SWAP2 SWAP1 SWAP2 POP PUSH0 DUP3 ADD MLOAD DUP2 PUSH0 ADD PUSH0 PUSH2 0x100 EXP DUP2 SLOAD DUP2 PUSH6 0xFFFFFFFFFFFF MUL NOT AND SWAP1 DUP4 PUSH6 0xFFFFFFFFFFFF AND MUL OR SWAP1 SSTORE POP PUSH1 0x20 DUP3 ADD MLOAD DUP2 PUSH0 ADD PUSH1 0x6 PUSH2 0x100 EXP DUP2 SLOAD DUP2 PUSH26 0xFFFFFFFFFFFFFFFFFFFFFFFFFFFFFFFFFFFFFFFFFFFFFFFFFFFF MUL NOT AND SWAP1 DUP4 PUSH26 0xFFFFFFFFFFFFFFFFFFFFFFFFFFFFFFFFFFFFFFFFFFFFFFFFFFFF AND MUL OR SWAP1 SSTORE POP POP POP JUMPDEST DUP1 PUSH1 0x20 ADD MLOAD DUP6 SWAP4 POP SWAP4 POP POP POP PUSH3 0xBC5 JUMP JUMPDEST DUP6 PUSH1 0x40 MLOAD DUP1 PUSH1 0x40 ADD PUSH1 0x40 MSTORE DUP1 DUP8 PUSH6 0xFFFFFFFFFFFF AND DUP2 MSTORE PUSH1 0x20 ADD DUP7 PUSH26 0xFFFFFFFFFFFFFFFFFFFFFFFFFFFFFFFFFFFFFFFFFFFFFFFFFFFF AND DUP2 MSTORE POP SWAP1 DUP1 PUSH1 0x1 DUP2 SLOAD ADD DUP1 DUP3 SSTORE DUP1 SWAP2 POP POP PUSH1 0x1 SWAP1 SUB SWAP1 PUSH0 MSTORE PUSH1 0x20 PUSH0 KECCAK256 ADD PUSH0 SWAP1 SWAP2 SWAP1 SWAP2 SWAP1 SWAP2 POP PUSH0 DUP3 ADD MLOAD DUP2 PUSH0 ADD PUSH0 PUSH2 0x100 EXP DUP2 SLOAD DUP2 PUSH6 0xFFFFFFFFFFFF MUL NOT AND SWAP1 DUP4 PUSH6 0xFFFFFFFFFFFF AND MUL OR SWAP1 SSTORE POP PUSH1 0x20 DUP3 ADD MLOAD DUP2 PUSH0 ADD PUSH1 0x6 PUSH2 0x100 EXP DUP2 SLOAD DUP2 PUSH26 0xFFFFFFFFFFFFFFFFFFFFFFFFFFFFFFFFFFFFFFFFFFFFFFFFFFFF MUL NOT AND SWAP1 DUP4 PUSH26 0xFFFFFFFFFFFFFFFFFFFFFFFFFFFFFFFFFFFFFFFFFFFFFFFFFFFF AND MUL OR SWAP1 SSTORE POP POP POP PUSH0 DUP5 SWAP3 POP SWAP3 POP POP JUMPDEST SWAP4 POP SWAP4 SWAP2 POP POP JUMP JUMPDEST PUSH0 DUP3 PUSH0 MSTORE DUP2 PUSH1 0x20 PUSH0 KECCAK256 ADD SWAP1 POP SWAP3 SWAP2 POP POP JUMP JUMPDEST PUSH0 PUSH6 0xFFFFFFFFFFFF DUP1 AND DUP3 GT ISZERO PUSH3 0xC33 JUMPI PUSH1 0x30 DUP3 PUSH1 0x40 MLOAD PUSH32 0x6DFCC65000000000000000000000000000000000000000000000000000000000 DUP2 MSTORE PUSH1 0x4 ADD PUSH3 0xC2A SWAP3 SWAP2 SWAP1 PUSH3 0x158D JUMP JUMPDEST PUSH1 0x40 MLOAD DUP1 SWAP2 SUB SWAP1 REVERT JUMPDEST DUP2 SWAP1 POP SWAP2 SWAP1 POP JUMP JUMPDEST PUSH0 DUP1 REVERT JUMPDEST PUSH0 PUSH20 0xFFFFFFFFFFFFFFFFFFFFFFFFFFFFFFFFFFFFFFFF DUP3 AND SWAP1 POP SWAP2 SWAP1 POP JUMP JUMPDEST PUSH0 PUSH3 0xC6A DUP3 PUSH3 0xC3F JUMP JUMPDEST SWAP1 POP SWAP2 SWAP1 POP JUMP JUMPDEST PUSH0 PUSH3 0xC7D DUP3 PUSH3 0xC5E JUMP JUMPDEST SWAP1 POP SWAP2 SWAP1 POP JUMP JUMPDEST PUSH3 0xC8F DUP2 PUSH3 0xC71 JUMP JUMPDEST DUP2 EQ PUSH3 0xC9A JUMPI PUSH0 DUP1 REVERT JUMPDEST POP JUMP JUMPDEST PUSH0 DUP2 MLOAD SWAP1 POP PUSH3 0xCAD DUP2 PUSH3 0xC84 JUMP JUMPDEST SWAP3 SWAP2 POP POP JUMP JUMPDEST PUSH0 PUSH3 0xCBF DUP3 PUSH3 0xC3F JUMP JUMPDEST SWAP1 POP SWAP2 SWAP1 POP JUMP JUMPDEST PUSH0 PUSH3 0xCD2 DUP3 PUSH3 0xCB3 JUMP JUMPDEST SWAP1 POP SWAP2 SWAP1 POP JUMP JUMPDEST PUSH3 0xCE4 DUP2 PUSH3 0xCC6 JUMP JUMPDEST DUP2 EQ PUSH3 0xCEF JUMPI PUSH0 DUP1 REVERT JUMPDEST POP JUMP JUMPDEST PUSH0 DUP2 MLOAD SWAP1 POP PUSH3 0xD02 DUP2 PUSH3 0xCD9 JUMP JUMPDEST SWAP3 SWAP2 POP POP JUMP JUMPDEST PUSH0 DUP1 PUSH1 0x40 DUP4 DUP6 SUB SLT ISZERO PUSH3 0xD21 JUMPI PUSH3 0xD20 PUSH3 0xC3B JUMP JUMPDEST JUMPDEST PUSH0 PUSH3 0xD30 DUP6 DUP3 DUP7 ADD PUSH3 0xC9D JUMP JUMPDEST SWAP3 POP POP PUSH1 0x20 PUSH3 0xD43 DUP6 DUP3 DUP7 ADD PUSH3 0xCF2 JUMP JUMPDEST SWAP2 POP POP SWAP3 POP SWAP3 SWAP1 POP JUMP JUMPDEST PUSH0 DUP2 MLOAD SWAP1 POP SWAP2 SWAP1 POP JUMP JUMPDEST PUSH32 0x4E487B7100000000000000000000000000000000000000000000000000000000 PUSH0 MSTORE PUSH1 0x41 PUSH1 0x4 MSTORE PUSH1 0x24 PUSH0 REVERT JUMPDEST PUSH32 0x4E487B7100000000000000000000000000000000000000000000000000000000 PUSH0 MSTORE PUSH1 0x22 PUSH1 0x4 MSTORE PUSH1 0x24 PUSH0 REVERT JUMPDEST PUSH0 PUSH1 0x2 DUP3 DIV SWAP1 POP PUSH1 0x1 DUP3 AND DUP1 PUSH3 0xDC9 JUMPI PUSH1 0x7F DUP3 AND SWAP2 POP JUMPDEST PUSH1 0x20 DUP3 LT DUP2 SUB PUSH3 0xDDF JUMPI PUSH3 0xDDE PUSH3 0xD84 JUMP JUMPDEST JUMPDEST POP SWAP2 SWAP1 POP JUMP JUMPDEST PUSH0 DUP2 SWAP1 POP DUP2 PUSH0 MSTORE PUSH1 0x20 PUSH0 KECCAK256 SWAP1 POP SWAP2 SWAP1 POP JUMP JUMPDEST PUSH0 PUSH1 0x20 PUSH1 0x1F DUP4 ADD DIV SWAP1 POP SWAP2 SWAP1 POP JUMP JUMPDEST PUSH0 DUP3 DUP3 SHL SWAP1 POP SWAP3 SWAP2 POP POP JUMP JUMPDEST PUSH0 PUSH1 0x8 DUP4 MUL PUSH3 0xE43 PUSH32 0xFFFFFFFFFFFFFFFFFFFFFFFFFFFFFFFFFFFFFFFFFFFFFFFFFFFFFFFFFFFFFFFF DUP3 PUSH3 0xE06 JUMP JUMPDEST PUSH3 0xE4F DUP7 DUP4 PUSH3 0xE06 JUMP JUMPDEST SWAP6 POP DUP1 NOT DUP5 AND SWAP4 POP DUP1 DUP7 AND DUP5 OR SWAP3 POP POP POP SWAP4 SWAP3 POP POP POP JUMP JUMPDEST PUSH0 DUP2 SWAP1 POP SWAP2 SWAP1 POP JUMP JUMPDEST PUSH0 DUP2 SWAP1 POP SWAP2 SWAP1 POP JUMP JUMPDEST PUSH0 PUSH3 0xE99 PUSH3 0xE93 PUSH3 0xE8D DUP5 PUSH3 0xE67 JUMP JUMPDEST PUSH3 0xE70 JUMP JUMPDEST PUSH3 0xE67 JUMP JUMPDEST SWAP1 POP SWAP2 SWAP1 POP JUMP JUMPDEST PUSH0 DUP2 SWAP1 POP SWAP2 SWAP1 POP JUMP JUMPDEST PUSH3 0xEB4 DUP4 PUSH3 0xE79 JUMP JUMPDEST PUSH3 0xECC PUSH3 0xEC3 DUP3 PUSH3 0xEA0 JUMP JUMPDEST DUP5 DUP5 SLOAD PUSH3 0xE12 JUMP JUMPDEST DUP3 SSTORE POP POP POP POP JUMP JUMPDEST PUSH0 SWAP1 JUMP JUMPDEST PUSH3 0xEE2 PUSH3 0xED4 JUMP JUMPDEST PUSH3 0xEEF DUP2 DUP5 DUP5 PUSH3 0xEA9 JUMP JUMPDEST POP POP POP JUMP JUMPDEST JUMPDEST DUP2 DUP2 LT ISZERO PUSH3 0xF16 JUMPI PUSH3 0xF0A PUSH0 DUP3 PUSH3 0xED8 JUMP JUMPDEST PUSH1 0x1 DUP2 ADD SWAP1 POP PUSH3 0xEF5 JUMP JUMPDEST POP POP JUMP JUMPDEST PUSH1 0x1F DUP3 GT ISZERO PUSH3 0xF65 JUMPI PUSH3 0xF2F DUP2 PUSH3 0xDE5 JUMP JUMPDEST PUSH3 0xF3A DUP5 PUSH3 0xDF7 JUMP JUMPDEST DUP2 ADD PUSH1 0x20 DUP6 LT ISZERO PUSH3 0xF4A JUMPI DUP2 SWAP1 POP JUMPDEST PUSH3 0xF62 PUSH3 0xF59 DUP6 PUSH3 0xDF7 JUMP JUMPDEST DUP4 ADD DUP3 PUSH3 0xEF4 JUMP JUMPDEST POP POP JUMPDEST POP POP POP JUMP JUMPDEST PUSH0 DUP3 DUP3 SHR SWAP1 POP SWAP3 SWAP2 POP POP JUMP JUMPDEST PUSH0 PUSH3 0xF87 PUSH0 NOT DUP5 PUSH1 0x8 MUL PUSH3 0xF6A JUMP JUMPDEST NOT DUP1 DUP4 AND SWAP2 POP POP SWAP3 SWAP2 POP POP JUMP JUMPDEST PUSH0 PUSH3 0xFA1 DUP4 DUP4 PUSH3 0xF76 JUMP JUMPDEST SWAP2 POP DUP3 PUSH1 0x2 MUL DUP3 OR SWAP1 POP SWAP3 SWAP2 POP POP JUMP JUMPDEST PUSH3 0xFBC DUP3 PUSH3 0xD4D JUMP JUMPDEST PUSH8 0xFFFFFFFFFFFFFFFF DUP2 GT ISZERO PUSH3 0xFD8 JUMPI PUSH3 0xFD7 PUSH3 0xD57 JUMP JUMPDEST JUMPDEST PUSH3 0xFE4 DUP3 SLOAD PUSH3 0xDB1 JUMP JUMPDEST PUSH3 0xFF1 DUP3 DUP3 DUP6 PUSH3 0xF1A JUMP JUMPDEST PUSH0 PUSH1 0x20 SWAP1 POP PUSH1 0x1F DUP4 GT PUSH1 0x1 DUP2 EQ PUSH3 0x1027 JUMPI PUSH0 DUP5 ISZERO PUSH3 0x1012 JUMPI DUP3 DUP8 ADD MLOAD SWAP1 POP JUMPDEST PUSH3 0x101E DUP6 DUP3 PUSH3 0xF94 JUMP JUMPDEST DUP7 SSTORE POP PUSH3 0x108D JUMP JUMPDEST PUSH1 0x1F NOT DUP5 AND PUSH3 0x1037 DUP7 PUSH3 0xDE5 JUMP JUMPDEST PUSH0 JUMPDEST DUP3 DUP2 LT ISZERO PUSH3 0x1060 JUMPI DUP5 DUP10 ADD MLOAD DUP3 SSTORE PUSH1 0x1 DUP3 ADD SWAP2 POP PUSH1 0x20 DUP6 ADD SWAP5 POP PUSH1 0x20 DUP2 ADD SWAP1 POP PUSH3 0x1039 JUMP JUMPDEST DUP7 DUP4 LT ISZERO PUSH3 0x1080 JUMPI DUP5 DUP10 ADD MLOAD PUSH3 0x107C PUSH1 0x1F DUP10 AND DUP3 PUSH3 0xF76 JUMP JUMPDEST DUP4 SSTORE POP JUMPDEST PUSH1 0x1 PUSH1 0x2 DUP9 MUL ADD DUP9 SSTORE POP POP POP JUMPDEST POP POP POP POP POP POP JUMP JUMPDEST PUSH0 DUP2 SWAP1 POP SWAP2 SWAP1 POP JUMP JUMPDEST PUSH3 0x10A9 DUP2 PUSH3 0x1095 JUMP JUMPDEST DUP3 MSTORE POP POP JUMP JUMPDEST PUSH3 0x10BA DUP2 PUSH3 0xE67 JUMP JUMPDEST DUP3 MSTORE POP POP JUMP JUMPDEST PUSH3 0x10CB DUP2 PUSH3 0xC5E JUMP JUMPDEST DUP3 MSTORE POP POP JUMP JUMPDEST PUSH0 PUSH1 0xA0 DUP3 ADD SWAP1 POP PUSH3 0x10E6 PUSH0 DUP4 ADD DUP9 PUSH3 0x109E JUMP JUMPDEST PUSH3 0x10F5 PUSH1 0x20 DUP4 ADD DUP8 PUSH3 0x109E JUMP JUMPDEST PUSH3 0x1104 PUSH1 0x40 DUP4 ADD DUP7 PUSH3 0x109E JUMP JUMPDEST PUSH3 0x1113 PUSH1 0x60 DUP4 ADD DUP6 PUSH3 0x10AF JUMP JUMPDEST PUSH3 0x1122 PUSH1 0x80 DUP4 ADD DUP5 PUSH3 0x10C0 JUMP JUMPDEST SWAP7 SWAP6 POP POP POP POP POP POP JUMP JUMPDEST PUSH0 PUSH6 0xFFFFFFFFFFFF DUP3 AND SWAP1 POP SWAP2 SWAP1 POP JUMP JUMPDEST PUSH0 PUSH3 0x115D PUSH3 0x1157 PUSH3 0x1151 DUP5 PUSH3 0x112C JUMP JUMPDEST PUSH3 0xE70 JUMP JUMPDEST PUSH3 0xE67 JUMP JUMPDEST SWAP1 POP SWAP2 SWAP1 POP JUMP JUMPDEST PUSH3 0x116F DUP2 PUSH3 0x113D JUMP JUMPDEST DUP3 MSTORE POP POP JUMP JUMPDEST PUSH0 PUSH1 0x40 DUP3 ADD SWAP1 POP PUSH3 0x118A PUSH0 DUP4 ADD DUP6 PUSH3 0x1164 JUMP JUMPDEST PUSH3 0x1199 PUSH1 0x20 DUP4 ADD DUP5 PUSH3 0x1164 JUMP JUMPDEST SWAP4 SWAP3 POP POP POP JUMP JUMPDEST PUSH0 DUP2 SWAP1 POP SWAP2 SWAP1 POP JUMP JUMPDEST PUSH0 PUSH3 0x11C9 PUSH3 0x11C3 PUSH3 0x11BD DUP5 PUSH3 0x11A0 JUMP JUMPDEST PUSH3 0xE70 JUMP JUMPDEST PUSH3 0xE67 JUMP JUMPDEST SWAP1 POP SWAP2 SWAP1 POP JUMP JUMPDEST PUSH3 0x11DB DUP2 PUSH3 0x11A9 JUMP JUMPDEST DUP3 MSTORE POP POP JUMP JUMPDEST PUSH0 PUSH1 0x20 DUP3 ADD SWAP1 POP PUSH3 0x11F6 PUSH0 DUP4 ADD DUP5 PUSH3 0x11D0 JUMP JUMPDEST SWAP3 SWAP2 POP POP JUMP JUMPDEST PUSH0 PUSH4 0xFFFFFFFF DUP3 AND SWAP1 POP SWAP2 SWAP1 POP JUMP JUMPDEST PUSH0 PUSH3 0x122B PUSH3 0x1225 PUSH3 0x121F DUP5 PUSH3 0x11FC JUMP JUMPDEST PUSH3 0xE70 JUMP JUMPDEST PUSH3 0xE67 JUMP JUMPDEST SWAP1 POP SWAP2 SWAP1 POP JUMP JUMPDEST PUSH3 0x123D DUP2 PUSH3 0x120B JUMP JUMPDEST DUP3 MSTORE POP POP JUMP JUMPDEST PUSH0 PUSH1 0x40 DUP3 ADD SWAP1 POP PUSH3 0x1258 PUSH0 DUP4 ADD DUP6 PUSH3 0x1232 JUMP JUMPDEST PUSH3 0x1267 PUSH1 0x20 DUP4 ADD DUP5 PUSH3 0x1232 JUMP JUMPDEST SWAP4 SWAP3 POP POP POP JUMP JUMPDEST PUSH0 PUSH1 0x40 DUP3 ADD SWAP1 POP PUSH3 0x1283 PUSH0 DUP4 ADD DUP6 PUSH3 0x10AF JUMP JUMPDEST PUSH3 0x1292 PUSH1 0x20 DUP4 ADD DUP5 PUSH3 0x10AF JUMP JUMPDEST SWAP4 SWAP3 POP POP POP JUMP JUMPDEST PUSH0 PUSH1 0x40 DUP3 ADD SWAP1 POP PUSH3 0x12AE PUSH0 DUP4 ADD DUP6 PUSH3 0x10C0 JUMP JUMPDEST PUSH3 0x12BD PUSH1 0x20 DUP4 ADD DUP5 PUSH3 0x10C0 JUMP JUMPDEST SWAP4 SWAP3 POP POP POP JUMP JUMPDEST PUSH0 DUP3 DUP3 MSTORE PUSH1 0x20 DUP3 ADD SWAP1 POP SWAP3 SWAP2 POP POP JUMP JUMPDEST PUSH0 JUMPDEST DUP4 DUP2 LT ISZERO PUSH3 0x12F3 JUMPI DUP1 DUP3 ADD MLOAD DUP2 DUP5 ADD MSTORE PUSH1 0x20 DUP2 ADD SWAP1 POP PUSH3 0x12D6 JUMP JUMPDEST PUSH0 DUP5 DUP5 ADD MSTORE POP POP POP POP JUMP JUMPDEST PUSH0 PUSH1 0x1F NOT PUSH1 0x1F DUP4 ADD AND SWAP1 POP SWAP2 SWAP1 POP JUMP JUMPDEST PUSH0 PUSH3 0x131A DUP3 PUSH3 0xD4D JUMP JUMPDEST PUSH3 0x1326 DUP2 DUP6 PUSH3 0x12C4 JUMP JUMPDEST SWAP4 POP PUSH3 0x1338 DUP2 DUP6 PUSH1 0x20 DUP7 ADD PUSH3 0x12D4 JUMP JUMPDEST PUSH3 0x1343 DUP2 PUSH3 0x12FE JUMP JUMPDEST DUP5 ADD SWAP2 POP POP SWAP3 SWAP2 POP POP JUMP JUMPDEST PUSH0 PUSH1 0x20 DUP3 ADD SWAP1 POP DUP2 DUP2 SUB PUSH0 DUP4 ADD MSTORE PUSH3 0x1368 DUP2 DUP5 PUSH3 0x130E JUMP JUMPDEST SWAP1 POP SWAP3 SWAP2 POP POP JUMP JUMPDEST PUSH0 DUP2 MLOAD SWAP1 POP SWAP2 SWAP1 POP JUMP JUMPDEST PUSH0 DUP2 SWAP1 POP PUSH1 0x20 DUP3 ADD SWAP1 POP SWAP2 SWAP1 POP JUMP JUMPDEST PUSH0 PUSH3 0x1396 DUP3 MLOAD PUSH3 0x1095 JUMP JUMPDEST DUP1 SWAP2 POP POP SWAP2 SWAP1 POP JUMP JUMPDEST PUSH0 PUSH3 0x13AB DUP3 PUSH3 0x1370 JUMP JUMPDEST DUP3 PUSH3 0x13B7 DUP5 PUSH3 0x137A JUMP JUMPDEST SWAP1 POP PUSH3 0x13C4 DUP2 PUSH3 0x1389 JUMP JUMPDEST SWAP3 POP PUSH1 0x20 DUP3 LT ISZERO PUSH3 0x1407 JUMPI PUSH3 0x1402 PUSH32 0xFFFFFFFFFFFFFFFFFFFFFFFFFFFFFFFFFFFFFFFFFFFFFFFFFFFFFFFFFFFFFFFF DUP4 PUSH1 0x20 SUB PUSH1 0x8 MUL PUSH3 0xE06 JUMP JUMPDEST DUP4 AND SWAP3 POP JUMPDEST POP POP SWAP2 SWAP1 POP JUMP JUMPDEST PUSH3 0x1419 DUP2 PUSH3 0x112C JUMP JUMPDEST DUP2 EQ PUSH3 0x1424 JUMPI PUSH0 DUP1 REVERT JUMPDEST POP JUMP JUMPDEST PUSH0 DUP2 MLOAD SWAP1 POP PUSH3 0x1437 DUP2 PUSH3 0x140E JUMP JUMPDEST SWAP3 SWAP2 POP POP JUMP JUMPDEST PUSH0 PUSH1 0x20 DUP3 DUP5 SUB SLT ISZERO PUSH3 0x1455 JUMPI PUSH3 0x1454 PUSH3 0xC3B JUMP JUMPDEST JUMPDEST PUSH0 PUSH3 0x1464 DUP5 DUP3 DUP6 ADD PUSH3 0x1427 JUMP JUMPDEST SWAP2 POP POP SWAP3 SWAP2 POP POP JUMP JUMPDEST PUSH0 DUP2 SWAP1 POP SWAP2 SWAP1 POP JUMP JUMPDEST PUSH0 PUSH1 0xFF DUP3 AND SWAP1 POP SWAP2 SWAP1 POP JUMP JUMPDEST PUSH0 PUSH3 0x14A2 PUSH3 0x149C PUSH3 0x1496 DUP5 PUSH3 0x146D JUMP JUMPDEST PUSH3 0xE70 JUMP JUMPDEST PUSH3 0x1476 JUMP JUMPDEST SWAP1 POP SWAP2 SWAP1 POP JUMP JUMPDEST PUSH3 0x14B4 DUP2 PUSH3 0x1482 JUMP JUMPDEST DUP3 MSTORE POP POP JUMP JUMPDEST PUSH0 PUSH1 0x40 DUP3 ADD SWAP1 POP PUSH3 0x14CF PUSH0 DUP4 ADD DUP6 PUSH3 0x14A9 JUMP JUMPDEST PUSH3 0x14DE PUSH1 0x20 DUP4 ADD DUP5 PUSH3 0x10AF JUMP JUMPDEST SWAP4 SWAP3 POP POP POP JUMP JUMPDEST PUSH32 0x4E487B7100000000000000000000000000000000000000000000000000000000 PUSH0 MSTORE PUSH1 0x11 PUSH1 0x4 MSTORE PUSH1 0x24 PUSH0 REVERT JUMPDEST PUSH0 PUSH3 0x151E DUP3 PUSH3 0xE67 JUMP JUMPDEST SWAP2 POP PUSH3 0x152B DUP4 PUSH3 0xE67 JUMP JUMPDEST SWAP3 POP DUP3 DUP3 SUB SWAP1 POP DUP2 DUP2 GT ISZERO PUSH3 0x1546 JUMPI PUSH3 0x1545 PUSH3 0x14E5 JUMP JUMPDEST JUMPDEST SWAP3 SWAP2 POP POP JUMP JUMPDEST PUSH0 DUP2 SWAP1 POP SWAP2 SWAP1 POP JUMP JUMPDEST PUSH0 PUSH3 0x1575 PUSH3 0x156F PUSH3 0x1569 DUP5 PUSH3 0x154C JUMP JUMPDEST PUSH3 0xE70 JUMP JUMPDEST PUSH3 0x1476 JUMP JUMPDEST SWAP1 POP SWAP2 SWAP1 POP JUMP JUMPDEST PUSH3 0x1587 DUP2 PUSH3 0x1555 JUMP JUMPDEST DUP3 MSTORE POP POP JUMP JUMPDEST PUSH0 PUSH1 0x40 DUP3 ADD SWAP1 POP PUSH3 0x15A2 PUSH0 DUP4 ADD DUP6 PUSH3 0x157C JUMP JUMPDEST PUSH3 0x15B1 PUSH1 0x20 DUP4 ADD DUP5 PUSH3 0x10AF JUMP JUMPDEST SWAP4 SWAP3 POP POP POP JUMP JUMPDEST PUSH1 0x80 MLOAD PUSH1 0xA0 MLOAD PUSH1 0xC0 MLOAD PUSH1 0xE0 MLOAD PUSH2 0x100 MLOAD PUSH2 0x120 MLOAD PUSH2 0x140 MLOAD PUSH2 0x160 MLOAD PUSH2 0x6D69 PUSH3 0x1614 PUSH0 CODECOPY PUSH0 PUSH2 0x1E12 ADD MSTORE PUSH0 PUSH2 0x2DAB ADD MSTORE PUSH0 PUSH2 0x2D70 ADD MSTORE PUSH0 PUSH2 0x4573 ADD MSTORE PUSH0 PUSH2 0x4552 ADD MSTORE PUSH0 PUSH2 0x38AA ADD MSTORE PUSH0 PUSH2 0x3900 ADD MSTORE PUSH0 PUSH2 0x3929 ADD MSTORE PUSH2 0x6D69 PUSH0 RETURN INVALID PUSH1 0x80 PUSH1 0x40 MSTORE PUSH1 0x4 CALLDATASIZE LT PUSH2 0x296 JUMPI PUSH0 CALLDATALOAD PUSH1 0xE0 SHR DUP1 PUSH4 0x7ECEBE00 GT PUSH2 0x159 JUMPI DUP1 PUSH4 0xC01F9E37 GT PUSH2 0xC0 JUMPI DUP1 PUSH4 0xE540D01D GT PUSH2 0x79 JUMPI DUP1 PUSH4 0xE540D01D EQ PUSH2 0xB89 JUMPI DUP1 PUSH4 0xEB9019D4 EQ PUSH2 0xBB1 JUMPI DUP1 PUSH4 0xECE40CC1 EQ PUSH2 0xBED JUMPI DUP1 PUSH4 0xF23A6E61 EQ PUSH2 0xC15 JUMPI DUP1 PUSH4 0xF8CE560A EQ PUSH2 0xC51 JUMPI DUP1 PUSH4 0xFC0C546A EQ PUSH2 0xC8D JUMPI PUSH2 0x309 JUMP JUMPDEST DUP1 PUSH4 0xC01F9E37 EQ PUSH2 0xA77 JUMPI DUP1 PUSH4 0xC28BC2FA EQ PUSH2 0xAB3 JUMPI DUP1 PUSH4 0xC59057E4 EQ PUSH2 0xACF JUMPI DUP1 PUSH4 0xD33219B4 EQ PUSH2 0xB0B JUMPI DUP1 PUSH4 0xDD4E2BA5 EQ PUSH2 0xB35 JUMPI DUP1 PUSH4 0xDEAAA7CC EQ PUSH2 0xB5F JUMPI PUSH2 0x309 JUMP JUMPDEST DUP1 PUSH4 0xA7713A70 GT PUSH2 0x112 JUMPI DUP1 PUSH4 0xA7713A70 EQ PUSH2 0x947 JUMPI DUP1 PUSH4 0xA890C910 EQ PUSH2 0x971 JUMPI DUP1 PUSH4 0xA9A95294 EQ PUSH2 0x999 JUMPI DUP1 PUSH4 0xAB58FB8E EQ PUSH2 0x9D5 JUMPI DUP1 PUSH4 0xB58131B0 EQ PUSH2 0xA11 JUMPI DUP1 PUSH4 0xBC197C81 EQ PUSH2 0xA3B JUMPI PUSH2 0x309 JUMP JUMPDEST DUP1 PUSH4 0x7ECEBE00 EQ PUSH2 0x80F JUMPI DUP1 PUSH4 0x84B0196E EQ PUSH2 0x84B JUMPI DUP1 PUSH4 0x8FF262E3 EQ PUSH2 0x87B JUMPI DUP1 PUSH4 0x91DDADF4 EQ PUSH2 0x8B7 JUMPI DUP1 PUSH4 0x97C3D334 EQ PUSH2 0x8E1 JUMPI DUP1 PUSH4 0x9A802A6D EQ PUSH2 0x90B JUMPI PUSH2 0x309 JUMP JUMPDEST DUP1 PUSH4 0x43859632 GT PUSH2 0x1FD JUMPI DUP1 PUSH4 0x5B8D0E0D GT PUSH2 0x1B6 JUMPI DUP1 PUSH4 0x5B8D0E0D EQ PUSH2 0x6BB JUMPI DUP1 PUSH4 0x5F398A14 EQ PUSH2 0x6F7 JUMPI DUP1 PUSH4 0x60C4247F EQ PUSH2 0x733 JUMPI DUP1 PUSH4 0x79051887 EQ PUSH2 0x76F JUMPI DUP1 PUSH4 0x7B3C71D3 EQ PUSH2 0x797 JUMPI DUP1 PUSH4 0x7D5E81E2 EQ PUSH2 0x7D3 JUMPI PUSH2 0x309 JUMP JUMPDEST DUP1 PUSH4 0x43859632 EQ PUSH2 0x575 JUMPI DUP1 PUSH4 0x452115D6 EQ PUSH2 0x5B1 JUMPI DUP1 PUSH4 0x4BF5D7E9 EQ PUSH2 0x5ED JUMPI DUP1 PUSH4 0x544FFC9C EQ PUSH2 0x617 JUMPI DUP1 PUSH4 0x54FD4D50 EQ PUSH2 0x655 JUMPI DUP1 PUSH4 0x56781388 EQ PUSH2 0x67F JUMPI PUSH2 0x309 JUMP JUMPDEST DUP1 PUSH4 0x160CBED7 GT PUSH2 0x24F JUMPI DUP1 PUSH4 0x160CBED7 EQ PUSH2 0x43D JUMPI DUP1 PUSH4 0x2656227D EQ PUSH2 0x479 JUMPI DUP1 PUSH4 0x2D63F693 EQ PUSH2 0x4A9 JUMPI DUP1 PUSH4 0x2FE3E261 EQ PUSH2 0x4E5 JUMPI DUP1 PUSH4 0x3932ABB1 EQ PUSH2 0x50F JUMPI DUP1 PUSH4 0x3E4F49E6 EQ PUSH2 0x539 JUMPI PUSH2 0x309 JUMP JUMPDEST DUP1 PUSH4 0x1FFC9A7 EQ PUSH2 0x30D JUMPI DUP1 PUSH4 0x2A251A3 EQ PUSH2 0x349 JUMPI DUP1 PUSH4 0x6F3F9E6 EQ PUSH2 0x373 JUMPI DUP1 PUSH4 0x6FDDE03 EQ PUSH2 0x39B JUMPI DUP1 PUSH4 0x143489D0 EQ PUSH2 0x3C5 JUMPI DUP1 PUSH4 0x150B7A02 EQ PUSH2 0x401 JUMPI PUSH2 0x309 JUMP JUMPDEST CALLDATASIZE PUSH2 0x309 JUMPI ADDRESS PUSH20 0xFFFFFFFFFFFFFFFFFFFFFFFFFFFFFFFFFFFFFFFF AND PUSH2 0x2BA PUSH2 0xCB7 JUMP JUMPDEST PUSH20 0xFFFFFFFFFFFFFFFFFFFFFFFFFFFFFFFFFFFFFFFF AND EQ PUSH2 0x307 JUMPI PUSH1 0x40 MLOAD PUSH32 0xE90A651E00000000000000000000000000000000000000000000000000000000 DUP2 MSTORE PUSH1 0x4 ADD PUSH1 0x40 MLOAD DUP1 SWAP2 SUB SWAP1 REVERT JUMPDEST STOP JUMPDEST PUSH0 DUP1 REVERT JUMPDEST CALLVALUE DUP1 ISZERO PUSH2 0x318 JUMPI PUSH0 DUP1 REVERT JUMPDEST POP PUSH2 0x333 PUSH1 0x4 DUP1 CALLDATASIZE SUB DUP2 ADD SWAP1 PUSH2 0x32E SWAP2 SWAP1 PUSH2 0x48E4 JUMP JUMPDEST PUSH2 0xCC5 JUMP JUMPDEST PUSH1 0x40 MLOAD PUSH2 0x340 SWAP2 SWAP1 PUSH2 0x4929 JUMP JUMPDEST PUSH1 0x40 MLOAD DUP1 SWAP2 SUB SWAP1 RETURN JUMPDEST CALLVALUE DUP1 ISZERO PUSH2 0x354 JUMPI PUSH0 DUP1 REVERT JUMPDEST POP PUSH2 0x35D PUSH2 0xCD6 JUMP JUMPDEST PUSH1 0x40 MLOAD PUSH2 0x36A SWAP2 SWAP1 PUSH2 0x495A JUMP JUMPDEST PUSH1 0x40 MLOAD DUP1 SWAP2 SUB SWAP1 RETURN JUMPDEST CALLVALUE DUP1 ISZERO PUSH2 0x37E JUMPI PUSH0 DUP1 REVERT JUMPDEST POP PUSH2 0x399 PUSH1 0x4 DUP1 CALLDATASIZE SUB DUP2 ADD SWAP1 PUSH2 0x394 SWAP2 SWAP1 PUSH2 0x499D JUMP JUMPDEST PUSH2 0xCE4 JUMP JUMPDEST STOP JUMPDEST CALLVALUE DUP1 ISZERO PUSH2 0x3A6 JUMPI PUSH0 DUP1 REVERT JUMPDEST POP PUSH2 0x3AF PUSH2 0xCF8 JUMP JUMPDEST PUSH1 0x40 MLOAD PUSH2 0x3BC SWAP2 SWAP1 PUSH2 0x4A52 JUMP JUMPDEST PUSH1 0x40 MLOAD DUP1 SWAP2 SUB SWAP1 RETURN JUMPDEST CALLVALUE DUP1 ISZERO PUSH2 0x3D0 JUMPI PUSH0 DUP1 REVERT JUMPDEST POP PUSH2 0x3EB PUSH1 0x4 DUP1 CALLDATASIZE SUB DUP2 ADD SWAP1 PUSH2 0x3E6 SWAP2 SWAP1 PUSH2 0x499D JUMP JUMPDEST PUSH2 0xD88 JUMP JUMPDEST PUSH1 0x40 MLOAD PUSH2 0x3F8 SWAP2 SWAP1 PUSH2 0x4AB1 JUMP JUMPDEST PUSH1 0x40 MLOAD DUP1 SWAP2 SUB SWAP1 RETURN JUMPDEST CALLVALUE DUP1 ISZERO PUSH2 0x40C JUMPI PUSH0 DUP1 REVERT JUMPDEST POP PUSH2 0x427 PUSH1 0x4 DUP1 CALLDATASIZE SUB DUP2 ADD SWAP1 PUSH2 0x422 SWAP2 SWAP1 PUSH2 0x4C20 JUMP JUMPDEST PUSH2 0xDC3 JUMP JUMPDEST PUSH1 0x40 MLOAD PUSH2 0x434 SWAP2 SWAP1 PUSH2 0x4CAF JUMP JUMPDEST PUSH1 0x40 MLOAD DUP1 SWAP2 SUB SWAP1 RETURN JUMPDEST CALLVALUE DUP1 ISZERO PUSH2 0x448 JUMPI PUSH0 DUP1 REVERT JUMPDEST POP PUSH2 0x463 PUSH1 0x4 DUP1 CALLDATASIZE SUB DUP2 ADD SWAP1 PUSH2 0x45E SWAP2 SWAP1 PUSH2 0x4F5D JUMP JUMPDEST PUSH2 0xE42 JUMP JUMPDEST PUSH1 0x40 MLOAD PUSH2 0x470 SWAP2 SWAP1 PUSH2 0x495A JUMP JUMPDEST PUSH1 0x40 MLOAD DUP1 SWAP2 SUB SWAP1 RETURN JUMPDEST PUSH2 0x493 PUSH1 0x4 DUP1 CALLDATASIZE SUB DUP2 ADD SWAP1 PUSH2 0x48E SWAP2 SWAP1 PUSH2 0x4F5D JUMP JUMPDEST PUSH2 0xF38 JUMP JUMPDEST PUSH1 0x40 MLOAD PUSH2 0x4A0 SWAP2 SWAP1 PUSH2 0x495A JUMP JUMPDEST PUSH1 0x40 MLOAD DUP1 SWAP2 SUB SWAP1 RETURN JUMPDEST CALLVALUE DUP1 ISZERO PUSH2 0x4B4 JUMPI PUSH0 DUP1 REVERT JUMPDEST POP PUSH2 0x4CF PUSH1 0x4 DUP1 CALLDATASIZE SUB DUP2 ADD SWAP1 PUSH2 0x4CA SWAP2 SWAP1 PUSH2 0x499D JUMP JUMPDEST PUSH2 0x1118 JUMP JUMPDEST PUSH1 0x40 MLOAD PUSH2 0x4DC SWAP2 SWAP1 PUSH2 0x495A JUMP JUMPDEST PUSH1 0x40 MLOAD DUP1 SWAP2 SUB SWAP1 RETURN JUMPDEST CALLVALUE DUP1 ISZERO PUSH2 0x4F0 JUMPI PUSH0 DUP1 REVERT JUMPDEST POP PUSH2 0x4F9 PUSH2 0x114E JUMP JUMPDEST PUSH1 0x40 MLOAD PUSH2 0x506 SWAP2 SWAP1 PUSH2 0x5024 JUMP JUMPDEST PUSH1 0x40 MLOAD DUP1 SWAP2 SUB SWAP1 RETURN JUMPDEST CALLVALUE DUP1 ISZERO PUSH2 0x51A JUMPI PUSH0 DUP1 REVERT JUMPDEST POP PUSH2 0x523 PUSH2 0x1172 JUMP JUMPDEST PUSH1 0x40 MLOAD PUSH2 0x530 SWAP2 SWAP1 PUSH2 0x495A JUMP JUMPDEST PUSH1 0x40 MLOAD DUP1 SWAP2 SUB SWAP1 RETURN JUMPDEST CALLVALUE DUP1 ISZERO PUSH2 0x544 JUMPI PUSH0 DUP1 REVERT JUMPDEST POP PUSH2 0x55F PUSH1 0x4 DUP1 CALLDATASIZE SUB DUP2 ADD SWAP1 PUSH2 0x55A SWAP2 SWAP1 PUSH2 0x499D JUMP JUMPDEST PUSH2 0x1180 JUMP JUMPDEST PUSH1 0x40 MLOAD PUSH2 0x56C SWAP2 SWAP1 PUSH2 0x50B0 JUMP JUMPDEST PUSH1 0x40 MLOAD DUP1 SWAP2 SUB SWAP1 RETURN JUMPDEST CALLVALUE DUP1 ISZERO PUSH2 0x580 JUMPI PUSH0 DUP1 REVERT JUMPDEST POP PUSH2 0x59B PUSH1 0x4 DUP1 CALLDATASIZE SUB DUP2 ADD SWAP1 PUSH2 0x596 SWAP2 SWAP1 PUSH2 0x50C9 JUMP JUMPDEST PUSH2 0x1191 JUMP JUMPDEST PUSH1 0x40 MLOAD PUSH2 0x5A8 SWAP2 SWAP1 PUSH2 0x4929 JUMP JUMPDEST PUSH1 0x40 MLOAD DUP1 SWAP2 SUB SWAP1 RETURN JUMPDEST CALLVALUE DUP1 ISZERO PUSH2 0x5BC JUMPI PUSH0 DUP1 REVERT JUMPDEST POP PUSH2 0x5D7 PUSH1 0x4 DUP1 CALLDATASIZE SUB DUP2 ADD SWAP1 PUSH2 0x5D2 SWAP2 SWAP1 PUSH2 0x4F5D JUMP JUMPDEST PUSH2 0x11F6 JUMP JUMPDEST PUSH1 0x40 MLOAD PUSH2 0x5E4 SWAP2 SWAP1 PUSH2 0x495A JUMP JUMPDEST PUSH1 0x40 MLOAD DUP1 SWAP2 SUB SWAP1 RETURN JUMPDEST CALLVALUE DUP1 ISZERO PUSH2 0x5F8 JUMPI PUSH0 DUP1 REVERT JUMPDEST POP PUSH2 0x601 PUSH2 0x12B6 JUMP JUMPDEST PUSH1 0x40 MLOAD PUSH2 0x60E SWAP2 SWAP1 PUSH2 0x4A52 JUMP JUMPDEST PUSH1 0x40 MLOAD DUP1 SWAP2 SUB SWAP1 RETURN JUMPDEST CALLVALUE DUP1 ISZERO PUSH2 0x622 JUMPI PUSH0 DUP1 REVERT JUMPDEST POP PUSH2 0x63D PUSH1 0x4 DUP1 CALLDATASIZE SUB DUP2 ADD SWAP1 PUSH2 0x638 SWAP2 SWAP1 PUSH2 0x499D JUMP JUMPDEST PUSH2 0x1373 JUMP JUMPDEST PUSH1 0x40 MLOAD PUSH2 0x64C SWAP4 SWAP3 SWAP2 SWAP1 PUSH2 0x5107 JUMP JUMPDEST PUSH1 0x40 MLOAD DUP1 SWAP2 SUB SWAP1 RETURN JUMPDEST CALLVALUE DUP1 ISZERO PUSH2 0x660 JUMPI PUSH0 DUP1 REVERT JUMPDEST POP PUSH2 0x669 PUSH2 0x13A6 JUMP JUMPDEST PUSH1 0x40 MLOAD PUSH2 0x676 SWAP2 SWAP1 PUSH2 0x4A52 JUMP JUMPDEST PUSH1 0x40 MLOAD DUP1 SWAP2 SUB SWAP1 RETURN JUMPDEST CALLVALUE DUP1 ISZERO PUSH2 0x68A JUMPI PUSH0 DUP1 REVERT JUMPDEST POP PUSH2 0x6A5 PUSH1 0x4 DUP1 CALLDATASIZE SUB DUP2 ADD SWAP1 PUSH2 0x6A0 SWAP2 SWAP1 PUSH2 0x5172 JUMP JUMPDEST PUSH2 0x13E3 JUMP JUMPDEST PUSH1 0x40 MLOAD PUSH2 0x6B2 SWAP2 SWAP1 PUSH2 0x495A JUMP JUMPDEST PUSH1 0x40 MLOAD DUP1 SWAP2 SUB SWAP1 RETURN JUMPDEST CALLVALUE DUP1 ISZERO PUSH2 0x6C6 JUMPI PUSH0 DUP1 REVERT JUMPDEST POP PUSH2 0x6E1 PUSH1 0x4 DUP1 CALLDATASIZE SUB DUP2 ADD SWAP1 PUSH2 0x6DC SWAP2 SWAP1 PUSH2 0x5209 JUMP JUMPDEST PUSH2 0x1412 JUMP JUMPDEST PUSH1 0x40 MLOAD PUSH2 0x6EE SWAP2 SWAP1 PUSH2 0x495A JUMP JUMPDEST PUSH1 0x40 MLOAD DUP1 SWAP2 SUB SWAP1 RETURN JUMPDEST CALLVALUE DUP1 ISZERO PUSH2 0x702 JUMPI PUSH0 DUP1 REVERT JUMPDEST POP PUSH2 0x71D PUSH1 0x4 DUP1 CALLDATASIZE SUB DUP2 ADD SWAP1 PUSH2 0x718 SWAP2 SWAP1 PUSH2 0x52EB JUMP JUMPDEST PUSH2 0x1541 JUMP JUMPDEST PUSH1 0x40 MLOAD PUSH2 0x72A SWAP2 SWAP1 PUSH2 0x495A JUMP JUMPDEST PUSH1 0x40 MLOAD DUP1 SWAP2 SUB SWAP1 RETURN JUMPDEST CALLVALUE DUP1 ISZERO PUSH2 0x73E JUMPI PUSH0 DUP1 REVERT JUMPDEST POP PUSH2 0x759 PUSH1 0x4 DUP1 CALLDATASIZE SUB DUP2 ADD SWAP1 PUSH2 0x754 SWAP2 SWAP1 PUSH2 0x499D JUMP JUMPDEST PUSH2 0x15A9 JUMP JUMPDEST PUSH1 0x40 MLOAD PUSH2 0x766 SWAP2 SWAP1 PUSH2 0x495A JUMP JUMPDEST PUSH1 0x40 MLOAD DUP1 SWAP2 SUB SWAP1 RETURN JUMPDEST CALLVALUE DUP1 ISZERO PUSH2 0x77A JUMPI PUSH0 DUP1 REVERT JUMPDEST POP PUSH2 0x795 PUSH1 0x4 DUP1 CALLDATASIZE SUB DUP2 ADD SWAP1 PUSH2 0x790 SWAP2 SWAP1 PUSH2 0x53C6 JUMP JUMPDEST PUSH2 0x16A2 JUMP JUMPDEST STOP JUMPDEST CALLVALUE DUP1 ISZERO PUSH2 0x7A2 JUMPI PUSH0 DUP1 REVERT JUMPDEST POP PUSH2 0x7BD PUSH1 0x4 DUP1 CALLDATASIZE SUB DUP2 ADD SWAP1 PUSH2 0x7B8 SWAP2 SWAP1 PUSH2 0x53F1 JUMP JUMPDEST PUSH2 0x16B6 JUMP JUMPDEST PUSH1 0x40 MLOAD PUSH2 0x7CA SWAP2 SWAP1 PUSH2 0x495A JUMP JUMPDEST PUSH1 0x40 MLOAD DUP1 SWAP2 SUB SWAP1 RETURN JUMPDEST CALLVALUE DUP1 ISZERO PUSH2 0x7DE JUMPI PUSH0 DUP1 REVERT JUMPDEST POP PUSH2 0x7F9 PUSH1 0x4 DUP1 CALLDATASIZE SUB DUP2 ADD SWAP1 PUSH2 0x7F4 SWAP2 SWAP1 PUSH2 0x5500 JUMP JUMPDEST PUSH2 0x171C JUMP JUMPDEST PUSH1 0x40 MLOAD PUSH2 0x806 SWAP2 SWAP1 PUSH2 0x495A JUMP JUMPDEST PUSH1 0x40 MLOAD DUP1 SWAP2 SUB SWAP1 RETURN JUMPDEST CALLVALUE DUP1 ISZERO PUSH2 0x81A JUMPI PUSH0 DUP1 REVERT JUMPDEST POP PUSH2 0x835 PUSH1 0x4 DUP1 CALLDATASIZE SUB DUP2 ADD SWAP1 PUSH2 0x830 SWAP2 SWAP1 PUSH2 0x55D4 JUMP JUMPDEST PUSH2 0x1809 JUMP JUMPDEST PUSH1 0x40 MLOAD PUSH2 0x842 SWAP2 SWAP1 PUSH2 0x495A JUMP JUMPDEST PUSH1 0x40 MLOAD DUP1 SWAP2 SUB SWAP1 RETURN JUMPDEST CALLVALUE DUP1 ISZERO PUSH2 0x856 JUMPI PUSH0 DUP1 REVERT JUMPDEST POP PUSH2 0x85F PUSH2 0x184F JUMP JUMPDEST PUSH1 0x40 MLOAD PUSH2 0x872 SWAP8 SWAP7 SWAP6 SWAP5 SWAP4 SWAP3 SWAP2 SWAP1 PUSH2 0x56F0 JUMP JUMPDEST PUSH1 0x40 MLOAD DUP1 SWAP2 SUB SWAP1 RETURN JUMPDEST CALLVALUE DUP1 ISZERO PUSH2 0x886 JUMPI PUSH0 DUP1 REVERT JUMPDEST POP PUSH2 0x8A1 PUSH1 0x4 DUP1 CALLDATASIZE SUB DUP2 ADD SWAP1 PUSH2 0x89C SWAP2 SWAP1 PUSH2 0x5772 JUMP JUMPDEST PUSH2 0x18F4 JUMP JUMPDEST PUSH1 0x40 MLOAD PUSH2 0x8AE SWAP2 SWAP1 PUSH2 0x495A JUMP JUMPDEST PUSH1 0x40 MLOAD DUP1 SWAP2 SUB SWAP1 RETURN JUMPDEST CALLVALUE DUP1 ISZERO PUSH2 0x8C2 JUMPI PUSH0 DUP1 REVERT JUMPDEST POP PUSH2 0x8CB PUSH2 0x19C8 JUMP JUMPDEST PUSH1 0x40 MLOAD PUSH2 0x8D8 SWAP2 SWAP1 PUSH2 0x5801 JUMP JUMPDEST PUSH1 0x40 MLOAD DUP1 SWAP2 SUB SWAP1 RETURN JUMPDEST CALLVALUE DUP1 ISZERO PUSH2 0x8EC JUMPI PUSH0 DUP1 REVERT JUMPDEST POP PUSH2 0x8F5 PUSH2 0x1A53 JUMP JUMPDEST PUSH1 0x40 MLOAD PUSH2 0x902 SWAP2 SWAP1 PUSH2 0x495A JUMP JUMPDEST PUSH1 0x40 MLOAD DUP1 SWAP2 SUB SWAP1 RETURN JUMPDEST CALLVALUE DUP1 ISZERO PUSH2 0x916 JUMPI PUSH0 DUP1 REVERT JUMPDEST POP PUSH2 0x931 PUSH1 0x4 DUP1 CALLDATASIZE SUB DUP2 ADD SWAP1 PUSH2 0x92C SWAP2 SWAP1 PUSH2 0x581A JUMP JUMPDEST PUSH2 0x1A5B JUMP JUMPDEST PUSH1 0x40 MLOAD PUSH2 0x93E SWAP2 SWAP1 PUSH2 0x495A JUMP JUMPDEST PUSH1 0x40 MLOAD DUP1 SWAP2 SUB SWAP1 RETURN JUMPDEST CALLVALUE DUP1 ISZERO PUSH2 0x952 JUMPI PUSH0 DUP1 REVERT JUMPDEST POP PUSH2 0x95B PUSH2 0x1A70 JUMP JUMPDEST PUSH1 0x40 MLOAD PUSH2 0x968 SWAP2 SWAP1 PUSH2 0x495A JUMP JUMPDEST PUSH1 0x40 MLOAD DUP1 SWAP2 SUB SWAP1 RETURN JUMPDEST CALLVALUE DUP1 ISZERO PUSH2 0x97C JUMPI PUSH0 DUP1 REVERT JUMPDEST POP PUSH2 0x997 PUSH1 0x4 DUP1 CALLDATASIZE SUB DUP2 ADD SWAP1 PUSH2 0x992 SWAP2 SWAP1 PUSH2 0x58D2 JUMP JUMPDEST PUSH2 0x1A9C JUMP JUMPDEST STOP JUMPDEST CALLVALUE DUP1 ISZERO PUSH2 0x9A4 JUMPI PUSH0 DUP1 REVERT JUMPDEST POP PUSH2 0x9BF PUSH1 0x4 DUP1 CALLDATASIZE SUB DUP2 ADD SWAP1 PUSH2 0x9BA SWAP2 SWAP1 PUSH2 0x499D JUMP JUMPDEST PUSH2 0x1AB0 JUMP JUMPDEST PUSH1 0x40 MLOAD PUSH2 0x9CC SWAP2 SWAP1 PUSH2 0x4929 JUMP JUMPDEST PUSH1 0x40 MLOAD DUP1 SWAP2 SUB SWAP1 RETURN JUMPDEST CALLVALUE DUP1 ISZERO PUSH2 0x9E0 JUMPI PUSH0 DUP1 REVERT JUMPDEST POP PUSH2 0x9FB PUSH1 0x4 DUP1 CALLDATASIZE SUB DUP2 ADD SWAP1 PUSH2 0x9F6 SWAP2 SWAP1 PUSH2 0x499D JUMP JUMPDEST PUSH2 0x1AC1 JUMP JUMPDEST PUSH1 0x40 MLOAD PUSH2 0xA08 SWAP2 SWAP1 PUSH2 0x495A JUMP JUMPDEST PUSH1 0x40 MLOAD DUP1 SWAP2 SUB SWAP1 RETURN JUMPDEST CALLVALUE DUP1 ISZERO PUSH2 0xA1C JUMPI PUSH0 DUP1 REVERT JUMPDEST POP PUSH2 0xA25 PUSH2 0x1AF7 JUMP JUMPDEST PUSH1 0x40 MLOAD PUSH2 0xA32 SWAP2 SWAP1 PUSH2 0x495A JUMP JUMPDEST PUSH1 0x40 MLOAD DUP1 SWAP2 SUB SWAP1 RETURN JUMPDEST CALLVALUE DUP1 ISZERO PUSH2 0xA46 JUMPI PUSH0 DUP1 REVERT JUMPDEST POP PUSH2 0xA61 PUSH1 0x4 DUP1 CALLDATASIZE SUB DUP2 ADD SWAP1 PUSH2 0xA5C SWAP2 SWAP1 PUSH2 0x58FD JUMP JUMPDEST PUSH2 0x1B05 JUMP JUMPDEST PUSH1 0x40 MLOAD PUSH2 0xA6E SWAP2 SWAP1 PUSH2 0x4CAF JUMP JUMPDEST PUSH1 0x40 MLOAD DUP1 SWAP2 SUB SWAP1 RETURN JUMPDEST CALLVALUE DUP1 ISZERO PUSH2 0xA82 JUMPI PUSH0 DUP1 REVERT JUMPDEST POP PUSH2 0xA9D PUSH1 0x4 DUP1 CALLDATASIZE SUB DUP2 ADD SWAP1 PUSH2 0xA98 SWAP2 SWAP1 PUSH2 0x499D JUMP JUMPDEST PUSH2 0x1B85 JUMP JUMPDEST PUSH1 0x40 MLOAD PUSH2 0xAAA SWAP2 SWAP1 PUSH2 0x495A JUMP JUMPDEST PUSH1 0x40 MLOAD DUP1 SWAP2 SUB SWAP1 RETURN JUMPDEST PUSH2 0xACD PUSH1 0x4 DUP1 CALLDATASIZE SUB DUP2 ADD SWAP1 PUSH2 0xAC8 SWAP2 SWAP1 PUSH2 0x5A1D JUMP JUMPDEST PUSH2 0x1BEF JUMP JUMPDEST STOP JUMPDEST CALLVALUE DUP1 ISZERO PUSH2 0xADA JUMPI PUSH0 DUP1 REVERT JUMPDEST POP PUSH2 0xAF5 PUSH1 0x4 DUP1 CALLDATASIZE SUB DUP2 ADD SWAP1 PUSH2 0xAF0 SWAP2 SWAP1 PUSH2 0x4F5D JUMP JUMPDEST PUSH2 0x1C78 JUMP JUMPDEST PUSH1 0x40 MLOAD PUSH2 0xB02 SWAP2 SWAP1 PUSH2 0x495A JUMP JUMPDEST PUSH1 0x40 MLOAD DUP1 SWAP2 SUB SWAP1 RETURN JUMPDEST CALLVALUE DUP1 ISZERO PUSH2 0xB16 JUMPI PUSH0 DUP1 REVERT JUMPDEST POP PUSH2 0xB1F PUSH2 0x1CB2 JUMP JUMPDEST PUSH1 0x40 MLOAD PUSH2 0xB2C SWAP2 SWAP1 PUSH2 0x4AB1 JUMP JUMPDEST PUSH1 0x40 MLOAD DUP1 SWAP2 SUB SWAP1 RETURN JUMPDEST CALLVALUE DUP1 ISZERO PUSH2 0xB40 JUMPI PUSH0 DUP1 REVERT JUMPDEST POP PUSH2 0xB49 PUSH2 0x1CDA JUMP JUMPDEST PUSH1 0x40 MLOAD PUSH2 0xB56 SWAP2 SWAP1 PUSH2 0x4A52 JUMP JUMPDEST PUSH1 0x40 MLOAD DUP1 SWAP2 SUB SWAP1 RETURN JUMPDEST CALLVALUE DUP1 ISZERO PUSH2 0xB6A JUMPI PUSH0 DUP1 REVERT JUMPDEST POP PUSH2 0xB73 PUSH2 0x1D17 JUMP JUMPDEST PUSH1 0x40 MLOAD PUSH2 0xB80 SWAP2 SWAP1 PUSH2 0x5024 JUMP JUMPDEST PUSH1 0x40 MLOAD DUP1 SWAP2 SUB SWAP1 RETURN JUMPDEST CALLVALUE DUP1 ISZERO PUSH2 0xB94 JUMPI PUSH0 DUP1 REVERT JUMPDEST POP PUSH2 0xBAF PUSH1 0x4 DUP1 CALLDATASIZE SUB DUP2 ADD SWAP1 PUSH2 0xBAA SWAP2 SWAP1 PUSH2 0x5AC7 JUMP JUMPDEST PUSH2 0x1D3B JUMP JUMPDEST STOP JUMPDEST CALLVALUE DUP1 ISZERO PUSH2 0xBBC JUMPI PUSH0 DUP1 REVERT JUMPDEST POP PUSH2 0xBD7 PUSH1 0x4 DUP1 CALLDATASIZE SUB DUP2 ADD SWAP1 PUSH2 0xBD2 SWAP2 SWAP1 PUSH2 0x5AF2 JUMP JUMPDEST PUSH2 0x1D4F JUMP JUMPDEST PUSH1 0x40 MLOAD PUSH2 0xBE4 SWAP2 SWAP1 PUSH2 0x495A JUMP JUMPDEST PUSH1 0x40 MLOAD DUP1 SWAP2 SUB SWAP1 RETURN JUMPDEST CALLVALUE DUP1 ISZERO PUSH2 0xBF8 JUMPI PUSH0 DUP1 REVERT JUMPDEST POP PUSH2 0xC13 PUSH1 0x4 DUP1 CALLDATASIZE SUB DUP2 ADD SWAP1 PUSH2 0xC0E SWAP2 SWAP1 PUSH2 0x499D JUMP JUMPDEST PUSH2 0x1D6A JUMP JUMPDEST STOP JUMPDEST CALLVALUE DUP1 ISZERO PUSH2 0xC20 JUMPI PUSH0 DUP1 REVERT JUMPDEST POP PUSH2 0xC3B PUSH1 0x4 DUP1 CALLDATASIZE SUB DUP2 ADD SWAP1 PUSH2 0xC36 SWAP2 SWAP1 PUSH2 0x5B30 JUMP JUMPDEST PUSH2 0x1D7E JUMP JUMPDEST PUSH1 0x40 MLOAD PUSH2 0xC48 SWAP2 SWAP1 PUSH2 0x4CAF JUMP JUMPDEST PUSH1 0x40 MLOAD DUP1 SWAP2 SUB SWAP1 RETURN JUMPDEST CALLVALUE DUP1 ISZERO PUSH2 0xC5C JUMPI PUSH0 DUP1 REVERT JUMPDEST POP PUSH2 0xC77 PUSH1 0x4 DUP1 CALLDATASIZE SUB DUP2 ADD SWAP1 PUSH2 0xC72 SWAP2 SWAP1 PUSH2 0x499D JUMP JUMPDEST PUSH2 0x1DFE JUMP JUMPDEST PUSH1 0x40 MLOAD PUSH2 0xC84 SWAP2 SWAP1 PUSH2 0x495A JUMP JUMPDEST PUSH1 0x40 MLOAD DUP1 SWAP2 SUB SWAP1 RETURN JUMPDEST CALLVALUE DUP1 ISZERO PUSH2 0xC98 JUMPI PUSH0 DUP1 REVERT JUMPDEST POP PUSH2 0xCA1 PUSH2 0x1E0F JUMP JUMPDEST PUSH1 0x40 MLOAD PUSH2 0xCAE SWAP2 SWAP1 PUSH2 0x5C1E JUMP JUMPDEST PUSH1 0x40 MLOAD DUP1 SWAP2 SUB SWAP1 RETURN JUMPDEST PUSH0 PUSH2 0xCC0 PUSH2 0x1E36 JUMP JUMPDEST SWAP1 POP SWAP1 JUMP JUMPDEST PUSH0 PUSH2 0xCCF DUP3 PUSH2 0x1E5E JUMP JUMPDEST SWAP1 POP SWAP2 SWAP1 POP JUMP JUMPDEST PUSH0 PUSH2 0xCDF PUSH2 0x1F3F JUMP JUMPDEST SWAP1 POP SWAP1 JUMP JUMPDEST PUSH2 0xCEC PUSH2 0x1F5E JUMP JUMPDEST PUSH2 0xCF5 DUP2 PUSH2 0x2053 JUMP JUMPDEST POP JUMP JUMPDEST PUSH1 0x60 PUSH1 0x3 DUP1 SLOAD PUSH2 0xD07 SWAP1 PUSH2 0x5C64 JUMP JUMPDEST DUP1 PUSH1 0x1F ADD PUSH1 0x20 DUP1 SWAP2 DIV MUL PUSH1 0x20 ADD PUSH1 0x40 MLOAD SWAP1 DUP2 ADD PUSH1 0x40 MSTORE DUP1 SWAP3 SWAP2 SWAP1 DUP2 DUP2 MSTORE PUSH1 0x20 ADD DUP3 DUP1 SLOAD PUSH2 0xD33 SWAP1 PUSH2 0x5C64 JUMP JUMPDEST DUP1 ISZERO PUSH2 0xD7E JUMPI DUP1 PUSH1 0x1F LT PUSH2 0xD55 JUMPI PUSH2 0x100 DUP1 DUP4 SLOAD DIV MUL DUP4 MSTORE SWAP2 PUSH1 0x20 ADD SWAP2 PUSH2 0xD7E JUMP JUMPDEST DUP3 ADD SWAP2 SWAP1 PUSH0 MSTORE PUSH1 0x20 PUSH0 KECCAK256 SWAP1 JUMPDEST DUP2 SLOAD DUP2 MSTORE SWAP1 PUSH1 0x1 ADD SWAP1 PUSH1 0x20 ADD DUP1 DUP4 GT PUSH2 0xD61 JUMPI DUP3 SWAP1 SUB PUSH1 0x1F AND DUP3 ADD SWAP2 JUMPDEST POP POP POP POP POP SWAP1 POP SWAP1 JUMP JUMPDEST PUSH0 PUSH1 0x4 PUSH0 DUP4 DUP2 MSTORE PUSH1 0x20 ADD SWAP1 DUP2 MSTORE PUSH1 0x20 ADD PUSH0 KECCAK256 PUSH0 ADD PUSH0 SWAP1 SLOAD SWAP1 PUSH2 0x100 EXP SWAP1 DIV PUSH20 0xFFFFFFFFFFFFFFFFFFFFFFFFFFFFFFFFFFFFFFFF AND SWAP1 POP SWAP2 SWAP1 POP JUMP JUMPDEST PUSH0 ADDRESS PUSH20 0xFFFFFFFFFFFFFFFFFFFFFFFFFFFFFFFFFFFFFFFF AND PUSH2 0xDE3 PUSH2 0xCB7 JUMP JUMPDEST PUSH20 0xFFFFFFFFFFFFFFFFFFFFFFFFFFFFFFFFFFFFFFFF AND EQ PUSH2 0xE30 JUMPI PUSH1 0x40 MLOAD PUSH32 0xE90A651E00000000000000000000000000000000000000000000000000000000 DUP2 MSTORE PUSH1 0x4 ADD PUSH1 0x40 MLOAD DUP1 SWAP2 SUB SWAP1 REVERT JUMPDEST PUSH4 0x150B7A02 PUSH1 0xE0 SHL SWAP1 POP SWAP5 SWAP4 POP POP POP POP JUMP JUMPDEST PUSH0 DUP1 PUSH2 0xE50 DUP7 DUP7 DUP7 DUP7 PUSH2 0x1C78 JUMP JUMPDEST SWAP1 POP PUSH2 0xE65 DUP2 PUSH2 0xE60 PUSH1 0x4 PUSH2 0x2115 JUMP JUMPDEST PUSH2 0x2139 JUMP JUMPDEST POP PUSH0 PUSH2 0xE74 DUP3 DUP9 DUP9 DUP9 DUP9 PUSH2 0x21A4 JUMP JUMPDEST SWAP1 POP PUSH0 DUP2 PUSH6 0xFFFFFFFFFFFF AND EQ PUSH2 0xEF9 JUMPI DUP1 PUSH1 0x4 PUSH0 DUP5 DUP2 MSTORE PUSH1 0x20 ADD SWAP1 DUP2 MSTORE PUSH1 0x20 ADD PUSH0 KECCAK256 PUSH1 0x1 ADD PUSH0 PUSH2 0x100 EXP DUP2 SLOAD DUP2 PUSH6 0xFFFFFFFFFFFF MUL NOT AND SWAP1 DUP4 PUSH6 0xFFFFFFFFFFFF AND MUL OR SWAP1 SSTORE POP PUSH32 0x9A2E42FD6722813D69113E7D0079D3D940171428DF7373DF9C7F7617CFDA2892 DUP3 DUP3 PUSH1 0x40 MLOAD PUSH2 0xEEC SWAP3 SWAP2 SWAP1 PUSH2 0x5CC4 JUMP JUMPDEST PUSH1 0x40 MLOAD DUP1 SWAP2 SUB SWAP1 LOG1 PUSH2 0xF2B JUMP JUMPDEST PUSH1 0x40 MLOAD PUSH32 0x90884A4600000000000000000000000000000000000000000000000000000000 DUP2 MSTORE PUSH1 0x4 ADD PUSH1 0x40 MLOAD DUP1 SWAP2 SUB SWAP1 REVERT JUMPDEST DUP2 SWAP3 POP POP POP SWAP5 SWAP4 POP POP POP POP JUMP JUMPDEST PUSH0 DUP1 PUSH2 0xF46 DUP7 DUP7 DUP7 DUP7 PUSH2 0x1C78 JUMP JUMPDEST SWAP1 POP PUSH2 0xF66 DUP2 PUSH2 0xF56 PUSH1 0x5 PUSH2 0x2115 JUMP JUMPDEST PUSH2 0xF60 PUSH1 0x4 PUSH2 0x2115 JUMP JUMPDEST OR PUSH2 0x2139 JUMP JUMPDEST POP PUSH1 0x1 PUSH1 0x4 PUSH0 DUP4 DUP2 MSTORE PUSH1 0x20 ADD SWAP1 DUP2 MSTORE PUSH1 0x20 ADD PUSH0 KECCAK256 PUSH0 ADD PUSH1 0x1E PUSH2 0x100 EXP DUP2 SLOAD DUP2 PUSH1 0xFF MUL NOT AND SWAP1 DUP4 ISZERO ISZERO MUL OR SWAP1 SSTORE POP ADDRESS PUSH20 0xFFFFFFFFFFFFFFFFFFFFFFFFFFFFFFFFFFFFFFFF AND PUSH2 0xFB2 PUSH2 0xCB7 JUMP JUMPDEST PUSH20 0xFFFFFFFFFFFFFFFFFFFFFFFFFFFFFFFFFFFFFFFF AND EQ PUSH2 0x106E JUMPI PUSH0 JUMPDEST DUP7 MLOAD DUP2 LT ISZERO PUSH2 0x106C JUMPI ADDRESS PUSH20 0xFFFFFFFFFFFFFFFFFFFFFFFFFFFFFFFFFFFFFFFF AND DUP8 DUP3 DUP2 MLOAD DUP2 LT PUSH2 0x1002 JUMPI PUSH2 0x1001 PUSH2 0x5CEB JUMP JUMPDEST JUMPDEST PUSH1 0x20 MUL PUSH1 0x20 ADD ADD MLOAD PUSH20 0xFFFFFFFFFFFFFFFFFFFFFFFFFFFFFFFFFFFFFFFF AND SUB PUSH2 0x105B JUMPI PUSH2 0x105A DUP6 DUP3 DUP2 MLOAD DUP2 LT PUSH2 0x103B JUMPI PUSH2 0x103A PUSH2 0x5CEB JUMP JUMPDEST JUMPDEST PUSH1 0x20 MUL PUSH1 0x20 ADD ADD MLOAD DUP1 MLOAD SWAP1 PUSH1 0x20 ADD KECCAK256 PUSH1 0x5 PUSH2 0x21BD SWAP1 SWAP2 SWAP1 PUSH4 0xFFFFFFFF AND JUMP JUMPDEST JUMPDEST DUP1 PUSH2 0x1065 SWAP1 PUSH2 0x5D45 JUMP JUMPDEST SWAP1 POP PUSH2 0xFCF JUMP JUMPDEST POP JUMPDEST PUSH2 0x107B DUP2 DUP8 DUP8 DUP8 DUP8 PUSH2 0x22DC JUMP JUMPDEST ADDRESS PUSH20 0xFFFFFFFFFFFFFFFFFFFFFFFFFFFFFFFFFFFFFFFF AND PUSH2 0x109A PUSH2 0xCB7 JUMP JUMPDEST PUSH20 0xFFFFFFFFFFFFFFFFFFFFFFFFFFFFFFFFFFFFFFFF AND EQ ISZERO DUP1 ISZERO PUSH2 0x10C5 JUMPI POP PUSH2 0x10C3 PUSH1 0x5 PUSH2 0x22F0 JUMP JUMPDEST ISZERO JUMPDEST ISZERO PUSH2 0x10D5 JUMPI PUSH2 0x10D4 PUSH1 0x5 PUSH2 0x235C JUMP JUMPDEST JUMPDEST PUSH32 0x712AE1383F79AC853F8D882153778E0260EF8F03B504E2866E0593E04D2B291F DUP2 PUSH1 0x40 MLOAD PUSH2 0x1104 SWAP2 SWAP1 PUSH2 0x495A JUMP JUMPDEST PUSH1 0x40 MLOAD DUP1 SWAP2 SUB SWAP1 LOG1 DUP1 SWAP2 POP POP SWAP5 SWAP4 POP POP POP POP JUMP JUMPDEST PUSH0 PUSH1 0x4 PUSH0 DUP4 DUP2 MSTORE PUSH1 0x20 ADD SWAP1 DUP2 MSTORE PUSH1 0x20 ADD PUSH0 KECCAK256 PUSH0 ADD PUSH1 0x14 SWAP1 SLOAD SWAP1 PUSH2 0x100 EXP SWAP1 DIV PUSH6 0xFFFFFFFFFFFF AND PUSH6 0xFFFFFFFFFFFF AND SWAP1 POP SWAP2 SWAP1 POP JUMP JUMPDEST PUSH32 0x3E83946653575F9A39005E1545185629E92736B7528AB20CA3816F315424A811 DUP2 JUMP JUMPDEST PUSH0 PUSH2 0x117B PUSH2 0x23D2 JUMP JUMPDEST SWAP1 POP SWAP1 JUMP JUMPDEST PUSH0 PUSH2 0x118A DUP3 PUSH2 0x23F4 JUMP JUMPDEST SWAP1 POP SWAP2 SWAP1 POP JUMP JUMPDEST PUSH0 PUSH1 0x9 PUSH0 DUP5 DUP2 MSTORE PUSH1 0x20 ADD SWAP1 DUP2 MSTORE PUSH1 0x20 ADD PUSH0 KECCAK256 PUSH1 0x3 ADD PUSH0 DUP4 PUSH20 0xFFFFFFFFFFFFFFFFFFFFFFFFFFFFFFFFFFFFFFFF AND PUSH20 0xFFFFFFFFFFFFFFFFFFFFFFFFFFFFFFFFFFFFFFFF AND DUP2 MSTORE PUSH1 0x20 ADD SWAP1 DUP2 MSTORE PUSH1 0x20 ADD PUSH0 KECCAK256 PUSH0 SWAP1 SLOAD SWAP1 PUSH2 0x100 EXP SWAP1 DIV PUSH1 0xFF AND SWAP1 POP SWAP3 SWAP2 POP POP JUMP JUMPDEST PUSH0 DUP1 PUSH2 0x1204 DUP7 DUP7 DUP7 DUP7 PUSH2 0x1C78 JUMP JUMPDEST SWAP1 POP PUSH2 0x1218 DUP2 PUSH2 0x1213 PUSH0 PUSH2 0x2115 JUMP JUMPDEST PUSH2 0x2139 JUMP JUMPDEST POP PUSH2 0x1222 DUP2 PUSH2 0xD88 JUMP JUMPDEST PUSH20 0xFFFFFFFFFFFFFFFFFFFFFFFFFFFFFFFFFFFFFFFF AND PUSH2 0x1240 PUSH2 0x25A9 JUMP JUMPDEST PUSH20 0xFFFFFFFFFFFFFFFFFFFFFFFFFFFFFFFFFFFFFFFF AND EQ PUSH2 0x129F JUMPI PUSH2 0x1263 PUSH2 0x25A9 JUMP JUMPDEST PUSH1 0x40 MLOAD PUSH32 0x233D98E300000000000000000000000000000000000000000000000000000000 DUP2 MSTORE PUSH1 0x4 ADD PUSH2 0x1296 SWAP2 SWAP1 PUSH2 0x4AB1 JUMP JUMPDEST PUSH1 0x40 MLOAD DUP1 SWAP2 SUB SWAP1 REVERT JUMPDEST PUSH2 0x12AB DUP7 DUP7 DUP7 DUP7 PUSH2 0x25B0 JUMP JUMPDEST SWAP2 POP POP SWAP5 SWAP4 POP POP POP POP JUMP JUMPDEST PUSH1 0x60 PUSH2 0x12C0 PUSH2 0x1E0F JUMP JUMPDEST PUSH20 0xFFFFFFFFFFFFFFFFFFFFFFFFFFFFFFFFFFFFFFFF AND PUSH4 0x4BF5D7E9 PUSH1 0x40 MLOAD DUP2 PUSH4 0xFFFFFFFF AND PUSH1 0xE0 SHL DUP2 MSTORE PUSH1 0x4 ADD PUSH0 PUSH1 0x40 MLOAD DUP1 DUP4 SUB DUP2 DUP7 GAS STATICCALL SWAP3 POP POP POP DUP1 ISZERO PUSH2 0x132A JUMPI POP PUSH1 0x40 MLOAD RETURNDATASIZE PUSH0 DUP3 RETURNDATACOPY RETURNDATASIZE PUSH1 0x1F NOT PUSH1 0x1F DUP3 ADD AND DUP3 ADD DUP1 PUSH1 0x40 MSTORE POP DUP2 ADD SWAP1 PUSH2 0x1327 SWAP2 SWAP1 PUSH2 0x5DFA JUMP JUMPDEST PUSH1 0x1 JUMPDEST PUSH2 0x136B JUMPI PUSH1 0x40 MLOAD DUP1 PUSH1 0x40 ADD PUSH1 0x40 MSTORE DUP1 PUSH1 0x1D DUP2 MSTORE PUSH1 0x20 ADD PUSH32 0x6D6F64653D626C6F636B6E756D6265722666726F6D3D64656661756C74000000 DUP2 MSTORE POP SWAP1 POP PUSH2 0x1370 JUMP JUMPDEST DUP1 SWAP2 POP POP JUMPDEST SWAP1 JUMP JUMPDEST PUSH0 DUP1 PUSH0 DUP1 PUSH1 0x9 PUSH0 DUP7 DUP2 MSTORE PUSH1 0x20 ADD SWAP1 DUP2 MSTORE PUSH1 0x20 ADD PUSH0 KECCAK256 SWAP1 POP DUP1 PUSH0 ADD SLOAD DUP2 PUSH1 0x1 ADD SLOAD DUP3 PUSH1 0x2 ADD SLOAD SWAP4 POP SWAP4 POP SWAP4 POP POP SWAP2 SWAP4 SWAP1 SWAP3 POP JUMP JUMPDEST PUSH1 0x60 PUSH1 0x40 MLOAD DUP1 PUSH1 0x40 ADD PUSH1 0x40 MSTORE DUP1 PUSH1 0x1 DUP2 MSTORE PUSH1 0x20 ADD PUSH32 0x3100000000000000000000000000000000000000000000000000000000000000 DUP2 MSTORE POP SWAP1 POP SWAP1 JUMP JUMPDEST PUSH0 DUP1 PUSH2 0x13ED PUSH2 0x25A9 JUMP JUMPDEST SWAP1 POP PUSH2 0x1409 DUP5 DUP3 DUP6 PUSH1 0x40 MLOAD DUP1 PUSH1 0x20 ADD PUSH1 0x40 MSTORE DUP1 PUSH0 DUP2 MSTORE POP PUSH2 0x25C7 JUMP JUMPDEST SWAP2 POP POP SWAP3 SWAP2 POP POP JUMP JUMPDEST PUSH0 DUP1 PUSH2 0x149F DUP8 PUSH2 0x1499 PUSH32 0x3E83946653575F9A39005E1545185629E92736B7528AB20CA3816F315424A811 DUP13 DUP13 DUP13 PUSH2 0x1448 DUP15 PUSH2 0x25E6 JUMP JUMPDEST DUP14 DUP14 PUSH1 0x40 MLOAD PUSH2 0x1458 SWAP3 SWAP2 SWAP1 PUSH2 0x5E6F JUMP JUMPDEST PUSH1 0x40 MLOAD DUP1 SWAP2 SUB SWAP1 KECCAK256 DUP13 DUP1 MLOAD SWAP1 PUSH1 0x20 ADD KECCAK256 PUSH1 0x40 MLOAD PUSH1 0x20 ADD PUSH2 0x147E SWAP8 SWAP7 SWAP6 SWAP5 SWAP4 SWAP3 SWAP2 SWAP1 PUSH2 0x5E96 JUMP JUMPDEST PUSH1 0x40 MLOAD PUSH1 0x20 DUP2 DUP4 SUB SUB DUP2 MSTORE SWAP1 PUSH1 0x40 MSTORE DUP1 MLOAD SWAP1 PUSH1 0x20 ADD KECCAK256 PUSH2 0x2639 JUMP JUMPDEST DUP6 PUSH2 0x2652 JUMP JUMPDEST SWAP1 POP DUP1 PUSH2 0x14E3 JUMPI DUP7 PUSH1 0x40 MLOAD PUSH32 0x94AB6C0700000000000000000000000000000000000000000000000000000000 DUP2 MSTORE PUSH1 0x4 ADD PUSH2 0x14DA SWAP2 SWAP1 PUSH2 0x4AB1 JUMP JUMPDEST PUSH1 0x40 MLOAD DUP1 SWAP2 SUB SWAP1 REVERT JUMPDEST PUSH2 0x1533 DUP10 DUP9 DUP11 DUP10 DUP10 DUP1 DUP1 PUSH1 0x1F ADD PUSH1 0x20 DUP1 SWAP2 DIV MUL PUSH1 0x20 ADD PUSH1 0x40 MLOAD SWAP1 DUP2 ADD PUSH1 0x40 MSTORE DUP1 SWAP4 SWAP3 SWAP2 SWAP1 DUP2 DUP2 MSTORE PUSH1 0x20 ADD DUP4 DUP4 DUP1 DUP3 DUP5 CALLDATACOPY PUSH0 DUP2 DUP5 ADD MSTORE PUSH1 0x1F NOT PUSH1 0x1F DUP3 ADD AND SWAP1 POP DUP1 DUP4 ADD SWAP3 POP POP POP POP POP POP POP DUP9 PUSH2 0x26DF JUMP JUMPDEST SWAP2 POP POP SWAP8 SWAP7 POP POP POP POP POP POP POP JUMP JUMPDEST PUSH0 DUP1 PUSH2 0x154B PUSH2 0x25A9 JUMP JUMPDEST SWAP1 POP PUSH2 0x159D DUP8 DUP3 DUP9 DUP9 DUP9 DUP1 DUP1 PUSH1 0x1F ADD PUSH1 0x20 DUP1 SWAP2 DIV MUL PUSH1 0x20 ADD PUSH1 0x40 MLOAD SWAP1 DUP2 ADD PUSH1 0x40 MSTORE DUP1 SWAP4 SWAP3 SWAP2 SWAP1 DUP2 DUP2 MSTORE PUSH1 0x20 ADD DUP4 DUP4 DUP1 DUP3 DUP5 CALLDATACOPY PUSH0 DUP2 DUP5 ADD MSTORE PUSH1 0x1F NOT PUSH1 0x1F DUP3 ADD AND SWAP1 POP DUP1 DUP4 ADD SWAP3 POP POP POP POP POP POP POP DUP8 PUSH2 0x26DF JUMP JUMPDEST SWAP2 POP POP SWAP6 SWAP5 POP POP POP POP POP JUMP JUMPDEST PUSH0 DUP1 PUSH1 0xA PUSH0 ADD DUP1 SLOAD SWAP1 POP SWAP1 POP PUSH0 PUSH1 0xA PUSH0 ADD PUSH1 0x1 DUP4 PUSH2 0x15C7 SWAP2 SWAP1 PUSH2 0x5F03 JUMP JUMPDEST DUP2 SLOAD DUP2 LT PUSH2 0x15D8 JUMPI PUSH2 0x15D7 PUSH2 0x5CEB JUMP JUMPDEST JUMPDEST SWAP1 PUSH0 MSTORE PUSH1 0x20 PUSH0 KECCAK256 ADD SWAP1 POP PUSH0 DUP2 PUSH0 ADD PUSH0 SWAP1 SLOAD SWAP1 PUSH2 0x100 EXP SWAP1 DIV PUSH6 0xFFFFFFFFFFFF AND SWAP1 POP PUSH0 DUP3 PUSH0 ADD PUSH1 0x6 SWAP1 SLOAD SWAP1 PUSH2 0x100 EXP SWAP1 DIV PUSH26 0xFFFFFFFFFFFFFFFFFFFFFFFFFFFFFFFFFFFFFFFFFFFFFFFFFFFF AND SWAP1 POP DUP6 DUP3 PUSH6 0xFFFFFFFFFFFF AND GT PUSH2 0x165E JUMPI DUP1 PUSH26 0xFFFFFFFFFFFFFFFFFFFFFFFFFFFFFFFFFFFFFFFFFFFFFFFFFFFF AND SWAP5 POP POP POP POP POP PUSH2 0x169D JUMP JUMPDEST PUSH2 0x167A PUSH2 0x166A DUP8 PUSH2 0x27DC JUMP JUMPDEST PUSH1 0xA PUSH2 0x2835 SWAP1 SWAP2 SWAP1 PUSH4 0xFFFFFFFF AND JUMP JUMPDEST PUSH26 0xFFFFFFFFFFFFFFFFFFFFFFFFFFFFFFFFFFFFFFFFFFFFFFFFFFFF AND SWAP5 POP POP POP POP POP JUMPDEST SWAP2 SWAP1 POP JUMP JUMPDEST PUSH2 0x16AA PUSH2 0x1F5E JUMP JUMPDEST PUSH2 0x16B3 DUP2 PUSH2 0x2922 JUMP JUMPDEST POP JUMP JUMPDEST PUSH0 DUP1 PUSH2 0x16C0 PUSH2 0x25A9 JUMP JUMPDEST SWAP1 POP PUSH2 0x1711 DUP7 DUP3 DUP8 DUP8 DUP8 DUP1 DUP1 PUSH1 0x1F ADD PUSH1 0x20 DUP1 SWAP2 DIV MUL PUSH1 0x20 ADD PUSH1 0x40 MLOAD SWAP1 DUP2 ADD PUSH1 0x40 MSTORE DUP1 SWAP4 SWAP3 SWAP2 SWAP1 DUP2 DUP2 MSTORE PUSH1 0x20 ADD DUP4 DUP4 DUP1 DUP3 DUP5 CALLDATACOPY PUSH0 DUP2 DUP5 ADD MSTORE PUSH1 0x1F NOT PUSH1 0x1F DUP3 ADD AND SWAP1 POP DUP1 DUP4 ADD SWAP3 POP POP POP POP POP POP POP PUSH2 0x25C7 JUMP JUMPDEST SWAP2 POP POP SWAP5 SWAP4 POP POP POP POP JUMP JUMPDEST PUSH0 DUP1 PUSH2 0x1726 PUSH2 0x25A9 JUMP JUMPDEST SWAP1 POP PUSH2 0x1732 DUP2 DUP5 PUSH2 0x2995 JUMP JUMPDEST PUSH2 0x1773 JUMPI DUP1 PUSH1 0x40 MLOAD PUSH32 0xD9B3955700000000000000000000000000000000000000000000000000000000 DUP2 MSTORE PUSH1 0x4 ADD PUSH2 0x176A SWAP2 SWAP1 PUSH2 0x4AB1 JUMP JUMPDEST PUSH1 0x40 MLOAD DUP1 SWAP2 SUB SWAP1 REVERT JUMPDEST PUSH0 PUSH2 0x1799 DUP3 PUSH1 0x1 PUSH2 0x1782 PUSH2 0x19C8 JUMP JUMPDEST PUSH2 0x178C SWAP2 SWAP1 PUSH2 0x5F36 JUMP JUMPDEST PUSH6 0xFFFFFFFFFFFF AND PUSH2 0x1D4F JUMP JUMPDEST SWAP1 POP PUSH0 PUSH2 0x17A4 PUSH2 0x1AF7 JUMP JUMPDEST SWAP1 POP DUP1 DUP3 LT ISZERO PUSH2 0x17EF JUMPI DUP3 DUP3 DUP3 PUSH1 0x40 MLOAD PUSH32 0xC242EE1600000000000000000000000000000000000000000000000000000000 DUP2 MSTORE PUSH1 0x4 ADD PUSH2 0x17E6 SWAP4 SWAP3 SWAP2 SWAP1 PUSH2 0x5F6F JUMP JUMPDEST PUSH1 0x40 MLOAD DUP1 SWAP2 SUB SWAP1 REVERT JUMPDEST PUSH2 0x17FC DUP9 DUP9 DUP9 DUP9 DUP8 PUSH2 0x2AE3 JUMP JUMPDEST SWAP4 POP POP POP POP SWAP5 SWAP4 POP POP POP POP JUMP JUMPDEST PUSH0 PUSH1 0x2 PUSH0 DUP4 PUSH20 0xFFFFFFFFFFFFFFFFFFFFFFFFFFFFFFFFFFFFFFFF AND PUSH20 0xFFFFFFFFFFFFFFFFFFFFFFFFFFFFFFFFFFFFFFFF AND DUP2 MSTORE PUSH1 0x20 ADD SWAP1 DUP2 MSTORE PUSH1 0x20 ADD PUSH0 KECCAK256 SLOAD SWAP1 POP SWAP2 SWAP1 POP JUMP JUMPDEST PUSH0 PUSH1 0x60 DUP1 PUSH0 DUP1 PUSH0 PUSH1 0x60 PUSH2 0x1860 PUSH2 0x2D68 JUMP JUMPDEST PUSH2 0x1868 PUSH2 0x2DA2 JUMP JUMPDEST CHAINID ADDRESS PUSH0 DUP1 SHL PUSH0 PUSH8 0xFFFFFFFFFFFFFFFF DUP2 GT ISZERO PUSH2 0x1887 JUMPI PUSH2 0x1886 PUSH2 0x4AFC JUMP JUMPDEST JUMPDEST PUSH1 0x40 MLOAD SWAP1 DUP1 DUP3 MSTORE DUP1 PUSH1 0x20 MUL PUSH1 0x20 ADD DUP3 ADD PUSH1 0x40 MSTORE DUP1 ISZERO PUSH2 0x18B5 JUMPI DUP2 PUSH1 0x20 ADD PUSH1 0x20 DUP3 MUL DUP1 CALLDATASIZE DUP4 CALLDATACOPY DUP1 DUP3 ADD SWAP2 POP POP SWAP1 POP JUMPDEST POP PUSH32 0xF00000000000000000000000000000000000000000000000000000000000000 SWAP6 SWAP5 SWAP4 SWAP3 SWAP2 SWAP1 SWAP7 POP SWAP7 POP SWAP7 POP SWAP7 POP SWAP7 POP SWAP7 POP SWAP7 POP SWAP1 SWAP2 SWAP3 SWAP4 SWAP5 SWAP6 SWAP7 JUMP JUMPDEST PUSH0 DUP1 PUSH2 0x195F DUP5 PUSH2 0x1959 PUSH32 0xF2AAD550CF55F045CB27E9C559F9889FDFB6E6CDAA032301D6EA397784AE51D7 DUP10 DUP10 DUP10 PUSH2 0x192A DUP12 PUSH2 0x25E6 JUMP JUMPDEST PUSH1 0x40 MLOAD PUSH1 0x20 ADD PUSH2 0x193E SWAP6 SWAP5 SWAP4 SWAP3 SWAP2 SWAP1 PUSH2 0x5FA4 JUMP JUMPDEST PUSH1 0x40 MLOAD PUSH1 0x20 DUP2 DUP4 SUB SUB DUP2 MSTORE SWAP1 PUSH1 0x40 MSTORE DUP1 MLOAD SWAP1 PUSH1 0x20 ADD KECCAK256 PUSH2 0x2639 JUMP JUMPDEST DUP6 PUSH2 0x2652 JUMP JUMPDEST SWAP1 POP DUP1 PUSH2 0x19A3 JUMPI DUP4 PUSH1 0x40 MLOAD PUSH32 0x94AB6C0700000000000000000000000000000000000000000000000000000000 DUP2 MSTORE PUSH1 0x4 ADD PUSH2 0x199A SWAP2 SWAP1 PUSH2 0x4AB1 JUMP JUMPDEST PUSH1 0x40 MLOAD DUP1 SWAP2 SUB SWAP1 REVERT JUMPDEST PUSH2 0x19BD DUP7 DUP6 DUP8 PUSH1 0x40 MLOAD DUP1 PUSH1 0x20 ADD PUSH1 0x40 MSTORE DUP1 PUSH0 DUP2 MSTORE POP PUSH2 0x25C7 JUMP JUMPDEST SWAP2 POP POP SWAP5 SWAP4 POP POP POP POP JUMP JUMPDEST PUSH0 PUSH2 0x19D1 PUSH2 0x1E0F JUMP JUMPDEST PUSH20 0xFFFFFFFFFFFFFFFFFFFFFFFFFFFFFFFFFFFFFFFF AND PUSH4 0x91DDADF4 PUSH1 0x40 MLOAD DUP2 PUSH4 0xFFFFFFFF AND PUSH1 0xE0 SHL DUP2 MSTORE PUSH1 0x4 ADD PUSH1 0x20 PUSH1 0x40 MLOAD DUP1 DUP4 SUB DUP2 DUP7 GAS STATICCALL SWAP3 POP POP POP DUP1 ISZERO PUSH2 0x1A38 JUMPI POP PUSH1 0x40 MLOAD RETURNDATASIZE PUSH1 0x1F NOT PUSH1 0x1F DUP3 ADD AND DUP3 ADD DUP1 PUSH1 0x40 MSTORE POP DUP2 ADD SWAP1 PUSH2 0x1A35 SWAP2 SWAP1 PUSH2 0x6009 JUMP JUMPDEST PUSH1 0x1 JUMPDEST PUSH2 0x1A4B JUMPI PUSH2 0x1A44 PUSH2 0x2DDD JUMP JUMPDEST SWAP1 POP PUSH2 0x1A50 JUMP JUMPDEST DUP1 SWAP2 POP POP JUMPDEST SWAP1 JUMP JUMPDEST PUSH0 PUSH1 0x64 SWAP1 POP SWAP1 JUMP JUMPDEST PUSH0 PUSH2 0x1A67 DUP5 DUP5 DUP5 PUSH2 0x2DEC JUMP JUMPDEST SWAP1 POP SWAP4 SWAP3 POP POP POP JUMP JUMPDEST PUSH0 PUSH2 0x1A7B PUSH1 0xA PUSH2 0x2E77 JUMP JUMPDEST PUSH26 0xFFFFFFFFFFFFFFFFFFFFFFFFFFFFFFFFFFFFFFFFFFFFFFFFFFFF AND SWAP1 POP SWAP1 JUMP JUMPDEST PUSH2 0x1AA4 PUSH2 0x1F5E JUMP JUMPDEST PUSH2 0x1AAD DUP2 PUSH2 0x2ED9 JUMP JUMPDEST POP JUMP JUMPDEST PUSH0 PUSH2 0x1ABA DUP3 PUSH2 0x2F76 JUMP JUMPDEST SWAP1 POP SWAP2 SWAP1 POP JUMP JUMPDEST PUSH0 PUSH1 0x4 PUSH0 DUP4 DUP2 MSTORE PUSH1 0x20 ADD SWAP1 DUP2 MSTORE PUSH1 0x20 ADD PUSH0 KECCAK256 PUSH1 0x1 ADD PUSH0 SWAP1 SLOAD SWAP1 PUSH2 0x100 EXP SWAP1 DIV PUSH6 0xFFFFFFFFFFFF AND PUSH6 0xFFFFFFFFFFFF AND SWAP1 POP SWAP2 SWAP1 POP JUMP JUMPDEST PUSH0 PUSH2 0x1B00 PUSH2 0x2F80 JUMP JUMPDEST SWAP1 POP SWAP1 JUMP JUMPDEST PUSH0 ADDRESS PUSH20 0xFFFFFFFFFFFFFFFFFFFFFFFFFFFFFFFFFFFFFFFF AND PUSH2 0x1B25 PUSH2 0xCB7 JUMP JUMPDEST PUSH20 0xFFFFFFFFFFFFFFFFFFFFFFFFFFFFFFFFFFFFFFFF AND EQ PUSH2 0x1B72 JUMPI PUSH1 0x40 MLOAD PUSH32 0xE90A651E00000000000000000000000000000000000000000000000000000000 DUP2 MSTORE PUSH1 0x4 ADD PUSH1 0x40 MLOAD DUP1 SWAP2 SUB SWAP1 REVERT JUMPDEST PUSH4 0xBC197C81 PUSH1 0xE0 SHL SWAP1 POP SWAP6 SWAP5 POP POP POP POP POP JUMP JUMPDEST PUSH0 PUSH1 0x4 PUSH0 DUP4 DUP2 MSTORE PUSH1 0x20 ADD SWAP1 DUP2 MSTORE PUSH1 0x20 ADD PUSH0 KECCAK256 PUSH0 ADD PUSH1 0x1A SWAP1 SLOAD SWAP1 PUSH2 0x100 EXP SWAP1 DIV PUSH4 0xFFFFFFFF AND PUSH4 0xFFFFFFFF AND PUSH1 0x4 PUSH0 DUP5 DUP2 MSTORE PUSH1 0x20 ADD SWAP1 DUP2 MSTORE PUSH1 0x20 ADD PUSH0 KECCAK256 PUSH0 ADD PUSH1 0x14 SWAP1 SLOAD SWAP1 PUSH2 0x100 EXP SWAP1 DIV PUSH6 0xFFFFFFFFFFFF AND PUSH2 0x1BE0 SWAP2 SWAP1 PUSH2 0x6034 JUMP JUMPDEST PUSH6 0xFFFFFFFFFFFF AND SWAP1 POP SWAP2 SWAP1 POP JUMP JUMPDEST PUSH2 0x1BF7 PUSH2 0x1F5E JUMP JUMPDEST PUSH0 DUP1 DUP6 PUSH20 0xFFFFFFFFFFFFFFFFFFFFFFFFFFFFFFFFFFFFFFFF AND DUP6 DUP6 DUP6 PUSH1 0x40 MLOAD PUSH2 0x1C21 SWAP3 SWAP2 SWAP1 PUSH2 0x5E6F JUMP JUMPDEST PUSH0 PUSH1 0x40 MLOAD DUP1 DUP4 SUB DUP2 DUP6 DUP8 GAS CALL SWAP3 POP POP POP RETURNDATASIZE DUP1 PUSH0 DUP2 EQ PUSH2 0x1C5B JUMPI PUSH1 0x40 MLOAD SWAP2 POP PUSH1 0x1F NOT PUSH1 0x3F RETURNDATASIZE ADD AND DUP3 ADD PUSH1 0x40 MSTORE RETURNDATASIZE DUP3 MSTORE RETURNDATASIZE PUSH0 PUSH1 0x20 DUP5 ADD RETURNDATACOPY PUSH2 0x1C60 JUMP JUMPDEST PUSH1 0x60 SWAP2 POP JUMPDEST POP SWAP2 POP SWAP2 POP PUSH2 0x1C6F DUP3 DUP3 PUSH2 0x2F89 JUMP JUMPDEST POP POP POP POP POP POP POP JUMP JUMPDEST PUSH0 DUP5 DUP5 DUP5 DUP5 PUSH1 0x40 MLOAD PUSH1 0x20 ADD PUSH2 0x1C90 SWAP5 SWAP4 SWAP3 SWAP2 SWAP1 PUSH2 0x6231 JUMP JUMPDEST PUSH1 0x40 MLOAD PUSH1 0x20 DUP2 DUP4 SUB SUB DUP2 MSTORE SWAP1 PUSH1 0x40 MSTORE DUP1 MLOAD SWAP1 PUSH1 0x20 ADD KECCAK256 PUSH0 SHR SWAP1 POP SWAP5 SWAP4 POP POP POP POP JUMP JUMPDEST PUSH0 PUSH1 0xB PUSH0 SWAP1 SLOAD SWAP1 PUSH2 0x100 EXP SWAP1 DIV PUSH20 0xFFFFFFFFFFFFFFFFFFFFFFFFFFFFFFFFFFFFFFFF AND SWAP1 POP SWAP1 JUMP JUMPDEST PUSH1 0x60 PUSH1 0x40 MLOAD DUP1 PUSH1 0x40 ADD PUSH1 0x40 MSTORE DUP1 PUSH1 0x20 DUP2 MSTORE PUSH1 0x20 ADD PUSH32 0x737570706F72743D627261766F2671756F72756D3D666F722C6162737461696E DUP2 MSTORE POP SWAP1 POP SWAP1 JUMP JUMPDEST PUSH32 0xF2AAD550CF55F045CB27E9C559F9889FDFB6E6CDAA032301D6EA397784AE51D7 DUP2 JUMP JUMPDEST PUSH2 0x1D43 PUSH2 0x1F5E JUMP JUMPDEST PUSH2 0x1D4C DUP2 PUSH2 0x2FAD JUMP JUMPDEST POP JUMP JUMPDEST PUSH0 PUSH2 0x1D62 DUP4 DUP4 PUSH2 0x1D5D PUSH2 0x3066 JUMP JUMPDEST PUSH2 0x2DEC JUMP JUMPDEST SWAP1 POP SWAP3 SWAP2 POP POP JUMP JUMPDEST PUSH2 0x1D72 PUSH2 0x1F5E JUMP JUMPDEST PUSH2 0x1D7B DUP2 PUSH2 0x307C JUMP JUMPDEST POP JUMP JUMPDEST PUSH0 ADDRESS PUSH20 0xFFFFFFFFFFFFFFFFFFFFFFFFFFFFFFFFFFFFFFFF AND PUSH2 0x1D9E PUSH2 0xCB7 JUMP JUMPDEST PUSH20 0xFFFFFFFFFFFFFFFFFFFFFFFFFFFFFFFFFFFFFFFF AND EQ PUSH2 0x1DEB JUMPI PUSH1 0x40 MLOAD PUSH32 0xE90A651E00000000000000000000000000000000000000000000000000000000 DUP2 MSTORE PUSH1 0x4 ADD PUSH1 0x40 MLOAD DUP1 SWAP2 SUB SWAP1 REVERT JUMPDEST PUSH4 0xF23A6E61 PUSH1 0xE0 SHL SWAP1 POP SWAP6 SWAP5 POP POP POP POP POP JUMP JUMPDEST PUSH0 PUSH2 0x1E08 DUP3 PUSH2 0x30C1 JUMP JUMPDEST SWAP1 POP SWAP2 SWAP1 POP JUMP JUMPDEST PUSH0 PUSH32 0x0 SWAP1 POP SWAP1 JUMP JUMPDEST PUSH0 PUSH1 0xB PUSH0 SWAP1 SLOAD SWAP1 PUSH2 0x100 EXP SWAP1 DIV PUSH20 0xFFFFFFFFFFFFFFFFFFFFFFFFFFFFFFFFFFFFFFFF AND SWAP1 POP SWAP1 JUMP JUMPDEST PUSH0 PUSH32 0x65455A8600000000000000000000000000000000000000000000000000000000 PUSH28 0xFFFFFFFFFFFFFFFFFFFFFFFFFFFFFFFFFFFFFFFFFFFFFFFFFFFFFFFF NOT AND DUP3 PUSH28 0xFFFFFFFFFFFFFFFFFFFFFFFFFFFFFFFFFFFFFFFFFFFFFFFFFFFFFFFF NOT AND EQ DUP1 PUSH2 0x1F28 JUMPI POP PUSH32 0x4E2312E000000000000000000000000000000000000000000000000000000000 PUSH28 0xFFFFFFFFFFFFFFFFFFFFFFFFFFFFFFFFFFFFFFFFFFFFFFFFFFFFFFFF NOT AND DUP3 PUSH28 0xFFFFFFFFFFFFFFFFFFFFFFFFFFFFFFFFFFFFFFFFFFFFFFFFFFFFFFFF NOT AND EQ JUMPDEST DUP1 PUSH2 0x1F38 JUMPI POP PUSH2 0x1F37 DUP3 PUSH2 0x316D JUMP JUMPDEST JUMPDEST SWAP1 POP SWAP2 SWAP1 POP JUMP JUMPDEST PUSH0 PUSH1 0x8 PUSH1 0x6 SWAP1 SLOAD SWAP1 PUSH2 0x100 EXP SWAP1 DIV PUSH4 0xFFFFFFFF AND PUSH4 0xFFFFFFFF AND SWAP1 POP SWAP1 JUMP JUMPDEST PUSH2 0x1F66 PUSH2 0x25A9 JUMP JUMPDEST PUSH20 0xFFFFFFFFFFFFFFFFFFFFFFFFFFFFFFFFFFFFFFFF AND PUSH2 0x1F84 PUSH2 0xCB7 JUMP JUMPDEST PUSH20 0xFFFFFFFFFFFFFFFFFFFFFFFFFFFFFFFFFFFFFFFF AND EQ PUSH2 0x1FE3 JUMPI PUSH2 0x1FA7 PUSH2 0x25A9 JUMP JUMPDEST PUSH1 0x40 MLOAD PUSH32 0x47096E4700000000000000000000000000000000000000000000000000000000 DUP2 MSTORE PUSH1 0x4 ADD PUSH2 0x1FDA SWAP2 SWAP1 PUSH2 0x4AB1 JUMP JUMPDEST PUSH1 0x40 MLOAD DUP1 SWAP2 SUB SWAP1 REVERT JUMPDEST ADDRESS PUSH20 0xFFFFFFFFFFFFFFFFFFFFFFFFFFFFFFFFFFFFFFFF AND PUSH2 0x2002 PUSH2 0xCB7 JUMP JUMPDEST PUSH20 0xFFFFFFFFFFFFFFFFFFFFFFFFFFFFFFFFFFFFFFFF AND EQ PUSH2 0x2051 JUMPI PUSH0 PUSH2 0x2026 PUSH2 0x31D6 JUMP JUMPDEST PUSH1 0x40 MLOAD PUSH2 0x2034 SWAP3 SWAP2 SWAP1 PUSH2 0x5E6F JUMP JUMPDEST PUSH1 0x40 MLOAD DUP1 SWAP2 SUB SWAP1 KECCAK256 SWAP1 POP JUMPDEST DUP1 PUSH2 0x204A PUSH1 0x5 PUSH2 0x31E2 JUMP JUMPDEST SUB PUSH2 0x203F JUMPI POP JUMPDEST JUMP JUMPDEST PUSH0 PUSH2 0x205C PUSH2 0x1A53 JUMP JUMPDEST SWAP1 POP DUP1 DUP3 GT ISZERO PUSH2 0x20A5 JUMPI DUP2 DUP2 PUSH1 0x40 MLOAD PUSH32 0x243E544500000000000000000000000000000000000000000000000000000000 DUP2 MSTORE PUSH1 0x4 ADD PUSH2 0x209C SWAP3 SWAP2 SWAP1 PUSH2 0x6289 JUMP JUMPDEST PUSH1 0x40 MLOAD DUP1 SWAP2 SUB SWAP1 REVERT JUMPDEST PUSH0 PUSH2 0x20AE PUSH2 0x1A70 JUMP JUMPDEST SWAP1 POP PUSH2 0x20D5 PUSH2 0x20BB PUSH2 0x19C8 JUMP JUMPDEST PUSH2 0x20C4 DUP6 PUSH2 0x3337 JUMP JUMPDEST PUSH1 0xA PUSH2 0x33A4 SWAP1 SWAP3 SWAP2 SWAP1 PUSH4 0xFFFFFFFF AND JUMP JUMPDEST POP POP PUSH32 0x553476BF02EF2726E8CE5CED78D63E26E602E4A2257B1F559418E24B4633997 DUP2 DUP5 PUSH1 0x40 MLOAD PUSH2 0x2108 SWAP3 SWAP2 SWAP1 PUSH2 0x6289 JUMP JUMPDEST PUSH1 0x40 MLOAD DUP1 SWAP2 SUB SWAP1 LOG1 POP POP POP JUMP JUMPDEST PUSH0 DUP2 PUSH1 0x7 DUP2 GT ISZERO PUSH2 0x2129 JUMPI PUSH2 0x2128 PUSH2 0x503D JUMP JUMPDEST JUMPDEST PUSH1 0xFF AND PUSH1 0x1 SWAP1 SHL PUSH0 SHL SWAP1 POP SWAP2 SWAP1 POP JUMP JUMPDEST PUSH0 DUP1 PUSH2 0x2144 DUP5 PUSH2 0x1180 JUMP JUMPDEST SWAP1 POP PUSH0 DUP1 SHL DUP4 PUSH2 0x2153 DUP4 PUSH2 0x2115 JUMP JUMPDEST AND SUB PUSH2 0x219A JUMPI DUP4 DUP2 DUP5 PUSH1 0x40 MLOAD PUSH32 0x31B75E4D00000000000000000000000000000000000000000000000000000000 DUP2 MSTORE PUSH1 0x4 ADD PUSH2 0x2191 SWAP4 SWAP3 SWAP2 SWAP1 PUSH2 0x62B0 JUMP JUMPDEST PUSH1 0x40 MLOAD DUP1 SWAP2 SUB SWAP1 REVERT JUMPDEST DUP1 SWAP2 POP POP SWAP3 SWAP2 POP POP JUMP JUMPDEST PUSH0 PUSH2 0x21B2 DUP7 DUP7 DUP7 DUP7 DUP7 PUSH2 0x33BF JUMP JUMPDEST SWAP1 POP SWAP6 SWAP5 POP POP POP POP POP JUMP JUMPDEST PUSH0 DUP3 PUSH0 ADD PUSH1 0x10 SWAP1 SLOAD SWAP1 PUSH2 0x100 EXP SWAP1 DIV PUSH16 0xFFFFFFFFFFFFFFFFFFFFFFFFFFFFFFFF AND SWAP1 POP DUP3 PUSH0 ADD PUSH0 SWAP1 SLOAD SWAP1 PUSH2 0x100 EXP SWAP1 DIV PUSH16 0xFFFFFFFFFFFFFFFFFFFFFFFFFFFFFFFF AND PUSH16 0xFFFFFFFFFFFFFFFFFFFFFFFFFFFFFFFF AND PUSH1 0x1 DUP3 ADD PUSH16 0xFFFFFFFFFFFFFFFFFFFFFFFFFFFFFFFF AND SUB PUSH2 0x225E JUMPI PUSH1 0x40 MLOAD PUSH32 0x8ACB5F2700000000000000000000000000000000000000000000000000000000 DUP2 MSTORE PUSH1 0x4 ADD PUSH1 0x40 MLOAD DUP1 SWAP2 SUB SWAP1 REVERT JUMPDEST DUP2 DUP4 PUSH1 0x1 ADD PUSH0 DUP4 PUSH16 0xFFFFFFFFFFFFFFFFFFFFFFFFFFFFFFFF AND PUSH16 0xFFFFFFFFFFFFFFFFFFFFFFFFFFFFFFFF AND DUP2 MSTORE PUSH1 0x20 ADD SWAP1 DUP2 MSTORE PUSH1 0x20 ADD PUSH0 KECCAK256 DUP2 SWAP1 SSTORE POP PUSH1 0x1 DUP2 ADD DUP4 PUSH0 ADD PUSH1 0x10 PUSH2 0x100 EXP DUP2 SLOAD DUP2 PUSH16 0xFFFFFFFFFFFFFFFFFFFFFFFFFFFFFFFF MUL NOT AND SWAP1 DUP4 PUSH16 0xFFFFFFFFFFFFFFFFFFFFFFFFFFFFFFFF AND MUL OR SWAP1 SSTORE POP POP POP POP JUMP JUMPDEST PUSH2 0x22E9 DUP6 DUP6 DUP6 DUP6 DUP6 PUSH2 0x35C5 JUMP JUMPDEST POP POP POP POP POP JUMP JUMPDEST PUSH0 DUP2 PUSH0 ADD PUSH0 SWAP1 SLOAD SWAP1 PUSH2 0x100 EXP SWAP1 DIV PUSH16 0xFFFFFFFFFFFFFFFFFFFFFFFFFFFFFFFF AND PUSH16 0xFFFFFFFFFFFFFFFFFFFFFFFFFFFFFFFF AND DUP3 PUSH0 ADD PUSH1 0x10 SWAP1 SLOAD SWAP1 PUSH2 0x100 EXP SWAP1 DIV PUSH16 0xFFFFFFFFFFFFFFFFFFFFFFFFFFFFFFFF AND PUSH16 0xFFFFFFFFFFFFFFFFFFFFFFFFFFFFFFFF AND EQ SWAP1 POP SWAP2 SWAP1 POP JUMP JUMPDEST PUSH0 DUP2 PUSH0 ADD PUSH0 PUSH2 0x100 EXP DUP2 SLOAD DUP2 PUSH16 0xFFFFFFFFFFFFFFFFFFFFFFFFFFFFFFFF MUL NOT AND SWAP1 DUP4 PUSH16 0xFFFFFFFFFFFFFFFFFFFFFFFFFFFFFFFF AND MUL OR SWAP1 SSTORE POP PUSH0 DUP2 PUSH0 ADD PUSH1 0x10 PUSH2 0x100 EXP DUP2 SLOAD DUP2 PUSH16 0xFFFFFFFFFFFFFFFFFFFFFFFFFFFFFFFF MUL NOT AND SWAP1 DUP4 PUSH16 0xFFFFFFFFFFFFFFFFFFFFFFFFFFFFFFFF AND MUL OR SWAP1 SSTORE POP POP JUMP JUMPDEST PUSH0 PUSH1 0x8 PUSH0 SWAP1 SLOAD SWAP1 PUSH2 0x100 EXP SWAP1 DIV PUSH6 0xFFFFFFFFFFFF AND PUSH6 0xFFFFFFFFFFFF AND SWAP1 POP SWAP1 JUMP JUMPDEST PUSH0 DUP1 PUSH2 0x23FF DUP4 PUSH2 0x3679 JUMP JUMPDEST SWAP1 POP PUSH1 0x5 PUSH1 0x7 DUP2 GT ISZERO PUSH2 0x2415 JUMPI PUSH2 0x2414 PUSH2 0x503D JUMP JUMPDEST JUMPDEST DUP2 PUSH1 0x7 DUP2 GT ISZERO PUSH2 0x2428 JUMPI PUSH2 0x2427 PUSH2 0x503D JUMP JUMPDEST JUMPDEST EQ PUSH2 0x2436 JUMPI DUP1 SWAP2 POP POP PUSH2 0x25A4 JUMP JUMPDEST PUSH0 PUSH1 0xC PUSH0 DUP6 DUP2 MSTORE PUSH1 0x20 ADD SWAP1 DUP2 MSTORE PUSH1 0x20 ADD PUSH0 KECCAK256 SLOAD SWAP1 POP PUSH1 0xB PUSH0 SWAP1 SLOAD SWAP1 PUSH2 0x100 EXP SWAP1 DIV PUSH20 0xFFFFFFFFFFFFFFFFFFFFFFFFFFFFFFFFFFFFFFFF AND PUSH20 0xFFFFFFFFFFFFFFFFFFFFFFFFFFFFFFFFFFFFFFFF AND PUSH4 0x584B153E DUP3 PUSH1 0x40 MLOAD DUP3 PUSH4 0xFFFFFFFF AND PUSH1 0xE0 SHL DUP2 MSTORE PUSH1 0x4 ADD PUSH2 0x24A5 SWAP2 SWAP1 PUSH2 0x5024 JUMP JUMPDEST PUSH1 0x20 PUSH1 0x40 MLOAD DUP1 DUP4 SUB DUP2 DUP7 GAS STATICCALL ISZERO DUP1 ISZERO PUSH2 0x24C0 JUMPI RETURNDATASIZE PUSH0 DUP1 RETURNDATACOPY RETURNDATASIZE PUSH0 REVERT JUMPDEST POP POP POP POP PUSH1 0x40 MLOAD RETURNDATASIZE PUSH1 0x1F NOT PUSH1 0x1F DUP3 ADD AND DUP3 ADD DUP1 PUSH1 0x40 MSTORE POP DUP2 ADD SWAP1 PUSH2 0x24E4 SWAP2 SWAP1 PUSH2 0x630F JUMP JUMPDEST ISZERO PUSH2 0x24F4 JUMPI PUSH1 0x5 SWAP3 POP POP POP PUSH2 0x25A4 JUMP JUMPDEST PUSH1 0xB PUSH0 SWAP1 SLOAD SWAP1 PUSH2 0x100 EXP SWAP1 DIV PUSH20 0xFFFFFFFFFFFFFFFFFFFFFFFFFFFFFFFFFFFFFFFF AND PUSH20 0xFFFFFFFFFFFFFFFFFFFFFFFFFFFFFFFFFFFFFFFF AND PUSH4 0x2AB0F529 DUP3 PUSH1 0x40 MLOAD DUP3 PUSH4 0xFFFFFFFF AND PUSH1 0xE0 SHL DUP2 MSTORE PUSH1 0x4 ADD PUSH2 0x254E SWAP2 SWAP1 PUSH2 0x5024 JUMP JUMPDEST PUSH1 0x20 PUSH1 0x40 MLOAD DUP1 DUP4 SUB DUP2 DUP7 GAS STATICCALL ISZERO DUP1 ISZERO PUSH2 0x2569 JUMPI RETURNDATASIZE PUSH0 DUP1 RETURNDATACOPY RETURNDATASIZE PUSH0 REVERT JUMPDEST POP POP POP POP PUSH1 0x40 MLOAD RETURNDATASIZE PUSH1 0x1F NOT PUSH1 0x1F DUP3 ADD AND DUP3 ADD DUP1 PUSH1 0x40 MSTORE POP DUP2 ADD SWAP1 PUSH2 0x258D SWAP2 SWAP1 PUSH2 0x630F JUMP JUMPDEST ISZERO PUSH2 0x259D JUMPI PUSH1 0x7 SWAP3 POP POP POP PUSH2 0x25A4 JUMP JUMPDEST PUSH1 0x2 SWAP3 POP POP POP JUMPDEST SWAP2 SWAP1 POP JUMP JUMPDEST PUSH0 CALLER SWAP1 POP SWAP1 JUMP JUMPDEST PUSH0 PUSH2 0x25BD DUP6 DUP6 DUP6 DUP6 PUSH2 0x37D0 JUMP JUMPDEST SWAP1 POP SWAP5 SWAP4 POP POP POP POP JUMP JUMPDEST PUSH0 PUSH2 0x25DC DUP6 DUP6 DUP6 DUP6 PUSH2 0x25D7 PUSH2 0x3066 JUMP JUMPDEST PUSH2 0x26DF JUMP JUMPDEST SWAP1 POP SWAP5 SWAP4 POP POP POP POP JUMP JUMPDEST PUSH0 PUSH1 0x2 PUSH0 DUP4 PUSH20 0xFFFFFFFFFFFFFFFFFFFFFFFFFFFFFFFFFFFFFFFF AND PUSH20 0xFFFFFFFFFFFFFFFFFFFFFFFFFFFFFFFFFFFFFFFF AND DUP2 MSTORE PUSH1 0x20 ADD SWAP1 DUP2 MSTORE PUSH1 0x20 ADD PUSH0 KECCAK256 PUSH0 DUP2 SLOAD DUP1 SWAP3 SWAP2 SWAP1 PUSH1 0x1 ADD SWAP2 SWAP1 POP SSTORE SWAP1 POP SWAP2 SWAP1 POP JUMP JUMPDEST PUSH0 PUSH2 0x264B PUSH2 0x2645 PUSH2 0x38A7 JUMP JUMPDEST DUP4 PUSH2 0x395D JUMP JUMPDEST SWAP1 POP SWAP2 SWAP1 POP JUMP JUMPDEST PUSH0 DUP1 PUSH0 PUSH2 0x265F DUP6 DUP6 PUSH2 0x399D JUMP JUMPDEST POP SWAP2 POP SWAP2 POP PUSH0 PUSH1 0x3 DUP2 GT ISZERO PUSH2 0x2677 JUMPI PUSH2 0x2676 PUSH2 0x503D JUMP JUMPDEST JUMPDEST DUP2 PUSH1 0x3 DUP2 GT ISZERO PUSH2 0x268A JUMPI PUSH2 0x2689 PUSH2 0x503D JUMP JUMPDEST JUMPDEST EQ DUP1 ISZERO PUSH2 0x26C2 JUMPI POP DUP6 PUSH20 0xFFFFFFFFFFFFFFFFFFFFFFFFFFFFFFFFFFFFFFFF AND DUP3 PUSH20 0xFFFFFFFFFFFFFFFFFFFFFFFFFFFFFFFFFFFFFFFF AND EQ JUMPDEST DUP1 PUSH2 0x26D4 JUMPI POP PUSH2 0x26D3 DUP7 DUP7 DUP7 PUSH2 0x39F2 JUMP JUMPDEST JUMPDEST SWAP3 POP POP POP SWAP4 SWAP3 POP POP POP JUMP JUMPDEST PUSH0 PUSH2 0x26F3 DUP7 PUSH2 0x26EE PUSH1 0x1 PUSH2 0x2115 JUMP JUMPDEST PUSH2 0x2139 JUMP JUMPDEST POP PUSH0 PUSH2 0x2708 DUP7 PUSH2 0x2702 DUP10 PUSH2 0x1118 JUMP JUMPDEST DUP6 PUSH2 0x2DEC JUMP JUMPDEST SWAP1 POP PUSH2 0x2717 DUP8 DUP8 DUP8 DUP5 DUP8 PUSH2 0x3B11 JUMP JUMPDEST PUSH0 DUP4 MLOAD SUB PUSH2 0x2778 JUMPI DUP6 PUSH20 0xFFFFFFFFFFFFFFFFFFFFFFFFFFFFFFFFFFFFFFFF AND PUSH32 0xB8E138887D0AA13BAB447E82DE9D5C1777041ECD21CA36BA824FF1E6C07DDDA4 DUP9 DUP8 DUP5 DUP9 PUSH1 0x40 MLOAD PUSH2 0x276B SWAP5 SWAP4 SWAP3 SWAP2 SWAP1 PUSH2 0x633A JUMP JUMPDEST PUSH1 0x40 MLOAD DUP1 SWAP2 SUB SWAP1 LOG2 PUSH2 0x27CF JUMP JUMPDEST DUP6 PUSH20 0xFFFFFFFFFFFFFFFFFFFFFFFFFFFFFFFFFFFFFFFF AND PUSH32 0xE2BABFBAC5889A709B63BB7F598B324E08BC5A4FB9EC647FB3CBC9EC07EB8712 DUP9 DUP8 DUP5 DUP9 DUP9 PUSH1 0x40 MLOAD PUSH2 0x27C6 SWAP6 SWAP5 SWAP4 SWAP3 SWAP2 SWAP1 PUSH2 0x63CC JUMP JUMPDEST PUSH1 0x40 MLOAD DUP1 SWAP2 SUB SWAP1 LOG2 JUMPDEST DUP1 SWAP2 POP POP SWAP6 SWAP5 POP POP POP POP POP JUMP JUMPDEST PUSH0 PUSH6 0xFFFFFFFFFFFF DUP1 AND DUP3 GT ISZERO PUSH2 0x282D JUMPI PUSH1 0x30 DUP3 PUSH1 0x40 MLOAD PUSH32 0x6DFCC65000000000000000000000000000000000000000000000000000000000 DUP2 MSTORE PUSH1 0x4 ADD PUSH2 0x2824 SWAP3 SWAP2 SWAP1 PUSH2 0x6464 JUMP JUMPDEST PUSH1 0x40 MLOAD DUP1 SWAP2 SUB SWAP1 REVERT JUMPDEST DUP2 SWAP1 POP SWAP2 SWAP1 POP JUMP JUMPDEST PUSH0 DUP1 DUP4 PUSH0 ADD DUP1 SLOAD SWAP1 POP SWAP1 POP PUSH0 DUP1 DUP3 SWAP1 POP PUSH1 0x5 DUP4 GT ISZERO PUSH2 0x28B6 JUMPI PUSH0 PUSH2 0x2858 DUP5 PUSH2 0x3D00 JUMP JUMPDEST DUP5 PUSH2 0x2863 SWAP2 SWAP1 PUSH2 0x5F03 JUMP JUMPDEST SWAP1 POP PUSH2 0x2871 DUP8 PUSH0 ADD DUP3 PUSH2 0x3DF6 JUMP JUMPDEST PUSH0 ADD PUSH0 SWAP1 SLOAD SWAP1 PUSH2 0x100 EXP SWAP1 DIV PUSH6 0xFFFFFFFFFFFF AND PUSH6 0xFFFFFFFFFFFF AND DUP7 PUSH6 0xFFFFFFFFFFFF AND LT ISZERO PUSH2 0x28A4 JUMPI DUP1 SWAP2 POP PUSH2 0x28B4 JUMP JUMPDEST PUSH1 0x1 DUP2 PUSH2 0x28B1 SWAP2 SWAP1 PUSH2 0x648B JUMP JUMPDEST SWAP3 POP JUMPDEST POP JUMPDEST PUSH0 PUSH2 0x28C5 DUP8 PUSH0 ADD DUP8 DUP6 DUP6 PUSH2 0x3E08 JUMP JUMPDEST SWAP1 POP PUSH0 DUP2 EQ PUSH2 0x2914 JUMPI PUSH2 0x28E6 DUP8 PUSH0 ADD PUSH1 0x1 DUP4 PUSH2 0x28E1 SWAP2 SWAP1 PUSH2 0x5F03 JUMP JUMPDEST PUSH2 0x3DF6 JUMP JUMPDEST PUSH0 ADD PUSH1 0x6 SWAP1 SLOAD SWAP1 PUSH2 0x100 EXP SWAP1 DIV PUSH26 0xFFFFFFFFFFFFFFFFFFFFFFFFFFFFFFFFFFFFFFFFFFFFFFFFFFFF AND PUSH2 0x2916 JUMP JUMPDEST PUSH0 JUMPDEST SWAP5 POP POP POP POP POP SWAP3 SWAP2 POP POP JUMP JUMPDEST PUSH32 0xC565B045403DC03C2EEA82B81A0465EDAD9E2E7FC4D97E11421C209DA93D7A93 PUSH1 0x8 PUSH0 SWAP1 SLOAD SWAP1 PUSH2 0x100 EXP SWAP1 DIV PUSH6 0xFFFFFFFFFFFF AND DUP3 PUSH1 0x40 MLOAD PUSH2 0x2966 SWAP3 SWAP2 SWAP1 PUSH2 0x64BE JUMP JUMPDEST PUSH1 0x40 MLOAD DUP1 SWAP2 SUB SWAP1 LOG1 DUP1 PUSH1 0x8 PUSH0 PUSH2 0x100 EXP DUP2 SLOAD DUP2 PUSH6 0xFFFFFFFFFFFF MUL NOT AND SWAP1 DUP4 PUSH6 0xFFFFFFFFFFFF AND MUL OR SWAP1 SSTORE POP POP JUMP JUMPDEST PUSH0 DUP1 DUP3 MLOAD SWAP1 POP PUSH1 0x34 DUP2 LT ISZERO PUSH2 0x29AE JUMPI PUSH1 0x1 SWAP2 POP POP PUSH2 0x2ADD JUMP JUMPDEST PUSH0 PUSH1 0x14 DUP3 SUB DUP5 ADD MLOAD SWAP1 POP PUSH32 0x2370726F706F7365723D30780000000000000000000000000000000000000000 PUSH20 0xFFFFFFFFFFFFFFFFFFFFFFFFFFFFFFFFFFFFFFFF NOT AND DUP2 PUSH20 0xFFFFFFFFFFFFFFFFFFFFFFFFFFFFFFFFFFFFFFFF NOT AND EQ PUSH2 0x2A18 JUMPI PUSH1 0x1 SWAP3 POP POP POP PUSH2 0x2ADD JUMP JUMPDEST PUSH0 DUP1 PUSH1 0x28 DUP5 PUSH2 0x2A27 SWAP2 SWAP1 PUSH2 0x5F03 JUMP JUMPDEST SWAP1 POP JUMPDEST DUP4 DUP2 LT ISZERO PUSH2 0x2AA7 JUMPI PUSH0 DUP1 PUSH2 0x2A5A DUP9 DUP5 DUP2 MLOAD DUP2 LT PUSH2 0x2A4A JUMPI PUSH2 0x2A49 PUSH2 0x5CEB JUMP JUMPDEST JUMPDEST PUSH1 0x20 ADD ADD MLOAD PUSH1 0xF8 SHR PUSH1 0xF8 SHL PUSH2 0x3E7D JUMP JUMPDEST SWAP2 POP SWAP2 POP DUP2 PUSH2 0x2A72 JUMPI PUSH1 0x1 SWAP7 POP POP POP POP POP POP POP PUSH2 0x2ADD JUMP JUMPDEST DUP1 PUSH1 0xFF AND PUSH1 0x4 DUP6 PUSH20 0xFFFFFFFFFFFFFFFFFFFFFFFFFFFFFFFFFFFFFFFF AND SWAP1 SHL OR SWAP4 POP POP POP DUP1 PUSH2 0x2AA0 SWAP1 PUSH2 0x5D45 JUMP JUMPDEST SWAP1 POP PUSH2 0x2A2A JUMP JUMPDEST POP DUP6 PUSH20 0xFFFFFFFFFFFFFFFFFFFFFFFFFFFFFFFFFFFFFFFF AND DUP2 PUSH20 0xFFFFFFFFFFFFFFFFFFFFFFFFFFFFFFFFFFFFFFFF AND EQ SWAP4 POP POP POP POP JUMPDEST SWAP3 SWAP2 POP POP JUMP JUMPDEST PUSH0 PUSH2 0x2AF7 DUP7 DUP7 DUP7 DUP7 DUP1 MLOAD SWAP1 PUSH1 0x20 ADD KECCAK256 PUSH2 0x1C78 JUMP JUMPDEST SWAP1 POP DUP5 MLOAD DUP7 MLOAD EQ ISZERO DUP1 PUSH2 0x2B0C JUMPI POP DUP4 MLOAD DUP7 MLOAD EQ ISZERO JUMPDEST DUP1 PUSH2 0x2B17 JUMPI POP PUSH0 DUP7 MLOAD EQ JUMPDEST ISZERO PUSH2 0x2B60 JUMPI DUP6 MLOAD DUP5 MLOAD DUP7 MLOAD PUSH1 0x40 MLOAD PUSH32 0x447B05D000000000000000000000000000000000000000000000000000000000 DUP2 MSTORE PUSH1 0x4 ADD PUSH2 0x2B57 SWAP4 SWAP3 SWAP2 SWAP1 PUSH2 0x5107 JUMP JUMPDEST PUSH1 0x40 MLOAD DUP1 SWAP2 SUB SWAP1 REVERT JUMPDEST PUSH0 PUSH1 0x4 PUSH0 DUP4 DUP2 MSTORE PUSH1 0x20 ADD SWAP1 DUP2 MSTORE PUSH1 0x20 ADD PUSH0 KECCAK256 PUSH0 ADD PUSH1 0x14 SWAP1 SLOAD SWAP1 PUSH2 0x100 EXP SWAP1 DIV PUSH6 0xFFFFFFFFFFFF AND PUSH6 0xFFFFFFFFFFFF AND EQ PUSH2 0x2BDF JUMPI DUP1 PUSH2 0x2B9E DUP3 PUSH2 0x1180 JUMP JUMPDEST PUSH0 DUP1 SHL PUSH1 0x40 MLOAD PUSH32 0x31B75E4D00000000000000000000000000000000000000000000000000000000 DUP2 MSTORE PUSH1 0x4 ADD PUSH2 0x2BD6 SWAP4 SWAP3 SWAP2 SWAP1 PUSH2 0x62B0 JUMP JUMPDEST PUSH1 0x40 MLOAD DUP1 SWAP2 SUB SWAP1 REVERT JUMPDEST PUSH0 PUSH2 0x2BE8 PUSH2 0x1172 JUMP JUMPDEST PUSH2 0x2BF0 PUSH2 0x19C8 JUMP JUMPDEST PUSH6 0xFFFFFFFFFFFF AND PUSH2 0x2C02 SWAP2 SWAP1 PUSH2 0x648B JUMP JUMPDEST SWAP1 POP PUSH0 PUSH2 0x2C0D PUSH2 0xCD6 JUMP JUMPDEST SWAP1 POP PUSH0 PUSH1 0x4 PUSH0 DUP6 DUP2 MSTORE PUSH1 0x20 ADD SWAP1 DUP2 MSTORE PUSH1 0x20 ADD PUSH0 KECCAK256 SWAP1 POP DUP5 DUP2 PUSH0 ADD PUSH0 PUSH2 0x100 EXP DUP2 SLOAD DUP2 PUSH20 0xFFFFFFFFFFFFFFFFFFFFFFFFFFFFFFFFFFFFFFFF MUL NOT AND SWAP1 DUP4 PUSH20 0xFFFFFFFFFFFFFFFFFFFFFFFFFFFFFFFFFFFFFFFF AND MUL OR SWAP1 SSTORE POP PUSH2 0x2C6D DUP4 PUSH2 0x27DC JUMP JUMPDEST DUP2 PUSH0 ADD PUSH1 0x14 PUSH2 0x100 EXP DUP2 SLOAD DUP2 PUSH6 0xFFFFFFFFFFFF MUL NOT AND SWAP1 DUP4 PUSH6 0xFFFFFFFFFFFF AND MUL OR SWAP1 SSTORE POP PUSH2 0x2C9B DUP3 PUSH2 0x3F14 JUMP JUMPDEST DUP2 PUSH0 ADD PUSH1 0x1A PUSH2 0x100 EXP DUP2 SLOAD DUP2 PUSH4 0xFFFFFFFF MUL NOT AND SWAP1 DUP4 PUSH4 0xFFFFFFFF AND MUL OR SWAP1 SSTORE POP PUSH32 0x7D84A6263AE0D98D3329BD7B46BB4E8D6F98CD35A7ADB45C274C8B7FD5EBD5E0 DUP5 DUP7 DUP12 DUP12 DUP14 MLOAD PUSH8 0xFFFFFFFFFFFFFFFF DUP2 GT ISZERO PUSH2 0x2CFC JUMPI PUSH2 0x2CFB PUSH2 0x4AFC JUMP JUMPDEST JUMPDEST PUSH1 0x40 MLOAD SWAP1 DUP1 DUP3 MSTORE DUP1 PUSH1 0x20 MUL PUSH1 0x20 ADD DUP3 ADD PUSH1 0x40 MSTORE DUP1 ISZERO PUSH2 0x2D2F JUMPI DUP2 PUSH1 0x20 ADD JUMPDEST PUSH1 0x60 DUP2 MSTORE PUSH1 0x20 ADD SWAP1 PUSH1 0x1 SWAP1 SUB SWAP1 DUP2 PUSH2 0x2D1A JUMPI SWAP1 POP JUMPDEST POP DUP13 DUP10 DUP10 DUP12 PUSH2 0x2D3E SWAP2 SWAP1 PUSH2 0x648B JUMP JUMPDEST DUP15 PUSH1 0x40 MLOAD PUSH2 0x2D54 SWAP10 SWAP9 SWAP8 SWAP7 SWAP6 SWAP5 SWAP4 SWAP3 SWAP2 SWAP1 PUSH2 0x65E8 JUMP JUMPDEST PUSH1 0x40 MLOAD DUP1 SWAP2 SUB SWAP1 LOG1 POP POP POP SWAP6 SWAP5 POP POP POP POP POP JUMP JUMPDEST PUSH1 0x60 PUSH2 0x2D9D PUSH0 PUSH32 0x0 PUSH2 0x3F6B SWAP1 SWAP2 SWAP1 PUSH4 0xFFFFFFFF AND JUMP JUMPDEST SWAP1 POP SWAP1 JUMP JUMPDEST PUSH1 0x60 PUSH2 0x2DD8 PUSH1 0x1 PUSH32 0x0 PUSH2 0x3F6B SWAP1 SWAP2 SWAP1 PUSH4 0xFFFFFFFF AND JUMP JUMPDEST SWAP1 POP SWAP1 JUMP JUMPDEST PUSH0 PUSH2 0x2DE7 NUMBER PUSH2 0x27DC JUMP JUMPDEST SWAP1 POP SWAP1 JUMP JUMPDEST PUSH0 PUSH2 0x2DF5 PUSH2 0x1E0F JUMP JUMPDEST PUSH20 0xFFFFFFFFFFFFFFFFFFFFFFFFFFFFFFFFFFFFFFFF AND PUSH4 0x3A46B1A8 DUP6 DUP6 PUSH1 0x40 MLOAD DUP4 PUSH4 0xFFFFFFFF AND PUSH1 0xE0 SHL DUP2 MSTORE PUSH1 0x4 ADD PUSH2 0x2E2F SWAP3 SWAP2 SWAP1 PUSH2 0x6696 JUMP JUMPDEST PUSH1 0x20 PUSH1 0x40 MLOAD DUP1 DUP4 SUB DUP2 DUP7 GAS STATICCALL ISZERO DUP1 ISZERO PUSH2 0x2E4A JUMPI RETURNDATASIZE PUSH0 DUP1 RETURNDATACOPY RETURNDATASIZE PUSH0 REVERT JUMPDEST POP POP POP POP PUSH1 0x40 MLOAD RETURNDATASIZE PUSH1 0x1F NOT PUSH1 0x1F DUP3 ADD AND DUP3 ADD DUP1 PUSH1 0x40 MSTORE POP DUP2 ADD SWAP1 PUSH2 0x2E6E SWAP2 SWAP1 PUSH2 0x66D1 JUMP JUMPDEST SWAP1 POP SWAP4 SWAP3 POP POP POP JUMP JUMPDEST PUSH0 DUP1 DUP3 PUSH0 ADD DUP1 SLOAD SWAP1 POP SWAP1 POP PUSH0 DUP2 EQ PUSH2 0x2ECF JUMPI PUSH2 0x2EA1 DUP4 PUSH0 ADD PUSH1 0x1 DUP4 PUSH2 0x2E9C SWAP2 SWAP1 PUSH2 0x5F03 JUMP JUMPDEST PUSH2 0x3DF6 JUMP JUMPDEST PUSH0 ADD PUSH1 0x6 SWAP1 SLOAD SWAP1 PUSH2 0x100 EXP SWAP1 DIV PUSH26 0xFFFFFFFFFFFFFFFFFFFFFFFFFFFFFFFFFFFFFFFFFFFFFFFFFFFF AND PUSH2 0x2ED1 JUMP JUMPDEST PUSH0 JUMPDEST SWAP2 POP POP SWAP2 SWAP1 POP JUMP JUMPDEST PUSH32 0x8F74EA46EF7894F65EABFB5E6E695DE773A000B47C529AB559178069B226401 PUSH1 0xB PUSH0 SWAP1 SLOAD SWAP1 PUSH2 0x100 EXP SWAP1 DIV PUSH20 0xFFFFFFFFFFFFFFFFFFFFFFFFFFFFFFFFFFFFFFFF AND DUP3 PUSH1 0x40 MLOAD PUSH2 0x2F2B SWAP3 SWAP2 SWAP1 PUSH2 0x66FC JUMP JUMPDEST PUSH1 0x40 MLOAD DUP1 SWAP2 SUB SWAP1 LOG1 DUP1 PUSH1 0xB PUSH0 PUSH2 0x100 EXP DUP2 SLOAD DUP2 PUSH20 0xFFFFFFFFFFFFFFFFFFFFFFFFFFFFFFFFFFFFFFFF MUL NOT AND SWAP1 DUP4 PUSH20 0xFFFFFFFFFFFFFFFFFFFFFFFFFFFFFFFFFFFFFFFF AND MUL OR SWAP1 SSTORE POP POP JUMP JUMPDEST PUSH0 PUSH1 0x1 SWAP1 POP SWAP2 SWAP1 POP JUMP JUMPDEST PUSH0 PUSH1 0x7 SLOAD SWAP1 POP SWAP1 JUMP JUMPDEST PUSH1 0x60 DUP3 PUSH2 0x2F9E JUMPI PUSH2 0x2F99 DUP3 PUSH2 0x4018 JUMP JUMPDEST PUSH2 0x2FA6 JUMP JUMPDEST DUP2 SWAP1 POP PUSH2 0x2FA7 JUMP JUMPDEST JUMPDEST SWAP3 SWAP2 POP POP JUMP JUMPDEST PUSH0 DUP2 PUSH4 0xFFFFFFFF AND SUB PUSH2 0x2FF7 JUMPI PUSH0 PUSH1 0x40 MLOAD PUSH32 0xF1CFBF0500000000000000000000000000000000000000000000000000000000 DUP2 MSTORE PUSH1 0x4 ADD PUSH2 0x2FEE SWAP2 SWAP1 PUSH2 0x675C JUMP JUMPDEST PUSH1 0x40 MLOAD DUP1 SWAP2 SUB SWAP1 REVERT JUMPDEST PUSH32 0x7E3F7F0708A84DE9203036ABAA450DCCC85AD5FF52F78C170F3EDB55CF5E8828 PUSH1 0x8 PUSH1 0x6 SWAP1 SLOAD SWAP1 PUSH2 0x100 EXP SWAP1 DIV PUSH4 0xFFFFFFFF AND DUP3 PUSH1 0x40 MLOAD PUSH2 0x303A SWAP3 SWAP2 SWAP1 PUSH2 0x67A5 JUMP JUMPDEST PUSH1 0x40 MLOAD DUP1 SWAP2 SUB SWAP1 LOG1 DUP1 PUSH1 0x8 PUSH1 0x6 PUSH2 0x100 EXP DUP2 SLOAD DUP2 PUSH4 0xFFFFFFFF MUL NOT AND SWAP1 DUP4 PUSH4 0xFFFFFFFF AND MUL OR SWAP1 SSTORE POP POP JUMP JUMPDEST PUSH1 0x60 PUSH1 0x40 MLOAD DUP1 PUSH1 0x20 ADD PUSH1 0x40 MSTORE DUP1 PUSH0 DUP2 MSTORE POP SWAP1 POP SWAP1 JUMP JUMPDEST PUSH32 0xCCB45DA8D5717E6C4544694297C4BA5CF151D455C9BB0ED4FC7A38411BC05461 PUSH1 0x7 SLOAD DUP3 PUSH1 0x40 MLOAD PUSH2 0x30AF SWAP3 SWAP2 SWAP1 PUSH2 0x6289 JUMP JUMPDEST PUSH1 0x40 MLOAD DUP1 SWAP2 SUB SWAP1 LOG1 DUP1 PUSH1 0x7 DUP2 SWAP1 SSTORE POP POP JUMP JUMPDEST PUSH0 PUSH2 0x30CA PUSH2 0x1A53 JUMP JUMPDEST PUSH2 0x30D3 DUP4 PUSH2 0x15A9 JUMP JUMPDEST PUSH2 0x30DB PUSH2 0x1E0F JUMP JUMPDEST PUSH20 0xFFFFFFFFFFFFFFFFFFFFFFFFFFFFFFFFFFFFFFFF AND PUSH4 0x8E539E8C DUP6 PUSH1 0x40 MLOAD DUP3 PUSH4 0xFFFFFFFF AND PUSH1 0xE0 SHL DUP2 MSTORE PUSH1 0x4 ADD PUSH2 0x3113 SWAP2 SWAP1 PUSH2 0x495A JUMP JUMPDEST PUSH1 0x20 PUSH1 0x40 MLOAD DUP1 DUP4 SUB DUP2 DUP7 GAS STATICCALL ISZERO DUP1 ISZERO PUSH2 0x312E JUMPI RETURNDATASIZE PUSH0 DUP1 RETURNDATACOPY RETURNDATASIZE PUSH0 REVERT JUMPDEST POP POP POP POP PUSH1 0x40 MLOAD RETURNDATASIZE PUSH1 0x1F NOT PUSH1 0x1F DUP3 ADD AND DUP3 ADD DUP1 PUSH1 0x40 MSTORE POP DUP2 ADD SWAP1 PUSH2 0x3152 SWAP2 SWAP1 PUSH2 0x66D1 JUMP JUMPDEST PUSH2 0x315C SWAP2 SWAP1 PUSH2 0x67CC JUMP JUMPDEST PUSH2 0x3166 SWAP2 SWAP1 PUSH2 0x683A JUMP JUMPDEST SWAP1 POP SWAP2 SWAP1 POP JUMP JUMPDEST PUSH0 PUSH32 0x1FFC9A700000000000000000000000000000000000000000000000000000000 PUSH28 0xFFFFFFFFFFFFFFFFFFFFFFFFFFFFFFFFFFFFFFFFFFFFFFFFFFFFFFFF NOT AND DUP3 PUSH28 0xFFFFFFFFFFFFFFFFFFFFFFFFFFFFFFFFFFFFFFFFFFFFFFFFFFFFFFFF NOT AND EQ SWAP1 POP SWAP2 SWAP1 POP JUMP JUMPDEST CALLDATASIZE PUSH0 DUP1 CALLDATASIZE SWAP2 POP SWAP2 POP SWAP1 SWAP2 JUMP JUMPDEST PUSH0 DUP1 DUP3 PUSH0 ADD PUSH0 SWAP1 SLOAD SWAP1 PUSH2 0x100 EXP SWAP1 DIV PUSH16 0xFFFFFFFFFFFFFFFFFFFFFFFFFFFFFFFF AND SWAP1 POP DUP3 PUSH0 ADD PUSH1 0x10 SWAP1 SLOAD SWAP1 PUSH2 0x100 EXP SWAP1 DIV PUSH16 0xFFFFFFFFFFFFFFFFFFFFFFFFFFFFFFFF AND PUSH16 0xFFFFFFFFFFFFFFFFFFFFFFFFFFFFFFFF AND DUP2 PUSH16 0xFFFFFFFFFFFFFFFFFFFFFFFFFFFFFFFF AND SUB PUSH2 0x3281 JUMPI PUSH1 0x40 MLOAD PUSH32 0x75E52F4F00000000000000000000000000000000000000000000000000000000 DUP2 MSTORE PUSH1 0x4 ADD PUSH1 0x40 MLOAD DUP1 SWAP2 SUB SWAP1 REVERT JUMPDEST DUP3 PUSH1 0x1 ADD PUSH0 DUP3 PUSH16 0xFFFFFFFFFFFFFFFFFFFFFFFFFFFFFFFF AND PUSH16 0xFFFFFFFFFFFFFFFFFFFFFFFFFFFFFFFF AND DUP2 MSTORE PUSH1 0x20 ADD SWAP1 DUP2 MSTORE PUSH1 0x20 ADD PUSH0 KECCAK256 SLOAD SWAP2 POP DUP3 PUSH1 0x1 ADD PUSH0 DUP3 PUSH16 0xFFFFFFFFFFFFFFFFFFFFFFFFFFFFFFFF AND PUSH16 0xFFFFFFFFFFFFFFFFFFFFFFFFFFFFFFFF AND DUP2 MSTORE PUSH1 0x20 ADD SWAP1 DUP2 MSTORE PUSH1 0x20 ADD PUSH0 KECCAK256 PUSH0 SWAP1 SSTORE PUSH1 0x1 DUP2 ADD DUP4 PUSH0 ADD PUSH0 PUSH2 0x100 EXP DUP2 SLOAD DUP2 PUSH16 0xFFFFFFFFFFFFFFFFFFFFFFFFFFFFFFFF MUL NOT AND SWAP1 DUP4 PUSH16 0xFFFFFFFFFFFFFFFFFFFFFFFFFFFFFFFF AND MUL OR SWAP1 SSTORE POP POP SWAP2 SWAP1 POP JUMP JUMPDEST PUSH0 PUSH26 0xFFFFFFFFFFFFFFFFFFFFFFFFFFFFFFFFFFFFFFFFFFFFFFFFFFFF DUP1 AND DUP3 GT ISZERO PUSH2 0x339C JUMPI PUSH1 0xD0 DUP3 PUSH1 0x40 MLOAD PUSH32 0x6DFCC65000000000000000000000000000000000000000000000000000000000 DUP2 MSTORE PUSH1 0x4 ADD PUSH2 0x3393 SWAP3 SWAP2 SWAP1 PUSH2 0x68A3 JUMP JUMPDEST PUSH1 0x40 MLOAD DUP1 SWAP2 SUB SWAP1 REVERT JUMPDEST DUP2 SWAP1 POP SWAP2 SWAP1 POP JUMP JUMPDEST PUSH0 DUP1 PUSH2 0x33B3 DUP6 PUSH0 ADD DUP6 DUP6 PUSH2 0x405C JUMP JUMPDEST SWAP2 POP SWAP2 POP SWAP4 POP SWAP4 SWAP2 POP POP JUMP JUMPDEST PUSH0 DUP1 PUSH1 0xB PUSH0 SWAP1 SLOAD SWAP1 PUSH2 0x100 EXP SWAP1 DIV PUSH20 0xFFFFFFFFFFFFFFFFFFFFFFFFFFFFFFFFFFFFFFFF AND PUSH20 0xFFFFFFFFFFFFFFFFFFFFFFFFFFFFFFFFFFFFFFFF AND PUSH4 0xF27A0C92 PUSH1 0x40 MLOAD DUP2 PUSH4 0xFFFFFFFF AND PUSH1 0xE0 SHL DUP2 MSTORE PUSH1 0x4 ADD PUSH1 0x20 PUSH1 0x40 MLOAD DUP1 DUP4 SUB DUP2 DUP7 GAS STATICCALL ISZERO DUP1 ISZERO PUSH2 0x342B JUMPI RETURNDATASIZE PUSH0 DUP1 RETURNDATACOPY RETURNDATASIZE PUSH0 REVERT JUMPDEST POP POP POP POP PUSH1 0x40 MLOAD RETURNDATASIZE PUSH1 0x1F NOT PUSH1 0x1F DUP3 ADD AND DUP3 ADD DUP1 PUSH1 0x40 MSTORE POP DUP2 ADD SWAP1 PUSH2 0x344F SWAP2 SWAP1 PUSH2 0x66D1 JUMP JUMPDEST SWAP1 POP PUSH0 PUSH2 0x345B DUP5 PUSH2 0x43C4 JUMP JUMPDEST SWAP1 POP PUSH1 0xB PUSH0 SWAP1 SLOAD SWAP1 PUSH2 0x100 EXP SWAP1 DIV PUSH20 0xFFFFFFFFFFFFFFFFFFFFFFFFFFFFFFFFFFFFFFFF AND PUSH20 0xFFFFFFFFFFFFFFFFFFFFFFFFFFFFFFFFFFFFFFFF AND PUSH4 0xB1C5F427 DUP9 DUP9 DUP9 PUSH0 DUP7 PUSH1 0x40 MLOAD DUP7 PUSH4 0xFFFFFFFF AND PUSH1 0xE0 SHL DUP2 MSTORE PUSH1 0x4 ADD PUSH2 0x34BF SWAP6 SWAP5 SWAP4 SWAP3 SWAP2 SWAP1 PUSH2 0x6905 JUMP JUMPDEST PUSH1 0x20 PUSH1 0x40 MLOAD DUP1 DUP4 SUB DUP2 DUP7 GAS STATICCALL ISZERO DUP1 ISZERO PUSH2 0x34DA JUMPI RETURNDATASIZE PUSH0 DUP1 RETURNDATACOPY RETURNDATASIZE PUSH0 REVERT JUMPDEST POP POP POP POP PUSH1 0x40 MLOAD RETURNDATASIZE PUSH1 0x1F NOT PUSH1 0x1F DUP3 ADD AND DUP3 ADD DUP1 PUSH1 0x40 MSTORE POP DUP2 ADD SWAP1 PUSH2 0x34FE SWAP2 SWAP1 PUSH2 0x697F JUMP JUMPDEST PUSH1 0xC PUSH0 DUP11 DUP2 MSTORE PUSH1 0x20 ADD SWAP1 DUP2 MSTORE PUSH1 0x20 ADD PUSH0 KECCAK256 DUP2 SWAP1 SSTORE POP PUSH1 0xB PUSH0 SWAP1 SLOAD SWAP1 PUSH2 0x100 EXP SWAP1 DIV PUSH20 0xFFFFFFFFFFFFFFFFFFFFFFFFFFFFFFFFFFFFFFFF AND PUSH20 0xFFFFFFFFFFFFFFFFFFFFFFFFFFFFFFFFFFFFFFFF AND PUSH4 0x8F2A0BB0 DUP9 DUP9 DUP9 PUSH0 DUP7 DUP9 PUSH1 0x40 MLOAD DUP8 PUSH4 0xFFFFFFFF AND PUSH1 0xE0 SHL DUP2 MSTORE PUSH1 0x4 ADD PUSH2 0x3577 SWAP7 SWAP6 SWAP5 SWAP4 SWAP3 SWAP2 SWAP1 PUSH2 0x69AA JUMP JUMPDEST PUSH0 PUSH1 0x40 MLOAD DUP1 DUP4 SUB DUP2 PUSH0 DUP8 DUP1 EXTCODESIZE ISZERO DUP1 ISZERO PUSH2 0x358E JUMPI PUSH0 DUP1 REVERT JUMPDEST POP GAS CALL ISZERO DUP1 ISZERO PUSH2 0x35A0 JUMPI RETURNDATASIZE PUSH0 DUP1 RETURNDATACOPY RETURNDATASIZE PUSH0 REVERT JUMPDEST POP POP POP POP PUSH2 0x35B8 DUP3 TIMESTAMP PUSH2 0x35B3 SWAP2 SWAP1 PUSH2 0x648B JUMP JUMPDEST PUSH2 0x27DC JUMP JUMPDEST SWAP3 POP POP POP SWAP6 SWAP5 POP POP POP POP POP JUMP JUMPDEST PUSH1 0xB PUSH0 SWAP1 SLOAD SWAP1 PUSH2 0x100 EXP SWAP1 DIV PUSH20 0xFFFFFFFFFFFFFFFFFFFFFFFFFFFFFFFFFFFFFFFF AND PUSH20 0xFFFFFFFFFFFFFFFFFFFFFFFFFFFFFFFFFFFFFFFF AND PUSH4 0xE38335E5 CALLVALUE DUP7 DUP7 DUP7 PUSH0 PUSH2 0x3610 DUP9 PUSH2 0x43C4 JUMP JUMPDEST PUSH1 0x40 MLOAD DUP8 PUSH4 0xFFFFFFFF AND PUSH1 0xE0 SHL DUP2 MSTORE PUSH1 0x4 ADD PUSH2 0x3630 SWAP6 SWAP5 SWAP4 SWAP3 SWAP2 SWAP1 PUSH2 0x6905 JUMP JUMPDEST PUSH0 PUSH1 0x40 MLOAD DUP1 DUP4 SUB DUP2 DUP6 DUP9 DUP1 EXTCODESIZE ISZERO DUP1 ISZERO PUSH2 0x3647 JUMPI PUSH0 DUP1 REVERT JUMPDEST POP GAS CALL ISZERO DUP1 ISZERO PUSH2 0x3659 JUMPI RETURNDATASIZE PUSH0 DUP1 RETURNDATACOPY RETURNDATASIZE PUSH0 REVERT JUMPDEST POP POP POP POP POP PUSH1 0xC PUSH0 DUP7 DUP2 MSTORE PUSH1 0x20 ADD SWAP1 DUP2 MSTORE PUSH1 0x20 ADD PUSH0 KECCAK256 PUSH0 SWAP1 SSTORE POP POP POP POP POP JUMP JUMPDEST PUSH0 DUP1 PUSH1 0x4 PUSH0 DUP5 DUP2 MSTORE PUSH1 0x20 ADD SWAP1 DUP2 MSTORE PUSH1 0x20 ADD PUSH0 KECCAK256 SWAP1 POP PUSH0 DUP2 PUSH0 ADD PUSH1 0x1E SWAP1 SLOAD SWAP1 PUSH2 0x100 EXP SWAP1 DIV PUSH1 0xFF AND SWAP1 POP PUSH0 DUP3 PUSH0 ADD PUSH1 0x1F SWAP1 SLOAD SWAP1 PUSH2 0x100 EXP SWAP1 DIV PUSH1 0xFF AND SWAP1 POP DUP2 ISZERO PUSH2 0x36C8 JUMPI PUSH1 0x7 SWAP4 POP POP POP POP PUSH2 0x37CB JUMP JUMPDEST DUP1 ISZERO PUSH2 0x36DA JUMPI PUSH1 0x2 SWAP4 POP POP POP POP PUSH2 0x37CB JUMP JUMPDEST PUSH0 PUSH2 0x36E4 DUP7 PUSH2 0x1118 JUMP JUMPDEST SWAP1 POP PUSH0 DUP2 SUB PUSH2 0x372A JUMPI DUP6 PUSH1 0x40 MLOAD PUSH32 0x6AD0607500000000000000000000000000000000000000000000000000000000 DUP2 MSTORE PUSH1 0x4 ADD PUSH2 0x3721 SWAP2 SWAP1 PUSH2 0x495A JUMP JUMPDEST PUSH1 0x40 MLOAD DUP1 SWAP2 SUB SWAP1 REVERT JUMPDEST PUSH0 PUSH2 0x3733 PUSH2 0x19C8 JUMP JUMPDEST PUSH6 0xFFFFFFFFFFFF AND SWAP1 POP DUP1 DUP3 LT PUSH2 0x3751 JUMPI PUSH0 SWAP6 POP POP POP POP POP POP PUSH2 0x37CB JUMP JUMPDEST PUSH0 PUSH2 0x375B DUP9 PUSH2 0x1B85 JUMP JUMPDEST SWAP1 POP DUP2 DUP2 LT PUSH2 0x3773 JUMPI PUSH1 0x1 SWAP7 POP POP POP POP POP POP POP PUSH2 0x37CB JUMP JUMPDEST PUSH2 0x377C DUP9 PUSH2 0x43E1 JUMP JUMPDEST ISZERO DUP1 PUSH2 0x378E JUMPI POP PUSH2 0x378C DUP9 PUSH2 0x4425 JUMP JUMPDEST ISZERO JUMPDEST ISZERO PUSH2 0x37A2 JUMPI PUSH1 0x3 SWAP7 POP POP POP POP POP POP POP PUSH2 0x37CB JUMP JUMPDEST PUSH0 PUSH2 0x37AC DUP10 PUSH2 0x1AC1 JUMP JUMPDEST SUB PUSH2 0x37C0 JUMPI PUSH1 0x4 SWAP7 POP POP POP POP POP POP POP PUSH2 0x37CB JUMP JUMPDEST PUSH1 0x5 SWAP7 POP POP POP POP POP POP POP JUMPDEST SWAP2 SWAP1 POP JUMP JUMPDEST PUSH0 DUP1 PUSH2 0x37DE DUP7 DUP7 DUP7 DUP7 PUSH2 0x444C JUMP JUMPDEST SWAP1 POP PUSH0 PUSH1 0xC PUSH0 DUP4 DUP2 MSTORE PUSH1 0x20 ADD SWAP1 DUP2 MSTORE PUSH1 0x20 ADD PUSH0 KECCAK256 SLOAD SWAP1 POP PUSH0 DUP1 SHL DUP2 EQ PUSH2 0x389A JUMPI PUSH1 0xB PUSH0 SWAP1 SLOAD SWAP1 PUSH2 0x100 EXP SWAP1 DIV PUSH20 0xFFFFFFFFFFFFFFFFFFFFFFFFFFFFFFFFFFFFFFFF AND PUSH20 0xFFFFFFFFFFFFFFFFFFFFFFFFFFFFFFFFFFFFFFFF AND PUSH4 0xC4D252F5 DUP3 PUSH1 0x40 MLOAD DUP3 PUSH4 0xFFFFFFFF AND PUSH1 0xE0 SHL DUP2 MSTORE PUSH1 0x4 ADD PUSH2 0x3858 SWAP2 SWAP1 PUSH2 0x5024 JUMP JUMPDEST PUSH0 PUSH1 0x40 MLOAD DUP1 DUP4 SUB DUP2 PUSH0 DUP8 DUP1 EXTCODESIZE ISZERO DUP1 ISZERO PUSH2 0x386F JUMPI PUSH0 DUP1 REVERT JUMPDEST POP GAS CALL ISZERO DUP1 ISZERO PUSH2 0x3881 JUMPI RETURNDATASIZE PUSH0 DUP1 RETURNDATACOPY RETURNDATASIZE PUSH0 REVERT JUMPDEST POP POP POP POP PUSH1 0xC PUSH0 DUP4 DUP2 MSTORE PUSH1 0x20 ADD SWAP1 DUP2 MSTORE PUSH1 0x20 ADD PUSH0 KECCAK256 PUSH0 SWAP1 SSTORE JUMPDEST DUP2 SWAP3 POP POP POP SWAP5 SWAP4 POP POP POP POP JUMP JUMPDEST PUSH0 PUSH32 0x0 PUSH20 0xFFFFFFFFFFFFFFFFFFFFFFFFFFFFFFFFFFFFFFFF AND ADDRESS PUSH20 0xFFFFFFFFFFFFFFFFFFFFFFFFFFFFFFFFFFFFFFFF AND EQ DUP1 ISZERO PUSH2 0x3922 JUMPI POP PUSH32 0x0 CHAINID EQ JUMPDEST ISZERO PUSH2 0x394F JUMPI PUSH32 0x0 SWAP1 POP PUSH2 0x395A JUMP JUMPDEST PUSH2 0x3957 PUSH2 0x452E JUMP JUMPDEST SWAP1 POP JUMPDEST SWAP1 JUMP JUMPDEST PUSH0 PUSH1 0x40 MLOAD PUSH32 0x1901000000000000000000000000000000000000000000000000000000000000 DUP2 MSTORE DUP4 PUSH1 0x2 DUP3 ADD MSTORE DUP3 PUSH1 0x22 DUP3 ADD MSTORE PUSH1 0x42 DUP2 KECCAK256 SWAP2 POP POP SWAP3 SWAP2 POP POP JUMP JUMPDEST PUSH0 DUP1 PUSH0 PUSH1 0x41 DUP5 MLOAD SUB PUSH2 0x39DD JUMPI PUSH0 DUP1 PUSH0 PUSH1 0x20 DUP8 ADD MLOAD SWAP3 POP PUSH1 0x40 DUP8 ADD MLOAD SWAP2 POP PUSH1 0x60 DUP8 ADD MLOAD PUSH0 BYTE SWAP1 POP PUSH2 0x39CF DUP9 DUP3 DUP6 DUP6 PUSH2 0x45C3 JUMP JUMPDEST SWAP6 POP SWAP6 POP SWAP6 POP POP POP POP PUSH2 0x39EB JUMP JUMPDEST PUSH0 PUSH1 0x2 DUP6 MLOAD PUSH0 SHL SWAP3 POP SWAP3 POP SWAP3 POP JUMPDEST SWAP3 POP SWAP3 POP SWAP3 JUMP JUMPDEST PUSH0 DUP1 PUSH0 DUP6 PUSH20 0xFFFFFFFFFFFFFFFFFFFFFFFFFFFFFFFFFFFFFFFF AND DUP6 DUP6 PUSH1 0x40 MLOAD PUSH1 0x24 ADD PUSH2 0x3A1F SWAP3 SWAP2 SWAP1 PUSH2 0x6A1E JUMP JUMPDEST PUSH1 0x40 MLOAD PUSH1 0x20 DUP2 DUP4 SUB SUB DUP2 MSTORE SWAP1 PUSH1 0x40 MSTORE PUSH4 0x1626BA7E PUSH1 0xE0 SHL PUSH1 0x20 DUP3 ADD DUP1 MLOAD PUSH28 0xFFFFFFFFFFFFFFFFFFFFFFFFFFFFFFFFFFFFFFFFFFFFFFFFFFFFFFFF DUP4 DUP2 DUP4 AND OR DUP4 MSTORE POP POP POP POP PUSH1 0x40 MLOAD PUSH2 0x3A71 SWAP2 SWAP1 PUSH2 0x6A7C JUMP JUMPDEST PUSH0 PUSH1 0x40 MLOAD DUP1 DUP4 SUB DUP2 DUP6 GAS STATICCALL SWAP2 POP POP RETURNDATASIZE DUP1 PUSH0 DUP2 EQ PUSH2 0x3AA9 JUMPI PUSH1 0x40 MLOAD SWAP2 POP PUSH1 0x1F NOT PUSH1 0x3F RETURNDATASIZE ADD AND DUP3 ADD PUSH1 0x40 MSTORE RETURNDATASIZE DUP3 MSTORE RETURNDATASIZE PUSH0 PUSH1 0x20 DUP5 ADD RETURNDATACOPY PUSH2 0x3AAE JUMP JUMPDEST PUSH1 0x60 SWAP2 POP JUMPDEST POP SWAP2 POP SWAP2 POP DUP2 DUP1 ISZERO PUSH2 0x3AC2 JUMPI POP PUSH1 0x20 DUP2 MLOAD LT ISZERO JUMPDEST DUP1 ISZERO PUSH2 0x3B06 JUMPI POP PUSH4 0x1626BA7E PUSH1 0xE0 SHL PUSH28 0xFFFFFFFFFFFFFFFFFFFFFFFFFFFFFFFFFFFFFFFFFFFFFFFFFFFFFFFF NOT AND DUP2 DUP1 PUSH1 0x20 ADD SWAP1 MLOAD DUP2 ADD SWAP1 PUSH2 0x3B04 SWAP2 SWAP1 PUSH2 0x697F JUMP JUMPDEST EQ JUMPDEST SWAP3 POP POP POP SWAP4 SWAP3 POP POP POP JUMP JUMPDEST PUSH0 PUSH1 0x9 PUSH0 DUP8 DUP2 MSTORE PUSH1 0x20 ADD SWAP1 DUP2 MSTORE PUSH1 0x20 ADD PUSH0 KECCAK256 SWAP1 POP DUP1 PUSH1 0x3 ADD PUSH0 DUP7 PUSH20 0xFFFFFFFFFFFFFFFFFFFFFFFFFFFFFFFFFFFFFFFF AND PUSH20 0xFFFFFFFFFFFFFFFFFFFFFFFFFFFFFFFFFFFFFFFF AND DUP2 MSTORE PUSH1 0x20 ADD SWAP1 DUP2 MSTORE PUSH1 0x20 ADD PUSH0 KECCAK256 PUSH0 SWAP1 SLOAD SWAP1 PUSH2 0x100 EXP SWAP1 DIV PUSH1 0xFF AND ISZERO PUSH2 0x3BB3 JUMPI DUP5 PUSH1 0x40 MLOAD PUSH32 0x71C6AF4900000000000000000000000000000000000000000000000000000000 DUP2 MSTORE PUSH1 0x4 ADD PUSH2 0x3BAA SWAP2 SWAP1 PUSH2 0x4AB1 JUMP JUMPDEST PUSH1 0x40 MLOAD DUP1 SWAP2 SUB SWAP1 REVERT JUMPDEST PUSH1 0x1 DUP2 PUSH1 0x3 ADD PUSH0 DUP8 PUSH20 0xFFFFFFFFFFFFFFFFFFFFFFFFFFFFFFFFFFFFFFFF AND PUSH20 0xFFFFFFFFFFFFFFFFFFFFFFFFFFFFFFFFFFFFFFFF AND DUP2 MSTORE PUSH1 0x20 ADD SWAP1 DUP2 MSTORE PUSH1 0x20 ADD PUSH0 KECCAK256 PUSH0 PUSH2 0x100 EXP DUP2 SLOAD DUP2 PUSH1 0xFF MUL NOT AND SWAP1 DUP4 ISZERO ISZERO MUL OR SWAP1 SSTORE POP PUSH0 PUSH1 0x2 DUP2 GT ISZERO PUSH2 0x3C1D JUMPI PUSH2 0x3C1C PUSH2 0x503D JUMP JUMPDEST JUMPDEST PUSH1 0xFF AND DUP5 PUSH1 0xFF AND SUB PUSH2 0x3C47 JUMPI DUP3 DUP2 PUSH0 ADD PUSH0 DUP3 DUP3 SLOAD PUSH2 0x3C3B SWAP2 SWAP1 PUSH2 0x648B JUMP JUMPDEST SWAP3 POP POP DUP2 SWAP1 SSTORE POP PUSH2 0x3CF8 JUMP JUMPDEST PUSH1 0x1 PUSH1 0x2 DUP2 GT ISZERO PUSH2 0x3C5B JUMPI PUSH2 0x3C5A PUSH2 0x503D JUMP JUMPDEST JUMPDEST PUSH1 0xFF AND DUP5 PUSH1 0xFF AND SUB PUSH2 0x3C86 JUMPI DUP3 DUP2 PUSH1 0x1 ADD PUSH0 DUP3 DUP3 SLOAD PUSH2 0x3C7A SWAP2 SWAP1 PUSH2 0x648B JUMP JUMPDEST SWAP3 POP POP DUP2 SWAP1 SSTORE POP PUSH2 0x3CF7 JUMP JUMPDEST PUSH1 0x2 DUP1 DUP2 GT ISZERO PUSH2 0x3C99 JUMPI PUSH2 0x3C98 PUSH2 0x503D JUMP JUMPDEST JUMPDEST PUSH1 0xFF AND DUP5 PUSH1 0xFF AND SUB PUSH2 0x3CC4 JUMPI DUP3 DUP2 PUSH1 0x2 ADD PUSH0 DUP3 DUP3 SLOAD PUSH2 0x3CB8 SWAP2 SWAP1 PUSH2 0x648B JUMP JUMPDEST SWAP3 POP POP DUP2 SWAP1 SSTORE POP PUSH2 0x3CF6 JUMP JUMPDEST PUSH1 0x40 MLOAD PUSH32 0x6B337C200000000000000000000000000000000000000000000000000000000 DUP2 MSTORE PUSH1 0x4 ADD PUSH1 0x40 MLOAD DUP1 SWAP2 SUB SWAP1 REVERT JUMPDEST JUMPDEST JUMPDEST POP POP POP POP POP POP JUMP JUMPDEST PUSH0 DUP1 DUP3 SUB PUSH2 0x3D10 JUMPI PUSH0 SWAP1 POP PUSH2 0x3DF1 JUMP JUMPDEST PUSH0 PUSH1 0x1 PUSH2 0x3D1C DUP5 PUSH2 0x46AA JUMP JUMPDEST SWAP1 SHR PUSH1 0x1 SWAP1 SHL SWAP1 POP PUSH1 0x1 DUP2 DUP5 DUP2 PUSH2 0x3D36 JUMPI PUSH2 0x3D35 PUSH2 0x680D JUMP JUMPDEST JUMPDEST DIV DUP3 ADD SWAP1 SHR SWAP1 POP PUSH1 0x1 DUP2 DUP5 DUP2 PUSH2 0x3D4F JUMPI PUSH2 0x3D4E PUSH2 0x680D JUMP JUMPDEST JUMPDEST DIV DUP3 ADD SWAP1 SHR SWAP1 POP PUSH1 0x1 DUP2 DUP5 DUP2 PUSH2 0x3D68 JUMPI PUSH2 0x3D67 PUSH2 0x680D JUMP JUMPDEST JUMPDEST DIV DUP3 ADD SWAP1 SHR SWAP1 POP PUSH1 0x1 DUP2 DUP5 DUP2 PUSH2 0x3D81 JUMPI PUSH2 0x3D80 PUSH2 0x680D JUMP JUMPDEST JUMPDEST DIV DUP3 ADD SWAP1 SHR SWAP1 POP PUSH1 0x1 DUP2 DUP5 DUP2 PUSH2 0x3D9A JUMPI PUSH2 0x3D99 PUSH2 0x680D JUMP JUMPDEST JUMPDEST DIV DUP3 ADD SWAP1 SHR SWAP1 POP PUSH1 0x1 DUP2 DUP5 DUP2 PUSH2 0x3DB3 JUMPI PUSH2 0x3DB2 PUSH2 0x680D JUMP JUMPDEST JUMPDEST DIV DUP3 ADD SWAP1 SHR SWAP1 POP PUSH1 0x1 DUP2 DUP5 DUP2 PUSH2 0x3DCC JUMPI PUSH2 0x3DCB PUSH2 0x680D JUMP JUMPDEST JUMPDEST DIV DUP3 ADD SWAP1 SHR SWAP1 POP PUSH2 0x3DED DUP2 DUP3 DUP6 DUP2 PUSH2 0x3DE7 JUMPI PUSH2 0x3DE6 PUSH2 0x680D JUMP JUMPDEST JUMPDEST DIV PUSH2 0x4781 JUMP JUMPDEST SWAP2 POP POP JUMPDEST SWAP2 SWAP1 POP JUMP JUMPDEST PUSH0 DUP3 PUSH0 MSTORE DUP2 PUSH1 0x20 PUSH0 KECCAK256 ADD SWAP1 POP SWAP3 SWAP2 POP POP JUMP JUMPDEST PUSH0 JUMPDEST DUP2 DUP4 LT ISZERO PUSH2 0x3E72 JUMPI PUSH0 PUSH2 0x3E1D DUP5 DUP5 PUSH2 0x4799 JUMP JUMPDEST SWAP1 POP DUP5 PUSH6 0xFFFFFFFFFFFF AND PUSH2 0x3E32 DUP8 DUP4 PUSH2 0x3DF6 JUMP JUMPDEST PUSH0 ADD PUSH0 SWAP1 SLOAD SWAP1 PUSH2 0x100 EXP SWAP1 DIV PUSH6 0xFFFFFFFFFFFF AND PUSH6 0xFFFFFFFFFFFF AND GT ISZERO PUSH2 0x3E5C JUMPI DUP1 SWAP3 POP PUSH2 0x3E6C JUMP JUMPDEST PUSH1 0x1 DUP2 PUSH2 0x3E69 SWAP2 SWAP1 PUSH2 0x648B JUMP JUMPDEST SWAP4 POP JUMPDEST POP PUSH2 0x3E0A JUMP JUMPDEST DUP2 SWAP1 POP SWAP5 SWAP4 POP POP POP POP JUMP JUMPDEST PUSH0 DUP1 PUSH0 DUP4 PUSH1 0xF8 SHR SWAP1 POP DUP1 PUSH1 0xFF AND PUSH1 0x2F LT DUP1 ISZERO PUSH2 0x3E9C JUMPI POP PUSH1 0x3A DUP2 PUSH1 0xFF AND LT JUMPDEST ISZERO PUSH2 0x3EB1 JUMPI PUSH1 0x1 PUSH1 0x30 DUP3 SUB SWAP3 POP SWAP3 POP POP PUSH2 0x3F0F JUMP JUMPDEST DUP1 PUSH1 0xFF AND PUSH1 0x40 LT DUP1 ISZERO PUSH2 0x3EC7 JUMPI POP PUSH1 0x47 DUP2 PUSH1 0xFF AND LT JUMPDEST ISZERO PUSH2 0x3EDC JUMPI PUSH1 0x1 PUSH1 0x37 DUP3 SUB SWAP3 POP SWAP3 POP POP PUSH2 0x3F0F JUMP JUMPDEST DUP1 PUSH1 0xFF AND PUSH1 0x60 LT DUP1 ISZERO PUSH2 0x3EF2 JUMPI POP PUSH1 0x67 DUP2 PUSH1 0xFF AND LT JUMPDEST ISZERO PUSH2 0x3F07 JUMPI PUSH1 0x1 PUSH1 0x57 DUP3 SUB SWAP3 POP SWAP3 POP POP PUSH2 0x3F0F JUMP JUMPDEST PUSH0 DUP1 SWAP3 POP SWAP3 POP POP JUMPDEST SWAP2 POP SWAP2 JUMP JUMPDEST PUSH0 PUSH4 0xFFFFFFFF DUP1 AND DUP3 GT ISZERO PUSH2 0x3F63 JUMPI PUSH1 0x20 DUP3 PUSH1 0x40 MLOAD PUSH32 0x6DFCC65000000000000000000000000000000000000000000000000000000000 DUP2 MSTORE PUSH1 0x4 ADD PUSH2 0x3F5A SWAP3 SWAP2 SWAP1 PUSH2 0x6ACB JUMP JUMPDEST PUSH1 0x40 MLOAD DUP1 SWAP2 SUB SWAP1 REVERT JUMPDEST DUP2 SWAP1 POP SWAP2 SWAP1 POP JUMP JUMPDEST PUSH1 0x60 PUSH1 0xFF PUSH0 SHL DUP4 EQ PUSH2 0x3F87 JUMPI PUSH2 0x3F80 DUP4 PUSH2 0x47BE JUMP JUMPDEST SWAP1 POP PUSH2 0x4012 JUMP JUMPDEST DUP2 DUP1 SLOAD PUSH2 0x3F93 SWAP1 PUSH2 0x5C64 JUMP JUMPDEST DUP1 PUSH1 0x1F ADD PUSH1 0x20 DUP1 SWAP2 DIV MUL PUSH1 0x20 ADD PUSH1 0x40 MLOAD SWAP1 DUP2 ADD PUSH1 0x40 MSTORE DUP1 SWAP3 SWAP2 SWAP1 DUP2 DUP2 MSTORE PUSH1 0x20 ADD DUP3 DUP1 SLOAD PUSH2 0x3FBF SWAP1 PUSH2 0x5C64 JUMP JUMPDEST DUP1 ISZERO PUSH2 0x400A JUMPI DUP1 PUSH1 0x1F LT PUSH2 0x3FE1 JUMPI PUSH2 0x100 DUP1 DUP4 SLOAD DIV MUL DUP4 MSTORE SWAP2 PUSH1 0x20 ADD SWAP2 PUSH2 0x400A JUMP JUMPDEST DUP3 ADD SWAP2 SWAP1 PUSH0 MSTORE PUSH1 0x20 PUSH0 KECCAK256 SWAP1 JUMPDEST DUP2 SLOAD DUP2 MSTORE SWAP1 PUSH1 0x1 ADD SWAP1 PUSH1 0x20 ADD DUP1 DUP4 GT PUSH2 0x3FED JUMPI DUP3 SWAP1 SUB PUSH1 0x1F AND DUP3 ADD SWAP2 JUMPDEST POP POP POP POP POP SWAP1 POP JUMPDEST SWAP3 SWAP2 POP POP JUMP JUMPDEST PUSH0 DUP2 MLOAD GT ISZERO PUSH2 0x402A JUMPI DUP1 MLOAD DUP1 DUP3 PUSH1 0x20 ADD REVERT JUMPDEST PUSH1 0x40 MLOAD PUSH32 0x1425EA4200000000000000000000000000000000000000000000000000000000 DUP2 MSTORE PUSH1 0x4 ADD PUSH1 0x40 MLOAD DUP1 SWAP2 SUB SWAP1 REVERT JUMPDEST PUSH0 DUP1 PUSH0 DUP6 DUP1 SLOAD SWAP1 POP SWAP1 POP PUSH0 DUP2 GT ISZERO PUSH2 0x42DC JUMPI PUSH0 PUSH2 0x4085 DUP8 PUSH1 0x1 DUP5 PUSH2 0x4080 SWAP2 SWAP1 PUSH2 0x5F03 JUMP JUMPDEST PUSH2 0x3DF6 JUMP JUMPDEST PUSH1 0x40 MLOAD DUP1 PUSH1 0x40 ADD PUSH1 0x40 MSTORE SWAP1 DUP2 PUSH0 DUP3 ADD PUSH0 SWAP1 SLOAD SWAP1 PUSH2 0x100 EXP SWAP1 DIV PUSH6 0xFFFFFFFFFFFF AND PUSH6 0xFFFFFFFFFFFF AND PUSH6 0xFFFFFFFFFFFF AND DUP2 MSTORE PUSH1 0x20 ADD PUSH0 DUP3 ADD PUSH1 0x6 SWAP1 SLOAD SWAP1 PUSH2 0x100 EXP SWAP1 DIV PUSH26 0xFFFFFFFFFFFFFFFFFFFFFFFFFFFFFFFFFFFFFFFFFFFFFFFFFFFF AND PUSH26 0xFFFFFFFFFFFFFFFFFFFFFFFFFFFFFFFFFFFFFFFFFFFFFFFFFFFF AND PUSH26 0xFFFFFFFFFFFFFFFFFFFFFFFFFFFFFFFFFFFFFFFFFFFFFFFFFFFF AND DUP2 MSTORE POP POP SWAP1 POP DUP6 PUSH6 0xFFFFFFFFFFFF AND DUP2 PUSH0 ADD MLOAD PUSH6 0xFFFFFFFFFFFF AND GT ISZERO PUSH2 0x4170 JUMPI PUSH1 0x40 MLOAD PUSH32 0x2520601D00000000000000000000000000000000000000000000000000000000 DUP2 MSTORE PUSH1 0x4 ADD PUSH1 0x40 MLOAD DUP1 SWAP2 SUB SWAP1 REVERT JUMPDEST DUP6 PUSH6 0xFFFFFFFFFFFF AND DUP2 PUSH0 ADD MLOAD PUSH6 0xFFFFFFFFFFFF AND SUB PUSH2 0x41F2 JUMPI DUP5 PUSH2 0x41A1 DUP9 PUSH1 0x1 DUP6 PUSH2 0x419C SWAP2 SWAP1 PUSH2 0x5F03 JUMP JUMPDEST PUSH2 0x3DF6 JUMP JUMPDEST PUSH0 ADD PUSH1 0x6 PUSH2 0x100 EXP DUP2 SLOAD DUP2 PUSH26 0xFFFFFFFFFFFFFFFFFFFFFFFFFFFFFFFFFFFFFFFFFFFFFFFFFFFF MUL NOT AND SWAP1 DUP4 PUSH26 0xFFFFFFFFFFFFFFFFFFFFFFFFFFFFFFFFFFFFFFFFFFFFFFFFFFFF AND MUL OR SWAP1 SSTORE POP PUSH2 0x42CB JUMP JUMPDEST DUP7 PUSH1 0x40 MLOAD DUP1 PUSH1 0x40 ADD PUSH1 0x40 MSTORE DUP1 DUP9 PUSH6 0xFFFFFFFFFFFF AND DUP2 MSTORE PUSH1 0x20 ADD DUP8 PUSH26 0xFFFFFFFFFFFFFFFFFFFFFFFFFFFFFFFFFFFFFFFFFFFFFFFFFFFF AND DUP2 MSTORE POP SWAP1 DUP1 PUSH1 0x1 DUP2 SLOAD ADD DUP1 DUP3 SSTORE DUP1 SWAP2 POP POP PUSH1 0x1 SWAP1 SUB SWAP1 PUSH0 MSTORE PUSH1 0x20 PUSH0 KECCAK256 ADD PUSH0 SWAP1 SWAP2 SWAP1 SWAP2 SWAP1 SWAP2 POP PUSH0 DUP3 ADD MLOAD DUP2 PUSH0 ADD PUSH0 PUSH2 0x100 EXP DUP2 SLOAD DUP2 PUSH6 0xFFFFFFFFFFFF MUL NOT AND SWAP1 DUP4 PUSH6 0xFFFFFFFFFFFF AND MUL OR SWAP1 SSTORE POP PUSH1 0x20 DUP3 ADD MLOAD DUP2 PUSH0 ADD PUSH1 0x6 PUSH2 0x100 EXP DUP2 SLOAD DUP2 PUSH26 0xFFFFFFFFFFFFFFFFFFFFFFFFFFFFFFFFFFFFFFFFFFFFFFFFFFFF MUL NOT AND SWAP1 DUP4 PUSH26 0xFFFFFFFFFFFFFFFFFFFFFFFFFFFFFFFFFFFFFFFFFFFFFFFFFFFF AND MUL OR SWAP1 SSTORE POP POP POP JUMPDEST DUP1 PUSH1 0x20 ADD MLOAD DUP6 SWAP4 POP SWAP4 POP POP POP PUSH2 0x43BC JUMP JUMPDEST DUP6 PUSH1 0x40 MLOAD DUP1 PUSH1 0x40 ADD PUSH1 0x40 MSTORE DUP1 DUP8 PUSH6 0xFFFFFFFFFFFF AND DUP2 MSTORE PUSH1 0x20 ADD DUP7 PUSH26 0xFFFFFFFFFFFFFFFFFFFFFFFFFFFFFFFFFFFFFFFFFFFFFFFFFFFF AND DUP2 MSTORE POP SWAP1 DUP1 PUSH1 0x1 DUP2 SLOAD ADD DUP1 DUP3 SSTORE DUP1 SWAP2 POP POP PUSH1 0x1 SWAP1 SUB SWAP1 PUSH0 MSTORE PUSH1 0x20 PUSH0 KECCAK256 ADD PUSH0 SWAP1 SWAP2 SWAP1 SWAP2 SWAP1 SWAP2 POP PUSH0 DUP3 ADD MLOAD DUP2 PUSH0 ADD PUSH0 PUSH2 0x100 EXP DUP2 SLOAD DUP2 PUSH6 0xFFFFFFFFFFFF MUL NOT AND SWAP1 DUP4 PUSH6 0xFFFFFFFFFFFF AND MUL OR SWAP1 SSTORE POP PUSH1 0x20 DUP3 ADD MLOAD DUP2 PUSH0 ADD PUSH1 0x6 PUSH2 0x100 EXP DUP2 SLOAD DUP2 PUSH26 0xFFFFFFFFFFFFFFFFFFFFFFFFFFFFFFFFFFFFFFFFFFFFFFFFFFFF MUL NOT AND SWAP1 DUP4 PUSH26 0xFFFFFFFFFFFFFFFFFFFFFFFFFFFFFFFFFFFFFFFFFFFFFFFFFFFF AND MUL OR SWAP1 SSTORE POP POP POP PUSH0 DUP5 SWAP3 POP SWAP3 POP POP JUMPDEST SWAP4 POP SWAP4 SWAP2 POP POP JUMP JUMPDEST PUSH0 DUP2 ADDRESS PUSH1 0x60 SHL PUSH12 0xFFFFFFFFFFFFFFFFFFFFFFFF NOT AND XOR SWAP1 POP SWAP2 SWAP1 POP JUMP JUMPDEST PUSH0 DUP1 PUSH1 0x9 PUSH0 DUP5 DUP2 MSTORE PUSH1 0x20 ADD SWAP1 DUP2 MSTORE PUSH1 0x20 ADD PUSH0 KECCAK256 SWAP1 POP DUP1 PUSH1 0x2 ADD SLOAD DUP2 PUSH1 0x1 ADD SLOAD PUSH2 0x440A SWAP2 SWAP1 PUSH2 0x648B JUMP JUMPDEST PUSH2 0x441B PUSH2 0x4416 DUP6 PUSH2 0x1118 JUMP JUMPDEST PUSH2 0x1DFE JUMP JUMPDEST GT ISZERO SWAP2 POP POP SWAP2 SWAP1 POP JUMP JUMPDEST PUSH0 DUP1 PUSH1 0x9 PUSH0 DUP5 DUP2 MSTORE PUSH1 0x20 ADD SWAP1 DUP2 MSTORE PUSH1 0x20 ADD PUSH0 KECCAK256 SWAP1 POP DUP1 PUSH0 ADD SLOAD DUP2 PUSH1 0x1 ADD SLOAD GT SWAP2 POP POP SWAP2 SWAP1 POP JUMP JUMPDEST PUSH0 DUP1 PUSH2 0x445A DUP7 DUP7 DUP7 DUP7 PUSH2 0x1C78 JUMP JUMPDEST SWAP1 POP PUSH2 0x44BE DUP2 PUSH2 0x446A PUSH1 0x7 PUSH2 0x2115 JUMP JUMPDEST PUSH2 0x4474 PUSH1 0x6 PUSH2 0x2115 JUMP JUMPDEST PUSH2 0x447E PUSH1 0x2 PUSH2 0x2115 JUMP JUMPDEST PUSH1 0x1 DUP1 PUSH1 0x7 DUP1 DUP2 GT ISZERO PUSH2 0x4494 JUMPI PUSH2 0x4493 PUSH2 0x503D JUMP JUMPDEST JUMPDEST PUSH2 0x449E SWAP2 SWAP1 PUSH2 0x6AF2 JUMP JUMPDEST PUSH1 0x2 PUSH2 0x44AA SWAP2 SWAP1 PUSH2 0x6C55 JUMP JUMPDEST PUSH2 0x44B4 SWAP2 SWAP1 PUSH2 0x5F03 JUMP JUMPDEST PUSH0 SHL XOR XOR XOR PUSH2 0x2139 JUMP JUMPDEST POP PUSH1 0x1 PUSH1 0x4 PUSH0 DUP4 DUP2 MSTORE PUSH1 0x20 ADD SWAP1 DUP2 MSTORE PUSH1 0x20 ADD PUSH0 KECCAK256 PUSH0 ADD PUSH1 0x1F PUSH2 0x100 EXP DUP2 SLOAD DUP2 PUSH1 0xFF MUL NOT AND SWAP1 DUP4 ISZERO ISZERO MUL OR SWAP1 SSTORE POP PUSH32 0x789CF55BE980739DAD1D0699B93B58E806B51C9D96619BFA8FE0A28ABAA7B30C DUP2 PUSH1 0x40 MLOAD PUSH2 0x451A SWAP2 SWAP1 PUSH2 0x495A JUMP JUMPDEST PUSH1 0x40 MLOAD DUP1 SWAP2 SUB SWAP1 LOG1 DUP1 SWAP2 POP POP SWAP5 SWAP4 POP POP POP POP JUMP JUMPDEST PUSH0 PUSH32 0x8B73C3C69BB8FE3D512ECC4CF759CC79239F7B179B0FFACAA9A75D522B39400F PUSH32 0x0 PUSH32 0x0 CHAINID ADDRESS PUSH1 0x40 MLOAD PUSH1 0x20 ADD PUSH2 0x45A8 SWAP6 SWAP5 SWAP4 SWAP3 SWAP2 SWAP1 PUSH2 0x6C9F JUMP JUMPDEST PUSH1 0x40 MLOAD PUSH1 0x20 DUP2 DUP4 SUB SUB DUP2 MSTORE SWAP1 PUSH1 0x40 MSTORE DUP1 MLOAD SWAP1 PUSH1 0x20 ADD KECCAK256 SWAP1 POP SWAP1 JUMP JUMPDEST PUSH0 DUP1 PUSH0 PUSH32 0x7FFFFFFFFFFFFFFFFFFFFFFFFFFFFFFF5D576E7357A4501DDFE92F46681B20A0 DUP5 PUSH0 SHR GT ISZERO PUSH2 0x45FF JUMPI PUSH0 PUSH1 0x3 DUP6 SWAP3 POP SWAP3 POP SWAP3 POP PUSH2 0x46A0 JUMP JUMPDEST PUSH0 PUSH1 0x1 DUP9 DUP9 DUP9 DUP9 PUSH1 0x40 MLOAD PUSH0 DUP2 MSTORE PUSH1 0x20 ADD PUSH1 0x40 MSTORE PUSH1 0x40 MLOAD PUSH2 0x4622 SWAP5 SWAP4 SWAP3 SWAP2 SWAP1 PUSH2 0x6CF0 JUMP JUMPDEST PUSH1 0x20 PUSH1 0x40 MLOAD PUSH1 0x20 DUP2 SUB SWAP1 DUP1 DUP5 SUB SWAP1 DUP6 GAS STATICCALL ISZERO DUP1 ISZERO PUSH2 0x4642 JUMPI RETURNDATASIZE PUSH0 DUP1 RETURNDATACOPY RETURNDATASIZE PUSH0 REVERT JUMPDEST POP POP POP PUSH1 0x20 PUSH1 0x40 MLOAD SUB MLOAD SWAP1 POP PUSH0 PUSH20 0xFFFFFFFFFFFFFFFFFFFFFFFFFFFFFFFFFFFFFFFF AND DUP2 PUSH20 0xFFFFFFFFFFFFFFFFFFFFFFFFFFFFFFFFFFFFFFFF AND SUB PUSH2 0x4693 JUMPI PUSH0 PUSH1 0x1 PUSH0 DUP1 SHL SWAP4 POP SWAP4 POP SWAP4 POP POP PUSH2 0x46A0 JUMP JUMPDEST DUP1 PUSH0 DUP1 PUSH0 SHL SWAP4 POP SWAP4 POP SWAP4 POP POP JUMPDEST SWAP5 POP SWAP5 POP SWAP5 SWAP2 POP POP JUMP JUMPDEST PUSH0 DUP1 PUSH0 SWAP1 POP PUSH0 PUSH1 0x80 DUP5 SWAP1 SHR GT ISZERO PUSH2 0x46C9 JUMPI PUSH1 0x80 DUP4 SWAP1 SHR SWAP3 POP PUSH1 0x80 DUP2 ADD SWAP1 POP JUMPDEST PUSH0 PUSH1 0x40 DUP5 SWAP1 SHR GT ISZERO PUSH2 0x46E3 JUMPI PUSH1 0x40 DUP4 SWAP1 SHR SWAP3 POP PUSH1 0x40 DUP2 ADD SWAP1 POP JUMPDEST PUSH0 PUSH1 0x20 DUP5 SWAP1 SHR GT ISZERO PUSH2 0x46FD JUMPI PUSH1 0x20 DUP4 SWAP1 SHR SWAP3 POP PUSH1 0x20 DUP2 ADD SWAP1 POP JUMPDEST PUSH0 PUSH1 0x10 DUP5 SWAP1 SHR GT ISZERO PUSH2 0x4717 JUMPI PUSH1 0x10 DUP4 SWAP1 SHR SWAP3 POP PUSH1 0x10 DUP2 ADD SWAP1 POP JUMPDEST PUSH0 PUSH1 0x8 DUP5 SWAP1 SHR GT ISZERO PUSH2 0x4731 JUMPI PUSH1 0x8 DUP4 SWAP1 SHR SWAP3 POP PUSH1 0x8 DUP2 ADD SWAP1 POP JUMPDEST PUSH0 PUSH1 0x4 DUP5 SWAP1 SHR GT ISZERO PUSH2 0x474B JUMPI PUSH1 0x4 DUP4 SWAP1 SHR SWAP3 POP PUSH1 0x4 DUP2 ADD SWAP1 POP JUMPDEST PUSH0 PUSH1 0x2 DUP5 SWAP1 SHR GT ISZERO PUSH2 0x4765 JUMPI PUSH1 0x2 DUP4 SWAP1 SHR SWAP3 POP PUSH1 0x2 DUP2 ADD SWAP1 POP JUMPDEST PUSH0 PUSH1 0x1 DUP5 SWAP1 SHR GT ISZERO PUSH2 0x4778 JUMPI PUSH1 0x1 DUP2 ADD SWAP1 POP JUMPDEST DUP1 SWAP2 POP POP SWAP2 SWAP1 POP JUMP JUMPDEST PUSH0 DUP2 DUP4 LT PUSH2 0x478F JUMPI DUP2 PUSH2 0x4791 JUMP JUMPDEST DUP3 JUMPDEST SWAP1 POP SWAP3 SWAP2 POP POP JUMP JUMPDEST PUSH0 PUSH1 0x2 DUP3 DUP5 XOR PUSH2 0x47A9 SWAP2 SWAP1 PUSH2 0x683A JUMP JUMPDEST DUP3 DUP5 AND PUSH2 0x47B6 SWAP2 SWAP1 PUSH2 0x648B JUMP JUMPDEST SWAP1 POP SWAP3 SWAP2 POP POP JUMP JUMPDEST PUSH1 0x60 PUSH0 PUSH2 0x47CA DUP4 PUSH2 0x4830 JUMP JUMPDEST SWAP1 POP PUSH0 PUSH1 0x20 PUSH8 0xFFFFFFFFFFFFFFFF DUP2 GT ISZERO PUSH2 0x47E8 JUMPI PUSH2 0x47E7 PUSH2 0x4AFC JUMP JUMPDEST JUMPDEST PUSH1 0x40 MLOAD SWAP1 DUP1 DUP3 MSTORE DUP1 PUSH1 0x1F ADD PUSH1 0x1F NOT AND PUSH1 0x20 ADD DUP3 ADD PUSH1 0x40 MSTORE DUP1 ISZERO PUSH2 0x481A JUMPI DUP2 PUSH1 0x20 ADD PUSH1 0x1 DUP3 MUL DUP1 CALLDATASIZE DUP4 CALLDATACOPY DUP1 DUP3 ADD SWAP2 POP POP SWAP1 POP JUMPDEST POP SWAP1 POP DUP2 DUP2 MSTORE DUP4 PUSH1 0x20 DUP3 ADD MSTORE DUP1 SWAP3 POP POP POP SWAP2 SWAP1 POP JUMP JUMPDEST PUSH0 DUP1 PUSH1 0xFF DUP4 PUSH0 SHR AND SWAP1 POP PUSH1 0x1F DUP2 GT ISZERO PUSH2 0x4875 JUMPI PUSH1 0x40 MLOAD PUSH32 0xB3512B0C00000000000000000000000000000000000000000000000000000000 DUP2 MSTORE PUSH1 0x4 ADD PUSH1 0x40 MLOAD DUP1 SWAP2 SUB SWAP1 REVERT JUMPDEST DUP1 SWAP2 POP POP SWAP2 SWAP1 POP JUMP JUMPDEST PUSH0 PUSH1 0x40 MLOAD SWAP1 POP SWAP1 JUMP JUMPDEST PUSH0 DUP1 REVERT JUMPDEST PUSH0 DUP1 REVERT JUMPDEST PUSH0 PUSH32 0xFFFFFFFF00000000000000000000000000000000000000000000000000000000 DUP3 AND SWAP1 POP SWAP2 SWAP1 POP JUMP JUMPDEST PUSH2 0x48C3 DUP2 PUSH2 0x488F JUMP JUMPDEST DUP2 EQ PUSH2 0x48CD JUMPI PUSH0 DUP1 REVERT JUMPDEST POP JUMP JUMPDEST PUSH0 DUP2 CALLDATALOAD SWAP1 POP PUSH2 0x48DE DUP2 PUSH2 0x48BA JUMP JUMPDEST SWAP3 SWAP2 POP POP JUMP JUMPDEST PUSH0 PUSH1 0x20 DUP3 DUP5 SUB SLT ISZERO PUSH2 0x48F9 JUMPI PUSH2 0x48F8 PUSH2 0x4887 JUMP JUMPDEST JUMPDEST PUSH0 PUSH2 0x4906 DUP5 DUP3 DUP6 ADD PUSH2 0x48D0 JUMP JUMPDEST SWAP2 POP POP SWAP3 SWAP2 POP POP JUMP JUMPDEST PUSH0 DUP2 ISZERO ISZERO SWAP1 POP SWAP2 SWAP1 POP JUMP JUMPDEST PUSH2 0x4923 DUP2 PUSH2 0x490F JUMP JUMPDEST DUP3 MSTORE POP POP JUMP JUMPDEST PUSH0 PUSH1 0x20 DUP3 ADD SWAP1 POP PUSH2 0x493C PUSH0 DUP4 ADD DUP5 PUSH2 0x491A JUMP JUMPDEST SWAP3 SWAP2 POP POP JUMP JUMPDEST PUSH0 DUP2 SWAP1 POP SWAP2 SWAP1 POP JUMP JUMPDEST PUSH2 0x4954 DUP2 PUSH2 0x4942 JUMP JUMPDEST DUP3 MSTORE POP POP JUMP JUMPDEST PUSH0 PUSH1 0x20 DUP3 ADD SWAP1 POP PUSH2 0x496D PUSH0 DUP4 ADD DUP5 PUSH2 0x494B JUMP JUMPDEST SWAP3 SWAP2 POP POP JUMP JUMPDEST PUSH2 0x497C DUP2 PUSH2 0x4942 JUMP JUMPDEST DUP2 EQ PUSH2 0x4986 JUMPI PUSH0 DUP1 REVERT JUMPDEST POP JUMP JUMPDEST PUSH0 DUP2 CALLDATALOAD SWAP1 POP PUSH2 0x4997 DUP2 PUSH2 0x4973 JUMP JUMPDEST SWAP3 SWAP2 POP POP JUMP JUMPDEST PUSH0 PUSH1 0x20 DUP3 DUP5 SUB SLT ISZERO PUSH2 0x49B2 JUMPI PUSH2 0x49B1 PUSH2 0x4887 JUMP JUMPDEST JUMPDEST PUSH0 PUSH2 0x49BF DUP5 DUP3 DUP6 ADD PUSH2 0x4989 JUMP JUMPDEST SWAP2 POP POP SWAP3 SWAP2 POP POP JUMP JUMPDEST PUSH0 DUP2 MLOAD SWAP1 POP SWAP2 SWAP1 POP JUMP JUMPDEST PUSH0 DUP3 DUP3 MSTORE PUSH1 0x20 DUP3 ADD SWAP1 POP SWAP3 SWAP2 POP POP JUMP JUMPDEST PUSH0 JUMPDEST DUP4 DUP2 LT ISZERO PUSH2 0x49FF JUMPI DUP1 DUP3 ADD MLOAD DUP2 DUP5 ADD MSTORE PUSH1 0x20 DUP2 ADD SWAP1 POP PUSH2 0x49E4 JUMP JUMPDEST PUSH0 DUP5 DUP5 ADD MSTORE POP POP POP POP JUMP JUMPDEST PUSH0 PUSH1 0x1F NOT PUSH1 0x1F DUP4 ADD AND SWAP1 POP SWAP2 SWAP1 POP JUMP JUMPDEST PUSH0 PUSH2 0x4A24 DUP3 PUSH2 0x49C8 JUMP JUMPDEST PUSH2 0x4A2E DUP2 DUP6 PUSH2 0x49D2 JUMP JUMPDEST SWAP4 POP PUSH2 0x4A3E DUP2 DUP6 PUSH1 0x20 DUP7 ADD PUSH2 0x49E2 JUMP JUMPDEST PUSH2 0x4A47 DUP2 PUSH2 0x4A0A JUMP JUMPDEST DUP5 ADD SWAP2 POP POP SWAP3 SWAP2 POP POP JUMP JUMPDEST PUSH0 PUSH1 0x20 DUP3 ADD SWAP1 POP DUP2 DUP2 SUB PUSH0 DUP4 ADD MSTORE PUSH2 0x4A6A DUP2 DUP5 PUSH2 0x4A1A JUMP JUMPDEST SWAP1 POP SWAP3 SWAP2 POP POP JUMP JUMPDEST PUSH0 PUSH20 0xFFFFFFFFFFFFFFFFFFFFFFFFFFFFFFFFFFFFFFFF DUP3 AND SWAP1 POP SWAP2 SWAP1 POP JUMP JUMPDEST PUSH0 PUSH2 0x4A9B DUP3 PUSH2 0x4A72 JUMP JUMPDEST SWAP1 POP SWAP2 SWAP1 POP JUMP JUMPDEST PUSH2 0x4AAB DUP2 PUSH2 0x4A91 JUMP JUMPDEST DUP3 MSTORE POP POP JUMP JUMPDEST PUSH0 PUSH1 0x20 DUP3 ADD SWAP1 POP PUSH2 0x4AC4 PUSH0 DUP4 ADD DUP5 PUSH2 0x4AA2 JUMP JUMPDEST SWAP3 SWAP2 POP POP JUMP JUMPDEST PUSH2 0x4AD3 DUP2 PUSH2 0x4A91 JUMP JUMPDEST DUP2 EQ PUSH2 0x4ADD JUMPI PUSH0 DUP1 REVERT JUMPDEST POP JUMP JUMPDEST PUSH0 DUP2 CALLDATALOAD SWAP1 POP PUSH2 0x4AEE DUP2 PUSH2 0x4ACA JUMP JUMPDEST SWAP3 SWAP2 POP POP JUMP JUMPDEST PUSH0 DUP1 REVERT JUMPDEST PUSH0 DUP1 REVERT JUMPDEST PUSH32 0x4E487B7100000000000000000000000000000000000000000000000000000000 PUSH0 MSTORE PUSH1 0x41 PUSH1 0x4 MSTORE PUSH1 0x24 PUSH0 REVERT JUMPDEST PUSH2 0x4B32 DUP3 PUSH2 0x4A0A JUMP JUMPDEST DUP2 ADD DUP2 DUP2 LT PUSH8 0xFFFFFFFFFFFFFFFF DUP3 GT OR ISZERO PUSH2 0x4B51 JUMPI PUSH2 0x4B50 PUSH2 0x4AFC JUMP JUMPDEST JUMPDEST DUP1 PUSH1 0x40 MSTORE POP POP POP JUMP JUMPDEST PUSH0 PUSH2 0x4B63 PUSH2 0x487E JUMP JUMPDEST SWAP1 POP PUSH2 0x4B6F DUP3 DUP3 PUSH2 0x4B29 JUMP JUMPDEST SWAP2 SWAP1 POP JUMP JUMPDEST PUSH0 PUSH8 0xFFFFFFFFFFFFFFFF DUP3 GT ISZERO PUSH2 0x4B8E JUMPI PUSH2 0x4B8D PUSH2 0x4AFC JUMP JUMPDEST JUMPDEST PUSH2 0x4B97 DUP3 PUSH2 0x4A0A JUMP JUMPDEST SWAP1 POP PUSH1 0x20 DUP2 ADD SWAP1 POP SWAP2 SWAP1 POP JUMP JUMPDEST DUP3 DUP2 DUP4 CALLDATACOPY PUSH0 DUP4 DUP4 ADD MSTORE POP POP POP JUMP JUMPDEST PUSH0 PUSH2 0x4BC4 PUSH2 0x4BBF DUP5 PUSH2 0x4B74 JUMP JUMPDEST PUSH2 0x4B5A JUMP JUMPDEST SWAP1 POP DUP3 DUP2 MSTORE PUSH1 0x20 DUP2 ADD DUP5 DUP5 DUP5 ADD GT ISZERO PUSH2 0x4BE0 JUMPI PUSH2 0x4BDF PUSH2 0x4AF8 JUMP JUMPDEST JUMPDEST PUSH2 0x4BEB DUP5 DUP3 DUP6 PUSH2 0x4BA4 JUMP JUMPDEST POP SWAP4 SWAP3 POP POP POP JUMP JUMPDEST PUSH0 DUP3 PUSH1 0x1F DUP4 ADD SLT PUSH2 0x4C07 JUMPI PUSH2 0x4C06 PUSH2 0x4AF4 JUMP JUMPDEST JUMPDEST DUP2 CALLDATALOAD PUSH2 0x4C17 DUP5 DUP3 PUSH1 0x20 DUP7 ADD PUSH2 0x4BB2 JUMP JUMPDEST SWAP2 POP POP SWAP3 SWAP2 POP POP JUMP JUMPDEST PUSH0 DUP1 PUSH0 DUP1 PUSH1 0x80 DUP6 DUP8 SUB SLT ISZERO PUSH2 0x4C38 JUMPI PUSH2 0x4C37 PUSH2 0x4887 JUMP JUMPDEST JUMPDEST PUSH0 PUSH2 0x4C45 DUP8 DUP3 DUP9 ADD PUSH2 0x4AE0 JUMP JUMPDEST SWAP5 POP POP PUSH1 0x20 PUSH2 0x4C56 DUP8 DUP3 DUP9 ADD PUSH2 0x4AE0 JUMP JUMPDEST SWAP4 POP POP PUSH1 0x40 PUSH2 0x4C67 DUP8 DUP3 DUP9 ADD PUSH2 0x4989 JUMP JUMPDEST SWAP3 POP POP PUSH1 0x60 DUP6 ADD CALLDATALOAD PUSH8 0xFFFFFFFFFFFFFFFF DUP2 GT ISZERO PUSH2 0x4C88 JUMPI PUSH2 0x4C87 PUSH2 0x488B JUMP JUMPDEST JUMPDEST PUSH2 0x4C94 DUP8 DUP3 DUP9 ADD PUSH2 0x4BF3 JUMP JUMPDEST SWAP2 POP POP SWAP3 SWAP6 SWAP2 SWAP5 POP SWAP3 POP JUMP JUMPDEST PUSH2 0x4CA9 DUP2 PUSH2 0x488F JUMP JUMPDEST DUP3 MSTORE POP POP JUMP JUMPDEST PUSH0 PUSH1 0x20 DUP3 ADD SWAP1 POP PUSH2 0x4CC2 PUSH0 DUP4 ADD DUP5 PUSH2 0x4CA0 JUMP JUMPDEST SWAP3 SWAP2 POP POP JUMP JUMPDEST PUSH0 PUSH8 0xFFFFFFFFFFFFFFFF DUP3 GT ISZERO PUSH2 0x4CE2 JUMPI PUSH2 0x4CE1 PUSH2 0x4AFC JUMP JUMPDEST JUMPDEST PUSH1 0x20 DUP3 MUL SWAP1 POP PUSH1 0x20 DUP2 ADD SWAP1 POP SWAP2 SWAP1 POP JUMP JUMPDEST PUSH0 DUP1 REVERT JUMPDEST PUSH0 PUSH2 0x4D09 PUSH2 0x4D04 DUP5 PUSH2 0x4CC8 JUMP JUMPDEST PUSH2 0x4B5A JUMP JUMPDEST SWAP1 POP DUP1 DUP4 DUP3 MSTORE PUSH1 0x20 DUP3 ADD SWAP1 POP PUSH1 0x20 DUP5 MUL DUP4 ADD DUP6 DUP2 GT ISZERO PUSH2 0x4D2C JUMPI PUSH2 0x4D2B PUSH2 0x4CF3 JUMP JUMPDEST JUMPDEST DUP4 JUMPDEST DUP2 DUP2 LT ISZERO PUSH2 0x4D55 JUMPI DUP1 PUSH2 0x4D41 DUP9 DUP3 PUSH2 0x4AE0 JUMP JUMPDEST DUP5 MSTORE PUSH1 0x20 DUP5 ADD SWAP4 POP POP PUSH1 0x20 DUP2 ADD SWAP1 POP PUSH2 0x4D2E JUMP JUMPDEST POP POP POP SWAP4 SWAP3 POP POP POP JUMP JUMPDEST PUSH0 DUP3 PUSH1 0x1F DUP4 ADD SLT PUSH2 0x4D73 JUMPI PUSH2 0x4D72 PUSH2 0x4AF4 JUMP JUMPDEST JUMPDEST DUP2 CALLDATALOAD PUSH2 0x4D83 DUP5 DUP3 PUSH1 0x20 DUP7 ADD PUSH2 0x4CF7 JUMP JUMPDEST SWAP2 POP POP SWAP3 SWAP2 POP POP JUMP JUMPDEST PUSH0 PUSH8 0xFFFFFFFFFFFFFFFF DUP3 GT ISZERO PUSH2 0x4DA6 JUMPI PUSH2 0x4DA5 PUSH2 0x4AFC JUMP JUMPDEST JUMPDEST PUSH1 0x20 DUP3 MUL SWAP1 POP PUSH1 0x20 DUP2 ADD SWAP1 POP SWAP2 SWAP1 POP JUMP JUMPDEST PUSH0 PUSH2 0x4DC9 PUSH2 0x4DC4 DUP5 PUSH2 0x4D8C JUMP JUMPDEST PUSH2 0x4B5A JUMP JUMPDEST SWAP1 POP DUP1 DUP4 DUP3 MSTORE PUSH1 0x20 DUP3 ADD SWAP1 POP PUSH1 0x20 DUP5 MUL DUP4 ADD DUP6 DUP2 GT ISZERO PUSH2 0x4DEC JUMPI PUSH2 0x4DEB PUSH2 0x4CF3 JUMP JUMPDEST JUMPDEST DUP4 JUMPDEST DUP2 DUP2 LT ISZERO PUSH2 0x4E15 JUMPI DUP1 PUSH2 0x4E01 DUP9 DUP3 PUSH2 0x4989 JUMP JUMPDEST DUP5 MSTORE PUSH1 0x20 DUP5 ADD SWAP4 POP POP PUSH1 0x20 DUP2 ADD SWAP1 POP PUSH2 0x4DEE JUMP JUMPDEST POP POP POP SWAP4 SWAP3 POP POP POP JUMP JUMPDEST PUSH0 DUP3 PUSH1 0x1F DUP4 ADD SLT PUSH2 0x4E33 JUMPI PUSH2 0x4E32 PUSH2 0x4AF4 JUMP JUMPDEST JUMPDEST DUP2 CALLDATALOAD PUSH2 0x4E43 DUP5 DUP3 PUSH1 0x20 DUP7 ADD PUSH2 0x4DB7 JUMP JUMPDEST SWAP2 POP POP SWAP3 SWAP2 POP POP JUMP JUMPDEST PUSH0 PUSH8 0xFFFFFFFFFFFFFFFF DUP3 GT ISZERO PUSH2 0x4E66 JUMPI PUSH2 0x4E65 PUSH2 0x4AFC JUMP JUMPDEST JUMPDEST PUSH1 0x20 DUP3 MUL SWAP1 POP PUSH1 0x20 DUP2 ADD SWAP1 POP SWAP2 SWAP1 POP JUMP JUMPDEST PUSH0 PUSH2 0x4E89 PUSH2 0x4E84 DUP5 PUSH2 0x4E4C JUMP JUMPDEST PUSH2 0x4B5A JUMP JUMPDEST SWAP1 POP DUP1 DUP4 DUP3 MSTORE PUSH1 0x20 DUP3 ADD SWAP1 POP PUSH1 0x20 DUP5 MUL DUP4 ADD DUP6 DUP2 GT ISZERO PUSH2 0x4EAC JUMPI PUSH2 0x4EAB PUSH2 0x4CF3 JUMP JUMPDEST JUMPDEST DUP4 JUMPDEST DUP2 DUP2 LT ISZERO PUSH2 0x4EF3 JUMPI DUP1 CALLDATALOAD PUSH8 0xFFFFFFFFFFFFFFFF DUP2 GT ISZERO PUSH2 0x4ED1 JUMPI PUSH2 0x4ED0 PUSH2 0x4AF4 JUMP JUMPDEST JUMPDEST DUP1 DUP7 ADD PUSH2 0x4EDE DUP10 DUP3 PUSH2 0x4BF3 JUMP JUMPDEST DUP6 MSTORE PUSH1 0x20 DUP6 ADD SWAP5 POP POP POP PUSH1 0x20 DUP2 ADD SWAP1 POP PUSH2 0x4EAE JUMP JUMPDEST POP POP POP SWAP4 SWAP3 POP POP POP JUMP JUMPDEST PUSH0 DUP3 PUSH1 0x1F DUP4 ADD SLT PUSH2 0x4F11 JUMPI PUSH2 0x4F10 PUSH2 0x4AF4 JUMP JUMPDEST JUMPDEST DUP2 CALLDATALOAD PUSH2 0x4F21 DUP5 DUP3 PUSH1 0x20 DUP7 ADD PUSH2 0x4E77 JUMP JUMPDEST SWAP2 POP POP SWAP3 SWAP2 POP POP JUMP JUMPDEST PUSH0 DUP2 SWAP1 POP SWAP2 SWAP1 POP JUMP JUMPDEST PUSH2 0x4F3C DUP2 PUSH2 0x4F2A JUMP JUMPDEST DUP2 EQ PUSH2 0x4F46 JUMPI PUSH0 DUP1 REVERT JUMPDEST POP JUMP JUMPDEST PUSH0 DUP2 CALLDATALOAD SWAP1 POP PUSH2 0x4F57 DUP2 PUSH2 0x4F33 JUMP JUMPDEST SWAP3 SWAP2 POP POP JUMP JUMPDEST PUSH0 DUP1 PUSH0 DUP1 PUSH1 0x80 DUP6 DUP8 SUB SLT ISZERO PUSH2 0x4F75 JUMPI PUSH2 0x4F74 PUSH2 0x4887 JUMP JUMPDEST JUMPDEST PUSH0 DUP6 ADD CALLDATALOAD PUSH8 0xFFFFFFFFFFFFFFFF DUP2 GT ISZERO PUSH2 0x4F92 JUMPI PUSH2 0x4F91 PUSH2 0x488B JUMP JUMPDEST JUMPDEST PUSH2 0x4F9E DUP8 DUP3 DUP9 ADD PUSH2 0x4D5F JUMP JUMPDEST SWAP5 POP POP PUSH1 0x20 DUP6 ADD CALLDATALOAD PUSH8 0xFFFFFFFFFFFFFFFF DUP2 GT ISZERO PUSH2 0x4FBF JUMPI PUSH2 0x4FBE PUSH2 0x488B JUMP JUMPDEST JUMPDEST PUSH2 0x4FCB DUP8 DUP3 DUP9 ADD PUSH2 0x4E1F JUMP JUMPDEST SWAP4 POP POP PUSH1 0x40 DUP6 ADD CALLDATALOAD PUSH8 0xFFFFFFFFFFFFFFFF DUP2 GT ISZERO PUSH2 0x4FEC JUMPI PUSH2 0x4FEB PUSH2 0x488B JUMP JUMPDEST JUMPDEST PUSH2 0x4FF8 DUP8 DUP3 DUP9 ADD PUSH2 0x4EFD JUMP JUMPDEST SWAP3 POP POP PUSH1 0x60 PUSH2 0x5009 DUP8 DUP3 DUP9 ADD PUSH2 0x4F49 JUMP JUMPDEST SWAP2 POP POP SWAP3 SWAP6 SWAP2 SWAP5 POP SWAP3 POP JUMP JUMPDEST PUSH2 0x501E DUP2 PUSH2 0x4F2A JUMP JUMPDEST DUP3 MSTORE POP POP JUMP JUMPDEST PUSH0 PUSH1 0x20 DUP3 ADD SWAP1 POP PUSH2 0x5037 PUSH0 DUP4 ADD DUP5 PUSH2 0x5015 JUMP JUMPDEST SWAP3 SWAP2 POP POP JUMP JUMPDEST PUSH32 0x4E487B7100000000000000000000000000000000000000000000000000000000 PUSH0 MSTORE PUSH1 0x21 PUSH1 0x4 MSTORE PUSH1 0x24 PUSH0 REVERT JUMPDEST PUSH1 0x8 DUP2 LT PUSH2 0x507B JUMPI PUSH2 0x507A PUSH2 0x503D JUMP JUMPDEST JUMPDEST POP JUMP JUMPDEST PUSH0 DUP2 SWAP1 POP PUSH2 0x508B DUP3 PUSH2 0x506A JUMP JUMPDEST SWAP2 SWAP1 POP JUMP JUMPDEST PUSH0 PUSH2 0x509A DUP3 PUSH2 0x507E JUMP JUMPDEST SWAP1 POP SWAP2 SWAP1 POP JUMP JUMPDEST PUSH2 0x50AA DUP2 PUSH2 0x5090 JUMP JUMPDEST DUP3 MSTORE POP POP JUMP JUMPDEST PUSH0 PUSH1 0x20 DUP3 ADD SWAP1 POP PUSH2 0x50C3 PUSH0 DUP4 ADD DUP5 PUSH2 0x50A1 JUMP JUMPDEST SWAP3 SWAP2 POP POP JUMP JUMPDEST PUSH0 DUP1 PUSH1 0x40 DUP4 DUP6 SUB SLT ISZERO PUSH2 0x50DF JUMPI PUSH2 0x50DE PUSH2 0x4887 JUMP JUMPDEST JUMPDEST PUSH0 PUSH2 0x50EC DUP6 DUP3 DUP7 ADD PUSH2 0x4989 JUMP JUMPDEST SWAP3 POP POP PUSH1 0x20 PUSH2 0x50FD DUP6 DUP3 DUP7 ADD PUSH2 0x4AE0 JUMP JUMPDEST SWAP2 POP POP SWAP3 POP SWAP3 SWAP1 POP JUMP JUMPDEST PUSH0 PUSH1 0x60 DUP3 ADD SWAP1 POP PUSH2 0x511A PUSH0 DUP4 ADD DUP7 PUSH2 0x494B JUMP JUMPDEST PUSH2 0x5127 PUSH1 0x20 DUP4 ADD DUP6 PUSH2 0x494B JUMP JUMPDEST PUSH2 0x5134 PUSH1 0x40 DUP4 ADD DUP5 PUSH2 0x494B JUMP JUMPDEST SWAP5 SWAP4 POP POP POP POP JUMP JUMPDEST PUSH0 PUSH1 0xFF DUP3 AND SWAP1 POP SWAP2 SWAP1 POP JUMP JUMPDEST PUSH2 0x5151 DUP2 PUSH2 0x513C JUMP JUMPDEST DUP2 EQ PUSH2 0x515B JUMPI PUSH0 DUP1 REVERT JUMPDEST POP JUMP JUMPDEST PUSH0 DUP2 CALLDATALOAD SWAP1 POP PUSH2 0x516C DUP2 PUSH2 0x5148 JUMP JUMPDEST SWAP3 SWAP2 POP POP JUMP JUMPDEST PUSH0 DUP1 PUSH1 0x40 DUP4 DUP6 SUB SLT ISZERO PUSH2 0x5188 JUMPI PUSH2 0x5187 PUSH2 0x4887 JUMP JUMPDEST JUMPDEST PUSH0 PUSH2 0x5195 DUP6 DUP3 DUP7 ADD PUSH2 0x4989 JUMP JUMPDEST SWAP3 POP POP PUSH1 0x20 PUSH2 0x51A6 DUP6 DUP3 DUP7 ADD PUSH2 0x515E JUMP JUMPDEST SWAP2 POP POP SWAP3 POP SWAP3 SWAP1 POP JUMP JUMPDEST PUSH0 DUP1 REVERT JUMPDEST PUSH0 DUP1 DUP4 PUSH1 0x1F DUP5 ADD SLT PUSH2 0x51C9 JUMPI PUSH2 0x51C8 PUSH2 0x4AF4 JUMP JUMPDEST JUMPDEST DUP3 CALLDATALOAD SWAP1 POP PUSH8 0xFFFFFFFFFFFFFFFF DUP2 GT ISZERO PUSH2 0x51E6 JUMPI PUSH2 0x51E5 PUSH2 0x51B0 JUMP JUMPDEST JUMPDEST PUSH1 0x20 DUP4 ADD SWAP2 POP DUP4 PUSH1 0x1 DUP3 MUL DUP4 ADD GT ISZERO PUSH2 0x5202 JUMPI PUSH2 0x5201 PUSH2 0x4CF3 JUMP JUMPDEST JUMPDEST SWAP3 POP SWAP3 SWAP1 POP JUMP JUMPDEST PUSH0 DUP1 PUSH0 DUP1 PUSH0 DUP1 PUSH0 PUSH1 0xC0 DUP9 DUP11 SUB SLT ISZERO PUSH2 0x5224 JUMPI PUSH2 0x5223 PUSH2 0x4887 JUMP JUMPDEST JUMPDEST PUSH0 PUSH2 0x5231 DUP11 DUP3 DUP12 ADD PUSH2 0x4989 JUMP JUMPDEST SWAP8 POP POP PUSH1 0x20 PUSH2 0x5242 DUP11 DUP3 DUP12 ADD PUSH2 0x515E JUMP JUMPDEST SWAP7 POP POP PUSH1 0x40 PUSH2 0x5253 DUP11 DUP3 DUP12 ADD PUSH2 0x4AE0 JUMP JUMPDEST SWAP6 POP POP PUSH1 0x60 DUP9 ADD CALLDATALOAD PUSH8 0xFFFFFFFFFFFFFFFF DUP2 GT ISZERO PUSH2 0x5274 JUMPI PUSH2 0x5273 PUSH2 0x488B JUMP JUMPDEST JUMPDEST PUSH2 0x5280 DUP11 DUP3 DUP12 ADD PUSH2 0x51B4 JUMP JUMPDEST SWAP5 POP SWAP5 POP POP PUSH1 0x80 DUP9 ADD CALLDATALOAD PUSH8 0xFFFFFFFFFFFFFFFF DUP2 GT ISZERO PUSH2 0x52A3 JUMPI PUSH2 0x52A2 PUSH2 0x488B JUMP JUMPDEST JUMPDEST PUSH2 0x52AF DUP11 DUP3 DUP12 ADD PUSH2 0x4BF3 JUMP JUMPDEST SWAP3 POP POP PUSH1 0xA0 DUP9 ADD CALLDATALOAD PUSH8 0xFFFFFFFFFFFFFFFF DUP2 GT ISZERO PUSH2 0x52D0 JUMPI PUSH2 0x52CF PUSH2 0x488B JUMP JUMPDEST JUMPDEST PUSH2 0x52DC DUP11 DUP3 DUP12 ADD PUSH2 0x4BF3 JUMP JUMPDEST SWAP2 POP POP SWAP3 SWAP6 SWAP9 SWAP2 SWAP5 SWAP8 POP SWAP3 SWAP6 POP JUMP JUMPDEST PUSH0 DUP1 PUSH0 DUP1 PUSH0 PUSH1 0x80 DUP7 DUP9 SUB SLT ISZERO PUSH2 0x5304 JUMPI PUSH2 0x5303 PUSH2 0x4887 JUMP JUMPDEST JUMPDEST PUSH0 PUSH2 0x5311 DUP9 DUP3 DUP10 ADD PUSH2 0x4989 JUMP JUMPDEST SWAP6 POP POP PUSH1 0x20 PUSH2 0x5322 DUP9 DUP3 DUP10 ADD PUSH2 0x515E JUMP JUMPDEST SWAP5 POP POP PUSH1 0x40 DUP7 ADD CALLDATALOAD PUSH8 0xFFFFFFFFFFFFFFFF DUP2 GT ISZERO PUSH2 0x5343 JUMPI PUSH2 0x5342 PUSH2 0x488B JUMP JUMPDEST JUMPDEST PUSH2 0x534F DUP9 DUP3 DUP10 ADD PUSH2 0x51B4 JUMP JUMPDEST SWAP4 POP SWAP4 POP POP PUSH1 0x60 DUP7 ADD CALLDATALOAD PUSH8 0xFFFFFFFFFFFFFFFF DUP2 GT ISZERO PUSH2 0x5372 JUMPI PUSH2 0x5371 PUSH2 0x488B JUMP JUMPDEST JUMPDEST PUSH2 0x537E DUP9 DUP3 DUP10 ADD PUSH2 0x4BF3 JUMP JUMPDEST SWAP2 POP POP SWAP3 SWAP6 POP SWAP3 SWAP6 SWAP1 SWAP4 POP JUMP JUMPDEST PUSH0 PUSH6 0xFFFFFFFFFFFF DUP3 AND SWAP1 POP SWAP2 SWAP1 POP JUMP JUMPDEST PUSH2 0x53A5 DUP2 PUSH2 0x538B JUMP JUMPDEST DUP2 EQ PUSH2 0x53AF JUMPI PUSH0 DUP1 REVERT JUMPDEST POP JUMP JUMPDEST PUSH0 DUP2 CALLDATALOAD SWAP1 POP PUSH2 0x53C0 DUP2 PUSH2 0x539C JUMP JUMPDEST SWAP3 SWAP2 POP POP JUMP JUMPDEST PUSH0 PUSH1 0x20 DUP3 DUP5 SUB SLT ISZERO PUSH2 0x53DB JUMPI PUSH2 0x53DA PUSH2 0x4887 JUMP JUMPDEST JUMPDEST PUSH0 PUSH2 0x53E8 DUP5 DUP3 DUP6 ADD PUSH2 0x53B2 JUMP JUMPDEST SWAP2 POP POP SWAP3 SWAP2 POP POP JUMP JUMPDEST PUSH0 DUP1 PUSH0 DUP1 PUSH1 0x60 DUP6 DUP8 SUB SLT ISZERO PUSH2 0x5409 JUMPI PUSH2 0x5408 PUSH2 0x4887 JUMP JUMPDEST JUMPDEST PUSH0 PUSH2 0x5416 DUP8 DUP3 DUP9 ADD PUSH2 0x4989 JUMP JUMPDEST SWAP5 POP POP PUSH1 0x20 PUSH2 0x5427 DUP8 DUP3 DUP9 ADD PUSH2 0x515E JUMP JUMPDEST SWAP4 POP POP PUSH1 0x40 DUP6 ADD CALLDATALOAD PUSH8 0xFFFFFFFFFFFFFFFF DUP2 GT ISZERO PUSH2 0x5448 JUMPI PUSH2 0x5447 PUSH2 0x488B JUMP JUMPDEST JUMPDEST PUSH2 0x5454 DUP8 DUP3 DUP9 ADD PUSH2 0x51B4 JUMP JUMPDEST SWAP3 POP SWAP3 POP POP SWAP3 SWAP6 SWAP2 SWAP5 POP SWAP3 POP JUMP JUMPDEST PUSH0 PUSH8 0xFFFFFFFFFFFFFFFF DUP3 GT ISZERO PUSH2 0x547C JUMPI PUSH2 0x547B PUSH2 0x4AFC JUMP JUMPDEST JUMPDEST PUSH2 0x5485 DUP3 PUSH2 0x4A0A JUMP JUMPDEST SWAP1 POP PUSH1 0x20 DUP2 ADD SWAP1 POP SWAP2 SWAP1 POP JUMP JUMPDEST PUSH0 PUSH2 0x54A4 PUSH2 0x549F DUP5 PUSH2 0x5462 JUMP JUMPDEST PUSH2 0x4B5A JUMP JUMPDEST SWAP1 POP DUP3 DUP2 MSTORE PUSH1 0x20 DUP2 ADD DUP5 DUP5 DUP5 ADD GT ISZERO PUSH2 0x54C0 JUMPI PUSH2 0x54BF PUSH2 0x4AF8 JUMP JUMPDEST JUMPDEST PUSH2 0x54CB DUP5 DUP3 DUP6 PUSH2 0x4BA4 JUMP JUMPDEST POP SWAP4 SWAP3 POP POP POP JUMP JUMPDEST PUSH0 DUP3 PUSH1 0x1F DUP4 ADD SLT PUSH2 0x54E7 JUMPI PUSH2 0x54E6 PUSH2 0x4AF4 JUMP JUMPDEST JUMPDEST DUP2 CALLDATALOAD PUSH2 0x54F7 DUP5 DUP3 PUSH1 0x20 DUP7 ADD PUSH2 0x5492 JUMP JUMPDEST SWAP2 POP POP SWAP3 SWAP2 POP POP JUMP JUMPDEST PUSH0 DUP1 PUSH0 DUP1 PUSH1 0x80 DUP6 DUP8 SUB SLT ISZERO PUSH2 0x5518 JUMPI PUSH2 0x5517 PUSH2 0x4887 JUMP JUMPDEST JUMPDEST PUSH0 DUP6 ADD CALLDATALOAD PUSH8 0xFFFFFFFFFFFFFFFF DUP2 GT ISZERO PUSH2 0x5535 JUMPI PUSH2 0x5534 PUSH2 0x488B JUMP JUMPDEST JUMPDEST PUSH2 0x5541 DUP8 DUP3 DUP9 ADD PUSH2 0x4D5F JUMP JUMPDEST SWAP5 POP POP PUSH1 0x20 DUP6 ADD CALLDATALOAD PUSH8 0xFFFFFFFFFFFFFFFF DUP2 GT ISZERO PUSH2 0x5562 JUMPI PUSH2 0x5561 PUSH2 0x488B JUMP JUMPDEST JUMPDEST PUSH2 0x556E DUP8 DUP3 DUP9 ADD PUSH2 0x4E1F JUMP JUMPDEST SWAP4 POP POP PUSH1 0x40 DUP6 ADD CALLDATALOAD PUSH8 0xFFFFFFFFFFFFFFFF DUP2 GT ISZERO PUSH2 0x558F JUMPI PUSH2 0x558E PUSH2 0x488B JUMP JUMPDEST JUMPDEST PUSH2 0x559B DUP8 DUP3 DUP9 ADD PUSH2 0x4EFD JUMP JUMPDEST SWAP3 POP POP PUSH1 0x60 DUP6 ADD CALLDATALOAD PUSH8 0xFFFFFFFFFFFFFFFF DUP2 GT ISZERO PUSH2 0x55BC JUMPI PUSH2 0x55BB PUSH2 0x488B JUMP JUMPDEST JUMPDEST PUSH2 0x55C8 DUP8 DUP3 DUP9 ADD PUSH2 0x54D3 JUMP JUMPDEST SWAP2 POP POP SWAP3 SWAP6 SWAP2 SWAP5 POP SWAP3 POP JUMP JUMPDEST PUSH0 PUSH1 0x20 DUP3 DUP5 SUB SLT ISZERO PUSH2 0x55E9 JUMPI PUSH2 0x55E8 PUSH2 0x4887 JUMP JUMPDEST JUMPDEST PUSH0 PUSH2 0x55F6 DUP5 DUP3 DUP6 ADD PUSH2 0x4AE0 JUMP JUMPDEST SWAP2 POP POP SWAP3 SWAP2 POP POP JUMP JUMPDEST PUSH0 PUSH32 0xFF00000000000000000000000000000000000000000000000000000000000000 DUP3 AND SWAP1 POP SWAP2 SWAP1 POP JUMP JUMPDEST PUSH2 0x5633 DUP2 PUSH2 0x55FF JUMP JUMPDEST DUP3 MSTORE POP POP JUMP JUMPDEST PUSH0 DUP2 MLOAD SWAP1 POP SWAP2 SWAP1 POP JUMP JUMPDEST PUSH0 DUP3 DUP3 MSTORE PUSH1 0x20 DUP3 ADD SWAP1 POP SWAP3 SWAP2 POP POP JUMP JUMPDEST PUSH0 DUP2 SWAP1 POP PUSH1 0x20 DUP3 ADD SWAP1 POP SWAP2 SWAP1 POP JUMP JUMPDEST PUSH2 0x566B DUP2 PUSH2 0x4942 JUMP JUMPDEST DUP3 MSTORE POP POP JUMP JUMPDEST PUSH0 PUSH2 0x567C DUP4 DUP4 PUSH2 0x5662 JUMP JUMPDEST PUSH1 0x20 DUP4 ADD SWAP1 POP SWAP3 SWAP2 POP POP JUMP JUMPDEST PUSH0 PUSH1 0x20 DUP3 ADD SWAP1 POP SWAP2 SWAP1 POP JUMP JUMPDEST PUSH0 PUSH2 0x569E DUP3 PUSH2 0x5639 JUMP JUMPDEST PUSH2 0x56A8 DUP2 DUP6 PUSH2 0x5643 JUMP JUMPDEST SWAP4 POP PUSH2 0x56B3 DUP4 PUSH2 0x5653 JUMP JUMPDEST DUP1 PUSH0 JUMPDEST DUP4 DUP2 LT ISZERO PUSH2 0x56E3 JUMPI DUP2 MLOAD PUSH2 0x56CA DUP9 DUP3 PUSH2 0x5671 JUMP JUMPDEST SWAP8 POP PUSH2 0x56D5 DUP4 PUSH2 0x5688 JUMP JUMPDEST SWAP3 POP POP PUSH1 0x1 DUP2 ADD SWAP1 POP PUSH2 0x56B6 JUMP JUMPDEST POP DUP6 SWAP4 POP POP POP POP SWAP3 SWAP2 POP POP JUMP JUMPDEST PUSH0 PUSH1 0xE0 DUP3 ADD SWAP1 POP PUSH2 0x5703 PUSH0 DUP4 ADD DUP11 PUSH2 0x562A JUMP JUMPDEST DUP2 DUP2 SUB PUSH1 0x20 DUP4 ADD MSTORE PUSH2 0x5715 DUP2 DUP10 PUSH2 0x4A1A JUMP JUMPDEST SWAP1 POP DUP2 DUP2 SUB PUSH1 0x40 DUP4 ADD MSTORE PUSH2 0x5729 DUP2 DUP9 PUSH2 0x4A1A JUMP JUMPDEST SWAP1 POP PUSH2 0x5738 PUSH1 0x60 DUP4 ADD DUP8 PUSH2 0x494B JUMP JUMPDEST PUSH2 0x5745 PUSH1 0x80 DUP4 ADD DUP7 PUSH2 0x4AA2 JUMP JUMPDEST PUSH2 0x5752 PUSH1 0xA0 DUP4 ADD DUP6 PUSH2 0x5015 JUMP JUMPDEST DUP2 DUP2 SUB PUSH1 0xC0 DUP4 ADD MSTORE PUSH2 0x5764 DUP2 DUP5 PUSH2 0x5694 JUMP JUMPDEST SWAP1 POP SWAP9 SWAP8 POP POP POP POP POP POP POP POP JUMP JUMPDEST PUSH0 DUP1 PUSH0 DUP1 PUSH1 0x80 DUP6 DUP8 SUB SLT ISZERO PUSH2 0x578A JUMPI PUSH2 0x5789 PUSH2 0x4887 JUMP JUMPDEST JUMPDEST PUSH0 PUSH2 0x5797 DUP8 DUP3 DUP9 ADD PUSH2 0x4989 JUMP JUMPDEST SWAP5 POP POP PUSH1 0x20 PUSH2 0x57A8 DUP8 DUP3 DUP9 ADD PUSH2 0x515E JUMP JUMPDEST SWAP4 POP POP PUSH1 0x40 PUSH2 0x57B9 DUP8 DUP3 DUP9 ADD PUSH2 0x4AE0 JUMP JUMPDEST SWAP3 POP POP PUSH1 0x60 DUP6 ADD CALLDATALOAD PUSH8 0xFFFFFFFFFFFFFFFF DUP2 GT ISZERO PUSH2 0x57DA JUMPI PUSH2 0x57D9 PUSH2 0x488B JUMP JUMPDEST JUMPDEST PUSH2 0x57E6 DUP8 DUP3 DUP9 ADD PUSH2 0x4BF3 JUMP JUMPDEST SWAP2 POP POP SWAP3 SWAP6 SWAP2 SWAP5 POP SWAP3 POP JUMP JUMPDEST PUSH2 0x57FB DUP2 PUSH2 0x538B JUMP JUMPDEST DUP3 MSTORE POP POP JUMP JUMPDEST PUSH0 PUSH1 0x20 DUP3 ADD SWAP1 POP PUSH2 0x5814 PUSH0 DUP4 ADD DUP5 PUSH2 0x57F2 JUMP JUMPDEST SWAP3 SWAP2 POP POP JUMP JUMPDEST PUSH0 DUP1 PUSH0 PUSH1 0x60 DUP5 DUP7 SUB SLT ISZERO PUSH2 0x5831 JUMPI PUSH2 0x5830 PUSH2 0x4887 JUMP JUMPDEST JUMPDEST PUSH0 PUSH2 0x583E DUP7 DUP3 DUP8 ADD PUSH2 0x4AE0 JUMP JUMPDEST SWAP4 POP POP PUSH1 0x20 PUSH2 0x584F DUP7 DUP3 DUP8 ADD PUSH2 0x4989 JUMP JUMPDEST SWAP3 POP POP PUSH1 0x40 DUP5 ADD CALLDATALOAD PUSH8 0xFFFFFFFFFFFFFFFF DUP2 GT ISZERO PUSH2 0x5870 JUMPI PUSH2 0x586F PUSH2 0x488B JUMP JUMPDEST JUMPDEST PUSH2 0x587C DUP7 DUP3 DUP8 ADD PUSH2 0x4BF3 JUMP JUMPDEST SWAP2 POP POP SWAP3 POP SWAP3 POP SWAP3 JUMP JUMPDEST PUSH0 PUSH2 0x5890 DUP3 PUSH2 0x4A72 JUMP JUMPDEST SWAP1 POP SWAP2 SWAP1 POP JUMP JUMPDEST PUSH0 PUSH2 0x58A1 DUP3 PUSH2 0x5886 JUMP JUMPDEST SWAP1 POP SWAP2 SWAP1 POP JUMP JUMPDEST PUSH2 0x58B1 DUP2 PUSH2 0x5897 JUMP JUMPDEST DUP2 EQ PUSH2 0x58BB JUMPI PUSH0 DUP1 REVERT JUMPDEST POP JUMP JUMPDEST PUSH0 DUP2 CALLDATALOAD SWAP1 POP PUSH2 0x58CC DUP2 PUSH2 0x58A8 JUMP JUMPDEST SWAP3 SWAP2 POP POP JUMP JUMPDEST PUSH0 PUSH1 0x20 DUP3 DUP5 SUB SLT ISZERO PUSH2 0x58E7 JUMPI PUSH2 0x58E6 PUSH2 0x4887 JUMP JUMPDEST JUMPDEST PUSH0 PUSH2 0x58F4 DUP5 DUP3 DUP6 ADD PUSH2 0x58BE JUMP JUMPDEST SWAP2 POP POP SWAP3 SWAP2 POP POP JUMP JUMPDEST PUSH0 DUP1 PUSH0 DUP1 PUSH0 PUSH1 0xA0 DUP7 DUP9 SUB SLT ISZERO PUSH2 0x5916 JUMPI PUSH2 0x5915 PUSH2 0x4887 JUMP JUMPDEST JUMPDEST PUSH0 PUSH2 0x5923 DUP9 DUP3 DUP10 ADD PUSH2 0x4AE0 JUMP JUMPDEST SWAP6 POP POP PUSH1 0x20 PUSH2 0x5934 DUP9 DUP3 DUP10 ADD PUSH2 0x4AE0 JUMP JUMPDEST SWAP5 POP POP PUSH1 0x40 DUP7 ADD CALLDATALOAD PUSH8 0xFFFFFFFFFFFFFFFF DUP2 GT ISZERO PUSH2 0x5955 JUMPI PUSH2 0x5954 PUSH2 0x488B JUMP JUMPDEST JUMPDEST PUSH2 0x5961 DUP9 DUP3 DUP10 ADD PUSH2 0x4E1F JUMP JUMPDEST SWAP4 POP POP PUSH1 0x60 DUP7 ADD CALLDATALOAD PUSH8 0xFFFFFFFFFFFFFFFF DUP2 GT ISZERO PUSH2 0x5982 JUMPI PUSH2 0x5981 PUSH2 0x488B JUMP JUMPDEST JUMPDEST PUSH2 0x598E DUP9 DUP3 DUP10 ADD PUSH2 0x4E1F JUMP JUMPDEST SWAP3 POP POP PUSH1 0x80 DUP7 ADD CALLDATALOAD PUSH8 0xFFFFFFFFFFFFFFFF DUP2 GT ISZERO PUSH2 0x59AF JUMPI PUSH2 0x59AE PUSH2 0x488B JUMP JUMPDEST JUMPDEST PUSH2 0x59BB DUP9 DUP3 DUP10 ADD PUSH2 0x4BF3 JUMP JUMPDEST SWAP2 POP POP SWAP3 SWAP6 POP SWAP3 SWAP6 SWAP1 SWAP4 POP JUMP JUMPDEST PUSH0 DUP1 DUP4 PUSH1 0x1F DUP5 ADD SLT PUSH2 0x59DD JUMPI PUSH2 0x59DC PUSH2 0x4AF4 JUMP JUMPDEST JUMPDEST DUP3 CALLDATALOAD SWAP1 POP PUSH8 0xFFFFFFFFFFFFFFFF DUP2 GT ISZERO PUSH2 0x59FA JUMPI PUSH2 0x59F9 PUSH2 0x51B0 JUMP JUMPDEST JUMPDEST PUSH1 0x20 DUP4 ADD SWAP2 POP DUP4 PUSH1 0x1 DUP3 MUL DUP4 ADD GT ISZERO PUSH2 0x5A16 JUMPI PUSH2 0x5A15 PUSH2 0x4CF3 JUMP JUMPDEST JUMPDEST SWAP3 POP SWAP3 SWAP1 POP JUMP JUMPDEST PUSH0 DUP1 PUSH0 DUP1 PUSH1 0x60 DUP6 DUP8 SUB SLT ISZERO PUSH2 0x5A35 JUMPI PUSH2 0x5A34 PUSH2 0x4887 JUMP JUMPDEST JUMPDEST PUSH0 PUSH2 0x5A42 DUP8 DUP3 DUP9 ADD PUSH2 0x4AE0 JUMP JUMPDEST SWAP5 POP POP PUSH1 0x20 PUSH2 0x5A53 DUP8 DUP3 DUP9 ADD PUSH2 0x4989 JUMP JUMPDEST SWAP4 POP POP PUSH1 0x40 DUP6 ADD CALLDATALOAD PUSH8 0xFFFFFFFFFFFFFFFF DUP2 GT ISZERO PUSH2 0x5A74 JUMPI PUSH2 0x5A73 PUSH2 0x488B JUMP JUMPDEST JUMPDEST PUSH2 0x5A80 DUP8 DUP3 DUP9 ADD PUSH2 0x59C8 JUMP JUMPDEST SWAP3 POP SWAP3 POP POP SWAP3 SWAP6 SWAP2 SWAP5 POP SWAP3 POP JUMP JUMPDEST PUSH0 PUSH4 0xFFFFFFFF DUP3 AND SWAP1 POP SWAP2 SWAP1 POP JUMP JUMPDEST PUSH2 0x5AA6 DUP2 PUSH2 0x5A8E JUMP JUMPDEST DUP2 EQ PUSH2 0x5AB0 JUMPI PUSH0 DUP1 REVERT JUMPDEST POP JUMP JUMPDEST PUSH0 DUP2 CALLDATALOAD SWAP1 POP PUSH2 0x5AC1 DUP2 PUSH2 0x5A9D JUMP JUMPDEST SWAP3 SWAP2 POP POP JUMP JUMPDEST PUSH0 PUSH1 0x20 DUP3 DUP5 SUB SLT ISZERO PUSH2 0x5ADC JUMPI PUSH2 0x5ADB PUSH2 0x4887 JUMP JUMPDEST JUMPDEST PUSH0 PUSH2 0x5AE9 DUP5 DUP3 DUP6 ADD PUSH2 0x5AB3 JUMP JUMPDEST SWAP2 POP POP SWAP3 SWAP2 POP POP JUMP JUMPDEST PUSH0 DUP1 PUSH1 0x40 DUP4 DUP6 SUB SLT ISZERO PUSH2 0x5B08 JUMPI PUSH2 0x5B07 PUSH2 0x4887 JUMP JUMPDEST JUMPDEST PUSH0 PUSH2 0x5B15 DUP6 DUP3 DUP7 ADD PUSH2 0x4AE0 JUMP JUMPDEST SWAP3 POP POP PUSH1 0x20 PUSH2 0x5B26 DUP6 DUP3 DUP7 ADD PUSH2 0x4989 JUMP JUMPDEST SWAP2 POP POP SWAP3 POP SWAP3 SWAP1 POP JUMP JUMPDEST PUSH0 DUP1 PUSH0 DUP1 PUSH0 PUSH1 0xA0 DUP7 DUP9 SUB SLT ISZERO PUSH2 0x5B49 JUMPI PUSH2 0x5B48 PUSH2 0x4887 JUMP JUMPDEST JUMPDEST PUSH0 PUSH2 0x5B56 DUP9 DUP3 DUP10 ADD PUSH2 0x4AE0 JUMP JUMPDEST SWAP6 POP POP PUSH1 0x20 PUSH2 0x5B67 DUP9 DUP3 DUP10 ADD PUSH2 0x4AE0 JUMP JUMPDEST SWAP5 POP POP PUSH1 0x40 PUSH2 0x5B78 DUP9 DUP3 DUP10 ADD PUSH2 0x4989 JUMP JUMPDEST SWAP4 POP POP PUSH1 0x60 PUSH2 0x5B89 DUP9 DUP3 DUP10 ADD PUSH2 0x4989 JUMP JUMPDEST SWAP3 POP POP PUSH1 0x80 DUP7 ADD CALLDATALOAD PUSH8 0xFFFFFFFFFFFFFFFF DUP2 GT ISZERO PUSH2 0x5BAA JUMPI PUSH2 0x5BA9 PUSH2 0x488B JUMP JUMPDEST JUMPDEST PUSH2 0x5BB6 DUP9 DUP3 DUP10 ADD PUSH2 0x4BF3 JUMP JUMPDEST SWAP2 POP POP SWAP3 SWAP6 POP SWAP3 SWAP6 SWAP1 SWAP4 POP JUMP JUMPDEST PUSH0 DUP2 SWAP1 POP SWAP2 SWAP1 POP JUMP JUMPDEST PUSH0 PUSH2 0x5BE6 PUSH2 0x5BE1 PUSH2 0x5BDC DUP5 PUSH2 0x4A72 JUMP JUMPDEST PUSH2 0x5BC3 JUMP JUMPDEST PUSH2 0x4A72 JUMP JUMPDEST SWAP1 POP SWAP2 SWAP1 POP JUMP JUMPDEST PUSH0 PUSH2 0x5BF7 DUP3 PUSH2 0x5BCC JUMP JUMPDEST SWAP1 POP SWAP2 SWAP1 POP JUMP JUMPDEST PUSH0 PUSH2 0x5C08 DUP3 PUSH2 0x5BED JUMP JUMPDEST SWAP1 POP SWAP2 SWAP1 POP JUMP JUMPDEST PUSH2 0x5C18 DUP2 PUSH2 0x5BFE JUMP JUMPDEST DUP3 MSTORE POP POP JUMP JUMPDEST PUSH0 PUSH1 0x20 DUP3 ADD SWAP1 POP PUSH2 0x5C31 PUSH0 DUP4 ADD DUP5 PUSH2 0x5C0F JUMP JUMPDEST SWAP3 SWAP2 POP POP JUMP JUMPDEST PUSH32 0x4E487B7100000000000000000000000000000000000000000000000000000000 PUSH0 MSTORE PUSH1 0x22 PUSH1 0x4 MSTORE PUSH1 0x24 PUSH0 REVERT JUMPDEST PUSH0 PUSH1 0x2 DUP3 DIV SWAP1 POP PUSH1 0x1 DUP3 AND DUP1 PUSH2 0x5C7B JUMPI PUSH1 0x7F DUP3 AND SWAP2 POP JUMPDEST PUSH1 0x20 DUP3 LT DUP2 SUB PUSH2 0x5C8E JUMPI PUSH2 0x5C8D PUSH2 0x5C37 JUMP JUMPDEST JUMPDEST POP SWAP2 SWAP1 POP JUMP JUMPDEST PUSH0 PUSH2 0x5CAE PUSH2 0x5CA9 PUSH2 0x5CA4 DUP5 PUSH2 0x538B JUMP JUMPDEST PUSH2 0x5BC3 JUMP JUMPDEST PUSH2 0x4942 JUMP JUMPDEST SWAP1 POP SWAP2 SWAP1 POP JUMP JUMPDEST PUSH2 0x5CBE DUP2 PUSH2 0x5C94 JUMP JUMPDEST DUP3 MSTORE POP POP JUMP JUMPDEST PUSH0 PUSH1 0x40 DUP3 ADD SWAP1 POP PUSH2 0x5CD7 PUSH0 DUP4 ADD DUP6 PUSH2 0x494B JUMP JUMPDEST PUSH2 0x5CE4 PUSH1 0x20 DUP4 ADD DUP5 PUSH2 0x5CB5 JUMP JUMPDEST SWAP4 SWAP3 POP POP POP JUMP JUMPDEST PUSH32 0x4E487B7100000000000000000000000000000000000000000000000000000000 PUSH0 MSTORE PUSH1 0x32 PUSH1 0x4 MSTORE PUSH1 0x24 PUSH0 REVERT JUMPDEST PUSH32 0x4E487B7100000000000000000000000000000000000000000000000000000000 PUSH0 MSTORE PUSH1 0x11 PUSH1 0x4 MSTORE PUSH1 0x24 PUSH0 REVERT JUMPDEST PUSH0 PUSH2 0x5D4F DUP3 PUSH2 0x4942 JUMP JUMPDEST SWAP2 POP PUSH32 0xFFFFFFFFFFFFFFFFFFFFFFFFFFFFFFFFFFFFFFFFFFFFFFFFFFFFFFFFFFFFFFFF DUP3 SUB PUSH2 0x5D81 JUMPI PUSH2 0x5D80 PUSH2 0x5D18 JUMP JUMPDEST JUMPDEST PUSH1 0x1 DUP3 ADD SWAP1 POP SWAP2 SWAP1 POP JUMP JUMPDEST PUSH0 PUSH2 0x5D9E PUSH2 0x5D99 DUP5 PUSH2 0x5462 JUMP JUMPDEST PUSH2 0x4B5A JUMP JUMPDEST SWAP1 POP DUP3 DUP2 MSTORE PUSH1 0x20 DUP2 ADD DUP5 DUP5 DUP5 ADD GT ISZERO PUSH2 0x5DBA JUMPI PUSH2 0x5DB9 PUSH2 0x4AF8 JUMP JUMPDEST JUMPDEST PUSH2 0x5DC5 DUP5 DUP3 DUP6 PUSH2 0x49E2 JUMP JUMPDEST POP SWAP4 SWAP3 POP POP POP JUMP JUMPDEST PUSH0 DUP3 PUSH1 0x1F DUP4 ADD SLT PUSH2 0x5DE1 JUMPI PUSH2 0x5DE0 PUSH2 0x4AF4 JUMP JUMPDEST JUMPDEST DUP2 MLOAD PUSH2 0x5DF1 DUP5 DUP3 PUSH1 0x20 DUP7 ADD PUSH2 0x5D8C JUMP JUMPDEST SWAP2 POP POP SWAP3 SWAP2 POP POP JUMP JUMPDEST PUSH0 PUSH1 0x20 DUP3 DUP5 SUB SLT ISZERO PUSH2 0x5E0F JUMPI PUSH2 0x5E0E PUSH2 0x4887 JUMP JUMPDEST JUMPDEST PUSH0 DUP3 ADD MLOAD PUSH8 0xFFFFFFFFFFFFFFFF DUP2 GT ISZERO PUSH2 0x5E2C JUMPI PUSH2 0x5E2B PUSH2 0x488B JUMP JUMPDEST JUMPDEST PUSH2 0x5E38 DUP5 DUP3 DUP6 ADD PUSH2 0x5DCD JUMP JUMPDEST SWAP2 POP POP SWAP3 SWAP2 POP POP JUMP JUMPDEST PUSH0 DUP2 SWAP1 POP SWAP3 SWAP2 POP POP JUMP JUMPDEST PUSH0 PUSH2 0x5E56 DUP4 DUP6 PUSH2 0x5E41 JUMP JUMPDEST SWAP4 POP PUSH2 0x5E63 DUP4 DUP6 DUP5 PUSH2 0x4BA4 JUMP JUMPDEST DUP3 DUP5 ADD SWAP1 POP SWAP4 SWAP3 POP POP POP JUMP JUMPDEST PUSH0 PUSH2 0x5E7B DUP3 DUP5 DUP7 PUSH2 0x5E4B JUMP JUMPDEST SWAP2 POP DUP2 SWAP1 POP SWAP4 SWAP3 POP POP POP JUMP JUMPDEST PUSH2 0x5E90 DUP2 PUSH2 0x513C JUMP JUMPDEST DUP3 MSTORE POP POP JUMP JUMPDEST PUSH0 PUSH1 0xE0 DUP3 ADD SWAP1 POP PUSH2 0x5EA9 PUSH0 DUP4 ADD DUP11 PUSH2 0x5015 JUMP JUMPDEST PUSH2 0x5EB6 PUSH1 0x20 DUP4 ADD DUP10 PUSH2 0x494B JUMP JUMPDEST PUSH2 0x5EC3 PUSH1 0x40 DUP4 ADD DUP9 PUSH2 0x5E87 JUMP JUMPDEST PUSH2 0x5ED0 PUSH1 0x60 DUP4 ADD DUP8 PUSH2 0x4AA2 JUMP JUMPDEST PUSH2 0x5EDD PUSH1 0x80 DUP4 ADD DUP7 PUSH2 0x494B JUMP JUMPDEST PUSH2 0x5EEA PUSH1 0xA0 DUP4 ADD DUP6 PUSH2 0x5015 JUMP JUMPDEST PUSH2 0x5EF7 PUSH1 0xC0 DUP4 ADD DUP5 PUSH2 0x5015 JUMP JUMPDEST SWAP9 SWAP8 POP POP POP POP POP POP POP POP JUMP JUMPDEST PUSH0 PUSH2 0x5F0D DUP3 PUSH2 0x4942 JUMP JUMPDEST SWAP2 POP PUSH2 0x5F18 DUP4 PUSH2 0x4942 JUMP JUMPDEST SWAP3 POP DUP3 DUP3 SUB SWAP1 POP DUP2 DUP2 GT ISZERO PUSH2 0x5F30 JUMPI PUSH2 0x5F2F PUSH2 0x5D18 JUMP JUMPDEST JUMPDEST SWAP3 SWAP2 POP POP JUMP JUMPDEST PUSH0 PUSH2 0x5F40 DUP3 PUSH2 0x538B JUMP JUMPDEST SWAP2 POP PUSH2 0x5F4B DUP4 PUSH2 0x538B JUMP JUMPDEST SWAP3 POP DUP3 DUP3 SUB SWAP1 POP PUSH6 0xFFFFFFFFFFFF DUP2 GT ISZERO PUSH2 0x5F69 JUMPI PUSH2 0x5F68 PUSH2 0x5D18 JUMP JUMPDEST JUMPDEST SWAP3 SWAP2 POP POP JUMP JUMPDEST PUSH0 PUSH1 0x60 DUP3 ADD SWAP1 POP PUSH2 0x5F82 PUSH0 DUP4 ADD DUP7 PUSH2 0x4AA2 JUMP JUMPDEST PUSH2 0x5F8F PUSH1 0x20 DUP4 ADD DUP6 PUSH2 0x494B JUMP JUMPDEST PUSH2 0x5F9C PUSH1 0x40 DUP4 ADD DUP5 PUSH2 0x494B JUMP JUMPDEST SWAP5 SWAP4 POP POP POP POP JUMP JUMPDEST PUSH0 PUSH1 0xA0 DUP3 ADD SWAP1 POP PUSH2 0x5FB7 PUSH0 DUP4 ADD DUP9 PUSH2 0x5015 JUMP JUMPDEST PUSH2 0x5FC4 PUSH1 0x20 DUP4 ADD DUP8 PUSH2 0x494B JUMP JUMPDEST PUSH2 0x5FD1 PUSH1 0x40 DUP4 ADD DUP7 PUSH2 0x5E87 JUMP JUMPDEST PUSH2 0x5FDE PUSH1 0x60 DUP4 ADD DUP6 PUSH2 0x4AA2 JUMP JUMPDEST PUSH2 0x5FEB PUSH1 0x80 DUP4 ADD DUP5 PUSH2 0x494B JUMP JUMPDEST SWAP7 SWAP6 POP POP POP POP POP POP JUMP JUMPDEST PUSH0 DUP2 MLOAD SWAP1 POP PUSH2 0x6003 DUP2 PUSH2 0x539C JUMP JUMPDEST SWAP3 SWAP2 POP POP JUMP JUMPDEST PUSH0 PUSH1 0x20 DUP3 DUP5 SUB SLT ISZERO PUSH2 0x601E JUMPI PUSH2 0x601D PUSH2 0x4887 JUMP JUMPDEST JUMPDEST PUSH0 PUSH2 0x602B DUP5 DUP3 DUP6 ADD PUSH2 0x5FF5 JUMP JUMPDEST SWAP2 POP POP SWAP3 SWAP2 POP POP JUMP JUMPDEST PUSH0 PUSH2 0x603E DUP3 PUSH2 0x538B JUMP JUMPDEST SWAP2 POP PUSH2 0x6049 DUP4 PUSH2 0x538B JUMP JUMPDEST SWAP3 POP DUP3 DUP3 ADD SWAP1 POP PUSH6 0xFFFFFFFFFFFF DUP2 GT ISZERO PUSH2 0x6067 JUMPI PUSH2 0x6066 PUSH2 0x5D18 JUMP JUMPDEST JUMPDEST SWAP3 SWAP2 POP POP JUMP JUMPDEST PUSH0 DUP2 MLOAD SWAP1 POP SWAP2 SWAP1 POP JUMP JUMPDEST PUSH0 DUP3 DUP3 MSTORE PUSH1 0x20 DUP3 ADD SWAP1 POP SWAP3 SWAP2 POP POP JUMP JUMPDEST PUSH0 DUP2 SWAP1 POP PUSH1 0x20 DUP3 ADD SWAP1 POP SWAP2 SWAP1 POP JUMP JUMPDEST PUSH2 0x609F DUP2 PUSH2 0x4A91 JUMP JUMPDEST DUP3 MSTORE POP POP JUMP JUMPDEST PUSH0 PUSH2 0x60B0 DUP4 DUP4 PUSH2 0x6096 JUMP JUMPDEST PUSH1 0x20 DUP4 ADD SWAP1 POP SWAP3 SWAP2 POP POP JUMP JUMPDEST PUSH0 PUSH1 0x20 DUP3 ADD SWAP1 POP SWAP2 SWAP1 POP JUMP JUMPDEST PUSH0 PUSH2 0x60D2 DUP3 PUSH2 0x606D JUMP JUMPDEST PUSH2 0x60DC DUP2 DUP6 PUSH2 0x6077 JUMP JUMPDEST SWAP4 POP PUSH2 0x60E7 DUP4 PUSH2 0x6087 JUMP JUMPDEST DUP1 PUSH0 JUMPDEST DUP4 DUP2 LT ISZERO PUSH2 0x6117 JUMPI DUP2 MLOAD PUSH2 0x60FE DUP9 DUP3 PUSH2 0x60A5 JUMP JUMPDEST SWAP8 POP PUSH2 0x6109 DUP4 PUSH2 0x60BC JUMP JUMPDEST SWAP3 POP POP PUSH1 0x1 DUP2 ADD SWAP1 POP PUSH2 0x60EA JUMP JUMPDEST POP DUP6 SWAP4 POP POP POP POP SWAP3 SWAP2 POP POP JUMP JUMPDEST PUSH0 DUP2 MLOAD SWAP1 POP SWAP2 SWAP1 POP JUMP JUMPDEST PUSH0 DUP3 DUP3 MSTORE PUSH1 0x20 DUP3 ADD SWAP1 POP SWAP3 SWAP2 POP POP JUMP JUMPDEST PUSH0 DUP2 SWAP1 POP PUSH1 0x20 DUP3 ADD SWAP1 POP SWAP2 SWAP1 POP JUMP JUMPDEST PUSH0 DUP2 MLOAD SWAP1 POP SWAP2 SWAP1 POP JUMP JUMPDEST PUSH0 DUP3 DUP3 MSTORE PUSH1 0x20 DUP3 ADD SWAP1 POP SWAP3 SWAP2 POP POP JUMP JUMPDEST PUSH0 PUSH2 0x6171 DUP3 PUSH2 0x614D JUMP JUMPDEST PUSH2 0x617B DUP2 DUP6 PUSH2 0x6157 JUMP JUMPDEST SWAP4 POP PUSH2 0x618B DUP2 DUP6 PUSH1 0x20 DUP7 ADD PUSH2 0x49E2 JUMP JUMPDEST PUSH2 0x6194 DUP2 PUSH2 0x4A0A JUMP JUMPDEST DUP5 ADD SWAP2 POP POP SWAP3 SWAP2 POP POP JUMP JUMPDEST PUSH0 PUSH2 0x61AA DUP4 DUP4 PUSH2 0x6167 JUMP JUMPDEST SWAP1 POP SWAP3 SWAP2 POP POP JUMP JUMPDEST PUSH0 PUSH1 0x20 DUP3 ADD SWAP1 POP SWAP2 SWAP1 POP JUMP JUMPDEST PUSH0 PUSH2 0x61C8 DUP3 PUSH2 0x6124 JUMP JUMPDEST PUSH2 0x61D2 DUP2 DUP6 PUSH2 0x612E JUMP JUMPDEST SWAP4 POP DUP4 PUSH1 0x20 DUP3 MUL DUP6 ADD PUSH2 0x61E4 DUP6 PUSH2 0x613E JUMP JUMPDEST DUP1 PUSH0 JUMPDEST DUP6 DUP2 LT ISZERO PUSH2 0x621F JUMPI DUP5 DUP5 SUB DUP10 MSTORE DUP2 MLOAD PUSH2 0x6200 DUP6 DUP3 PUSH2 0x619F JUMP JUMPDEST SWAP5 POP PUSH2 0x620B DUP4 PUSH2 0x61B2 JUMP JUMPDEST SWAP3 POP PUSH1 0x20 DUP11 ADD SWAP10 POP POP PUSH1 0x1 DUP2 ADD SWAP1 POP PUSH2 0x61E7 JUMP JUMPDEST POP DUP3 SWAP8 POP DUP8 SWAP6 POP POP POP POP POP POP SWAP3 SWAP2 POP POP JUMP JUMPDEST PUSH0 PUSH1 0x80 DUP3 ADD SWAP1 POP DUP2 DUP2 SUB PUSH0 DUP4 ADD MSTORE PUSH2 0x6249 DUP2 DUP8 PUSH2 0x60C8 JUMP JUMPDEST SWAP1 POP DUP2 DUP2 SUB PUSH1 0x20 DUP4 ADD MSTORE PUSH2 0x625D DUP2 DUP7 PUSH2 0x5694 JUMP JUMPDEST SWAP1 POP DUP2 DUP2 SUB PUSH1 0x40 DUP4 ADD MSTORE PUSH2 0x6271 DUP2 DUP6 PUSH2 0x61BE JUMP JUMPDEST SWAP1 POP PUSH2 0x6280 PUSH1 0x60 DUP4 ADD DUP5 PUSH2 0x5015 JUMP JUMPDEST SWAP6 SWAP5 POP POP POP POP POP JUMP JUMPDEST PUSH0 PUSH1 0x40 DUP3 ADD SWAP1 POP PUSH2 0x629C PUSH0 DUP4 ADD DUP6 PUSH2 0x494B JUMP JUMPDEST PUSH2 0x62A9 PUSH1 0x20 DUP4 ADD DUP5 PUSH2 0x494B JUMP JUMPDEST SWAP4 SWAP3 POP POP POP JUMP JUMPDEST PUSH0 PUSH1 0x60 DUP3 ADD SWAP1 POP PUSH2 0x62C3 PUSH0 DUP4 ADD DUP7 PUSH2 0x494B JUMP JUMPDEST PUSH2 0x62D0 PUSH1 0x20 DUP4 ADD DUP6 PUSH2 0x50A1 JUMP JUMPDEST PUSH2 0x62DD PUSH1 0x40 DUP4 ADD DUP5 PUSH2 0x5015 JUMP JUMPDEST SWAP5 SWAP4 POP POP POP POP JUMP JUMPDEST PUSH2 0x62EE DUP2 PUSH2 0x490F JUMP JUMPDEST DUP2 EQ PUSH2 0x62F8 JUMPI PUSH0 DUP1 REVERT JUMPDEST POP JUMP JUMPDEST PUSH0 DUP2 MLOAD SWAP1 POP PUSH2 0x6309 DUP2 PUSH2 0x62E5 JUMP JUMPDEST SWAP3 SWAP2 POP POP JUMP JUMPDEST PUSH0 PUSH1 0x20 DUP3 DUP5 SUB SLT ISZERO PUSH2 0x6324 JUMPI PUSH2 0x6323 PUSH2 0x4887 JUMP JUMPDEST JUMPDEST PUSH0 PUSH2 0x6331 DUP5 DUP3 DUP6 ADD PUSH2 0x62FB JUMP JUMPDEST SWAP2 POP POP SWAP3 SWAP2 POP POP JUMP JUMPDEST PUSH0 PUSH1 0x80 DUP3 ADD SWAP1 POP PUSH2 0x634D PUSH0 DUP4 ADD DUP8 PUSH2 0x494B JUMP JUMPDEST PUSH2 0x635A PUSH1 0x20 DUP4 ADD DUP7 PUSH2 0x5E87 JUMP JUMPDEST PUSH2 0x6367 PUSH1 0x40 DUP4 ADD DUP6 PUSH2 0x494B JUMP JUMPDEST DUP2 DUP2 SUB PUSH1 0x60 DUP4 ADD MSTORE PUSH2 0x6379 DUP2 DUP5 PUSH2 0x4A1A JUMP JUMPDEST SWAP1 POP SWAP6 SWAP5 POP POP POP POP POP JUMP JUMPDEST PUSH0 DUP3 DUP3 MSTORE PUSH1 0x20 DUP3 ADD SWAP1 POP SWAP3 SWAP2 POP POP JUMP JUMPDEST PUSH0 PUSH2 0x639E DUP3 PUSH2 0x614D JUMP JUMPDEST PUSH2 0x63A8 DUP2 DUP6 PUSH2 0x6384 JUMP JUMPDEST SWAP4 POP PUSH2 0x63B8 DUP2 DUP6 PUSH1 0x20 DUP7 ADD PUSH2 0x49E2 JUMP JUMPDEST PUSH2 0x63C1 DUP2 PUSH2 0x4A0A JUMP JUMPDEST DUP5 ADD SWAP2 POP POP SWAP3 SWAP2 POP POP JUMP JUMPDEST PUSH0 PUSH1 0xA0 DUP3 ADD SWAP1 POP PUSH2 0x63DF PUSH0 DUP4 ADD DUP9 PUSH2 0x494B JUMP JUMPDEST PUSH2 0x63EC PUSH1 0x20 DUP4 ADD DUP8 PUSH2 0x5E87 JUMP JUMPDEST PUSH2 0x63F9 PUSH1 0x40 DUP4 ADD DUP7 PUSH2 0x494B JUMP JUMPDEST DUP2 DUP2 SUB PUSH1 0x60 DUP4 ADD MSTORE PUSH2 0x640B DUP2 DUP6 PUSH2 0x4A1A JUMP JUMPDEST SWAP1 POP DUP2 DUP2 SUB PUSH1 0x80 DUP4 ADD MSTORE PUSH2 0x641F DUP2 DUP5 PUSH2 0x6394 JUMP JUMPDEST SWAP1 POP SWAP7 SWAP6 POP POP POP POP POP POP JUMP JUMPDEST PUSH0 DUP2 SWAP1 POP SWAP2 SWAP1 POP JUMP JUMPDEST PUSH0 PUSH2 0x644E PUSH2 0x6449 PUSH2 0x6444 DUP5 PUSH2 0x642B JUMP JUMPDEST PUSH2 0x5BC3 JUMP JUMPDEST PUSH2 0x513C JUMP JUMPDEST SWAP1 POP SWAP2 SWAP1 POP JUMP JUMPDEST PUSH2 0x645E DUP2 PUSH2 0x6434 JUMP JUMPDEST DUP3 MSTORE POP POP JUMP JUMPDEST PUSH0 PUSH1 0x40 DUP3 ADD SWAP1 POP PUSH2 0x6477 PUSH0 DUP4 ADD DUP6 PUSH2 0x6455 JUMP JUMPDEST PUSH2 0x6484 PUSH1 0x20 DUP4 ADD DUP5 PUSH2 0x494B JUMP JUMPDEST SWAP4 SWAP3 POP POP POP JUMP JUMPDEST PUSH0 PUSH2 0x6495 DUP3 PUSH2 0x4942 JUMP JUMPDEST SWAP2 POP PUSH2 0x64A0 DUP4 PUSH2 0x4942 JUMP JUMPDEST SWAP3 POP DUP3 DUP3 ADD SWAP1 POP DUP1 DUP3 GT ISZERO PUSH2 0x64B8 JUMPI PUSH2 0x64B7 PUSH2 0x5D18 JUMP JUMPDEST JUMPDEST SWAP3 SWAP2 POP POP JUMP JUMPDEST PUSH0 PUSH1 0x40 DUP3 ADD SWAP1 POP PUSH2 0x64D1 PUSH0 DUP4 ADD DUP6 PUSH2 0x5CB5 JUMP JUMPDEST PUSH2 0x64DE PUSH1 0x20 DUP4 ADD DUP5 PUSH2 0x5CB5 JUMP JUMPDEST SWAP4 SWAP3 POP POP POP JUMP JUMPDEST PUSH0 DUP2 MLOAD SWAP1 POP SWAP2 SWAP1 POP JUMP JUMPDEST PUSH0 DUP3 DUP3 MSTORE PUSH1 0x20 DUP3 ADD SWAP1 POP SWAP3 SWAP2 POP POP JUMP JUMPDEST PUSH0 DUP2 SWAP1 POP PUSH1 0x20 DUP3 ADD SWAP1 POP SWAP2 SWAP1 POP JUMP JUMPDEST PUSH0 DUP3 DUP3 MSTORE PUSH1 0x20 DUP3 ADD SWAP1 POP SWAP3 SWAP2 POP POP JUMP JUMPDEST PUSH0 PUSH2 0x6528 DUP3 PUSH2 0x49C8 JUMP JUMPDEST PUSH2 0x6532 DUP2 DUP6 PUSH2 0x650E JUMP JUMPDEST SWAP4 POP PUSH2 0x6542 DUP2 DUP6 PUSH1 0x20 DUP7 ADD PUSH2 0x49E2 JUMP JUMPDEST PUSH2 0x654B DUP2 PUSH2 0x4A0A JUMP JUMPDEST DUP5 ADD SWAP2 POP POP SWAP3 SWAP2 POP POP JUMP JUMPDEST PUSH0 PUSH2 0x6561 DUP4 DUP4 PUSH2 0x651E JUMP JUMPDEST SWAP1 POP SWAP3 SWAP2 POP POP JUMP JUMPDEST PUSH0 PUSH1 0x20 DUP3 ADD SWAP1 POP SWAP2 SWAP1 POP JUMP JUMPDEST PUSH0 PUSH2 0x657F DUP3 PUSH2 0x64E5 JUMP JUMPDEST PUSH2 0x6589 DUP2 DUP6 PUSH2 0x64EF JUMP JUMPDEST SWAP4 POP DUP4 PUSH1 0x20 DUP3 MUL DUP6 ADD PUSH2 0x659B DUP6 PUSH2 0x64FF JUMP JUMPDEST DUP1 PUSH0 JUMPDEST DUP6 DUP2 LT ISZERO PUSH2 0x65D6 JUMPI DUP5 DUP5 SUB DUP10 MSTORE DUP2 MLOAD PUSH2 0x65B7 DUP6 DUP3 PUSH2 0x6556 JUMP JUMPDEST SWAP5 POP PUSH2 0x65C2 DUP4 PUSH2 0x6569 JUMP JUMPDEST SWAP3 POP PUSH1 0x20 DUP11 ADD SWAP10 POP POP PUSH1 0x1 DUP2 ADD SWAP1 POP PUSH2 0x659E JUMP JUMPDEST POP DUP3 SWAP8 POP DUP8 SWAP6 POP POP POP POP POP POP SWAP3 SWAP2 POP POP JUMP JUMPDEST PUSH0 PUSH2 0x120 DUP3 ADD SWAP1 POP PUSH2 0x65FC PUSH0 DUP4 ADD DUP13 PUSH2 0x494B JUMP JUMPDEST PUSH2 0x6609 PUSH1 0x20 DUP4 ADD DUP12 PUSH2 0x4AA2 JUMP JUMPDEST DUP2 DUP2 SUB PUSH1 0x40 DUP4 ADD MSTORE PUSH2 0x661B DUP2 DUP11 PUSH2 0x60C8 JUMP JUMPDEST SWAP1 POP DUP2 DUP2 SUB PUSH1 0x60 DUP4 ADD MSTORE PUSH2 0x662F DUP2 DUP10 PUSH2 0x5694 JUMP JUMPDEST SWAP1 POP DUP2 DUP2 SUB PUSH1 0x80 DUP4 ADD MSTORE PUSH2 0x6643 DUP2 DUP9 PUSH2 0x6575 JUMP JUMPDEST SWAP1 POP DUP2 DUP2 SUB PUSH1 0xA0 DUP4 ADD MSTORE PUSH2 0x6657 DUP2 DUP8 PUSH2 0x61BE JUMP JUMPDEST SWAP1 POP PUSH2 0x6666 PUSH1 0xC0 DUP4 ADD DUP7 PUSH2 0x494B JUMP JUMPDEST PUSH2 0x6673 PUSH1 0xE0 DUP4 ADD DUP6 PUSH2 0x494B JUMP JUMPDEST DUP2 DUP2 SUB PUSH2 0x100 DUP4 ADD MSTORE PUSH2 0x6686 DUP2 DUP5 PUSH2 0x4A1A JUMP JUMPDEST SWAP1 POP SWAP11 SWAP10 POP POP POP POP POP POP POP POP POP POP JUMP JUMPDEST PUSH0 PUSH1 0x40 DUP3 ADD SWAP1 POP PUSH2 0x66A9 PUSH0 DUP4 ADD DUP6 PUSH2 0x4AA2 JUMP JUMPDEST PUSH2 0x66B6 PUSH1 0x20 DUP4 ADD DUP5 PUSH2 0x494B JUMP JUMPDEST SWAP4 SWAP3 POP POP POP JUMP JUMPDEST PUSH0 DUP2 MLOAD SWAP1 POP PUSH2 0x66CB DUP2 PUSH2 0x4973 JUMP JUMPDEST SWAP3 SWAP2 POP POP JUMP JUMPDEST PUSH0 PUSH1 0x20 DUP3 DUP5 SUB SLT ISZERO PUSH2 0x66E6 JUMPI PUSH2 0x66E5 PUSH2 0x4887 JUMP JUMPDEST JUMPDEST PUSH0 PUSH2 0x66F3 DUP5 DUP3 DUP6 ADD PUSH2 0x66BD JUMP JUMPDEST SWAP2 POP POP SWAP3 SWAP2 POP POP JUMP JUMPDEST PUSH0 PUSH1 0x40 DUP3 ADD SWAP1 POP PUSH2 0x670F PUSH0 DUP4 ADD DUP6 PUSH2 0x4AA2 JUMP JUMPDEST PUSH2 0x671C PUSH1 0x20 DUP4 ADD DUP5 PUSH2 0x4AA2 JUMP JUMPDEST SWAP4 SWAP3 POP POP POP JUMP JUMPDEST PUSH0 DUP2 SWAP1 POP SWAP2 SWAP1 POP JUMP JUMPDEST PUSH0 PUSH2 0x6746 PUSH2 0x6741 PUSH2 0x673C DUP5 PUSH2 0x6723 JUMP JUMPDEST PUSH2 0x5BC3 JUMP JUMPDEST PUSH2 0x4942 JUMP JUMPDEST SWAP1 POP SWAP2 SWAP1 POP JUMP JUMPDEST PUSH2 0x6756 DUP2 PUSH2 0x672C JUMP JUMPDEST DUP3 MSTORE POP POP JUMP JUMPDEST PUSH0 PUSH1 0x20 DUP3 ADD SWAP1 POP PUSH2 0x676F PUSH0 DUP4 ADD DUP5 PUSH2 0x674D JUMP JUMPDEST SWAP3 SWAP2 POP POP JUMP JUMPDEST PUSH0 PUSH2 0x678F PUSH2 0x678A PUSH2 0x6785 DUP5 PUSH2 0x5A8E JUMP JUMPDEST PUSH2 0x5BC3 JUMP JUMPDEST PUSH2 0x4942 JUMP JUMPDEST SWAP1 POP SWAP2 SWAP1 POP JUMP JUMPDEST PUSH2 0x679F DUP2 PUSH2 0x6775 JUMP JUMPDEST DUP3 MSTORE POP POP JUMP JUMPDEST PUSH0 PUSH1 0x40 DUP3 ADD SWAP1 POP PUSH2 0x67B8 PUSH0 DUP4 ADD DUP6 PUSH2 0x6796 JUMP JUMPDEST PUSH2 0x67C5 PUSH1 0x20 DUP4 ADD DUP5 PUSH2 0x6796 JUMP JUMPDEST SWAP4 SWAP3 POP POP POP JUMP JUMPDEST PUSH0 PUSH2 0x67D6 DUP3 PUSH2 0x4942 JUMP JUMPDEST SWAP2 POP PUSH2 0x67E1 DUP4 PUSH2 0x4942 JUMP JUMPDEST SWAP3 POP DUP3 DUP3 MUL PUSH2 0x67EF DUP2 PUSH2 0x4942 JUMP JUMPDEST SWAP2 POP DUP3 DUP3 DIV DUP5 EQ DUP4 ISZERO OR PUSH2 0x6806 JUMPI PUSH2 0x6805 PUSH2 0x5D18 JUMP JUMPDEST JUMPDEST POP SWAP3 SWAP2 POP POP JUMP JUMPDEST PUSH32 0x4E487B7100000000000000000000000000000000000000000000000000000000 PUSH0 MSTORE PUSH1 0x12 PUSH1 0x4 MSTORE PUSH1 0x24 PUSH0 REVERT JUMPDEST PUSH0 PUSH2 0x6844 DUP3 PUSH2 0x4942 JUMP JUMPDEST SWAP2 POP PUSH2 0x684F DUP4 PUSH2 0x4942 JUMP JUMPDEST SWAP3 POP DUP3 PUSH2 0x685F JUMPI PUSH2 0x685E PUSH2 0x680D JUMP JUMPDEST JUMPDEST DUP3 DUP3 DIV SWAP1 POP SWAP3 SWAP2 POP POP JUMP JUMPDEST PUSH0 DUP2 SWAP1 POP SWAP2 SWAP1 POP JUMP JUMPDEST PUSH0 PUSH2 0x688D PUSH2 0x6888 PUSH2 0x6883 DUP5 PUSH2 0x686A JUMP JUMPDEST PUSH2 0x5BC3 JUMP JUMPDEST PUSH2 0x513C JUMP JUMPDEST SWAP1 POP SWAP2 SWAP1 POP JUMP JUMPDEST PUSH2 0x689D DUP2 PUSH2 0x6873 JUMP JUMPDEST DUP3 MSTORE POP POP JUMP JUMPDEST PUSH0 PUSH1 0x40 DUP3 ADD SWAP1 POP PUSH2 0x68B6 PUSH0 DUP4 ADD DUP6 PUSH2 0x6894 JUMP JUMPDEST PUSH2 0x68C3 PUSH1 0x20 DUP4 ADD DUP5 PUSH2 0x494B JUMP JUMPDEST SWAP4 SWAP3 POP POP POP JUMP JUMPDEST PUSH0 DUP2 PUSH0 SHL SWAP1 POP SWAP2 SWAP1 POP JUMP JUMPDEST PUSH0 PUSH2 0x68EF PUSH2 0x68EA PUSH2 0x68E5 DUP5 PUSH2 0x6723 JUMP JUMPDEST PUSH2 0x68CA JUMP JUMPDEST PUSH2 0x4F2A JUMP JUMPDEST SWAP1 POP SWAP2 SWAP1 POP JUMP JUMPDEST PUSH2 0x68FF DUP2 PUSH2 0x68D5 JUMP JUMPDEST DUP3 MSTORE POP POP JUMP JUMPDEST PUSH0 PUSH1 0xA0 DUP3 ADD SWAP1 POP DUP2 DUP2 SUB PUSH0 DUP4 ADD MSTORE PUSH2 0x691D DUP2 DUP9 PUSH2 0x60C8 JUMP JUMPDEST SWAP1 POP DUP2 DUP2 SUB PUSH1 0x20 DUP4 ADD MSTORE PUSH2 0x6931 DUP2 DUP8 PUSH2 0x5694 JUMP JUMPDEST SWAP1 POP DUP2 DUP2 SUB PUSH1 0x40 DUP4 ADD MSTORE PUSH2 0x6945 DUP2 DUP7 PUSH2 0x61BE JUMP JUMPDEST SWAP1 POP PUSH2 0x6954 PUSH1 0x60 DUP4 ADD DUP6 PUSH2 0x68F6 JUMP JUMPDEST PUSH2 0x6961 PUSH1 0x80 DUP4 ADD DUP5 PUSH2 0x5015 JUMP JUMPDEST SWAP7 SWAP6 POP POP POP POP POP POP JUMP JUMPDEST PUSH0 DUP2 MLOAD SWAP1 POP PUSH2 0x6979 DUP2 PUSH2 0x4F33 JUMP JUMPDEST SWAP3 SWAP2 POP POP JUMP JUMPDEST PUSH0 PUSH1 0x20 DUP3 DUP5 SUB SLT ISZERO PUSH2 0x6994 JUMPI PUSH2 0x6993 PUSH2 0x4887 JUMP JUMPDEST JUMPDEST PUSH0 PUSH2 0x69A1 DUP5 DUP3 DUP6 ADD PUSH2 0x696B JUMP JUMPDEST SWAP2 POP POP SWAP3 SWAP2 POP POP JUMP JUMPDEST PUSH0 PUSH1 0xC0 DUP3 ADD SWAP1 POP DUP2 DUP2 SUB PUSH0 DUP4 ADD MSTORE PUSH2 0x69C2 DUP2 DUP10 PUSH2 0x60C8 JUMP JUMPDEST SWAP1 POP DUP2 DUP2 SUB PUSH1 0x20 DUP4 ADD MSTORE PUSH2 0x69D6 DUP2 DUP9 PUSH2 0x5694 JUMP JUMPDEST SWAP1 POP DUP2 DUP2 SUB PUSH1 0x40 DUP4 ADD MSTORE PUSH2 0x69EA DUP2 DUP8 PUSH2 0x61BE JUMP JUMPDEST SWAP1 POP PUSH2 0x69F9 PUSH1 0x60 DUP4 ADD DUP7 PUSH2 0x68F6 JUMP JUMPDEST PUSH2 0x6A06 PUSH1 0x80 DUP4 ADD DUP6 PUSH2 0x5015 JUMP JUMPDEST PUSH2 0x6A13 PUSH1 0xA0 DUP4 ADD DUP5 PUSH2 0x494B JUMP JUMPDEST SWAP8 SWAP7 POP POP POP POP POP POP POP JUMP JUMPDEST PUSH0 PUSH1 0x40 DUP3 ADD SWAP1 POP PUSH2 0x6A31 PUSH0 DUP4 ADD DUP6 PUSH2 0x5015 JUMP JUMPDEST DUP2 DUP2 SUB PUSH1 0x20 DUP4 ADD MSTORE PUSH2 0x6A43 DUP2 DUP5 PUSH2 0x6394 JUMP JUMPDEST SWAP1 POP SWAP4 SWAP3 POP POP POP JUMP JUMPDEST PUSH0 PUSH2 0x6A56 DUP3 PUSH2 0x614D JUMP JUMPDEST PUSH2 0x6A60 DUP2 DUP6 PUSH2 0x5E41 JUMP JUMPDEST SWAP4 POP PUSH2 0x6A70 DUP2 DUP6 PUSH1 0x20 DUP7 ADD PUSH2 0x49E2 JUMP JUMPDEST DUP1 DUP5 ADD SWAP2 POP POP SWAP3 SWAP2 POP POP JUMP JUMPDEST PUSH0 PUSH2 0x6A87 DUP3 DUP5 PUSH2 0x6A4C JUMP JUMPDEST SWAP2 POP DUP2 SWAP1 POP SWAP3 SWAP2 POP POP JUMP JUMPDEST PUSH0 DUP2 SWAP1 POP SWAP2 SWAP1 POP JUMP JUMPDEST PUSH0 PUSH2 0x6AB5 PUSH2 0x6AB0 PUSH2 0x6AAB DUP5 PUSH2 0x6A92 JUMP JUMPDEST PUSH2 0x5BC3 JUMP JUMPDEST PUSH2 0x513C JUMP JUMPDEST SWAP1 POP SWAP2 SWAP1 POP JUMP JUMPDEST PUSH2 0x6AC5 DUP2 PUSH2 0x6A9B JUMP JUMPDEST DUP3 MSTORE POP POP JUMP JUMPDEST PUSH0 PUSH1 0x40 DUP3 ADD SWAP1 POP PUSH2 0x6ADE PUSH0 DUP4 ADD DUP6 PUSH2 0x6ABC JUMP JUMPDEST PUSH2 0x6AEB PUSH1 0x20 DUP4 ADD DUP5 PUSH2 0x494B JUMP JUMPDEST SWAP4 SWAP3 POP POP POP JUMP JUMPDEST PUSH0 PUSH2 0x6AFC DUP3 PUSH2 0x513C JUMP JUMPDEST SWAP2 POP PUSH2 0x6B07 DUP4 PUSH2 0x513C JUMP JUMPDEST SWAP3 POP DUP3 DUP3 ADD SWAP1 POP PUSH1 0xFF DUP2 GT ISZERO PUSH2 0x6B20 JUMPI PUSH2 0x6B1F PUSH2 0x5D18 JUMP JUMPDEST JUMPDEST SWAP3 SWAP2 POP POP JUMP JUMPDEST PUSH0 DUP2 PUSH1 0x1 SHR SWAP1 POP SWAP2 SWAP1 POP JUMP JUMPDEST PUSH0 DUP1 DUP3 SWAP2 POP DUP4 SWAP1 POP JUMPDEST PUSH1 0x1 DUP6 GT ISZERO PUSH2 0x6B7B JUMPI DUP1 DUP7 DIV DUP2 GT ISZERO PUSH2 0x6B57 JUMPI PUSH2 0x6B56 PUSH2 0x5D18 JUMP JUMPDEST JUMPDEST PUSH1 0x1 DUP6 AND ISZERO PUSH2 0x6B66 JUMPI DUP1 DUP3 MUL SWAP2 POP JUMPDEST DUP1 DUP2 MUL SWAP1 POP PUSH2 0x6B74 DUP6 PUSH2 0x6B26 JUMP JUMPDEST SWAP5 POP PUSH2 0x6B3B JUMP JUMPDEST SWAP5 POP SWAP5 SWAP3 POP POP POP JUMP JUMPDEST PUSH0 DUP3 PUSH2 0x6B93 JUMPI PUSH1 0x1 SWAP1 POP PUSH2 0x6C4E JUMP JUMPDEST DUP2 PUSH2 0x6BA0 JUMPI PUSH0 SWAP1 POP PUSH2 0x6C4E JUMP JUMPDEST DUP2 PUSH1 0x1 DUP2 EQ PUSH2 0x6BB6 JUMPI PUSH1 0x2 DUP2 EQ PUSH2 0x6BC0 JUMPI PUSH2 0x6BEF JUMP JUMPDEST PUSH1 0x1 SWAP2 POP POP PUSH2 0x6C4E JUMP JUMPDEST PUSH1 0xFF DUP5 GT ISZERO PUSH2 0x6BD2 JUMPI PUSH2 0x6BD1 PUSH2 0x5D18 JUMP JUMPDEST JUMPDEST DUP4 PUSH1 0x2 EXP SWAP2 POP DUP5 DUP3 GT ISZERO PUSH2 0x6BE9 JUMPI PUSH2 0x6BE8 PUSH2 0x5D18 JUMP JUMPDEST JUMPDEST POP PUSH2 0x6C4E JUMP JUMPDEST POP PUSH1 0x20 DUP4 LT PUSH2 0x133 DUP4 LT AND PUSH1 0x4E DUP5 LT PUSH1 0xB DUP5 LT AND OR ISZERO PUSH2 0x6C24 JUMPI DUP3 DUP3 EXP SWAP1 POP DUP4 DUP2 GT ISZERO PUSH2 0x6C1F JUMPI PUSH2 0x6C1E PUSH2 0x5D18 JUMP JUMPDEST JUMPDEST PUSH2 0x6C4E JUMP JUMPDEST PUSH2 0x6C31 DUP5 DUP5 DUP5 PUSH1 0x1 PUSH2 0x6B32 JUMP JUMPDEST SWAP3 POP SWAP1 POP DUP2 DUP5 DIV DUP2 GT ISZERO PUSH2 0x6C48 JUMPI PUSH2 0x6C47 PUSH2 0x5D18 JUMP JUMPDEST JUMPDEST DUP2 DUP2 MUL SWAP1 POP JUMPDEST SWAP4 SWAP3 POP POP POP JUMP JUMPDEST PUSH0 PUSH2 0x6C5F DUP3 PUSH2 0x4942 JUMP JUMPDEST SWAP2 POP PUSH2 0x6C6A DUP4 PUSH2 0x513C JUMP JUMPDEST SWAP3 POP PUSH2 0x6C97 PUSH32 0xFFFFFFFFFFFFFFFFFFFFFFFFFFFFFFFFFFFFFFFFFFFFFFFFFFFFFFFFFFFFFFFF DUP5 DUP5 PUSH2 0x6B84 JUMP JUMPDEST SWAP1 POP SWAP3 SWAP2 POP POP JUMP JUMPDEST PUSH0 PUSH1 0xA0 DUP3 ADD SWAP1 POP PUSH2 0x6CB2 PUSH0 DUP4 ADD DUP9 PUSH2 0x5015 JUMP JUMPDEST PUSH2 0x6CBF PUSH1 0x20 DUP4 ADD DUP8 PUSH2 0x5015 JUMP JUMPDEST PUSH2 0x6CCC PUSH1 0x40 DUP4 ADD DUP7 PUSH2 0x5015 JUMP JUMPDEST PUSH2 0x6CD9 PUSH1 0x60 DUP4 ADD DUP6 PUSH2 0x494B JUMP JUMPDEST PUSH2 0x6CE6 PUSH1 0x80 DUP4 ADD DUP5 PUSH2 0x4AA2 JUMP JUMPDEST SWAP7 SWAP6 POP POP POP POP POP POP JUMP JUMPDEST PUSH0 PUSH1 0x80 DUP3 ADD SWAP1 POP PUSH2 0x6D03 PUSH0 DUP4 ADD DUP8 PUSH2 0x5015 JUMP JUMPDEST PUSH2 0x6D10 PUSH1 0x20 DUP4 ADD DUP7 PUSH2 0x5E87 JUMP JUMPDEST PUSH2 0x6D1D PUSH1 0x40 DUP4 ADD DUP6 PUSH2 0x5015 JUMP JUMPDEST PUSH2 0x6D2A PUSH1 0x60 DUP4 ADD DUP5 PUSH2 0x5015 JUMP JUMPDEST SWAP6 SWAP5 POP POP POP POP POP JUMP INVALID LOG2 PUSH5 0x6970667358 0x22 SLT KECCAK256 JUMPI 0x2D 0x2D TIMESTAMP SSTORE DUP2 MSIZE 0xD5 CODECOPY DUP5 ADDRESS PUSH8 0x74B1CA9AF89AE7B7 PUSH1 0x5E PUSH30 0x323BAD0E5B4F2D46C864736F6C6343000814003300000000000000000000 "
		},
		"gasEstimates": {
			"creation": {
				"codeDepositCost": "5601800",
				"executionCost": "infinite",
				"totalCost": "infinite"
			},
			"external": {
				"BALLOT_TYPEHASH()": "480",
				"CLOCK_MODE()": "infinite",
				"COUNTING_MODE()": "infinite",
				"EXTENDED_BALLOT_TYPEHASH()": "437",
				"cancel(address[],uint256[],bytes[],bytes32)": "infinite",
				"castVote(uint256,uint8)": "infinite",
				"castVoteBySig(uint256,uint8,address,bytes)": "infinite",
				"castVoteWithReason(uint256,uint8,string)": "infinite",
				"castVoteWithReasonAndParams(uint256,uint8,string,bytes)": "infinite",
				"castVoteWithReasonAndParamsBySig(uint256,uint8,address,string,bytes,bytes)": "infinite",
				"clock()": "infinite",
				"eip712Domain()": "infinite",
				"execute(address[],uint256[],bytes[],bytes32)": "infinite",
				"getVotes(address,uint256)": "infinite",
				"getVotesWithParams(address,uint256,bytes)": "infinite",
				"hasVoted(uint256,address)": "3169",
				"hashProposal(address[],uint256[],bytes[],bytes32)": "infinite",
				"name()": "infinite",
				"nonces(address)": "2875",
				"onERC1155BatchReceived(address,address,uint256[],uint256[],bytes)": "infinite",
				"onERC1155Received(address,address,uint256,uint256,bytes)": "infinite",
				"onERC721Received(address,address,uint256,bytes)": "infinite",
				"proposalDeadline(uint256)": "infinite",
				"proposalEta(uint256)": "infinite",
				"proposalNeedsQueuing(uint256)": "730",
				"proposalProposer(uint256)": "2992",
				"proposalSnapshot(uint256)": "infinite",
				"proposalThreshold()": "2599",
				"proposalVotes(uint256)": "infinite",
				"propose(address[],uint256[],bytes[],string)": "infinite",
				"queue(address[],uint256[],bytes[],bytes32)": "infinite",
				"quorum(uint256)": "infinite",
				"quorumDenominator()": "466",
				"quorumNumerator()": "infinite",
				"quorumNumerator(uint256)": "infinite",
				"relay(address,uint256,bytes)": "infinite",
				"setProposalThreshold(uint256)": "infinite",
				"setVotingDelay(uint48)": "infinite",
				"setVotingPeriod(uint32)": "infinite",
				"state(uint256)": "infinite",
				"supportsInterface(bytes4)": "852",
				"timelock()": "2626",
				"token()": "infinite",
				"updateQuorumNumerator(uint256)": "infinite",
				"updateTimelock(address)": "infinite",
				"version()": "infinite",
				"votingDelay()": "2641",
				"votingPeriod()": "2627"
			},
			"internal": {
				"_cancel(address[] memory,uint256[] memory,bytes memory[] memory,bytes32)": "infinite",
				"_executeOperations(uint256,address[] memory,uint256[] memory,bytes memory[] memory,bytes32)": "infinite",
				"_executor()": "2191",
				"_queueOperations(uint256,address[] memory,uint256[] memory,bytes memory[] memory,bytes32)": "infinite"
			}
		},
		"methodIdentifiers": {
			"BALLOT_TYPEHASH()": "deaaa7cc",
			"CLOCK_MODE()": "4bf5d7e9",
			"COUNTING_MODE()": "dd4e2ba5",
			"EXTENDED_BALLOT_TYPEHASH()": "2fe3e261",
			"cancel(address[],uint256[],bytes[],bytes32)": "452115d6",
			"castVote(uint256,uint8)": "56781388",
			"castVoteBySig(uint256,uint8,address,bytes)": "8ff262e3",
			"castVoteWithReason(uint256,uint8,string)": "7b3c71d3",
			"castVoteWithReasonAndParams(uint256,uint8,string,bytes)": "5f398a14",
			"castVoteWithReasonAndParamsBySig(uint256,uint8,address,string,bytes,bytes)": "5b8d0e0d",
			"clock()": "91ddadf4",
			"eip712Domain()": "84b0196e",
			"execute(address[],uint256[],bytes[],bytes32)": "2656227d",
			"getVotes(address,uint256)": "eb9019d4",
			"getVotesWithParams(address,uint256,bytes)": "9a802a6d",
			"hasVoted(uint256,address)": "43859632",
			"hashProposal(address[],uint256[],bytes[],bytes32)": "c59057e4",
			"name()": "06fdde03",
			"nonces(address)": "7ecebe00",
			"onERC1155BatchReceived(address,address,uint256[],uint256[],bytes)": "bc197c81",
			"onERC1155Received(address,address,uint256,uint256,bytes)": "f23a6e61",
			"onERC721Received(address,address,uint256,bytes)": "150b7a02",
			"proposalDeadline(uint256)": "c01f9e37",
			"proposalEta(uint256)": "ab58fb8e",
			"proposalNeedsQueuing(uint256)": "a9a95294",
			"proposalProposer(uint256)": "143489d0",
			"proposalSnapshot(uint256)": "2d63f693",
			"proposalThreshold()": "b58131b0",
			"proposalVotes(uint256)": "544ffc9c",
			"propose(address[],uint256[],bytes[],string)": "7d5e81e2",
			"queue(address[],uint256[],bytes[],bytes32)": "160cbed7",
			"quorum(uint256)": "f8ce560a",
			"quorumDenominator()": "97c3d334",
			"quorumNumerator()": "a7713a70",
			"quorumNumerator(uint256)": "60c4247f",
			"relay(address,uint256,bytes)": "c28bc2fa",
			"setProposalThreshold(uint256)": "ece40cc1",
			"setVotingDelay(uint48)": "79051887",
			"setVotingPeriod(uint32)": "e540d01d",
			"state(uint256)": "3e4f49e6",
			"supportsInterface(bytes4)": "01ffc9a7",
			"timelock()": "d33219b4",
			"token()": "fc0c546a",
			"updateQuorumNumerator(uint256)": "06f3f9e6",
			"updateTimelock(address)": "a890c910",
			"version()": "54fd4d50",
			"votingDelay()": "3932abb1",
			"votingPeriod()": "02a251a3"
		}
	},
	"abi": [
		{
			"inputs": [
				{
					"internalType": "contract IVotes",
					"name": "_token",
					"type": "address"
				},
				{
					"internalType": "contract TimelockController",
					"name": "_timelock",
					"type": "address"
				}
			],
			"stateMutability": "nonpayable",
			"type": "constructor"
		},
		{
			"inputs": [],
			"name": "CheckpointUnorderedInsertion",
			"type": "error"
		},
		{
			"inputs": [],
			"name": "FailedInnerCall",
			"type": "error"
		},
		{
			"inputs": [
				{
					"internalType": "address",
					"name": "voter",
					"type": "address"
				}
			],
			"name": "GovernorAlreadyCastVote",
			"type": "error"
		},
		{
			"inputs": [
				{
					"internalType": "uint256",
					"name": "proposalId",
					"type": "uint256"
				}
			],
			"name": "GovernorAlreadyQueuedProposal",
			"type": "error"
		},
		{
			"inputs": [],
			"name": "GovernorDisabledDeposit",
			"type": "error"
		},
		{
			"inputs": [
				{
					"internalType": "address",
					"name": "proposer",
					"type": "address"
				},
				{
					"internalType": "uint256",
					"name": "votes",
					"type": "uint256"
				},
				{
					"internalType": "uint256",
					"name": "threshold",
					"type": "uint256"
				}
			],
			"name": "GovernorInsufficientProposerVotes",
			"type": "error"
		},
		{
			"inputs": [
				{
					"internalType": "uint256",
					"name": "targets",
					"type": "uint256"
				},
				{
					"internalType": "uint256",
					"name": "calldatas",
					"type": "uint256"
				},
				{
					"internalType": "uint256",
					"name": "values",
					"type": "uint256"
				}
			],
			"name": "GovernorInvalidProposalLength",
			"type": "error"
		},
		{
			"inputs": [
				{
					"internalType": "uint256",
					"name": "quorumNumerator",
					"type": "uint256"
				},
				{
					"internalType": "uint256",
					"name": "quorumDenominator",
					"type": "uint256"
				}
			],
			"name": "GovernorInvalidQuorumFraction",
			"type": "error"
		},
		{
			"inputs": [
				{
					"internalType": "address",
					"name": "voter",
					"type": "address"
				}
			],
			"name": "GovernorInvalidSignature",
			"type": "error"
		},
		{
			"inputs": [],
			"name": "GovernorInvalidVoteType",
			"type": "error"
		},
		{
			"inputs": [
				{
					"internalType": "uint256",
					"name": "votingPeriod",
					"type": "uint256"
				}
			],
			"name": "GovernorInvalidVotingPeriod",
			"type": "error"
		},
		{
			"inputs": [
				{
					"internalType": "uint256",
					"name": "proposalId",
					"type": "uint256"
				}
			],
			"name": "GovernorNonexistentProposal",
			"type": "error"
		},
		{
			"inputs": [
				{
					"internalType": "uint256",
					"name": "proposalId",
					"type": "uint256"
				}
			],
			"name": "GovernorNotQueuedProposal",
			"type": "error"
		},
		{
			"inputs": [
				{
					"internalType": "address",
					"name": "account",
					"type": "address"
				}
			],
			"name": "GovernorOnlyExecutor",
			"type": "error"
		},
		{
			"inputs": [
				{
					"internalType": "address",
					"name": "account",
					"type": "address"
				}
			],
			"name": "GovernorOnlyProposer",
			"type": "error"
		},
		{
			"inputs": [],
			"name": "GovernorQueueNotImplemented",
			"type": "error"
		},
		{
			"inputs": [
				{
					"internalType": "address",
					"name": "proposer",
					"type": "address"
				}
			],
			"name": "GovernorRestrictedProposer",
			"type": "error"
		},
		{
			"inputs": [
				{
					"internalType": "uint256",
					"name": "proposalId",
					"type": "uint256"
				},
				{
					"internalType": "enum IGovernor.ProposalState",
					"name": "current",
					"type": "uint8"
				},
				{
					"internalType": "bytes32",
					"name": "expectedStates",
					"type": "bytes32"
				}
			],
			"name": "GovernorUnexpectedProposalState",
			"type": "error"
		},
		{
			"inputs": [
				{
					"internalType": "address",
					"name": "account",
					"type": "address"
				},
				{
					"internalType": "uint256",
					"name": "currentNonce",
					"type": "uint256"
				}
			],
			"name": "InvalidAccountNonce",
			"type": "error"
		},
		{
			"inputs": [],
			"name": "InvalidShortString",
			"type": "error"
		},
		{
			"inputs": [],
			"name": "QueueEmpty",
			"type": "error"
		},
		{
			"inputs": [],
			"name": "QueueFull",
			"type": "error"
		},
		{
			"inputs": [
				{
					"internalType": "uint8",
					"name": "bits",
					"type": "uint8"
				},
				{
					"internalType": "uint256",
					"name": "value",
					"type": "uint256"
				}
			],
			"name": "SafeCastOverflowedUintDowncast",
			"type": "error"
		},
		{
			"inputs": [
				{
					"internalType": "string",
					"name": "str",
					"type": "string"
				}
			],
			"name": "StringTooLong",
			"type": "error"
		},
		{
			"anonymous": false,
			"inputs": [],
			"name": "EIP712DomainChanged",
			"type": "event"
		},
		{
			"anonymous": false,
			"inputs": [
				{
					"indexed": false,
					"internalType": "uint256",
					"name": "proposalId",
					"type": "uint256"
				}
			],
			"name": "ProposalCanceled",
			"type": "event"
		},
		{
			"anonymous": false,
			"inputs": [
				{
					"indexed": false,
					"internalType": "uint256",
					"name": "proposalId",
					"type": "uint256"
				},
				{
					"indexed": false,
					"internalType": "address",
					"name": "proposer",
					"type": "address"
				},
				{
					"indexed": false,
					"internalType": "address[]",
					"name": "targets",
					"type": "address[]"
				},
				{
					"indexed": false,
					"internalType": "uint256[]",
					"name": "values",
					"type": "uint256[]"
				},
				{
					"indexed": false,
					"internalType": "string[]",
					"name": "signatures",
					"type": "string[]"
				},
				{
					"indexed": false,
					"internalType": "bytes[]",
					"name": "calldatas",
					"type": "bytes[]"
				},
				{
					"indexed": false,
					"internalType": "uint256",
					"name": "voteStart",
					"type": "uint256"
				},
				{
					"indexed": false,
					"internalType": "uint256",
					"name": "voteEnd",
					"type": "uint256"
				},
				{
					"indexed": false,
					"internalType": "string",
					"name": "description",
					"type": "string"
				}
			],
			"name": "ProposalCreated",
			"type": "event"
		},
		{
			"anonymous": false,
			"inputs": [
				{
					"indexed": false,
					"internalType": "uint256",
					"name": "proposalId",
					"type": "uint256"
				}
			],
			"name": "ProposalExecuted",
			"type": "event"
		},
		{
			"anonymous": false,
			"inputs": [
				{
					"indexed": false,
					"internalType": "uint256",
					"name": "proposalId",
					"type": "uint256"
				},
				{
					"indexed": false,
					"internalType": "uint256",
					"name": "etaSeconds",
					"type": "uint256"
				}
			],
			"name": "ProposalQueued",
			"type": "event"
		},
		{
			"anonymous": false,
			"inputs": [
				{
					"indexed": false,
					"internalType": "uint256",
					"name": "oldProposalThreshold",
					"type": "uint256"
				},
				{
					"indexed": false,
					"internalType": "uint256",
					"name": "newProposalThreshold",
					"type": "uint256"
				}
			],
			"name": "ProposalThresholdSet",
			"type": "event"
		},
		{
			"anonymous": false,
			"inputs": [
				{
					"indexed": false,
					"internalType": "uint256",
					"name": "oldQuorumNumerator",
					"type": "uint256"
				},
				{
					"indexed": false,
					"internalType": "uint256",
					"name": "newQuorumNumerator",
					"type": "uint256"
				}
			],
			"name": "QuorumNumeratorUpdated",
			"type": "event"
		},
		{
			"anonymous": false,
			"inputs": [
				{
					"indexed": false,
					"internalType": "address",
					"name": "oldTimelock",
					"type": "address"
				},
				{
					"indexed": false,
					"internalType": "address",
					"name": "newTimelock",
					"type": "address"
				}
			],
			"name": "TimelockChange",
			"type": "event"
		},
		{
			"anonymous": false,
			"inputs": [
				{
					"indexed": true,
					"internalType": "address",
					"name": "voter",
					"type": "address"
				},
				{
					"indexed": false,
					"internalType": "uint256",
					"name": "proposalId",
					"type": "uint256"
				},
				{
					"indexed": false,
					"internalType": "uint8",
					"name": "support",
					"type": "uint8"
				},
				{
					"indexed": false,
					"internalType": "uint256",
					"name": "weight",
					"type": "uint256"
				},
				{
					"indexed": false,
					"internalType": "string",
					"name": "reason",
					"type": "string"
				}
			],
			"name": "VoteCast",
			"type": "event"
		},
		{
			"anonymous": false,
			"inputs": [
				{
					"indexed": true,
					"internalType": "address",
					"name": "voter",
					"type": "address"
				},
				{
					"indexed": false,
					"internalType": "uint256",
					"name": "proposalId",
					"type": "uint256"
				},
				{
					"indexed": false,
					"internalType": "uint8",
					"name": "support",
					"type": "uint8"
				},
				{
					"indexed": false,
					"internalType": "uint256",
					"name": "weight",
					"type": "uint256"
				},
				{
					"indexed": false,
					"internalType": "string",
					"name": "reason",
					"type": "string"
				},
				{
					"indexed": false,
					"internalType": "bytes",
					"name": "params",
					"type": "bytes"
				}
			],
			"name": "VoteCastWithParams",
			"type": "event"
		},
		{
			"anonymous": false,
			"inputs": [
				{
					"indexed": false,
					"internalType": "uint256",
					"name": "oldVotingDelay",
					"type": "uint256"
				},
				{
					"indexed": false,
					"internalType": "uint256",
					"name": "newVotingDelay",
					"type": "uint256"
				}
			],
			"name": "VotingDelaySet",
			"type": "event"
		},
		{
			"anonymous": false,
			"inputs": [
				{
					"indexed": false,
					"internalType": "uint256",
					"name": "oldVotingPeriod",
					"type": "uint256"
				},
				{
					"indexed": false,
					"internalType": "uint256",
					"name": "newVotingPeriod",
					"type": "uint256"
				}
			],
			"name": "VotingPeriodSet",
			"type": "event"
		},
		{
			"inputs": [],
			"name": "BALLOT_TYPEHASH",
			"outputs": [
				{
					"internalType": "bytes32",
					"name": "",
					"type": "bytes32"
				}
			],
			"stateMutability": "view",
			"type": "function"
		},
		{
			"inputs": [],
			"name": "CLOCK_MODE",
			"outputs": [
				{
					"internalType": "string",
					"name": "",
					"type": "string"
				}
			],
			"stateMutability": "view",
			"type": "function"
		},
		{
			"inputs": [],
			"name": "COUNTING_MODE",
			"outputs": [
				{
					"internalType": "string",
					"name": "",
					"type": "string"
				}
			],
			"stateMutability": "pure",
			"type": "function"
		},
		{
			"inputs": [],
			"name": "EXTENDED_BALLOT_TYPEHASH",
			"outputs": [
				{
					"internalType": "bytes32",
					"name": "",
					"type": "bytes32"
				}
			],
			"stateMutability": "view",
			"type": "function"
		},
		{
			"inputs": [
				{
					"internalType": "address[]",
					"name": "targets",
					"type": "address[]"
				},
				{
					"internalType": "uint256[]",
					"name": "values",
					"type": "uint256[]"
				},
				{
					"internalType": "bytes[]",
					"name": "calldatas",
					"type": "bytes[]"
				},
				{
					"internalType": "bytes32",
					"name": "descriptionHash",
					"type": "bytes32"
				}
			],
			"name": "cancel",
			"outputs": [
				{
					"internalType": "uint256",
					"name": "",
					"type": "uint256"
				}
			],
			"stateMutability": "nonpayable",
			"type": "function"
		},
		{
			"inputs": [
				{
					"internalType": "uint256",
					"name": "proposalId",
					"type": "uint256"
				},
				{
					"internalType": "uint8",
					"name": "support",
					"type": "uint8"
				}
			],
			"name": "castVote",
			"outputs": [
				{
					"internalType": "uint256",
					"name": "",
					"type": "uint256"
				}
			],
			"stateMutability": "nonpayable",
			"type": "function"
		},
		{
			"inputs": [
				{
					"internalType": "uint256",
					"name": "proposalId",
					"type": "uint256"
				},
				{
					"internalType": "uint8",
					"name": "support",
					"type": "uint8"
				},
				{
					"internalType": "address",
					"name": "voter",
					"type": "address"
				},
				{
					"internalType": "bytes",
					"name": "signature",
					"type": "bytes"
				}
			],
			"name": "castVoteBySig",
			"outputs": [
				{
					"internalType": "uint256",
					"name": "",
					"type": "uint256"
				}
			],
			"stateMutability": "nonpayable",
			"type": "function"
		},
		{
			"inputs": [
				{
					"internalType": "uint256",
					"name": "proposalId",
					"type": "uint256"
				},
				{
					"internalType": "uint8",
					"name": "support",
					"type": "uint8"
				},
				{
					"internalType": "string",
					"name": "reason",
					"type": "string"
				}
			],
			"name": "castVoteWithReason",
			"outputs": [
				{
					"internalType": "uint256",
					"name": "",
					"type": "uint256"
				}
			],
			"stateMutability": "nonpayable",
			"type": "function"
		},
		{
			"inputs": [
				{
					"internalType": "uint256",
					"name": "proposalId",
					"type": "uint256"
				},
				{
					"internalType": "uint8",
					"name": "support",
					"type": "uint8"
				},
				{
					"internalType": "string",
					"name": "reason",
					"type": "string"
				},
				{
					"internalType": "bytes",
					"name": "params",
					"type": "bytes"
				}
			],
			"name": "castVoteWithReasonAndParams",
			"outputs": [
				{
					"internalType": "uint256",
					"name": "",
					"type": "uint256"
				}
			],
			"stateMutability": "nonpayable",
			"type": "function"
		},
		{
			"inputs": [
				{
					"internalType": "uint256",
					"name": "proposalId",
					"type": "uint256"
				},
				{
					"internalType": "uint8",
					"name": "support",
					"type": "uint8"
				},
				{
					"internalType": "address",
					"name": "voter",
					"type": "address"
				},
				{
					"internalType": "string",
					"name": "reason",
					"type": "string"
				},
				{
					"internalType": "bytes",
					"name": "params",
					"type": "bytes"
				},
				{
					"internalType": "bytes",
					"name": "signature",
					"type": "bytes"
				}
			],
			"name": "castVoteWithReasonAndParamsBySig",
			"outputs": [
				{
					"internalType": "uint256",
					"name": "",
					"type": "uint256"
				}
			],
			"stateMutability": "nonpayable",
			"type": "function"
		},
		{
			"inputs": [],
			"name": "clock",
			"outputs": [
				{
					"internalType": "uint48",
					"name": "",
					"type": "uint48"
				}
			],
			"stateMutability": "view",
			"type": "function"
		},
		{
			"inputs": [],
			"name": "eip712Domain",
			"outputs": [
				{
					"internalType": "bytes1",
					"name": "fields",
					"type": "bytes1"
				},
				{
					"internalType": "string",
					"name": "name",
					"type": "string"
				},
				{
					"internalType": "string",
					"name": "version",
					"type": "string"
				},
				{
					"internalType": "uint256",
					"name": "chainId",
					"type": "uint256"
				},
				{
					"internalType": "address",
					"name": "verifyingContract",
					"type": "address"
				},
				{
					"internalType": "bytes32",
					"name": "salt",
					"type": "bytes32"
				},
				{
					"internalType": "uint256[]",
					"name": "extensions",
					"type": "uint256[]"
				}
			],
			"stateMutability": "view",
			"type": "function"
		},
		{
			"inputs": [
				{
					"internalType": "address[]",
					"name": "targets",
					"type": "address[]"
				},
				{
					"internalType": "uint256[]",
					"name": "values",
					"type": "uint256[]"
				},
				{
					"internalType": "bytes[]",
					"name": "calldatas",
					"type": "bytes[]"
				},
				{
					"internalType": "bytes32",
					"name": "descriptionHash",
					"type": "bytes32"
				}
			],
			"name": "execute",
			"outputs": [
				{
					"internalType": "uint256",
					"name": "",
					"type": "uint256"
				}
			],
			"stateMutability": "payable",
			"type": "function"
		},
		{
			"inputs": [
				{
					"internalType": "address",
					"name": "account",
					"type": "address"
				},
				{
					"internalType": "uint256",
					"name": "timepoint",
					"type": "uint256"
				}
			],
			"name": "getVotes",
			"outputs": [
				{
					"internalType": "uint256",
					"name": "",
					"type": "uint256"
				}
			],
			"stateMutability": "view",
			"type": "function"
		},
		{
			"inputs": [
				{
					"internalType": "address",
					"name": "account",
					"type": "address"
				},
				{
					"internalType": "uint256",
					"name": "timepoint",
					"type": "uint256"
				},
				{
					"internalType": "bytes",
					"name": "params",
					"type": "bytes"
				}
			],
			"name": "getVotesWithParams",
			"outputs": [
				{
					"internalType": "uint256",
					"name": "",
					"type": "uint256"
				}
			],
			"stateMutability": "view",
			"type": "function"
		},
		{
			"inputs": [
				{
					"internalType": "uint256",
					"name": "proposalId",
					"type": "uint256"
				},
				{
					"internalType": "address",
					"name": "account",
					"type": "address"
				}
			],
			"name": "hasVoted",
			"outputs": [
				{
					"internalType": "bool",
					"name": "",
					"type": "bool"
				}
			],
			"stateMutability": "view",
			"type": "function"
		},
		{
			"inputs": [
				{
					"internalType": "address[]",
					"name": "targets",
					"type": "address[]"
				},
				{
					"internalType": "uint256[]",
					"name": "values",
					"type": "uint256[]"
				},
				{
					"internalType": "bytes[]",
					"name": "calldatas",
					"type": "bytes[]"
				},
				{
					"internalType": "bytes32",
					"name": "descriptionHash",
					"type": "bytes32"
				}
			],
			"name": "hashProposal",
			"outputs": [
				{
					"internalType": "uint256",
					"name": "",
					"type": "uint256"
				}
			],
			"stateMutability": "pure",
			"type": "function"
		},
		{
			"inputs": [],
			"name": "name",
			"outputs": [
				{
					"internalType": "string",
					"name": "",
					"type": "string"
				}
			],
			"stateMutability": "view",
			"type": "function"
		},
		{
			"inputs": [
				{
					"internalType": "address",
					"name": "owner",
					"type": "address"
				}
			],
			"name": "nonces",
			"outputs": [
				{
					"internalType": "uint256",
					"name": "",
					"type": "uint256"
				}
			],
			"stateMutability": "view",
			"type": "function"
		},
		{
			"inputs": [
				{
					"internalType": "address",
					"name": "",
					"type": "address"
				},
				{
					"internalType": "address",
					"name": "",
					"type": "address"
				},
				{
					"internalType": "uint256[]",
					"name": "",
					"type": "uint256[]"
				},
				{
					"internalType": "uint256[]",
					"name": "",
					"type": "uint256[]"
				},
				{
					"internalType": "bytes",
					"name": "",
					"type": "bytes"
				}
			],
			"name": "onERC1155BatchReceived",
			"outputs": [
				{
					"internalType": "bytes4",
					"name": "",
					"type": "bytes4"
				}
			],
			"stateMutability": "nonpayable",
			"type": "function"
		},
		{
			"inputs": [
				{
					"internalType": "address",
					"name": "",
					"type": "address"
				},
				{
					"internalType": "address",
					"name": "",
					"type": "address"
				},
				{
					"internalType": "uint256",
					"name": "",
					"type": "uint256"
				},
				{
					"internalType": "uint256",
					"name": "",
					"type": "uint256"
				},
				{
					"internalType": "bytes",
					"name": "",
					"type": "bytes"
				}
			],
			"name": "onERC1155Received",
			"outputs": [
				{
					"internalType": "bytes4",
					"name": "",
					"type": "bytes4"
				}
			],
			"stateMutability": "nonpayable",
			"type": "function"
		},
		{
			"inputs": [
				{
					"internalType": "address",
					"name": "",
					"type": "address"
				},
				{
					"internalType": "address",
					"name": "",
					"type": "address"
				},
				{
					"internalType": "uint256",
					"name": "",
					"type": "uint256"
				},
				{
					"internalType": "bytes",
					"name": "",
					"type": "bytes"
				}
			],
			"name": "onERC721Received",
			"outputs": [
				{
					"internalType": "bytes4",
					"name": "",
					"type": "bytes4"
				}
			],
			"stateMutability": "nonpayable",
			"type": "function"
		},
		{
			"inputs": [
				{
					"internalType": "uint256",
					"name": "proposalId",
					"type": "uint256"
				}
			],
			"name": "proposalDeadline",
			"outputs": [
				{
					"internalType": "uint256",
					"name": "",
					"type": "uint256"
				}
			],
			"stateMutability": "view",
			"type": "function"
		},
		{
			"inputs": [
				{
					"internalType": "uint256",
					"name": "proposalId",
					"type": "uint256"
				}
			],
			"name": "proposalEta",
			"outputs": [
				{
					"internalType": "uint256",
					"name": "",
					"type": "uint256"
				}
			],
			"stateMutability": "view",
			"type": "function"
		},
		{
			"inputs": [
				{
					"internalType": "uint256",
					"name": "proposalId",
					"type": "uint256"
				}
			],
			"name": "proposalNeedsQueuing",
			"outputs": [
				{
					"internalType": "bool",
					"name": "",
					"type": "bool"
				}
			],
			"stateMutability": "view",
			"type": "function"
		},
		{
			"inputs": [
				{
					"internalType": "uint256",
					"name": "proposalId",
					"type": "uint256"
				}
			],
			"name": "proposalProposer",
			"outputs": [
				{
					"internalType": "address",
					"name": "",
					"type": "address"
				}
			],
			"stateMutability": "view",
			"type": "function"
		},
		{
			"inputs": [
				{
					"internalType": "uint256",
					"name": "proposalId",
					"type": "uint256"
				}
			],
			"name": "proposalSnapshot",
			"outputs": [
				{
					"internalType": "uint256",
					"name": "",
					"type": "uint256"
				}
			],
			"stateMutability": "view",
			"type": "function"
		},
		{
			"inputs": [],
			"name": "proposalThreshold",
			"outputs": [
				{
					"internalType": "uint256",
					"name": "",
					"type": "uint256"
				}
			],
			"stateMutability": "view",
			"type": "function"
		},
		{
			"inputs": [
				{
					"internalType": "uint256",
					"name": "proposalId",
					"type": "uint256"
				}
			],
			"name": "proposalVotes",
			"outputs": [
				{
					"internalType": "uint256",
					"name": "againstVotes",
					"type": "uint256"
				},
				{
					"internalType": "uint256",
					"name": "forVotes",
					"type": "uint256"
				},
				{
					"internalType": "uint256",
					"name": "abstainVotes",
					"type": "uint256"
				}
			],
			"stateMutability": "view",
			"type": "function"
		},
		{
			"inputs": [
				{
					"internalType": "address[]",
					"name": "targets",
					"type": "address[]"
				},
				{
					"internalType": "uint256[]",
					"name": "values",
					"type": "uint256[]"
				},
				{
					"internalType": "bytes[]",
					"name": "calldatas",
					"type": "bytes[]"
				},
				{
					"internalType": "string",
					"name": "description",
					"type": "string"
				}
			],
			"name": "propose",
			"outputs": [
				{
					"internalType": "uint256",
					"name": "",
					"type": "uint256"
				}
			],
			"stateMutability": "nonpayable",
			"type": "function"
		},
		{
			"inputs": [
				{
					"internalType": "address[]",
					"name": "targets",
					"type": "address[]"
				},
				{
					"internalType": "uint256[]",
					"name": "values",
					"type": "uint256[]"
				},
				{
					"internalType": "bytes[]",
					"name": "calldatas",
					"type": "bytes[]"
				},
				{
					"internalType": "bytes32",
					"name": "descriptionHash",
					"type": "bytes32"
				}
			],
			"name": "queue",
			"outputs": [
				{
					"internalType": "uint256",
					"name": "",
					"type": "uint256"
				}
			],
			"stateMutability": "nonpayable",
			"type": "function"
		},
		{
			"inputs": [
				{
					"internalType": "uint256",
					"name": "blockNumber",
					"type": "uint256"
				}
			],
			"name": "quorum",
			"outputs": [
				{
					"internalType": "uint256",
					"name": "",
					"type": "uint256"
				}
			],
			"stateMutability": "view",
			"type": "function"
		},
		{
			"inputs": [],
			"name": "quorumDenominator",
			"outputs": [
				{
					"internalType": "uint256",
					"name": "",
					"type": "uint256"
				}
			],
			"stateMutability": "view",
			"type": "function"
		},
		{
			"inputs": [
				{
					"internalType": "uint256",
					"name": "timepoint",
					"type": "uint256"
				}
			],
			"name": "quorumNumerator",
			"outputs": [
				{
					"internalType": "uint256",
					"name": "",
					"type": "uint256"
				}
			],
			"stateMutability": "view",
			"type": "function"
		},
		{
			"inputs": [],
			"name": "quorumNumerator",
			"outputs": [
				{
					"internalType": "uint256",
					"name": "",
					"type": "uint256"
				}
			],
			"stateMutability": "view",
			"type": "function"
		},
		{
			"inputs": [
				{
					"internalType": "address",
					"name": "target",
					"type": "address"
				},
				{
					"internalType": "uint256",
					"name": "value",
					"type": "uint256"
				},
				{
					"internalType": "bytes",
					"name": "data",
					"type": "bytes"
				}
			],
			"name": "relay",
			"outputs": [],
			"stateMutability": "payable",
			"type": "function"
		},
		{
			"inputs": [
				{
					"internalType": "uint256",
					"name": "newProposalThreshold",
					"type": "uint256"
				}
			],
			"name": "setProposalThreshold",
			"outputs": [],
			"stateMutability": "nonpayable",
			"type": "function"
		},
		{
			"inputs": [
				{
					"internalType": "uint48",
					"name": "newVotingDelay",
					"type": "uint48"
				}
			],
			"name": "setVotingDelay",
			"outputs": [],
			"stateMutability": "nonpayable",
			"type": "function"
		},
		{
			"inputs": [
				{
					"internalType": "uint32",
					"name": "newVotingPeriod",
					"type": "uint32"
				}
			],
			"name": "setVotingPeriod",
			"outputs": [],
			"stateMutability": "nonpayable",
			"type": "function"
		},
		{
			"inputs": [
				{
					"internalType": "uint256",
					"name": "proposalId",
					"type": "uint256"
				}
			],
			"name": "state",
			"outputs": [
				{
					"internalType": "enum IGovernor.ProposalState",
					"name": "",
					"type": "uint8"
				}
			],
			"stateMutability": "view",
			"type": "function"
		},
		{
			"inputs": [
				{
					"internalType": "bytes4",
					"name": "interfaceId",
					"type": "bytes4"
				}
			],
			"name": "supportsInterface",
			"outputs": [
				{
					"internalType": "bool",
					"name": "",
					"type": "bool"
				}
			],
			"stateMutability": "view",
			"type": "function"
		},
		{
			"inputs": [],
			"name": "timelock",
			"outputs": [
				{
					"internalType": "address",
					"name": "",
					"type": "address"
				}
			],
			"stateMutability": "view",
			"type": "function"
		},
		{
			"inputs": [],
			"name": "token",
			"outputs": [
				{
					"internalType": "contract IERC5805",
					"name": "",
					"type": "address"
				}
			],
			"stateMutability": "view",
			"type": "function"
		},
		{
			"inputs": [
				{
					"internalType": "uint256",
					"name": "newQuorumNumerator",
					"type": "uint256"
				}
			],
			"name": "updateQuorumNumerator",
			"outputs": [],
			"stateMutability": "nonpayable",
			"type": "function"
		},
		{
			"inputs": [
				{
					"internalType": "contract TimelockController",
					"name": "newTimelock",
					"type": "address"
				}
			],
			"name": "updateTimelock",
			"outputs": [],
			"stateMutability": "nonpayable",
			"type": "function"
		},
		{
			"inputs": [],
			"name": "version",
			"outputs": [
				{
					"internalType": "string",
					"name": "",
					"type": "string"
				}
			],
			"stateMutability": "view",
			"type": "function"
		},
		{
			"inputs": [],
			"name": "votingDelay",
			"outputs": [
				{
					"internalType": "uint256",
					"name": "",
					"type": "uint256"
				}
			],
			"stateMutability": "view",
			"type": "function"
		},
		{
			"inputs": [],
			"name": "votingPeriod",
			"outputs": [
				{
					"internalType": "uint256",
					"name": "",
					"type": "uint256"
				}
			],
			"stateMutability": "view",
			"type": "function"
		},
		{
			"stateMutability": "payable",
			"type": "receive"
		}
	]
}